:020000040000fa
:10000000f0ff032075c10100a76b0200ab6b02007b
:10001000b36b0200b76b0200bb6b02000000000074
:10002000000000000000000000000000c56b02009e
:10003000af6b020000000000c56b0200c56b020040
:10004000c56b0200c56b0200c56b0200c56b0200e8
:10005000c56b0200c56b0200c56b0200c56b0200d8
:10006000c56b0200c56b0200c56b0200c56b0200c8
:10007000c56b0200c56b0200c56b0200c56b0200b8
:10008000c56b0200c56b0200c56b0200c56b0200a8
:10009000c56b0200c56b0200c56b0200c56b020098
:1000a000c56b0200c56b0200c56b0200c56b020088
:1000b000c56b0200c56b0200c56b0200ff69020040
:1000c000096a0200c56b0200c56b0200c56b020025
:1000d000c56b0200c56b0200c56b0200c56b020058
:1000e000c56b0200c56b02000000000000000000ac
:1000f00000000000c56b02003d2101003d21010010
:100100003d2101003d210100f9fe0100f9fe010041
:10011000f9fe0100f9fe0100c56b0200c56b02008b
:10012000c56b0200c56b0200c56b0200c56b020007
:10013000c56b0200c56b0200c56b0200c56b0200f7
:10014000c56b0200c56b0200c56b0200c56b0200e7
:10015000c56b0200c56b0200c56b0200c56b0200d7
:10016000c56b0200c56b0200c56b0200c56b0200c7
:10017000c56b0200c56b0200c56b0200c56b0200b7
:10018000c56b0200c56b0200c56b0200c56b0200a7
:100190007d3d0200c56b0200c56b0200c56b02000d
:1001a000c56b0200c56b0200c56b0200c56b020087
:1001b000c56b0200c56b0200c56b0200c56b020077
:1001c000c56b0200c56b0200c56b0200c56b020067
:1001d000c56b0200c56b0200c56b0200c56b020057
:1001e000c56b0200c56b0200c56b0200dd3e02005c
:1001f000c56b0200c56b0200c56b0200c56b020037
:10020000c56b0200c56b0200c56b0200c56b020026
:10021000c56b0200c56b0200c56b0200c56b020016
:10022000c56b0200c56b0200c56b0200c56b020006
:10023000c56b0200c56b0200c56b0200c56b0200f6
:10024000c56b0200c56b0200c56b0200c56b0200e6
:10025000c56b0200c56b0200c56b0200c56b0200d6
:04026000c56b020068
:020000040000fa
:10026400f8b500bff8bc08bc9e467047e11c02000c
:10027400f8b500bff8bc08bc9e467047bd1c020020
:020000040000fa
:080284003cc400000100000071
:020000040000fa
:10028c002de9f04f8db00f210a2024f0b3f8029025
:10029c0010f0010f40f05d85029b13f0020f40f04f
:1002ac007c850db0bde8f08fd9f8187007f11002fd
:1002bc00059213f4007f21d1fb6809933b690a93e3
:1002cc0000228df82c2006238df82d30330a43eaba
:1002dc000623adf82e300c2109a81ef07df8c04382
:1002ec0083b2d9f8202012f0040f30d032464146a8
:1002fc0048461cf04bfd002840f09a8640461ef004
:10030c0093fb98f80ca04fea1a1a4fea8a0304934d
:10031c00d9f81ca0baf80220002a00f08c86fd89be
:10032c00bb891d44baf800301d445540adb2c74bd3
:10033c00d3f800c0bcf1000f00f08086d9f828e09b
:10034c00c34b1b68039300239b4610460ee01a46d2
:10035c00314640461ef040f8cde7b4f87220824298
:10036c002fd001331bb21c469c452fd9039a52f84f
:10037c002440002cf5d094f876200b2af1d094f878
:10038c0077100129edd8a16c09b18e45e9d1002a6d
:10039c00e3d0b4f87220aa42e3d1daf80010226e4e
:1003ac009142ded1216cfa689142dad1012184f8b4
:1003bc007710c4f848e0059a204622f0a0fda34629
:1003cc0022e0bbf1000f08bfa346cae7bbf1000f48
:1003dc0000f08380fb68cbf8403001218bf877105c
:1003ec00cbf848e0059a584622f089fdabf87250dc
:1003fc00baf80030abf86030baf80230abf86230c3
:10040c00dbf80030cbf81030d9f810209389049920
:10041c005b1a938198f80d40d8f80870d8f80450fe
:10042c009bf83f3013f0400f5bd19bf875306ff3a6
:10043c0000038bf875309bf87630002b69d0012bbc
:10044c0000f09e801436049aa6eb020a1ffa8afa70
:10045c00aaf1140292b2059214f0010206921abf8c
:10046c00aaf1130a1ffa8af2059a039214f0020fea
:10047c0003d0039a013292b20392dbf81c60dbf8d2
:10048c0020209642c0f0aa80dbf81810dbf814008c
:10049c00091aa6eb020aa1eb0a0a1ffa8af20492c5
:1004ac00dbf85820a5eb020a039a002a00f0a98079
:1004bc00049a002a00f0a080baf1000fc0f29680d6
:1004cc009245c0f0a780039a04998a1a8a45c0f213
:1004dc00a180924540f39e808ee06ff00e0100f0fb
:1004ec0034bc00238bf879309bf83e3013f0020fac
:1004fc009bd124f00bf8bbf87020564b1b6803fb08
:10050c0002f3554aa2fb032300eb9310cbf8240013
:10051c008be714f0040f1ad114f0100f1dd114f046
:10052c00020f27d00135cbf85850404618f0fcfb91
:10053c00abf86a00584621f018fe012212215846e9
:10054c0004f006ff02238bf876300026e6e3002148
:10055c00584612f083fa0026e0e3cbf854700022e0
:10056c000421584604f0f4fe0021584612f076faa5
:10057c000026d3e30021584612f070fa0026cde392
:10058c0014f0040f40f0c98314f0100f00f0a08594
:10059c00dbf85460b74205d114f0020f40f05585da
:1005ac000026bbe3cbf8547001220421584604f01a
:1005bc00cffecbf854600026b0e323f0a7ffbbf8c6
:1005cc007020244b1b6803fb02f3234aa2fb03237a
:1005dc0000eb9313cbf8243000f056bda2eb060ac7
:1005ec000af1ff3a1ffa8af2049259e703990a4674
:1005fc00514400293ff768af14f0040f1fd00026b8
:10060c008ce3baf1000f05d0baf1000ff4db049ab9
:10061c009245f1da14f0060f20d114f0100f00f00f
:10062c009083023b072b00f2cc81dfe813f029000a
:10063c003e003e003e003e00ca013e00bd010122cc
:10064c001021584604f084fe002667e3a8670020ba
:10065c00a4670020ac670020d34d621014f0040f87
:10066c0008d09bf83f3043f002038bf83f304ff437
:10067c00006600e000260021584612f0eff94de329
:10068c00dbf85460b74205d103238bf876304ff476
:10069c0080760be0cbf8547001220421584604f00c
:1006ac0057fecbf85460002638e30026dbf8101018
:1006bc00dbf808305a1a13d4dbf854003b1a9b1a97
:1006cc00002b1dddbbf8742002f40172042a01d149
:1006dc00012b0cd000221021584604f039fe1de3ea
:1006ec00dbf80430dbf800001b1a1a44e4e7013095
:1006fc00cbf854009bf8753043f002038bf875303f
:10070c00dbf85430dbf80c20881a914249d2dbf824
:10071c000420dbf80010521afb1a0344d318079379
:10072c00002b07dddbf80430dbf800209b1a079a5e
:10073c009a4246d9dbf83830002b40f0a280dbf827
:10074c000c20dbf808309a4200f0d980b8f80e3053
:10075c00bbf86e209a4238bfabf86e30dbf85420f1
:10076c00b8f80e303b449b1a9bb2bbf8641031b9fd
:10077c002bb19bf83e1041f040018bf83e10abf8ca
:10078c0064309bf87630042b00f0f080062b40f0a0
:10079c001981974240f0c2820021584612f05ef94e
:1007ac00bce2fb1a03440793002b07dddbf8043093
:1007bc00dbf800001b1a0798984202d99142bed070
:1007cc00b8e740f2dc53cbf8343023f09ffedbf873
:1007dc003420c44b1b6803fb02f3c34aa2fb032364
:1007ec0000eb9313cbf838309bf83e306ff3451386
:1007fc008bf83e30dbf80c10079b0b44cbf80c301d
:10080c00dbf8102091420ed893421cd99a1adbf8cf
:10081c0054100a44cbf85420cbf81030dbf80420e9
:10082c00934224d313e0dbf80410dbf80000091a20
:10083c000a44934207d99a1adbf854100a44cbf8ad
:10084c005420cbf81030dbf80420934205d3dbf8ae
:10085c000010511a5b1acbf80c30dbf810309342b5
:10086c0005d3dbf80010521a9a1acbf810209bf81b
:10087c007630032b02d0082b7ff461af46f00406d0
:10088c005de723f043fedbf83830c31a002bfff68c
:10089c0056afdbf834305b00b3f57a4f28bf4ff41a
:1008ac007a43cbf8343023f031fedbf834208d4b17
:1008bc001b6803fb02f38c4aa2fb032300eb93138c
:1008cc00cbf83830dbf81010dbf80c20881adbf88a
:1008dc0054301b1acbf85430914207d2dbf8041079
:1008ec00dbf80000091a5b1acbf85430cbf8102057
:1008fc009bf83e3043f080038bf83e301fe79bf8ab
:10090c003f3013f0010f19d113f0400f06d19bf8b3
:10091c003e306ff341038bf83e3017e723f0f6fdc2
:10092c00bbf870206f4b1b6803fb02f34ff47a7219
:10093c00b3fbf2f30344cbf82430e8e7dbf8543094
:10094c009f427ff403af9bf8743013f0040f3ff415
:10095c00fdae9bf83e306ff341038bf83e309bf8b5
:10096c003f306ff300038bf83f30efe6974203d034
:10097c0014f0200f35d0d1e19bf8743013f0040f34
:10098c00f6d023f0c3fd574b1a6841f2883303fbb2
:10099c0002f34ff47a72b3fbf2f30344cbf830302a
:1009ac0005238bf87630e3e7dbf8543001339f42b4
:1009bc0001d00026b2e10021584612f04ff8002673
:1009cc00ace1002614f0200f40f0a8819bf87620b3
:1009dc00a2f10803dbb2012b40f2a081062a00f041
:1009ec009d81059a002a3fd0baf1000f7edd059b50
:1009fc005344049a934203dda2eb0a039bb2059382
:100a0c0098f80c301b0908eb83030893dbf81c10d7
:100a1c00dbf81830059a52440a44934280f0f48073
:100a2c005a1a0132b2eb0a0200f1df801ffa82f887
:100a3c0001240094434608a80246514448461df040
:100a4c0041f80490059aa2eb080300949bb208aa03
:100a5c00dbf8141048461df035f8049b034498b29b
:100a6c00059b834200f0d980039bcbb19bf8763079
:100a7c00033bdbb2022b84bfdbf81c30cbf82030fd
:100a8c009bf83e3013f0100f40f0fa809bf83e308c
:100a9c0043f010038bf83e3013f0080f00f0f68093
:100aac00069b002b00f03a81dbf858300133039a97
:100abc002a44934240f03281cbf8583046f4806699
:100acc009bf83f3043f004038bf83f309bf87630b3
:100adc00023b032b00f20781dfe813f0ec00f5007a
:100aec00fe001501ac670020d34d621098f80c3055
:100afc001b09caeb830343440893524493b2049af0
:100b0c009a4228bf1a469246dbf81c10dbf81830c4
:100b1c008a18934259d25b1a01330493bdf81080a2
:100b2c0001240094434608aa48461cf0cbff0590cc
:100b3c00aaeb080300949bb208aadbf814104846f1
:100b4c001cf0c0ff059a024490b2049baaeb03036d
:100b5c00dbf814201344504586d1dbf8581051446f
:100b6c00cbf85810cbf81c309bf87620033ad2b255
:100b7c00022a98bf46f40076dbf85c20b2f1ff3f06
:100b8c003ff472afa2eb0a0acbf85ca0bbf868206a
:100b9c0012eb0a0224d4baf1000f3ff765af1144ef
:100bac00cbf858101344cbf81c30dbf818209342c8
:100bbc0006d9dbf81410521ad2431344cbf81c306c
:100bcc004ff0ff33cbf85c304ee7012300935346d4
:100bdc0008aa48461cf076ffdbf81c305344bae7f1
:100bec004ff0ff33cbf85c303ee70af1ff30dbf817
:100bfc0014209b1ac01a01230093059b08aa0144d8
:100c0c0048461cf05fff2be701230093059b08aac5
:100c1c00514448461cf056ff22e7dbf85c30b3f138
:100c2c00ff3f15d09a4519d2059a02eb0a01bbf881
:100c3c006820d018814205d88b4203d8a0eb0a0358
:100c4c009bb20593059babf86830cbf85ca00be727
:100c5c00cbf85ca0059babf8683005e7bbf86820c7
:100c6c001a4405980146514491427ff6fdae9245d7
:100c7c003ff6faaeaaeb03031844abf86800f3e6b0
:100c8c0001221021584604f063fb09e7dbb243f064
:100c9c0008038bf83e3023f039fcb14b1a686423ff
:100cac0003fb02f34ff47a72b3fbf2f30344cbf879
:100cbc002c30f5e609238bf87630012211215846a9
:100ccc0004f046fb2ae008238bf876309bf875304d
:100cdc0013f0010f07d021e0dbf854309f4208d00d
:100cec0006238bf8763001221021584604f030fb95
:100cfc0014e000221021584604f02afb002158462b
:100d0c0011f0acfe0ae000221021584604f020fb42
:100d1c000021584611f0a2fe00e00026bbf87a2014
:100d2c00324000f08e81dbf87c40002c00f08b818f
:100d3c00dbf88030d9f82810bbf93c00a047022121
:100d4c0003e00026eae76ff00d010a22484622f084
:100d5c00f9fc0a2025f02af8814600283ff49caac9
:100d6c00b9f82c60132eeed9d9f81c8098f80c30f9
:100d7c001b09042b0bd9b6eb830f0bdbd9f82030f6
:100d8c0013f400343ff490aa6ff00e01dde76ff01e
:100d9c000d01dae76ff00d01d7e7724b1b68002be2
:100dac003ff47faa00252b46dff8bc91dff8bca1ed
:100dbc00dff8b081e6e023f0a9fba36ac01a002893
:100dcc00a8bf1026f4e023f0a1fbe36ac01a0028a8
:100ddc00c0f2f48094f87630052b00f08a8110264e
:100dec0087f001023146204604f0b2faeee023f01f
:100dfc008dfb236bc01a0028c0f2e5800122142160
:100e0c00204604f0a5fa0021204611f027feb1e09f
:100e1c0094f83e6006f001060121204619f04ff9c6
:100e2c0094f83e3043f0010384f83e304ff4805286
:100e3c00002120461ff0d7fb002e40f09b8094f839
:100e4c003e306ff3000384f83e300a2384f876308a
:100e5c0090e023f05bfb636ac01a0028c0f28a8022
:100e6c0094f876104b1e082b00f28280dfe803f01a
:100e7c000541556080688080700094f87830032bb1
:100e8c0040f22b81042384f87830354b1a684ff4e8
:100e9c007a7303fb02f3aafb03239b091b01236553
:100eac000221002694f87830013384f87830236dd1
:100ebc005b0023652069e268831a9bb2904204d2de
:100ecc0060682768c01b03449bb2606dc01a6065e4
:100edc00b4f864000344a4f8643022610022204674
:100eec0004f036fa002e45d00021204611f0b6fd54
:100efc0040e094f87830022b40f2f18094f83e6098
:100f0c0006f001031e46002b18bf1421002fc9d177
:100f1c000122204604f01cfae4e794f87830042b04
:100f2c0040f2df80042384f8763011210026ede7af
:100f3c0094f87830042b40f2d68014210126e5e792
:100f4c0094f87830042b40f2d08014210126dde790
:100f5c0094f87830042b40f2ca8014210126d5e78e
:100f6c00ac670020a8670020a4670020d34d621056
:100f7c00002e5ad101352db22b46d8f800209542bf
:100f8c00bff48fa9d9f8002052f82340002cf1d0df
:100f9c0094f876300b2bedd094f83e3013f0c0065d
:100fac001abfdf091026002713f0040f7ff403afdc
:100fbc0094f83e3013f0080f7ff405af94f87630b8
:100fcc00052b3ff414af002e7ff40aaf94f83e309b
:100fdc0013f0020f7ff43daf94f83f3013f0400f45
:100fec00c8d094f87630032bc4d123f08ffa636aff
:100ffc00c01a0028bedb94f8792094f884309a4209
:10100c003ff406af02221021204604f0a1f923f090
:10101c007dfab4f870203b4b1b6803fb02f3aafb70
:10102c00032300eb93106062a4e7314600266de7c2
:10103c006ff0090189e66ff00e0186e66ff00e0184
:10104c0083e6022181e602217fe60135cbf8585078
:10105c00b8f80e30abf86e30abf86430404617f091
:10106c0063feabf86a00584621f07ff8012210218c
:10107c00584604f06df903238bf876309bf83f301b
:10108c0013f0400f7ff499aa9bf83e306ff34103a5
:10109c008bf83e304ff4807640e60135cbf8585053
:1010ac00b8f80e30abf86e30abf86430404617f041
:1010bc003bfeabf86a00584621f057f8012212218a
:1010cc00584604f045f902238bf87630002625e6c5
:1010dc0014f0020fe1d1002620e60221e1e61221f4
:1010ec00dfe61021dde61121dbe61021d9e6112126
:1010fc00d7e623f00bfa236bc01a0028bff67eae9e
:08110c0010266de6ac6700201f
:020000040000fa
:101114002de9f04f2ded028b9bb00f21212023f000
:101124006df9002800f007877d4b1b68002b40f306
:1011340002877c4c0026dff820929fed7b8ab9e37e
:10114400d4f8c4305d6894f8d1202ab3227c012af3
:1011540042d0022a61d1b4f93830b3f1ff3f25d02f
:101164000023724a4ff40071b4f9380022f0e3fc12
:10117400d4f8bc200221b4f9380013f015fb30b9bf
:10118400d4f8c4301b681b6869492846984706216f
:1011940020461ff0b3f886e31b681b6865492846a0
:1011a4009847012120461ff0a9f87ce304f180024e
:1011b400618a012019f084f82087b0f1ff3fcfd174
:1011c400d4f8c4301b681b685b4928469847012142
:1011d40020461ff093f866e304f18002618a01203f
:1011e40025f001fca087b0f1ff3f0ad00023534a49
:1011f4004ff4807122f05afe032120461ff07ef83e
:1012040051e3d4f8c4301b681b684d4928469847fd
:10121400012120461ff072f845e31b681b68494909
:1012240028469847012120461ff068f83be3d4f88c
:10123400c430d3f804b03b4be31adb1003ebc30216
:1012440003eb4203c3eb432303eb8343c3f1000ae1
:1012540097e0d4f8c4301b681b683b49584698474c
:10126400042120461ff04af81de3b4f93c0023f0a2
:10127400cefc18e30133c4f89430284623f0d8fc9c
:1012840002460b46d4e908010cf0dffcc4e908016e
:10129400002f19dba36ae26a511c8b4231d09342be
:1012a40020dc616b01f1010161632cd020e0d4f8f2
:1012b400c4301b685b68254958469847236b013b3b
:1012c400a26a1344236391e07f42a76223f022f9c8
:1012d400c4f88c00002384f8cc30042120461ff08d
:1012e4000df8d7e75b1a226b13442363a36ae36206
:1012f4000c3dadb2002d44d0dff858804ff4c867e0
:1013040036e0934206d1d4f8c4301b681b681049f8
:1013140058469847a36ae26a9342e9dde7e700bfcb
:101324008c670020b85a002000007a447d5f0200d8
:10133400ac9f0000649f0000889f0000675f02006c
:10134400d49f0000f89f000010a0000030a000000f
:101354005ca00000484c0020646400203a464146ea
:10136400b4f93c0015f03efda5f5c865adb245b134
:10137400b5f5c86ff2d22a46d149b4f93c0015f04c
:1013840031fdb4f93c0023f089f805460b2878d9df
:101394000c224946b4f93c0015f024fd0c287ff4d6
:1013a40058afd9f800301f0e47ea03671a0202f457
:1013b4007f0217431b0a03f47f431f43a762d4f839
:1013c4009430002b7ff456af002ffff64eaf01236d
:1013d400c4f89430d4f8c4301b685b685246b949e9
:1013e40058469847a26a002a7ff461afa36ae36271
:1013f40005a9b4f93c0014f0b5fdb4f93c0025f09e
:101404009bf823f0c1fe069dd4f8c4301b68628aa1
:101414000292020e0192c0f3074200925f68c0f389
:101424000723c2b2a8495846b847d4f8c4301b6849
:10143400bdf8582002922a0e0192c5f30742009289
:101444005f68c5f30723eab2a0495846b847656404
:10145400bdf85830a4f8643023f05cf8c4f8880070
:10146400c4f8a800a36ac4f89c30d4f89430c4f833
:101474009830236bc4f8a030b4f93c0023f0c7fbc8
:101484007fe7d4f894304bb994f8cf30012b40f077
:101494000a82042120461ef031ff04e223f03af8c8
:1014a400d4f8a830c31a22689342edd9d4f8942012
:1014b400d4f898309a4212d1d4f8c4301b681b680f
:1014c40083495846984723f025f8c4f88c00002334
:1014d40084f8cc30042120461ef010ffd4e700210c
:1014e40020460bf0c5fccfe7b4f93c0022f0d6ff50
:1014f40038b994f8cf304bb1092120461ef0fefed6
:10150400d1e1b4f93c0023f082fbcce10521204673
:101514001ef0f4fec7e194f8cd30002b00f0bd803e
:10152400b4f93c0022f0baff002840f0be8094f8e1
:10153400cc305a1c84f8cc200a2b00f2bb808021ca
:10154400b4f93c0025f0d4fa002800f0ac81e36a39
:101554005b421a0e42ea0362190201f47f010a4354
:101564001b0a03f47f431343c9f800300025c9f86c
:101574000450c9f808508023c9f80c30c9f8105039
:10158400d4e9080123f098fa020e42ea0062030249
:1015940003f47f031a43030a03f47f431343c9f894
:1015a400143022f0cbffd4f88c10d4f88830c91a48
:1015b400b1fbf0f31a0e42ea03621f0207f47f073d
:1015c4003a431f0a07f47f473a43c9f8182000fb3f
:1015d400131307ee103ab8ee477a27ee087a07eeaf
:1015e400900af8ee676ac7ee267a67ee887afcee10
:1015f400e77a17ee903a1a0e42ea0362190201f4ee
:101604007f010a431b0a03f47f431343c9f81c30c8
:10161400236b1a0e42ea0362190201f47f010a43a2
:101624001b0a03f47f431343c9f82030636b1a0e7b
:1016340042ea0362190201f47f010a431b0a03f41c
:101644007f431343c9f82430e36a1a0e42ea036263
:10165400190201f47f010a431b0a03f47f43134375
:10166400c9f82830c9f82c50c9f8305034224946fa
:10167400b4f93c001ff0f4fc4c273a46294605a86f
:1016840024f066fe3a4605a9b4f93c001ff0e8fcd4
:10169400b4f93c000cf0b8f905e1022120460bf046
:1016a400e7fb012384f8cd303ae7b4f93c0023f09a
:1016b400aefaf8e0092120461ef020fef3e000bf58
:1016c400484c002094a0000098510100cc51010026
:1016d4007ca0000094f8cf30012b26d0b4f9380058
:1016e40022f0dbff002800f0de803822002105a86c
:1016f40024f02efe05a9b4f938001cf0baf804f160
:10170400400705ad0fcd0fc70fcd0fc70fcd0fc7c6
:1017140095e8030087e80300072120461ef0eefd4c
:10172400b4f9380022f09afcbde0092120461ef0ed
:10173400e5fdb8e0d4f8c4305f68b4f9380024f0ab
:1017440065fe0546002865d0a36a002b49d1bd4b30
:10175400e31adb1003ebc30203eb4203c3eb4323a3
:1017640003eb8343d4f8c4201268d2f804805a42ad
:10177400b5493846c04722f0cdfec4f88800c4f805
:10178400a800a36ac4f89c30b4f9380024f0b4fe6d
:1017940023f0fafcd4f8c4301b68628a0292020e69
:1017a4000192c0f307420092d3f80480c0f30723e8
:1017b400c2b2a6493846c047d4f8c4301b68b4f84e
:1017c4006420029294f84720019294f846200092f3
:1017d400d3f8048094f8453094f844209c49384662
:1017e400c047a36a0133a362d4f894200132c4f839
:1017f4009420e362284623f01bfa02460b46d4e900
:1018040008010cf022fac4e90801dff848824ff419
:10181400c8671ce0b4f9380022f020fc20b9b4f900
:10182400380024f0b4fbd8b122f074fec4f88c0064
:10183400082120461ef062fd35e03a464146b4f9df
:10184400380016f095f8a5f5c865adb245b1b5f503
:10185400c86ff2d22a467f49b4f9380016f088f8e6
:10186400a36a63b994f8cf30012b1cd10821204618
:101874001ef044fd22f04efec4f88c0013e022f06a
:1018840049fed4f8a830c31a22689342ead9002149
:1018940020460bf0edfae5e794f8cd30c3b3092107
:1018a40020461ef02bfd0136d8346b4b1b68b34227
:1018b40040f3418394f8ce30012bf4d0023b102b3b
:1018c40000f2348301a252f823f000bf4511000056
:1018d40033120000ed1400001b150000d91600009f
:1018e400391700009d18000025190000c1190000d7
:1018f400ed1900002f1c0000151d00001b1e000028
:101904000b1f0000ed1a00007b1e0000211f0000c9
:10191400022120460bf0acfa012384f8cd30bee757
:10192400d4f8c4305f68237c012b29d0022b2cd03f
:10193400444be31adb1003ebc30203eb4203c3eb98
:10194400432303eb83435d42d4f8c4301b685b68d4
:101954002a4642493846984720461ff053fa94f8dd
:10196400d130012b19d0d4f8c4301b685b682a46e7
:101974003b4938469847012120461ef0bffc92e7b8
:10198400b4f93c001ff0b0fdd2e7b4f9380020f000
:101994005bfd4ff6ff732387cae794f8cf30002b23
:1019a400e1d1d4f8c4301b685b682a462d49384617
:1019b4009847022120461ef0a1fc74e7d4f8c80021
:1019c40023f0b1ff032808d10b2120461ef096fc1a
:1019d40022f0a0fdc4f8ac0065e704f14401d4f89a
:1019e400c8001ff09efeefe7d4f8c4305d6894f899
:1019f400cf20012a17d0d4f8c80023f094ff03287d
:101a04001bd094f8443003f0f003e02b2ed1237c58
:101a1400012b64d0237c022b7ff445af0c2120469c
:101a24001ef06cfc3fe71b681b680f49284698476b
:101a3400012120461ef062fc35e70022a267a4f8cb
:101a44007c20e4e7b85a002094a0000098510100db
:101a5400cc510100484c00208c670020c0a000003d
:101a640024a10000f0a0000044a1000004f17802c9
:101a740004f14401d4f8c80019f0f6feb8b1d4f862
:101a8400c4301b6894f87d20039294f87c20029261
:101a940094f87b20019294f87a2000925f6894f87d
:101aa400793094f87820c0492846b847afe722f047
:101ab40031fdd4f8ac30c71a22f040fd00eb8000b1
:101ac40087427ff6f0aed4f8c4301b681b68b74970
:101ad4002846984722f01efdc4f8ac00e3e6102126
:101ae40020461ef00bfc95e7d4f8c4305d6804f181
:101af4004402618a012024f07bffa087b0f1ff3ffc
:101b040000f087800023aa4a4ff4807122f0cef9b6
:101b1400e2680521b4f93c0007f0e0fc30b9d4f8e0
:101b2400c4301b681b68a349284698470222062133
:101b3400b4f93c0007f0d2fc30b9d4f8c4301b68c7
:101b44001b689d4928469847d4f8c810b4f93c004e
:101b54001df0c2fb05a9b4f93c0014f003fabdf86a
:101b64005a30a4f87e30d4f8c4301b681b689349fb
:101b740028469847d4f8c4301b68628a029294f8c5
:101b84004720019294f8462000925f6894f845300b
:101b940094f844208a492846b847112120461ef06b
:101ba400adfb22f0b7fcc4f8880021f0effe054637
:101bb4000f4624f0dbfd79016b0141ead5625b1b22
:101bc40062eb0702510241ead3514fea432c0a4621
:101bd4001ceb050347eb0202910141ea93614fead2
:101be400831cbceb030c61eb0201024600231cebdb
:101bf400050047eb010121f029ffd4f88430184493
:101c0400c4f890004ff4c86255216e4824f0a0fb3c
:101c140049e6d4f8c4301b681b686b4928469847ca
:101c2400012120461ef06afb3de6d4f8c4305d680d
:101c34000022618a012023f035fe6087b0f1ff3f66
:101c440051d00023614a4ff4007121f074ffd4f89d
:101c54008030002b53d104f1440300220121b4f954
:101c64003a001ef0edfc4ff48063a4f87e30d4f803
:101c7400c4301b681b68514928469847d4f8c430bf
:101c84001b68628a029294f84720019294f84620d5
:101c940000925f6894f8453094f844204c492846f3
:101ca400b8470d2120461ef029fbd4f8b8200321a3
:101cb400b4f93a0012f078fd30b9d4f8c4301b6896
:101cc4001b683c4928469847b4f93a0021f01cffa8
:101cd40022f020fcc4f8ac004ff4c8625421394807
:101ce40024f036fbdfe5d4f8c4301b681b6839499f
:101cf40028469847012120461ef000fbd3e504f155
:101d04008003628a0121b4f93a0016f0f7f8a2e7d9
:101d140094f8cf30012b42d0d4f8c4305f68b4f9c2
:101d24003a0022f0bafc002856d0b4f93a0022f066
:101d340095f922f0effbc4f8880021f027fe054650
:101d44000f4624f013fd79016b0141ead5625b1b58
:101d540062eb0702510241ead3514fea432c0a468f
:101d64001ceb050347eb0202910141ea93614fea40
:101d7400831cbceb030c61eb0201024600231ceb49
:101d8400050047eb010121f061fed4f884301844ca
:101d9400c4f890000e2120461ef0b0fa83e50f210e
:101da40020461ef0abfa7ee5a4a1000064a1000069
:101db400675f0200d0a10000f8a1000088ea0000db
:101dc40020a20000484c0020d49f00007d5f020048
:101dd40058a20000889f000022f09cfbd4f8ac308d
:101de400c51a22f0abfb00eb800085427ff65bada9
:101df400b4f93a0020f028fb4ff6ff736387d4f858
:101e0400c4301b681b684e49384698470f2120464a
:101e14001ef074fa47e5204605f0f0fd01280bd0ca
:101e240002287ff440ad0f2120461ef067fa22f00d
:101e340071fbc4f88c0036e5424f00bfb4f8b050d3
:101e44008db1b5f5c86f28bf4ff4c8652a46394629
:101e5400b4f93a000ff0acfeb4f8b0301b1aa4f891
:101e6400b0308542ead9b4f93a0022f029fc204680
:101e74000df00efe17e5227d0b21b4f93c0007f0ae
:101e84002dfb204605f0bafd01280bd002287ff473
:101e94000aad122120461ef031fa22f03bfbc4f8b1
:101ea4008c0000e5b4f8b05015b30027dff894a017
:101eb400a846b5f5c86f28bf4ff4c86842465146d6
:101ec400b4f93c001ff0ccf80744bfb22d1aadb2f0
:101ed400804501d1002debd1b4f93c000bf094fd09
:101ee40040b900221146b4f93c0020f080f9dae44c
:101ef4002f46f1e7b4f8b030df1ba4f8b0702046e9
:101f04000df0c6fdcfe420461bf0f6ffb4f93a000d
:101f140020f09afa4ff6ff736387c4e420461bf05f
:101f2400ebffb4f93c001ff0dffabce401212046ca
:101f34001ef0e4f9b7e41bb0bdec028bbde8f08ff2
:081f440090a20000484c0020af
:020000040000fa
:101f4c0030b585b0044690f99030002b40f00f81ed
:101f5c000378012b04bf0023037090f8d430042bba
:101f6c0000f22e84dfe813f005008b00d9001b0172
:101f7c00110390f90830b3f1ff3f57d090f8fc20d3
:101f8c00012a22d051b229b1022a43d0ff2380f872
:101f9c009030dce003f01f01c3f34a1303f5020099
:101fac0000f580700022012303fa01f1c00124f036
:101fbc00b5fb24f0b5fd20f06ffbc4f8dc0094f801
:101fcc00fc30013384f8fc30cfe024f0a9fd20f084
:101fdc0063fbd4f8dc30984200f0c78094f90830e9
:101fec0003f01f0201219140c3f34a1303f50200d1
:101ffc0000f580700a46c00124f090fb24f090fd9f
:10200c0020f04afbc4f8dc0094f8fc30013384f86f
:10201c00fc30aae024f084fd20f03efbd4f8dc3048
:10202c00c31a062b94bf002501258fe090f8fc30d5
:10203c002bb1012b16d0ff2380f8903087e00023c2
:10204c000193b44a009201220321d0f8ec0022f053
:10205c00fdfe002800f0898094f8fc30013384f8f0
:10206c00fc3082e000230193aa4b009301231a4613
:10207c000321d0f8ec0022f0e9fe054666e0d0f82a
:10208c00ec0094f8fc30042b43d8dfe813f0050087
:10209c009d0313009d033300002200929e4b0121ef
:1020ac0023f054f9002860d094f8fc30013384f804
:1020bc00fc305ae0d4f8e4309a0ac3f30913b2f5b1
:1020cc00f87f01d11b2b07d0944900201bf084ff13
:1020dc00ff2384f890303ae0002200928e4b904916
:1020ec0023f034f9002840d094f8fc30013384f804
:1020fc00fc303ae0d4f8e43003f00f0384f8fe30ff
:10210c002bbb884900201bf067ffff2384f890301d
:10211c001de0ff2384f8903027e090f8fc10c1f10b
:10212c00200200230093804b92b2804800eb0111f7
:10213c00d4f8ec0017f062fc94f8fc500544edb2b6
:10214c0084f8fc50202d14bf002501256db100230f
:10215c0084f8fc3094f8d4300133dbb284f8d430fa
:10216c00052b04bf022384f890300123237094f9cb
:10217c009030022b00f02a8394f804316bb1237851
:10218c00012b00f04d83002384f804310121d4f895
:10219c00ec0008f08bf80123237005b030bdd0f8ab
:1021ac00ec0094f8fc302e2b00f2e881dfe813f001
:1021bc002f002f002f002f002f00e601e601e60173
:1021cc00e601e60148004800480048004800e601e6
:1021dc00e601e601e601e6016e006e006e006e009f
:1021ec006e00e601e601e601e601e6018900eb017d
:1021fc009b00eb01c600eb01dc00eb01f200eb01f4
:10220c00080130014d0171019601bb01db01009306
:10221c00402303aa0521204616f040fe054600285f
:10222c0094d0039b23b10a2384f8fc3000258de75e
:10223c003f4900201bf0d0feff2384f8903085e747
:10224c000a3bdbb200931f2303aa0421204616f09d
:10225c0025fe054600283ff479af039b13f0100fc1
:10226c0018bf43f0e0035bb284f8f03013f1050fb4
:10227c0004db142384f8fc30002567e72c4900208c
:10228c001bf0aafeff2384f890305fe7143bdbb20f
:10229c0000931f2303aa0821204616f0fffd0546d4
:1022ac0000283ff453af039b13f0100f18bf43f0fb
:1022bc00e0035bb284f8f1301e2384f8fc30002577
:1022cc0044e700230093144b01221a4923f03ef8f3
:1022dc00054600283ff43aaf94f8fc30013384f8fb
:1022ec00fc30002532e7d4f8e430a4f8f2300023b7
:1022fc000093094b0122104923f028f805460028c9
:10230c003ff424af94f8fc30013384f8fc30002502
:10231c001ce700bf0f3a0100a93d02009ccf010051
:10232c0094000a00c4cf0100fd60020048eb0000dd
:10233c00dccf0100840004008a000400d4f8e430ef
:10234c00a4f8f43000230093ba4b0122ba4922f0ce
:10235c00fdff054600283ff4f9ae94f8fc3001333c
:10236c0084f8fc300025f1e6d4f8e430a4f8f6301b
:10237c0000230093af4b0122b04922f0e7ff054642
:10238c0000283ff4e3ae94f8fc30013384f8fc30c1
:10239c000025dbe6d4f8e430a4f8f83000230093f1
:1023ac00a44b0122a64922f0d1ff054600283ff498
:1023bc00cdae94f8fc30013384f8fc300025c5e632
:1023cc00d4f8e430a4f8fa3094f9f0309bb203f16d
:1023dc00090291b203f10e0292b2120142ea812279
:1023ec00b4f8f23003f00f031a4300230193009367
:1023fc00012392b2934922f029fd054600283ff4af
:10240c00a5ae94f8fc30013384f8fc3000259de631
:10241c0094f9f13028339bb2b4f8f420c2f30902da
:10242c0042ea8322002301930093012392b286494e
:10243c0022f00cfd054600283ff488ae94f8fc30e1
:10244c00013384f8fc30002580e694f9f0309bb21f
:10245c005a1d91b2b4f8f62022f47c5222f03f02bd
:10246c0042ea012212b292b209331a4300230193b9
:10247c000093012392b2704922f0e8fc0546002833
:10248c003ff464ae94f8fc30013384f8fc30002542
:10249c005ce694f9f0309bb203f1090291b2b4f806
:1024ac00f82022f47c5222f03f0242ea012212b2be
:1024bc0092b20e331a43002301930093012392b27c
:1024cc005e4922f0c3fc054600283ff43fae94f869
:1024dc00fc30013384f8fc30002537e694f9f030f9
:1024ec009bb203f1110291b2b4f8fa2022f47c529f
:1024fc0022f03f0242ea012212b292b216331a4380
:10250c00002301930093012392b24d4922f09efccb
:10251c00054600283ff41aae94f8fc30013384f8d9
:10252c00fc30002512e694f8fe5000230193009332
:10253c00012345f6217243f631719d4218bf0a46bc
:10254c00424922f083fc054600283ff4ffad94f885
:10255c00fe30012b3ff4faad94f8fc30013384f8d3
:10256c00fc300025f2e500230193009301234ff486
:10257c004042374922f06afc0546e7e5ff2384f820
:10258c0090300025e2e50025e0e5d0f8ec0094f869
:10259c00fc30092b00f21081dfe813f00a00250053
:1025ac003a00640077009600ad00cc00e500020113
:1025bc00637e1bb9042384f8fc30d6e5a17d627dd3
:1025cc0000230193234b0093012342ea0122224969
:1025dc0022f03cfc00283ff4c8ad94f8fc300133e9
:1025ec0084f8fc30c1e5e17d227e00230193194b78
:1025fc000093012342ea0122184922f027fc00280b
:10260c003ff4b3ad94f8fc30013384f8fc30ace506
:10261c00002301930f4b009301238322104922f0d6
:10262c0015fc00283ff4a1ad94f8fc30013384f87c
:10263c00fc309ae5a93d0200ad000400ae00040098
:10264c00af000400840004008a000400d0000400e1
:10265c00e0000400fd60020002ca040005ca040088
:10266c008700040000230193864b009301234ff451
:10267c000042854922f0eafb00283ff476ad94f83d
:10268c00fc30013384f8fc306fe594f8953094f805
:10269c009420120442ea036294f892301a4394f89c
:1026ac00931000230193774b0093012342ea0122fc
:1026bc00764922f0cbfb00283ff457ad94f8fc3060
:1026cc00013384f8fc3050e594f8971094f8962078
:1026dc00002301936b4b0093012342ea01226c49c6
:1026ec0022f0b4fb00283ff440ad94f8fc300133e9
:1026fc0084f8fc3039e594f8973094f8962012045d
:10270c0042ea036294f894301a4394f8951000232b
:10271c0001935c4b0093012342ea01225d4922f0b4
:10272c0095fb00283ff421ad94f8fc30013384f87c
:10273c00fc301ae5a37e002b4ff000030193514ba4
:10274c0000934ff0010314bf102200224ff001112f
:10275c0022f07cfb00283ff408ad94f8fc300133e8
:10276c0084f8fc3001e5e17e49f2260249f2262389
:10277c00002918bf1a46237f0bb142f48072002344
:10278c000193404b00930123042122f05ffb0028ae
:10279c003ff4ebac94f8fc30013384f8fc30e4e407
:1027ac00002301933c4b009301230c224ff4803106
:1027bc0022f04cfb0546c9e4ff2384f89030c6e4b4
:1027cc00ff2380f89030d0e40025bfe4637e53bb38
:1027dc00d4f8e830002b43d194f90750c5f34a10d4
:1027ec0000f5020000f58070c00124f0f1f905f04d
:1027fc001f0520fa05f515f0010f7ff4bdac237809
:10280c00012b04bf002323700021d4f8ec0007f047
:10281c004dfd0123237094f80431002b3ff4bdac23
:10282c0000232370afe424f07bf91ff035ffd4f8bc
:10283c00e030c31ab3f57a7fcad3c4f8e00023782a
:10284c00012b04bf0023237000230093134b0122a0
:10285c001349d4f8ec0022f079fd01232370b7e77b
:10286c0024f05ef91ff018ffd4f8e830c01a632882
:10287c00b2d90023c4f8e830d4f8ec0024f08cf87a
:10288c00aae700bffd60020001ca04002400010099
:10289c002500010022000100795b0200034b0200bd
:0428ac0003ca040057
:020000040000fa
:1028b000906500201c00000000000000445f002024
:1028c00004000000000000000c650020040000006f
:1028d000000000001c660020040000000000000052
:1028e00004690020010000000000000014670020bf
:1028f0000400000000000000486700200400000001
:10290000000000008f6500200100000000000000b2
:102910000966002001000000000000004c67002054
:102920001c00000000000000bc6000206c000000e3
:10293000000000000069002001000000000000000d
:1029400010690020d40000000100000028fa0100f6
:102950000000000000000000000000000000000077
:102960000000000000000000000000000000000067
:102970000000000000000000000000000000000057
:102980000000000000000000000000000000000047
:102990000000000000000000000000000000000037
:1029a0000000000000000000000000000000000027
:1029b0000000000000000000000000000000000017
:1029c0000000000000000000000000000000000007
:1029d00000000000000000000000000000000000f7
:1029e00000000000000000000000000000000000e7
:1029f00000000000000000000000000000000000d7
:102a000000000000000000000000000000000000c6
:102a100000000000000000000000000000000000b6
:102a20000d6900200100000001000000ff0000000f
:102a3000686700200400000000000000485f0020dc
:102a400080000000000000002c6300204400000013
:102a5000000000006c67002004000000000000007f
:102a60000c6600201000000000000000a4580020a8
:102a70000c01000000000000206600201000000093
:102a8000000000007067002004000000000000004b
:102a90004462002050000000000000000000002000
:102aa0007824000000000000fc6800200100000005
:102ab0000000000074670020040000000000000017
:102ac000505c0020a40000000000000048600020ce
:102ad00074000000000000003066002010000000bc
:102ae00000000000c4640020280000000000000076
:102af000945d00209000000000000000f8680020b5
:102b000001000000000000007867002004000000c1
:102b100000000000ec640020200000000000000025
:102b2000f46800200100000000000000306a00206e
:102b30000c00000001000000f4010000d0070000bc
:102b4000010000000c6a00202400000001000000c9
:102b5000080008000200010002000800000600064c
:102b6000010154000101000081f50100711b020008
:102b700000000100706a0020020000000100000057
:102b800000010000e4620020480000000000000096
:102b9000586a00200600000001000000ffffffff50
:102ba000ffff0000906600201800000000000000f9
:102bb000245e002090000000000000007c670020e0
:102bc0000c00000000000000b85a0020d8000000ef
:102bd00000000000646400203400000000000000d9
:102be000886700200400000000000000f568002055
:102bf00001000000000000008c67002004000000bd
:102c000000000000484c00204006000000000000ca
:102c1000906700200c00000000000000a866002063
:102c20000c000000000000004066002010000000c2
:102c300000000000f6680020010000000000000015
:102c40004262002002000000000000002a64002010
:102c500002000000000000009c670020040000004b
:102c6000000000005066002010000000000000007e
:102c7000a06700201000000000000000fa6600209d
:102c80000200000000000000466700200200000073
:102c900000000000b06700200c00000000000000f1
:102ca000f76800200100000000000000bc67002061
:102cb0000400000000000000c865002018000000ab
:102cc00000000000c06700200c00000000000000b1
:102cd0000a6600200200000000000000cc6700200f
:102ce000040000000000000078440020d00700002d
:102cf00000000000d067002010000000000000006d
:102d0000e86800200200000000000000e0670020ea
:102d10000800000000000000f8650020110000001d
:102d200000000000706500201f000000000000008f
:102d3000e86700200400000000000000ea680020ae
:102d40000200000000000000ec67002010000000fe
:102d500000000000ec6800200200000000000000fd
:102d6000fc6700200800000000000000ee68002062
:102d700002000000000000000468002010000000b5
:102d800000000000f96800200100000000000000c1
:102d90003c6a002004000000010000006400000004
:102da000e46900202800000001000000bb010300ce
:102db000d10101004b020100330203007c02030039
:102dc000dd030300de030300e0030300e103010071
:102dd000b32201001468002004000000000000007d
:102de0002c6400203800000000000000186800205b
:102df0001000000000000000b45e00209000000001
:102e00000000000088520020800200000000000046
:102e1000286800202800000000000000b4660020a0
:102e20000c00000000000000e06500201800000019
:102e300000000000ac6500201c0000000000000045
:102e4000506800200400000000000000fa68002024
:102e50000100000000000000546800200400000091
:102e600000000000606a0020040000000100000073
:102e7000ffffffff586800200c000000000000006a
:102e8000f06600200a0000000000000064680020d6
:102e90001c00000000000000f0680020020000009c
:102ea0000000000080680020080000000000000012
:102eb000fb68002001000000000000000855002011
:102ec0009c0300000000000010650020600000006e
:102ed00000000000fd68002001000000000000006c
:102ee000986400202c0000000000000078240020de
:102ef000001000000000000070630020400000008f
:102f000000000000fc66002010000000000000002f
:102f1000886800200400000000000000fe68002017
:102f200001000000000000007834002000080000cc
:102f3000000000008c680020080000000000000075
:102f4000905b0020c000000000000000c066002070
:102f50000c00000000000000783c00200008000089
:102f600000000000ff6800200100000000000000d9
:102f70000169002001000000000000000c67002033
:102f8000080000000000000094680020100000000d
:102f900000000000026900200100000000000000a5
:102fa000b05900200801000000000000a4680020c3
:102fb0000800000000000000b06300204000000096
:102fc00000000000f45c0020a000000000000000f1
:102fd0005e6a002002000000010000000100000005
:102fe0002861002060000000000000001867002039
:102ff0001000000000000000ac6800200400000089
:103000000000000028670020080000000000000009
:10301000606600201000000000000000cc66002068
:103020000c000000000000003067002008000000d5
:10303000000000007066002010000000000000008a
:10304000d86600200c000000000000003867002057
:1030500008000000000000000369002001000000db
:1030600000000000056900200100000000000000d1
:10307000c85f002080000000000000008066002083
:103080001000000000000000b068002004000000f4
:10309000000000000669002003000000000000009e
:1030a000646a00200400000001000000ffffffff31
:1030b000406a00201800000001000000000000002d
:1030c0000000f03f000000000000f03f00000000a2
:1030d0000000f03fe86100205a00000000000000fe
:1030e000096900200100000000000000b468002011
:1030f00008000000000000000a6900200100000034
:1031000000000000f2680020020000000000000043
:103110004067002006000000000000000b6900204e
:103120000100000000000000bc6800200400000056
:1031300000000000f06300203a00000000000000e2
:10314000c068002010000000000000000c69002092
:103150000100000000000000686a00200400000078
:10316000010000007d000000886100206000000078
:1031700000000000d06800200c00000000000000eb
:103180006c6a002004000000010000000100000043
:10319000dc680020040000000000000094620020b1
:1031a0005000000000000000e06800200400000063
:1031b00000000000e468002004000000000000009f
:1031c000e46600200c000000000000000000000089
:1031d0000000000066666666666666666666666627
:020000040000fa
:1031e0002de9f04f2ded028b85b01c46837b03f05b
:1031f0000f03082b08d01546002b00f0f68205b00f
:10320000bdec028bbde8f08f838d1a0242ea1322d7
:1032100092b2b54b1b68002bc0f22581b3490978e7
:10322000002900f02081934240f00b810133b04a25
:1032300082fb0312d118da17c2ebe132c2eb024271
:103240009b1aa94a1360a94b00221a70028ea94941
:10325000130243ea12230b80d0f832301a0642eaf6
:1032600013621c0a04f47f4422431b0203f47f030d
:103270001a434a60d0f836301c0644ea13641d0a2b
:1032800005f47f452c431b0203f47f0323438b602b
:10329000d0f81640d0f81a3020ba1bba1b0c43eafb
:1032a0000043000c0b614861934b1b68002b40f0fe
:1032b000ea80924b1b7823b1914b1b78002b00f0d6
:1032c000fa808c4e304621f0e7fb04468a4606f130
:1032d000300021f0e1fb05468b46f36c4bb106f163
:1032e000480021f0d9fb874b281a6beb01011860cd
:1032f0005960804bdb6943b1834821f0cdfb834ba0
:10330000201a6aeb0101186059607a4e06f14807ed
:1033100006f1300cbce80f000fc79ce8030087e8fb
:10332000030006f118070fce0fc796e8030087e8e1
:103330000300744bd3e9006756ea070300f03181bc
:10334000724bd3e9000150ea010300f02a81704b6f
:103350001b78013bdbb2012b29d91cf0e0facde947
:103360000201304639461cf0dafa02460b46dde926
:1033700002010bf0d3f806460f466649c1e9006723
:1033800053a3d3e90023d1e900011ff035fd50b16b
:1033900051a3d3e900235f49d1e900011ff048fda3
:1033a000002840f0d3805c4900201af01bfe5b4ae5
:1033b000136801331360b5eb04086beb0a09584a34
:1033c000c2e90089d2e90045d2e90001002871f183
:1033d0000002c0f2e280534ac2e900014c4a12786e
:1033e000002a00f0e380012a00f021814d4bd3e94f
:1033f0000023002b08bfb2f1804fc0f02a81444b5c
:1034000000221a700324484f1546484e3946284674
:103410000cf092ff314628460cf08eff013cf5d1ae
:103420001024434d9fed2e8b2846b0ee480af0ee57
:10343000680a18f0e5fe013cf6d1384b00221a600c
:10344000dde63c4900201af0cdfd274b4ff0ff325e
:103450001a60284a00231363536313879364d36469
:10346000a2f85030cbe6511c214b83fb01030b44e7
:10347000db13c3eb0343cb1a1b490b602e4900201f
:103480001af0b0fdbbe600240194009401232b49ff
:1034900020461ef093fc019400940123154a926883
:1034a000274920461ef08afc264920461af09afd3c
:1034b000114b1c60fde600200190009001237d224d
:1034c00021491ef07bfc0e4b01221a70f9e600bf69
:1034d000560e2db29defef3fd578e9263108f03f2b
:1034e000000000000000f03f646a00200669002030
:1034f0000180008028610020ac6800200569002060
:103500000869002018670020406100202067002023
:1035100007690020406a0020981d0100b068002063
:103520002867002038670020606600207066002051
:1035300080660020241d01004c1d01007400010064
:1035400075000100781d010039020a009fedb42bbf
:10355000b74b93ed001b47ec106b1df01ffbb54bf9
:1035600083ed000bb44bd3e900011cf0d8f90646fb
:103570000f46b24bd3e900011cf0d1f902460b46cd
:10358000304639460af0caff41ec100bac4818f03f
:1035900037feac4b83ed000b09e7404261eb410184
:1035a00019e7a94900201af01dfd28e60f2b7ff628
:1035b00026ae0022a54ba349d1e900010ff036ff4a
:1035c00004460d4621f07afac6b2304622f0f4f8ed
:1035d00002460b462046294623f0b0fa00229c4bb7
:1035e0000ff024ff21f06afac0f30f2545ea0065c9
:1035f00000240194009401232a46964920461ef097
:10360000ddfb0194009401233246934920461ef0cd
:10361000d5fb2b463246914920461af0e3fc0123a4
:103620008f4a13708f4a13708f4b1c60e7e58f4be6
:10363000d3e900237ca1d1e90001994208bf90425f
:1036400003d28b4b01221a60d9e5854b02221a70f6
:10365000d5e56fea05084fead878844bd3e9002313
:10366000002b08bfb2f1807f26d2804bd3e9002324
:10367000002b08bf5b2a34d303257e4f00247e4ee7
:10368000394620460cf058fe314620460cf054fed8
:10369000bc60b460013df3d1744bd3e9001200204b
:1036a00001900090012341eac87274491ef086fb24
:1036b0006b4b02221a70a2e56c4b6ff07f40002129
:1036c000c3e90001d3e9001200200190009001231a
:1036d00041eac87269491ef071fb614b02221a70ff
:1036e0008de5624bd3e90023002b08bf332a46d374
:1036f000614c214600200cf01ffe0025a5602146ec
:1037000028460cf019fea560214628460cf014fe50
:10371000a5605b4bd3e90034564918460cf00cfe0b
:10372000584981ed000b00220023d1e900011ff070
:103730007ffba84214bf01232b4683f00103dcb2b8
:10374000504bd3e900011df0d7fc064604b94642b0
:10375000002501950095012346eac4724749284691
:103760001ef02cfb3e4b03221a70454bd3e900128e
:1037700033460a46444928461af034fc3fe5404b9c
:10378000d3e900343c4918460cf0d6fd3d4981eda3
:10379000000b00220023d1e900011ff049fb0028a3
:1037a00014bf0123002383f00103dcb2354bd3e9be
:1037b00000011df0a1fc064604b946420025019512
:1037c0000095012346eac4722c4928461ef0f6faf9
:1037d000234b04221a702a4bd3e9001233460a46bf
:1037e0002a4928461af0fefb09e5838d1a0242eaaf
:1037f000132292b2264b1b68002b0bdbd11a002937
:10380000b8bf49420a2947dc934261d1214b0122ca
:103810001a704ce01e4b1a601e4b00221a70eee428
:10382000000000000000e03f00e1f505000000009e
:10383000406a0020506a002020670020186700209e
:1038400080660020486a0020b81d01000000444046
:10385000000070416f00010077000100bc1d0100f5
:103860000769002005690020b06800203867002043
:10387000ac680020606600207066002076000100c1
:103880002867002030670020f01d0100101e010095
:10389000646a002006690020134900201af0a2fb88
:1038a00016f012fb114b1b78002b3ff4a8acdff88d
:1038b00048c00cf148060cf130070fcf0fc697e84f
:1038c000030086e80300ccf83450ccf8384096e486
:1038d00000200649087006491af084fb054b4ff09a
:1038e000ff321a60dee700bf301e010006690020cb
:0c38f000641e0100646a002028610020b2
:020000040000fa
:1038fc005478204279746520436f756e742d6c6f0b
:10390c00776572203332626974732854784f544c43
:10391c004f290000d9670200547820427974652041
:10392c00436f756e742d75707065722031366269d7
:10393c0074732854784f544849290000e3670200f7
:10394c005478204672616d657320772f6f206572f5
:10395c00726f722854784654434e5429000000006c
:10396c0000000000ed67020054782042726f616421
:10397c0063617374204672616d6573285478424399
:10398c00465429000000000000000000f767020008
:10399c005478204d756c7469636173742046726140
:1039ac006d65732854784d465429000000000000c2
:1039bc0000000000016802005478205061757365a6
:1039cc00204672616d657328547850465429000066
:1039dc000000000000000000000000000b68020066
:1039ec0054782036342d62797465204672616d6589
:1039fc0073285478424654363429000000000000e5
:103a0c00000000001568020054782036352d313244
:103a1c00372062797465204672616d657328544253
:103a2c004654313237290000000000001f680200a4
:103a3c005478203132382d32353520627974652036
:103a4c004672616d657328544246543235352900ef
:103a5c0000000000296802005478203235362d35dc
:103a6c0031312062797465204672616d657328541a
:103a7c004246543531312900000000003368020001
:103a8c005478203531322d313032332062797465df
:103a9c00204672616d65732854424654313032337e
:103aac00290000003d680200547820313032342d5a
:103abc00313531382062797465204672616d6573d9
:103acc0028544246543135313829000047680200e9
:103adc005478204672616d6573203e3d203135313e
:103aec00382062797465284754424631353138297b
:103afc000000000051680200547820556e64657215
:103b0c0072756e204672616d6573206e6f742054f1
:103b1c005865642854785455522900005b6802009b
:103b2c0054782053696e676c6520436f6c6c6973b5
:103b3c00696f6e204672616d6573285478534346e5
:103b4c002900000065680200547820322d313520a0
:103b5c00436f6c6c6973696f6e204672616d65732f
:103b6c002854784d43462900000000006f6802007d
:103b7c00547820313620436f6c6c6973696f6e20fa
:103b8c004672616d65732854784543434e54290041
:103b9c0000000000796802005478206c6174652084
:103bac00436f6c6c6973696f6e204672616d6573df
:103bbc002854784c43434e5429000000836802007b
:103bcc005478204465666572726564204672616d36
:103bdc006573285478445446290000000000000006
:103bec00000000008d6802005478204361727269f5
:103bfc0065722053656e7365206572726f72204614
:103c0c0072616d6573285478435345299768020097
:103c1c005278204279746520436f756e742d6c6fe9
:103c2c00776572203332626974732852784f524c24
:103c3c004f290000a1680200527820427974652057
:103c4c00436f756e742d75707065722031366269b4
:103c5c0074732852784f524849290000ab6802000f
:103c6c005278204672616d657320772f6f206572d4
:103c7c00726f722852784652434e5429000000004d
:103c8c0000000000b568020052782042726f616437
:103c9c0063617374204672616d6573285278424378
:103cac00465229000000000000000000bf6802001e
:103cbc005278204d756c746963617374204672611f
:103ccc006d6573202852784d465229000000000083
:103cdc0000000000c96802005278205061757365bd
:103cec00204672616d657328527850465229000047
:103cfc00000000000000000000000000d36802007b
:103d0c0052782036342d62797465204672616d6567
:103d1c0073285278424652363429000000000000c5
:103d2c0000000000dd68020052782036352d31325b
:103d3c00372062797465204672616d657328544230
:103d4c00465231323729000000000000e7680200bb
:103d5c005278203132382d32353520627974652015
:103d6c004672616d657328544246523235352900ce
:103d7c0000000000f16802005278203235362d35f3
:103d8c0031312062797465204672616d65732854f7
:103d9c00424652353131290000000000fb68020018
:103dac005278203531322d313032332062797465be
:103dbc00204672616d65732854424652313032335d
:103dcc002900000005690200527820313032342d70
:103ddc00313531382062797465204672616d6573b6
:103dec002854424652313531382900000f690200ff
:103dfc005278204672616d6573203e3d203135311d
:103e0c003920627974657328544d58424652290002
:103e1c0000000000196902005278204672616d653d
:103e2c0073203c203634206279746573285278559f
:103e3c004652290000000000000000002369020027
:103e4c005278204672616d6573203e2031353138d1
:103e5c002062797465732852784f4652290000000d
:103e6c00000000002d6902005278206572726f729a
:103e7c00204672616d6573203e20313531382062e9
:103e8c00797465732852784a522900003769020008
:103e9c00527820435243206572726f7220467261d1
:103eac006d65732852784643534529000000000085
:103ebc0000000000416902005278204c656e677466
:103ecc0068206669656c64206572726f7220467238
:103edc00616d65732852784c464645294b69020042
:103eec0052782073796d626f6c206572726f7220dc
:103efc004672616d65732852785253452900000053
:103f0c000000000055690200527820616c69676ef0
:103f1c006d656e74206572726f72204672616d658c
:103f2c007328527841452900000000005f690200a7
:103f3c005278205265736f75726365204572726f8b
:103f4c0072202852785252452900000000000000cf
:103f5c0000000000696902005278206f7665727269
:103f6c00756e206572726f72204672616d65732872
:103f7c005278524f4529000000000000736902007e
:103f8c0052782049504864722043686b73756d20d9
:103f9c006572726f72204672616d65732852784932
:103fac00484345297d6902005278205443502043f0
:103fbc00686b73756d206572726f72204672616ddd
:103fcc006573285278544345290000008769020024
:103fdc005278205544502043686b73756d20657280
:103fec00726f72204672616d657328527855434525
:083ffc00290000009169020098
:020000040000fa
:104004002de9f04f8db0d0f850a00a68436d846d4f
:1040140083ea040e0eea0a0e8eea040ed84bc46c30
:1040240023440a9213449e440aeb7e6e4e68436d09
:104034008aea030707ea0e075f40d24b856d2b44db
:10404400009633441f440eeb37578b681a468aeaae
:104054000e053d4085ea0a05cb4b446d234401928d
:1040640013441d4407ebf535cb681c468eea07065e
:104074002e4086ea0e06c54b5344029423441e4444
:1040840005ebb6260b691c4687ea050333407b40e3
:10409400bf4a039422449644734406eb73694a6905
:1040a400134685ea060404ea09046c40b94a0493f9
:1040b4001a4417443c4409eb34548b6986ea0902d8
:1040c40022407240b44f05931f443d442a4404ebfc
:1040d400f232cf6989ea040808ea020888ea090882
:1040e400ae4d06973d442e44b04402ebb8280f6a07
:1040f40084ea020c0cea080c8cea040ca84d07971d
:104104003d4409eb05039c4408eb7c6c4d6a82ea50
:10411400080909ea0c0989ea0209a24b08952b440b
:104124001c44a1440ceb39598b6a88ea0c0e0eea44
:10413400090e8eea080e0993a3f524434f3b1a4453
:10414400964409ebfe3eca6a16468cea090505ea5e
:104154000e0585ea0c05944b1344984445440eeb34
:10416400b525d1f8308089ea0e072f4087ea090780
:104174008e4b43449c44674405eb7767d1f834c0c5
:104184008eea05033b4083ea0e03894a6244914464
:104194004b4407eb3353d1f8389085ea07041c40ad
:1041a4006c40844a4a449644744403ebf434d1f892
:1041b4003ce087ea030222407a407f4971440d447f
:1041c4002a4404ebb22284ea020b0bea030b8beac7
:1041d400040b7a49009d29440f44bb4402ebfb6b5a
:1041e40082ea0b07274057407549059d29440b4433
:1041f4001f440bebf7578bea0703134083ea0b03c7
:1042040070490b9631440c44234407ebb34387eacb
:10421400030505ea0b057d406b490a9c21440a44c9
:10422400154403eb353583ea05023a405a406749a1
:10423400049e31448b445a4405ebf26285ea020140
:1042440019406940624c099e34442744394402ebc6
:10425400f15182ea01042c4054405e4f77443b44c0
:104264001c4401ebb44481ea040313404b405a4f0d
:10427400039e37443d442b4404eb333384ea030b5d
:104284000bea010b8bea040b544d089e35442a4477
:10429400934403ebfb6b83ea0b0727405f40504ad0
:1042a4004a4411440f440bebf7578bea07051d40b2
:1042b40085ea0b054b4a02990a441444254407eb4a
:1042c400b54587ea050202ea0b027a404649079e91
:1042d40031440b441a4405eb323285ea02033b4075
:1042e4006b40424961448b445b4402ebf36382ead2
:1042f4000301294051403e4c019e34442744394433
:1043040003ebf15183ea010414405c40394f069eeb
:1043140037443d442c4401ebb44481ea040b0beada
:1043240003054d40344f47443a44154404eb3535b6
:10433400049fa7f5b822a2f2be6213448bea050bd0
:104344005b4405eb337384ea05025a402b4f079e06
:1043540037443944114403eb715185ea030b8bea6a
:10436400010b274a0b9f3a4414445c4401eb344448
:1043740083ea01076740234a4a4415442f4443e033
:1043840078a46ad756b7c7e8db702024eecebdc147
:10439400af0f7cf52ac68747134630a8019546fd22
:1043a400d8988069aff7448bbed75c892211906b93
:1043b400937198fd8e4379a62108b44962251ef6af
:1043c40040b340c0515a5e26aac7b6e95d102fd645
:1043d4005314440281e6a1d8c8fbd3e7e6cde1211a
:1043e400d60737c3870dd5f4ed145a4505e9e3a97b
:1043f400f8a3effcd9026f678a4c2a8d81f6718786
:1044040022619d6d0c38e5fd04eb772781ea0402f7
:104414007a40944d009e35442b44134407eb337388
:1044240084ea07025a40904d039e354429441144be
:1044340003eb715187ea030b8bea010b8b4a069d50
:104444002a441444a34401eb3b4b83ea010282ea6d
:104454000b02874c099d2c4427443a440beb7222ef
:1044640081ea0b045440834d65442b44234402ebfe
:1044740033738bea02075f407f4c0a9e3444214425
:104484000f4403eb775782ea03057d407b49029c86
:1044940021448b445d4407eb354583ea070b8beae3
:1044a400050b7749059c21440a44934405eb7b2b77
:1044b40087ea050484ea0b04724a08990a441344ff
:1044c4001c440beb347485ea0b0161406e4b43448e
:1044d4001f44394404eb71518bea04034b406b4a8b
:1044e400724415441d4401eb354584ea01026a40d7
:1044f400674b019f3b449b445a4405eb722262ea9a
:1045040001036b40634f37443c44234402ebb363e1
:1045140063ea050b8bea020b5f4c069f3c44214483
:104524008b4403ebbb5b6bea02075f405b49494486
:104534000d442f440beb774767ea030484ea0b042a
:104544005749049d29440a44144407ebf42464eabb
:104554000b057d40534a424413441d4404ebb565a6
:1045640065ea070888ea04084f4b02990b449b4408
:10457400d84405ebb85868ea04036b40099aa2f5dd
:104584008016a6f683363e44334408eb734363ea4d
:10459400050989ea08094549009e31440c44a144af
:1045a40003ebf92969ea08065e40414a07990a447f
:1045b40015442e4409ebb66666ea030181ea090153
:1045c4003c4a72449044414406ebb15161ea090407
:1045d4007440394a059d2a4413441c4401eb744435
:1045e40064ea06054d40354b634499444d4404eb5d
:1045f400f52565ea01076740314a039b1a441644ce
:10460400374405ebb76767ea04036b402d4a0b9efa
:1046140032441144194407ebb15161ea05067e4066
:10462400294a019b1a441444344401eb7444c36c76
:104634003b44c36464ea07074f40244b089a13447d
:104644001d442f440aeb040505ebf7250565436d6e
:104654001c444465836d1944816500200db0bde898
:10466400f08f00bf44eabea4a9cfde4b604bbbf67b
:1046740070bcbfbec67e9b28fa27a1ea8530efd462
:10468400051d880439d0d4d9e599dbe6f87ca21f4e
:104694006556acc4442229f497ff2a43a72394ab5c
:1046a40039a093fcc3595b6592cc0c8fd15d848592
:1046b4004f7ea86fe0e62cfe144301a3a111084e1f
:1046c400827e53f735f23abdbbd2d72a91d386eb1b
:020000040000fa
:1046d400b14b834240f04183b04b93f90020531e09
:1046e400dbb2012b00f239832de9f04f87b0ac4bdc
:1046f4001b685bb1012a1ad0a94b1c68a64b1b8806
:10470400002b00f01c830025a34e7be0a54b1b6807
:1047140002a89847002800f3f58220b9029810b146
:1047240003f07afbeee29d4b00221a70eae29e4b04
:104734001b68b3f1ff3fdfd19c4a0021052020f024
:10474400c9ff994b1860b0f1ff3f2ed01ff0f6fe61
:1047540000eb800303f2e733954aa2fb03239b0992
:104764004ff47a7606fb03f3b3fbf0f6914b1e602d
:104774000225914c04e001351034282d00f0d68236
:104784002368002bf7d0b4f90a20002af3d021467d
:10479400a8b21ff01ffe0028edd106f5a673b3fbe7
:1047a400f6f306fb03f6854b1e6021f0d9ff88b9aa
:1047b40015f02efe794bff221a7021f0d1ff00284c
:1047c40000f0a08221f0c6ff4ff0ff327c4919f0bf
:1047d40007fc97e221f0beff05227a4919f000fc9c
:1047e400e6e703230422214630461af07dfc94f8c0
:1047f400433043f0800384f8433001357434318806
:104804008d424bdae06c0028f7d0636c9b699847c3
:1048140094f8433013f0400fefd0636c5b69e06ca5
:1048240098470028dddb0228e7d100230293039395
:104834000493059340f2dc53adf81230636c1b6ca7
:1048440002a9206d98470298e063bdf80c30a4f8e3
:104854004030bdf80e30003318bf012394f84320d4
:1048640063f3451284f84320bdf81230a4f866308f
:104874009df8153084f868309df8143084f8693058
:1048840094f8423043f0400384f84230d3b203f04a
:10489400bf0343f0800384f84330aee73f4b93f902
:1048a4000030012b25d000201af024ff464b1b6852
:1048b40033b9464b1a68464b1b68134300f02282f7
:1048c400414b1b68002b40f089804ff000083f4ba0
:1048d4001b68002b00f091813c4b00221a60304b86
:1048e4001c682d4b1b88002b00f01a811646394f8b
:1048f400e8e02b4b1e68002900f027823246002591
:104904002b46012706e007fa03f00543013374320e
:10491400994212d092f8430000f00c04042cf2d116
:1049240010f0800f00f0ee8192f8420010f0400f7a
:10493400ecd007fa03f00543e8e7012202fa03f397
:10494400013bab4200f00182134b1b88abb1002446
:1049540044f24008104f0ae003230422314638464b
:104964001af0c2fb013474363b889c4205dab6f86f
:10497400423018ea030ff5d0eee7084bff221a7015
:1049840021f0eefe002800f0bd8121f0e3fe2a466e
:10499400114919f025fbb5e1ac650020fa68002047
:1049a4004c68002050680020606a002039430200ef
:1049b400d34d621044680020a852002040680020b3
:1049c400746b0100446b01003868002054680020b7
:1049d4003c680020c05e0020e46b01000025b44b5d
:1049e4001d6021f0c3fe04461ef0d0ff06460f46ac
:1049f40022462b461ff02af8ae4b1860ae4aa2fba3
:104a0400043292092b46304639461ff01ff8ab4b4f
:104a14001860ab4b1b68ab4a12689b1aab4204ddaf
:104a2400a74a13604ff0010851e703f24d13a44a5b
:104a34001360a54b1c68a54b1b88002b00f06c81f0
:104a44000025a24e0ee094f86a3043f0020360f3ae
:104a5400820360f3000384f86a30013574343388c8
:104a64009d420fda94f8423013f0400ff5d0636c96
:104a74005b6a206d984794f86a3003f0010398420a
:104a8400e1d1eae74ff0010821e74ff0010823e7fd
:104a9400002503e08c62384620f02bff636c5b6bcf
:104aa4002a462946206d984701460028f2d1884ab3
:104ab40013680133136029e001367434834b1b8877
:104ac400b3422ddd94f8423013f0400ff4d0b4f823
:104ad4006250636c5b6d206d98470543adb222f064
:104ae4001bf8b4f8623023ea0503a4f8623022f01c
:104af40017f8b4f864302b43a4f86430636c1b6d6e
:104b04002946206d984715f0160fc1d194f843300b
:104b140013f0200fd0d0636c9b6b206d9847cbe7cc
:104b24004ff0000bdff8b49109f10c07dff8b0a1e6
:104b34000af10803019305e001226ff00c012846f5
:104b44001ef004fe384620f075fc054600284bd0c4
:104b54006b699b891c0a44ea0324a4b2a86a866d83
:104b64002eb1c36d22462946b0470028ead1284613
:104b740002f01efd0028e5d140f606039c420dd04c
:104b8400b4f5006f07d04ff6ff739c42d4d10af1fd
:104b94001004022604e0019c012601e0002654468c
:104ba4002b6a23f47c132b62626813432b626088a4
:104bb40000eb4000294609eb800020f09afe012317
:104bc40003fa06f616ea0b0fbcd14bea060b638810
:104bd400404800eb0310038943f0010303810022e2
:104be400012120f097fcade721f096ff394a138ba1
:104bf40023f00103138321f093ff334b1b68334ae3
:104c0400108820b3002240f286651446324e09e033
:104c14003168013131600ee0a3f86440013274332d
:104c2400824214d093f8421011f0400ff6d0b3f83a
:104c340064100d42ecd193f86a1011f0020febd01e
:104c440093f86a106ff3410183f86a10e4e7b8f14e
:104c5400000f66d11f4d05f1300405f5247544e0bd
:104c64001344a381238943f00203238100220221f8
:104c7400204620f04ffc1034ac420fd02368002ba8
:104c8400f9d0b4f90a20002af5d03168a3895b1a57
:104c94009bb219b20029e3dda181ece721f03cffce
:104ca4000c4a138923f00203138121f039ffd1e761
:104cb400386800202c680020d34d6210286800203a
:104cc40040680020446800204c680020ac65002047
:104cd400346800208852002030680020b45e002030
:104ce400b84f02001034ac4209d054f8103c34f8e8
:104cf400082c002bf6d0002af4d09847f2e7174b83
:104d04001b6813b907b0bde8f08f00224ff480711f
:104d1400134820f0fffbf5e7124b1b68002b7ff4d0
:104d2400b4ae114c114e04f51875a7e706f5a67339
:104d3400b3fbf6f306fb03f60d4b1e60dce40d4bf0
:104d440093f90030012b7ff4aead0a4b02221a70a6
:104d5400094900201ef08afda5e570473c68002043
:104d64009852002054680020a85200204468002073
:0c4d740040680020fa680020b46b0100c9
:020000040000fa
:104d80002de9f04f8db083468a460023089309939e
:104d90000a930b9343680393aa4b1968002940f3c5
:104da000a7829146a84b93f8ce30012b00f0a78242
:104db0000023a54d0133d8358b4200f0998295f838
:104dc000ce20012af6d1a04beb1adb1003ebc30275
:104dd00003eb4203c3eb432303eb8343dbf80020e5
:104de00054685a4299490398a047002485f8d14055
:104df00002232b7485f8cf4041f289336b82944ba8
:104e0000ab611ff09dfb04906c6000eb80035b00c6
:104e1000ab6028602c75c5f8c4b028461bf0f4ffc1
:104e2000baf1010fc8bf012411dc95f8d130002b75
:104e300000f0e581012b00f00c820db0bde8f08f91
:104e4000012385f8d1300134e4b25445edda59f844
:104e5000246002227f49304620f084fc0028efd0f5
:104e600005227d49304620f07dfc0028e8d0022252
:104e70007a49304620f076fc28b105227849304640
:104e800020f070fc10b901232b74dce70222754975
:104e9000304620f067fc30b105227349304620f0df
:104ea00061fc00285cd101232b741c44e4b259f846
:104eb0002460304621f010f8c7b207f1ff38b04443
:104ec0006a49404621f0b2f8b8b16949404621f03c
:104ed000adf800283dd14ff47a7807f1ff3cbcf1e2
:104ee000000f33dd00273a464ff0010e3b46059494
:104ef0007146b64644460e46e3e15d49404621f020
:104f000095f800285b4b0cbf4ff47a789846e4e79d
:104f100002eb820200eb4202303adce12346059cc0
:104f200003fb07f3424501d208fb02f20892099302
:104f3000dbf80010981800904e684f49dbf8040029
:104f4000b047089b099a1344ab617ce700221346e3
:104f5000eae7012208a9304616f0d2fc089bf3e7e5
:104f600002224649304620f0fdfb28b10522444983
:104f7000304620f0f7fb50b90134e4b2012208a911
:104f800059f8240016f0bcfc089bab615be70222d9
:104f90003c49304620f0e6fb28b105223a4930462c
:104fa00020f0e0fbb8b9002385f8d1300134e4b239
:104fb000042208a959f8240016f0a2fc089b85f8e1
:104fc0004430099b85f845300a9b85f846300b9b99
:104fd00085f8473037e702222c49304620f0c2fbe3
:104fe00028b105222a49304620f0bcfb78b90134ab
:104ff000e4b2012208a959f8240016f081fc089bac
:10500000049a02fb03f3ab6000236b601be70222f0
:105010002049304620f0a6fb30b105221e4930461b
:1050200020f0a0fb002839d10134e4b2012208a904
:1050300059f8240016f064fc089b6b600023ab60f9
:1050400001e700bf8c670020b85a002020eb000069
:105050008096980044e9000048e9000054e9000007
:1050600058e9000060e9000064e9000070e9000010
:1050700074e9000040420f0078e9000094e9000064
:1050800098e90000a4e90000a8e90000b4e90000e4
:10509000b8e90000c0e90000c4e900000222994913
:1050a000304620f05ffb30b105229749304620f0b2
:1050b00059fb002836d10134e4b259f82400437872
:1050c000782b17d0012208a916f01afc9df82000b1
:1050d0000246202820d018d9a0281ad0c0281ed1d6
:1050e00010232b75dbf800305e682b7d8749039811
:1050f000b047a8e683788df81f30c3788df81e304e
:10510000bdf81e001df066f9e2e740b900232b75db
:10511000e8e720232b75e5e708232b75e2e700235a
:105120002b75dfe702227a49304620f01bfb28b1bd
:1051300005227849304620f015fb58b90134e4b215
:10514000012208a959f8240016f0dafb089ba5f8fb
:10515000d23078e602227049304620f003fb28b1b5
:1051600005226e49304620f0fdfa68b90134e4b2f8
:10517000012208a959f8240016f0c2fb089b049ae2
:1051800002fb03f32b605ee602226549304620f005
:10519000e9fa28b106226349304620f0e3fa50b913
:1051a0000134e4b2012208a959f8240016f0a8fb42
:1051b000089b6b8247e602225b49304620f0d2fa18
:1051c00038b105225949304620f0ccfa00287ff446
:1051d0003aae0134e4b2012208a959f8240016f0cd
:1051e0008ffb089b332b01d9eb602ce6d5f8c4303c
:1051f0001b685b6834224e49039898471de60021de
:1052000005f180001ff0cafbc5f8c80098b12b7cdf
:10521000022b1bd0012b0cbfaa890022454b03fb9c
:1052200002f3aa69b3fbf2f3c5f884300a212846d9
:105230001bf066f801e6dbf800301b683e49039876
:10524000984721f053fac5f8c800e0e7b5f8d22036
:10525000e4e7dbf800301b683849039c2046984798
:10526000dbf800301b683649204698472b7c012b21
:105270000fd02b7c022b13d0d5f8c4301b685b6891
:105280006a8a304903989847022128461bf038f86b
:10529000d3e5dbf800301b682b4903989847e8e713
:1052a000dbf800301b68294903989847e4e72e286b
:1052b00002d108fb02f200260133dbb26345bff6e0
:1052c0002dae1ef80300a0f13001c9b20929eed8b5
:1052d000002e7ff41dae002eeed107eb870700eb0a
:1052e0004700a0f130071a49a1fb0401cc08e3e70d
:1052f000dbf800301b681749039898479de5164d69
:1053000061e500bfcce90000d0e90000d8e9000069
:1053100004ea000008ea0000ec65010010ea000061
:105320001cea000020ea000028ea00002cea000045
:1053300034ea000000127a0060ea000088ea000007
:10534000c4ea0000e8ea0000e0ea0000e4ea000045
:0c535000cdccccccf4ea0000b85a002010
:020000040000fa
:10535c0090f87730012b40f0cb822de9f04786b0e6
:10536c0004460e469146c26c002a60d0136a13f0b4
:10537c00080f5cd143f008031362c76c002f56d0a2
:10538c000023a7f85630a7f85430bb64a7f86e304a
:10539c00a7f86c303b663a6913603a69938116f052
:1053ac00010f07d094f83f3043f0010384f83f30ed
:1053bc0006f0fe0694f83e3003f023036ff345131a
:1053cc0084f83e3094f87730012b0cbffd69002532
:1053dc002b7b6ff307132b7316f0060f59d016f0b7
:1053ec00020f00f01c8102238df8143004238df879
:1053fc00153094f87730012b34d00020030a43ea9f
:10540c000023adf81630a4f86c002b7bc3f3031209
:10541c00013262f307132b7394f87730012b04bf1e
:10542c00059b6b61636d6bb34ff00008f9e0b64bf5
:10543c000422142178201ef01ffd0746002800f0de
:10544c005a82b24b8360c4600123a0f87030a0f87c
:10545c005830036a43f008030362e36c002b9ed1bf
:10546c00e0649ce7a36c2bb1a06c1ff0c3ff143855
:10547c0080b2c3e720461cf0d9fb0028f4d16ff0b2
:10548c00030089e1204612f07fff60654ff00008b1
:10549c00c7e0b4f86a80a26823699a4200f03482ab
:1054ac00b4f86430002b00f0aa8094f87730012b0c
:1054bc002dd0b4f86c30984528bf9846a368216964
:1054cc008b423cd95b1ab4f864a09a4528bf9a4623
:1054dc00d04506d294f83e3043f0800384f83e3039
:1054ec00c24694f87730012b16d0236953442361bc
:1054fc0094f83f3013f0010f00f08380b4f864305f
:10550c0053457ed0d0457cd046f0010679e021f0a1
:10551c0057fb0028d2d1cce70023bb6459b11ffa4a
:10552c008af3a7f85630a7f8543039653b6907f170
:10553c0048021a60d9e73b6900221a60d5e7626815
:10554c00521a206813441b1ab4f864a09a4528bf59
:10555c009a46d04506d294f83e3043f0800384f846
:10556c003e30c2461346524528bf5346baeb03029f
:10557c002cd094f877c0bcf1010f0ad023695344a6
:10558c00236162689342b3d32168521a9b1a236138
:10559c00aee7a0b192b2a7f86e20a7f86c20b8665f
:1055ac0007f16002ba6469b19bb2a7f85630a7f84c
:1055bc00543039653b6907f148021a60dee7002276
:1055cc00ba64f0e73b6900221a60d7e794f87720b9
:1055dc00012ad3d10022ba6451b19bb2a7f856303c
:1055ec00a7f8543039653b6907f148021a60c5e7e2
:1055fc003b6900221a60c1e74ff0000a7ee74ff0ca
:10560c00000a1ffa8af8baf1000f0ad0b4f8643015
:10561c00a3eb0803a4f8643046f0080606e04ff04c
:10562c00000816f0030f45d04ff0000a19f0010fd7
:10563c000dd0002384f87830354b1a684ff47a7308
:10564c0003fb02f3334aa2fb03239b0923651ef0e1
:10565c005dff236d1844606294f83e3043f0020302
:10566c0084f83e30b4f862302b80b4f860306b8034
:10567c00636d6b60a36dab602b7b6ff303032b73bc
:10568c006e7300236b822b82636d5344636516f03b
:10569c00020f4dd016f0100f04bf0023ab6094f82e
:1056ac00743013f0080f37d06b68013b6b604ff010
:1056bc0004093fe019f0020f0ad094f87930013355
:1056cc0084f87930636d013b63654ff0010ac9e7db
:1056dc0094f83e3013f0020f13d019f0010f08d1db
:1056ec0094f878302bb1013b84f87830236d5b084b
:1056fc0023651ef00bff236d184460624ff0000a07
:10570c00b0e74ff0000aade706002000a56f0100de
:10571c00ac670020d34d6210636d0133636594f860
:10572c00743043f0080384f874304ff0040901e03e
:10573c004ff0000916f0010f05d094f8743043f0c7
:10574c00040384f8743016f0100f05d094f87530fb
:10575c0043f0010384f87530e369226a934223d342
:10576c00a1696069091a9b1acb1a9bb2eb81a4f848
:10577c006630284619f058f92b7bc3f30312053217
:10578c0062f307132b7394f87730012b10d0b8f118
:10579c00000f7ed14ff0ff3094f87730012b00f0e2
:1057ac00a28006b0bde8f087d31a013b9bb2dde7bf
:1057bc00236c23b90025b8f1000f6dd06ae02046a8
:1057cc001cf034fa05460028f5d009f11409636c75
:1057dc00bb63236cfb63a36c3b643a6993894b44b6
:1057ec009381fd6900232b82a36c93f8683013f02e
:1057fc00010f18d094f885308df8053094f8863068
:10580c008df8043000258df8065009eb080201ab29
:10581c0092b2062138460df06bfd3d60384620f003
:10582c003bff0546c7e7bb6b0293fb6b0393002260
:10583c008df8102006238df8113009eb08039bb26c
:10584c00190a41ea0323adf812300c2102a818f012
:10585c00c3fdc24392b24946284618f0bdfdc3436e
:10586c009bb2b8f1000f07d139690a8a22f00802fd
:10587c000a82db432b82bde739690a8a42f00802af
:10588c000a824246396d384617f080fac3439bb200
:10589c00efe70025a36babb1002d3ff47baf16f007
:1058ac00040f2bd0e56f5db3b4f87a3013f0080f0a
:1058bc0028d0d4f880300822a16cb4f93c00a84759
:1058cc0000206ee740f2dc5363631ef01ffe626b38
:1058dc00124b1b6803fb02f3114aa2fb032300ebe0
:1058ec009310a063d8e73b6a23f008033b6258e7a8
:1058fc006ff0010070476ff0020052e7002050e794
:10590c0000204ee700204ce794f83f3013f0010fd5
:10591c007ff472ae4ff0000883e600bfac67002046
:04592c00d34d6210e5
:020000040000fa
:105930002de9f04f8db000f50e5292f8433092f8f9
:1059400040703c329279013ad21ad2b2ba4280f017
:105950007f8200f50e5b0bf13c0bcdf81cb083464b
:1059600093e0ff2e44d199f84130ff2b22d02846f6
:105970001df021fd002845d042f2744301220bf8ae
:105980000320002342f273420bf8023042f26442d9
:105990002bf8023042f248435bf8032004215846ba
:1059a00014f0dafe0bf5115331332a78c2f34012aa
:1059b0001a7054e099f84230ff2bd8d199f843304f
:1059c000ff2bd4d1012142f274430bf803100023c2
:1059d00042f273420bf8023042f264422bf802307a
:1059e00042f248435bf80320584614f0b5fed9e76d
:1059f00028461df0e0fc0028bed1334616f0400fcb
:105a000000f0ff8042f2744301220bf803200023d0
:105a100042f273420bf8023042f264422bf8023039
:105a200042f248435bf803200621584614f094fee6
:105a3000b8e742f2744301220bf80320002342f23c
:105a400073420bf8023042f264422bf8023042f209
:105a500048435bf803200721584614f07dfe0023dd
:105a600042f264422bf8023042f274420bf80230e8
:105a7000079ad3790133dbb2d37117799279013a5e
