:020000040000fa
:10000000f0ff032091a90100274b02002b4b0200b7
:10001000334b0200374b02003b4b02000000000054
:10002000000000000000000000000000454b02003e
:100030002f4b020000000000454b0200454b020020
:10004000454b0200454b0200454b0200454b020068
:10005000454b0200454b0200454b0200454b020058
:10006000454b0200454b0200454b0200454b020048
:10007000454b0200454b0200454b0200454b020038
:10008000454b0200454b0200454b0200454b020028
:10009000454b0200454b0200454b0200454b020018
:1000a000454b0200454b0200454b0200454b020008
:1000b000454b0200454b0200454b02007f490200c0
:1000c00089490200454b0200454b0200454b0200a6
:1000d000454b0200454b0200454b0200454b0200d8
:1000e000454b0200454b02000000000000000000ec
:1000f00000000000454b0200f90b0100f90b010064
:10010000f90b0100f90b010009e3010009e301000b
:1001100009e3010009e30100454b0200454b0200e1
:10012000454b0200454b0200454b0200454b020087
:10013000454b0200454b0200454b0200454b020077
:10014000454b0200454b0200454b0200454b020067
:10015000454b0200454b0200454b0200454b020057
:10016000454b0200454b0200454b0200454b020047
:10017000454b0200454b0200454b0200454b020037
:10018000454b0200454b0200454b0200454b020027
:10019000ad1e0200454b0200454b0200454b0200dc
:1001a000454b0200454b0200454b0200454b020007
:1001b000454b0200454b0200454b0200454b0200f7
:1001c000454b0200454b0200454b0200454b0200e7
:1001d000454b0200454b0200454b0200454b0200d7
:1001e000454b0200454b0200454b02000d2002002a
:1001f000454b0200454b0200454b0200454b0200b7
:10020000454b0200454b0200454b0200454b0200a6
:10021000454b0200454b0200454b0200454b020096
:10022000454b0200454b0200454b0200454b020086
:10023000454b0200454b0200454b0200454b020076
:10024000454b0200454b0200454b0200454b020066
:10025000454b0200454b0200454b0200454b020056
:04026000454b020008
:020000040000fa
:10026400f8b500bff8bc08bc9e46704731ff0100da
:10027400f8b500bff8bc08bc9e4670470dff0100ee
:020000040000fa
:08028400b8b200000100000007
:020000040000fa
:10028c002de9f04f8db00f210a2022f023f90290b6
:10029c0010f0010f40f05d85029b13f0020f40f04f
:1002ac007c850db0bde8f08fd9f8187007f11002fd
:1002bc00059213f4007f21d1fb6809933b690a93e3
:1002cc0000228df82c2006238df82d30330a43eaba
:1002dc000623adf82e300c2109a81cf0b9fac04346
:1002ec0083b2d9f8202012f0040f30d032464146a8
:1002fc0048461bf045f8002840f09a8640461cf012
:10030c00cdfd98f80ca04fea1a1a4fea8a03049311
:10031c00d9f81ca0baf80220002a00f08c86fd89be
:10032c00bb891d44baf800301d445540adb2c74bd3
:10033c00d3f800c0bcf1000f00f08086d9f828e09b
:10034c00c34b1b68039300239b4610460ee01a46d2
:10035c00314640461cf07cfacde7b4f8722082425c
:10036c002fd001331bb21c469c452fd9039a52f84f
:10037c002440002cf5d094f876200b2af1d094f878
:10038c0077100129edd8a16c09b18e45e9d1002a6d
:10039c00e3d0b4f87220aa42e3d1daf80010226e4e
:1003ac009142ded1216cfa689142dad1012184f8b4
:1003bc007710c4f848e0059a204620f038fea34692
:1003cc0022e0bbf1000f08bfa346cae7bbf1000f48
:1003dc0000f08380fb68cbf8403001218bf877105c
:1003ec00cbf848e0059a584620f021feabf8725045
:1003fc00baf80030abf86030baf80230abf86230c3
:10040c00dbf80030cbf81030d9f810209389049920
:10041c005b1a938198f80d40d8f80870d8f80450fe
:10042c009bf83f3013f0400f5bd19bf875306ff3a6
:10043c0000038bf875309bf87630002b69d0012bbc
:10044c0000f09e801436049aa6eb020a1ffa8afa70
:10045c00aaf1140292b2059214f0010206921abf8c
:10046c00aaf1130a1ffa8af2059a039214f0020fea
:10047c0003d0039a013292b20392dbf81c60dbf8d2
:10048c0020209642c0f0aa80dbf81810dbf814008c
:10049c00091aa6eb020aa1eb0a0a1ffa8af20492c5
:1004ac00dbf85820a5eb020a039a002a00f0a98079
:1004bc00049a002a00f0a080baf1000fc0f29680d6
:1004cc009245c0f0a780039a04998a1a8a45c0f213
:1004dc00a180924540f39e808ee06ff00e0100f0fb
:1004ec0034bc00238bf879309bf83e3013f0020fac
:1004fc009bd122f07bf8bbf87020564b1b6803fb9a
:10050c0002f3554aa2fb032300eb9310cbf8240013
:10051c008be714f0040f1ad114f0100f1dd114f046
:10052c00020f27d00135cbf85850404617f070f920
:10053c00abf86a0058461ff020ff012212215846e2
:10054c0004f070fa02238bf876300026e6e30021e3
:10055c00584610f0e1ff0026e0e3cbf8547000227f
:10056c000421584604f05efa0021584610f0d4ffde
:10057c000026d3e30021584610f0ceff0026cde331
:10058c0014f0040f40f0c98314f0100f00f0a08594
:10059c00dbf85460b74205d114f0020f40f05585da
:1005ac000026bbe3cbf8547001220421584604f01a
:1005bc0039facbf854600026b0e322f017f8bbf8f8
:1005cc007020244b1b6803fb02f3234aa2fb03237a
:1005dc0000eb9313cbf8243000f056bda2eb060ac7
:1005ec000af1ff3a1ffa8af2049259e703990a4674
:1005fc00514400293ff768af14f0040f1fd00026b8
:10060c008ce3baf1000f05d0baf1000ff4db049ab9
:10061c009245f1da14f0060f20d114f0100f00f00f
:10062c009083023b072b00f2cc81dfe813f029000a
:10063c003e003e003e003e00ca013e00bd010122cc
:10064c001021584604f0eef9002667e350520020c2
:10065c004c52002054520020d34d621014f0040f61
:10066c0008d09bf83f3043f002038bf83f304ff437
:10067c00006600e000260021584610f04dff4de3c7
:10068c00dbf85460b74205d103238bf876304ff476
:10069c0080760be0cbf8547001220421584604f00c
:1006ac00c1f9cbf85460002638e30026dbf81010b3
:1006bc00dbf808305a1a13d4dbf854003b1a9b1a97
:1006cc00002b1dddbbf8742002f40172042a01d149
:1006dc00012b0cd000221021584604f0a3f91de385
:1006ec00dbf80430dbf800001b1a1a44e4e7013095
:1006fc00cbf854009bf8753043f002038bf875303f
:10070c00dbf85430dbf80c20881a914249d2dbf824
:10071c000420dbf80010521afb1a0344d318079379
:10072c00002b07dddbf80430dbf800209b1a079a5e
:10073c009a4246d9dbf83830002b40f0a280dbf827
:10074c000c20dbf808309a4200f0d980b8f80e3053
:10075c00bbf86e209a4238bfabf86e30dbf85420f1
:10076c00b8f80e303b449b1a9bb2bbf8641031b9fd
:10077c002bb19bf83e1041f040018bf83e10abf8ca
:10078c0064309bf87630042b00f0f080062b40f0a0
:10079c001981974240f0c2820021584610f0bcfeed
:1007ac00bce2fb1a03440793002b07dddbf8043093
:1007bc00dbf800001b1a0798984202d99142bed070
:1007cc00b8e740f2dc53cbf8343021f00fffdbf804
:1007dc003420c44b1b6803fb02f3c34aa2fb032364
:1007ec0000eb9313cbf838309bf83e306ff3451386
:1007fc008bf83e30dbf80c10079b0b44cbf80c301d
:10080c00dbf8102091420ed893421cd99a1adbf8cf
:10081c0054100a44cbf85420cbf81030dbf80420e9
:10082c00934224d313e0dbf80410dbf80000091a20
:10083c000a44934207d99a1adbf854100a44cbf8ad
:10084c005420cbf81030dbf80420934205d3dbf8ae
:10085c000010511a5b1acbf80c30dbf810309342b5
:10086c0005d3dbf80010521a9a1acbf810209bf81b
:10087c007630032b02d0082b7ff461af46f00406d0
:10088c005de721f0b3fedbf83830c31a002bfff61e
:10089c0056afdbf834305b00b3f57a4f28bf4ff41a
:1008ac007a43cbf8343021f0a1fedbf834208d4ba9
:1008bc001b6803fb02f38c4aa2fb032300eb93138c
:1008cc00cbf83830dbf81010dbf80c20881adbf88a
:1008dc0054301b1acbf85430914207d2dbf8041079
:1008ec00dbf80000091a5b1acbf85430cbf8102057
:1008fc009bf83e3043f080038bf83e301fe79bf8ab
:10090c003f3013f0010f19d113f0400f06d19bf8b3
:10091c003e306ff341038bf83e3017e721f066fe53
:10092c00bbf870206f4b1b6803fb02f34ff47a7219
:10093c00b3fbf2f30344cbf82430e8e7dbf8543094
:10094c009f427ff403af9bf8743013f0040f3ff415
:10095c00fdae9bf83e306ff341038bf83e309bf8b5
:10096c003f306ff300038bf83f30efe6974203d034
:10097c0014f0200f35d0d1e19bf8743013f0040f34
:10098c00f6d021f033fe574b1a6841f2883303fb43
:10099c0002f34ff47a72b3fbf2f30344cbf830302a
:1009ac0005238bf87630e3e7dbf8543001339f42b4
:1009bc0001d00026b2e10021584610f0adfd002612
:1009cc00ace1002614f0200f40f0a8819bf87620b3
:1009dc00a2f10803dbb2012b40f2a081062a00f041
:1009ec009d81059a002a3fd0baf1000f7edd059b50
:1009fc005344049a934203dda2eb0a039bb2059382
:100a0c0098f80c301b0908eb83030893dbf81c10d7
:100a1c00dbf81830059a52440a44934280f0f48073
:100a2c005a1a0132b2eb0a0200f1df801ffa82f887
:100a3c0001240094434608a80246514448461bf042
:100a4c0043fa0490059aa2eb080300949bb208aaff
:100a5c00dbf8141048461bf037fa049b034498b299
:100a6c00059b834200f0d980039bcbb19bf8763079
:100a7c00033bdbb2022b84bfdbf81c30cbf82030fd
:100a8c009bf83e3013f0100f40f0fa809bf83e308c
:100a9c0043f010038bf83e3013f0080f00f0f68093
:100aac00069b002b00f03a81dbf858300133039a97
:100abc002a44934240f03281cbf8583046f4806699
:100acc009bf83f3043f004038bf83f309bf87630b3
:100adc00023b032b00f20781dfe813f0ec00f5007a
:100aec00fe00150154520020d34d621098f80c30c2
:100afc001b09caeb830343440893524493b2049af0
:100b0c009a4228bf1a469246dbf81c10dbf81830c4
:100b1c008a18934259d25b1a01330493bdf81080a2
:100b2c0001240094434608aa48461bf0cdf90590d1
:100b3c00aaeb080300949bb208aadbf814104846f1
:100b4c001bf0c2f9059a024490b2049baaeb030372
:100b5c00dbf814201344504586d1dbf8581051446f
:100b6c00cbf85810cbf81c309bf87620033ad2b255
:100b7c00022a98bf46f40076dbf85c20b2f1ff3f06
:100b8c003ff472afa2eb0a0acbf85ca0bbf868206a
:100b9c0012eb0a0224d4baf1000f3ff765af1144ef
:100bac00cbf858101344cbf81c30dbf818209342c8
:100bbc0006d9dbf81410521ad2431344cbf81c306c
:100bcc004ff0ff33cbf85c304ee7012300935346d4
:100bdc0008aa48461bf078f9dbf81c305344bae7f6
:100bec004ff0ff33cbf85c303ee70af1ff30dbf817
:100bfc0014209b1ac01a01230093059b08aa0144d8
:100c0c0048461bf061f92be701230093059b08aaca
:100c1c00514448461bf058f922e7dbf85c30b3f13d
:100c2c00ff3f15d09a4519d2059a02eb0a01bbf881
:100c3c006820d018814205d88b4203d8a0eb0a0358
:100c4c009bb20593059babf86830cbf85ca00be727
:100c5c00cbf85ca0059babf8683005e7bbf86820c7
:100c6c001a4405980146514491427ff6fdae9245d7
:100c7c003ff6faaeaaeb03031844abf86800f3e6b0
:100c8c0001221021584603f0cdfe09e7dbb243f0f8
:100c9c0008038bf83e3021f0a9fcb14b1a68642391
:100cac0003fb02f34ff47a72b3fbf2f30344cbf879
:100cbc002c30f5e609238bf87630012211215846a9
:100ccc0003f0b0fe2ae008238bf876309bf87530e1
:100cdc0013f0010f07d021e0dbf854309f4208d00d
:100cec0006238bf8763001221021584603f09afe29
:100cfc0014e000221021584603f094fe00215846bf
:100d0c0010f00afc0ae000221021584603f08afe7b
:100d1c000021584610f000fc00e00026bbf87a20b9
:100d2c00324000f08e81dbf87c40002c00f08b818f
:100d3c00dbf88030d9f82810bbf93c00a047022121
:100d4c0003e00026eae76ff00d010a22484620f086
:100d5c0091fd0a2023f03cf8814600283ff49caa20
:100d6c00b9f82c60132eeed9d9f81c8098f80c30f9
:100d7c001b09042b0bd9b6eb830f0bdbd9f82030f6
:100d8c0013f400343ff490aa6ff00e01dde76ff01e
:100d9c000d01dae76ff00d01d7e7724b1b68002be2
:100dac003ff47faa00252b46dff8bc91dff8bca1ed
:100dbc00dff8b081e6e021f019fca36ac01a002824
:100dcc00a8bf1026f4e021f011fce36ac01a002839
:100ddc00c0f2f48094f87630052b00f08a8110264e
:100dec0087f001023146204603f01cfeeee021f0b4
:100dfc00fdfb236bc01a0028c0f2e58001221421f0
:100e0c00204603f00ffe0021204610f085fbb1e0d8
:100e1c0094f83e6006f001060121204617f01ffff2
:100e2c0094f83e3043f0010384f83e304ff4805286
:100e3c00002120461df08bfd002e40f09b8094f885
:100e4c003e306ff3000384f83e300a2384f876308a
:100e5c0090e021f0cbfb636ac01a0028c0f28a80b4
:100e6c0094f876104b1e082b00f28280dfe803f01a
:100e7c000541556080688080700094f87830032bb1
:100e8c0040f22b81042384f87830354b1a684ff4e8
:100e9c007a7303fb02f3aafb03239b091b01236553
:100eac000221002694f87830013384f87830236dd1
:100ebc005b0023652069e268831a9bb2904204d2de
:100ecc0060682768c01b03449bb2606dc01a6065e4
:100edc00b4f864000344a4f8643022610022204674
:100eec0003f0a0fd002e45d00021204610f014fb8d
:100efc0040e094f87830022b40f2f18094f83e6098
:100f0c0006f001031e46002b18bf1421002fc9d177
:100f1c000122204603f086fde4e794f87830042b98
:100f2c0040f2df80042384f8763011210026ede7af
:100f3c0094f87830042b40f2d68014210126e5e792
:100f4c0094f87830042b40f2d08014210126dde790
:100f5c0094f87830042b40f2ca8014210126d5e78e
:100f6c0054520020505200204c520020d34d62109d
:100f7c00002e5ad101352db22b46d8f800209542bf
:100f8c00bff48fa9d9f8002052f82340002cf1d0df
:100f9c0094f876300b2bedd094f83e3013f0c0065d
:100fac001abfdf091026002713f0040f7ff403afdc
:100fbc0094f83e3013f0080f7ff405af94f87630b8
:100fcc00052b3ff414af002e7ff40aaf94f83e309b
:100fdc0013f0020f7ff43daf94f83f3013f0400f45
:100fec00c8d094f87630032bc4d121f0fffa636a91
:100ffc00c01a0028bedb94f8792094f884309a4209
:10100c003ff406af02221021204603f00bfd21f025
:10101c00edfab4f870203b4b1b6803fb02f3aafb00
:10102c00032300eb93106062a4e7314600266de7c2
:10103c006ff0090189e66ff00e0186e66ff00e0184
:10104c0083e6022181e602217fe60135cbf8585078
:10105c00b8f80e30abf86e30abf86430404616f092
:10106c00d7fbabf86a0058461ff087f90122102114
:10107c00584603f0d7fc03238bf876309bf83f30af
:10108c0013f0400f7ff499aa9bf83e306ff34103a5
:10109c008bf83e304ff4807640e60135cbf8585053
:1010ac00b8f80e30abf86e30abf86430404616f042
:1010bc00affbabf86a0058461ff05ff90122122112
:1010cc00584603f0affc02238bf87630002625e659
:1010dc0014f0020fe1d1002620e60221e1e61221f4
:1010ec00dfe61021dde61121dbe61021d9e6112126
:1010fc00d7e621f07bfa236bc01a0028bff67eae30
:08110c0010266de6545200208c
:020000040000fa
:101114002de9f04f2ded028b9bb00f21212021f002
:10112400ddf9002800f0b8867d4b1b68002b40f3e6
:10113400b3867c4c0026dff820929fed7b8ab9e3ce
:10114400d4f8c4305d6894f8d1202ab3227c012af3
:1011540042d0022a61d1b4f93830b3f1ff3f25d02f
:101164000023724a4ff40071b4f9380020f07bfd7b
:10117400d4f8bc200221b4f9380012f07bf830b95d
:10118400d4f8c4301b681b6869492846984706216f
:1011940020461df091fa86e31b681b6865492846c2
:1011a4009847012120461df087fa7ce304f1800270
:1011b400618a012017f054fe2087b0f1ff3fcfd1a0
:1011c400d4f8c4301b681b685b4928469847012142
:1011d40020461df071fa66e304f18002618a012061
:1011e40023f0c1fba087b0f1ff3f0ad00023534a8c
:1011f4004ff4807120f0f2fe032120461df05cfaca
:1012040051e3d4f8c4301b681b684d4928469847fd
:10121400012120461df050fa45e31b681b6849492b
:1012240028469847012120461df046fa3be3d4f8ae
:10123400c430d3f804b03b4be31adb1003ebc30216
:1012440003eb4203c3eb432303eb8343c3f1000ae1
:1012540097e0d4f8c4301b681b683b49584698474c
:10126400042120461df028fa1de3b4f93c0021f0c6
:1012740009fd18e30133c4f89430284621f013fd26
:1012840002460b46d4e908010bf0f5fac4e908015b
:10129400002f19dba36ae26a511c8b4231d09342be
:1012a40020dc616b01f1010161632cd020e0d4f8f2
:1012b400c4301b685b68254958469847236b013b3b
:1012c400a26a1344236391e07f42a76221f092f95a
:1012d400c4f88c00002384f8cc30042120461df08f
:1012e400ebf9d7e75b1a226b13442363a36ae36227
:1012f4000c3dadb2002d44d0dff858804ff4c867e0
:1013040036e0934206d1d4f8c4301b681b681049f8
:1013140058469847a36ae26a9342e9dde7e700bfcb
:1013240034520020d047002000007a44593f020084
:1013340028910000e090000004910000433f020067
:1013440050910000749100008c910000ac91000059
:10135400d891000060390020784f00203a46414679
:10136400b4f93c0014f010fba5f5c865adb245b165
:10137400b5f5c86ff2d22a46d149b4f93c0014f04d
:1013840003fbb4f93c0021f0f9f805460b2878d9a1
:101394000c224946b4f93c0014f0f6fa0c287ff408
:1013a40058afd9f800301f0e47ea03671a0202f457
:1013b4007f0217431b0a03f47f431f43a762d4f839
:1013c4009430002b7ff456af002ffff64eaf01236d
:1013d400c4f89430d4f8c4301b685b685246b949e9
:1013e40058469847a26a002a7ff461afa36ae36271
:1013f40005a9b4f93c0013f00ffbb4f93c0023f049
:101404006df821f0fbfe069dd4f8c4301b68628a97
:101414000292020e0192c0f3074200925f68c0f389
:101424000723c2b2a8495846b847d4f8c4301b6849
:10143400bdf8582002922a0e0192c5f30742009289
:101444005f68c5f30723eab2a0495846b847656404
:10145400bdf85830a4f8643021f0ccf8c4f8880002
:10146400c4f8a800a36ac4f89c30d4f89430c4f833
:101474009830236bc4f8a030b4f93c0021f002fc8e
:101484007fe7d4f894304bb994f8cf30012b40f077
:101494000a82042120461df00ff904e221f0aaf883
:1014a400d4f8a830c31a22689342edd9d4f8942012
:1014b400d4f898309a4212d1d4f8c4301b681b680f
:1014c40083495846984721f095f8c4f88c000023c6
:1014d40084f8cc30042120461df0eef8d4e7002136
:1014e40020460af003fccfe7b4f93c0021f046f8ab
:1014f40038b994f8cf304bb1092120461df0dcf8ff
:10150400d1e1b4f93c0021f0bdfbcce1052120463a
:101514001df0d2f8c7e194f8cd30002b00f0bd8067
:10152400b4f93c0021f02af8002840f0be8094f879
:10153400cc305a1c84f8cc200a2b00f2bb808021ca
:10154400b4f93c0023f094fa002800f0ac81e36a7b
:101554005b421a0e42ea0362190201f47f010a4354
:101564001b0a03f47f431343c9f800300025c9f86c
:101574000450c9f808508023c9f80c30c9f8105039
:10158400d4e9080121f0e4fa020e42ea00620302ff
:1015940003f47f031a43030a03f47f431343c9f894
:1015a400143021f03bf8d4f88c10d4f88830c91ae0
:1015b400b1fbf0f31a0e42ea03621f0207f47f073d
:1015c4003a431f0a07f47f473a43c9f8182000fb3f
:1015d400131307ee103ab8ee477a27ee087a07eeaf
:1015e400900af8ee676ac7ee267a67ee887afcee10
:1015f400e77a17ee903a1a0e42ea0362190201f4ee
:101604007f010a431b0a03f47f431343c9f81c30c8
:10161400236b1a0e42ea0362190201f47f010a43a2
:101624001b0a03f47f431343c9f82030636b1a0e7b
:1016340042ea0362190201f47f010a431b0a03f41c
:101644007f431343c9f82430e36a1a0e42ea036263
:10165400190201f47f010a431b0a03f47f43134375
:10166400c9f82830c9f82c50c9f8305034224946fa
:10167400b4f93c001df0aafe4c273a46294605a8b9
:1016840022f040fe3a4605a9b4f93c001df09efe46
:10169400b4f93c000af0ceff05e1022120460af02d
:1016a40025fb012384f8cd303ae7b4f93c0021f05e
:1016b400e9faf8e0092120461cf0fefff3e000bf40
:1016c40060390020109200007c470100b0470100ff
:1016d400f891000094f8cf30012b26d0b4f93800eb
:1016e40021f04bf8002800f0de803822002105a804
:1016f40022f008fe05a9b4f938001af0f8fa04f14a
:10170400400705ad0fcd0fc70fcd0fc70fcd0fc7c6
:1017140095e8030087e80300072120461cf0ccff6e
:10172400b4f9380020f032fdbde0092120461cf058
:10173400c3ffb8e0d4f8c4305f68b4f9380022f0cd
:1017440036fe0546002865d0a36a002b49d1bd4b5f
:10175400e31adb1003ebc30203eb4203c3eb4323a3
:1017640003eb8343d4f8c4201268d2f804805a42ad
:10177400b5493846c04720f03dffc4f88800c4f896
:10178400a800a36ac4f89c30b4f9380022f086fe9d
:1017940021f034fdd4f8c4301b68628a0292020e30
:1017a4000192c0f307420092d3f80480c0f30723e8
:1017b400c2b2a6493846c047d4f8c4301b68b4f84e
:1017c4006420029294f84720019294f846200092f3
:1017d400d3f8048094f8453094f844209c49384662
:1017e400c047a36a0133a362d4f894200132c4f839
:1017f4009420e362284621f056fa02460b46d4e9c7
:1018040008010bf038f8c4e90801dff848824ff406
:10181400c8671ce0b4f9380020f0b8fc20b9b4f96a
:10182400380022f0a2fbd8b120f0e4fec4f88c000a
:10183400082120461cf040ff35e03a464146b4f901
:10184400380014f067fea5f5c865adb245b1b5f52d
:10185400c86ff2d22a467f49b4f9380014f05afe10
:10186400a36a63b994f8cf30012b1cd10821204618
:101874001cf022ff20f0befec4f88c0013e020f020
:10188400b9fed4f8a830c31a22689342ead90021d9
:1018940020460af02bfae5e794f8cd30c3b30921ca
:1018a40020461cf009ff0136d8346b4b1b68b34249
:1018b40040f3f28294f8ce30012bf4d0023b102b8b
:1018c40000f2e58201a252f823f000bf45110000a6
:1018d40033120000ed1400001b150000d91600009f
:1018e400391700009d18000025190000c1190000d7
:1018f400ed190000dd1b0000c31c0000471d0000a3
:101904006d1e0000ed1a0000dd1d0000831e0000a6
:10191400022120460af0eaf9012384f8cd30bee71b
:10192400d4f8c4305f68237c012b29d0022b2cd03f
:10193400444be31adb1003ebc30203eb4203c3eb98
:10194400432303eb83435d42d4f8c4301b685b68d4
:101954002a4642493846984720461df009fc94f827
:10196400d130012b19d0d4f8c4301b685b682a46e7
:101974003b4938469847012120461cf09dfe92e7da
:10198400b4f93c001df042ffd2e7b4f938001ef070
:1019940063fe4ff6ff732387cae794f8cf30002b1a
:1019a400e1d1d4f8c4301b685b682a462d49384617
:1019b4009847022120461cf07ffe74e7d4f8c80043
:1019c40021f0cfff032808d10b2120461cf074fe20
:1019d40020f010fec4f8ac0065e704f14401d4f82b
:1019e400c8001df0e9ffefe7d4f8c4305d6894f84f
:1019f400cf20012a17d0d4f8c80021f0b2ff032861
:101a04001bd094f8443003f0f003e02b2ed1237c58
:101a1400012b64d0237c022b7ff445af0c2120469c
:101a24001cf04afe3fe71b681b680f49284698478d
:101a3400012120461cf040fe35e70022a267a4f8ed
:101a44007c20e4e7d0470020109200007c4701008e
:101a5400b047010060390020345200203c9200005d
:101a6400a09200006c920000c092000004f1780281
:101a740004f14401d4f8c80018f094fbb8b1d4f8c8
:101a8400c4301b6894f87d20039294f87c20029261
:101a940094f87b20019294f87a2000925f6894f87d
:101aa400793094f87820bf492846b847afe720f04a
:101ab400a1fdd4f8ac30c71a20f0b0fd00eb8000d3
:101ac40087427ff6f0aed4f8c4301b681b68b64971
:101ad4002846984720f08efdc4f8ac00e3e61021b8
:101ae40020461cf0e9fd95e7d4f8c4305d6804f1a4
:101af4004402618a012022f03bffa087b0f1ff3f3e
:101b04005ed00023a94a4ff4807120f067fae2689e
:101b14000521b4f93c0006f09ffd30b9d4f8c43077
:101b24001b681b68a2492846984702220621b4f97b
:101b34003c0006f091fd30b9d4f8c4301b681b6832
:101b44009c4928469847d4f8c810b4f93c001bf0c7
:101b5400c9fd05a9b4f93c0012f05effbdf85a3086
:101b6400a4f87e30d4f8c4301b681b689249284618
:101b74009847d4f8c4301b68628a029294f84720cc
:101b8400019294f8462000925f6894f8453094f8e6
:101b940044208a492846b847112120461cf08cfd70
:101ba40020f028fdc4f88800d4f884300344c4f835
:101bb40090304ff4c8625521814822f0a3fb72e6ad
:101bc400d4f8c4301b681b687e4928469847012115
:101bd40020461cf071fd66e6d4f8c4305d6800222e
:101be400618a012021f07cfe6087b0f1ff3f51d073
:101bf4000023754a4ff4007120f035f8d4f8803092
:101c0400002b53d104f1440300220121b4f93a001a
:101c14001cf0cafe4ff48063a4f87e30d4f8c430bc
:101c24001b681b68644928469847d4f8c4301b686d
:101c3400628a029294f84720019294f84620009216
:101c44005f6894f8453094f8442060492846b847c2
:101c54000d2120461cf030fdd4f8b8200321b4f93e
:101c64003a0011f007fb30b9d4f8c4301b681b6884
:101c74004f4928469847b4f93a001ff0ddff20f099
:101c8400b9fcc4f8ac004ff4c86254214c4822f0ab
:101c940039fb08e6d4f8c4301b681b684c49284655
:101ca4009847012120461cf007fdfce504f1800360
:101cb400628a0121b4f93a0014f0f0fea2e794f824
:101cc400cf30012b19d0d4f8c4305f68b4f93a008e
:101cd40020f053fdb0b1b4f93a0020f057fa20f0e7
:101ce40089fcc4f88800d4f884300344c4f89030e4
:101cf4000e2120461cf0e0fcd5e50f2120461cf007
:101d0400dbfcd0e520f076fcd4f8ac30c51a20f02a
:101d140085fc00eb800085427ff6c5adb4f93a003e
:101d24001ef09afc4ff6ff736387d4f8c4301b6827
:101d34001b682849384698470f2120461cf0bcfcf4
:101d4400b1e5204605f044fb01280bd002287ff4be
:101d5400aaad0f2120461cf0affc20f04bfcc4f8c8
:101d64008c00a0e5164f00bfb4f8b0508db1b5f5a6
:101d7400c86f28bf4ff4c8652a463946b4f93a00fb
:101d84000ef026fdb4f8b0301b1aa4f8b03085422a
:101d9400ead9b4f93a0020f003fd20460cf08efc99
:101da40081e500bf20930000e0920000433f020061
:101db4004c93000074930000b4d600009c93000080
:101dc4006039002050910000593f0200d493000074
:101dd400049100000c940000227d0b21b4f93c0016
:101de40006f03afc204605f0f3fa01280bd002284d
:101df4007ff459ad122120461cf05efc20f0fafb62
:101e0400c4f88c004fe5b4f8b05015b30027dff8e0
:101e140094a0a846b5f5c86f28bf4ff4c8684246d9
:101e24005146b4f93c001df0d1fa0744bfb22d1a53
:101e3400adb2804501d1002debd1b4f93c000af0dc
:101e4400f9fb40b900221146b4f93c001ef0d7fa60
:101e540029e52f46f1e7b4f8b030df1ba4f8b070e1
:101e640020460cf02bfc1ee520461af047fab4f984
:101e74003a001ef0f1fb4ff6ff73638713e520462b
:101e84001af03cfab4f93c001df0c0fc0be501214a
:101e940020461cf011fc06e51bb0bdec028bbde82e
:081ea400f08f00bf603900203f
:020000040000fa
:101eac0030b585b0044690f99030002b40f00f818e
:101ebc000378012b04bf0023037090f8d430042b5b
:101ecc0000f22e84dfe813f005008b00d9001b0113
:101edc00110390f90830b3f1ff3f57d090f8fc2074
:101eec00012a22d051b229b1022a43d0ff2380f813
:101efc009030dce003f01f01c3f34a1303f502003a
:101f0c0000f580700022012303fa01f1c00122f0d8
:101f1c00d1fb22f0c5fd1ef0c7fcc4f8dc0094f820
:101f2c00fc30013384f8fc30cfe022f0b9fd1ef018
:101f3c00bbfcd4f8dc30984200f0c78094f9083030
:101f4c0003f01f0201219140c3f34a1303f5020071
:101f5c0000f580700a46c00122f0acfb22f0a0fd17
:101f6c001ef0a2fcc4f8dc0094f8fc30013384f8b9
:101f7c00fc30aae022f094fd1ef096fcd4f8dc3084
:101f8c00c31a062b94bf002501258fe090f8fc3076
:101f9c002bb1012b16d0ff2380f8903087e0002363
:101fac000193b44a009201220321d0f8ec0020f0f6
:101fbc0087ff002800f0898094f8fc30013384f806
:101fcc00fc3082e000230193aa4b009301231a46b4
:101fdc000321d0f8ec0020f073ff054666e0d0f842
:101fec00ec0094f8fc30042b43d8dfe813f0050028
:101ffc009d0313009d033300002200929e4b012190
:10200c0021f0def9002860d094f8fc30013384f81c
:10201c00fc305ae0d4f8e4309a0ac3f30913b2f551
:10202c00f87f01d11b2b07d0944900201af010fa2d
:10203c00ff2384f890303ae0002200928e4b9049b6
:10204c0021f0bef9002840d094f8fc30013384f81c
:10205c00fc303ae0d4f8e43003f00f0384f8fe309f
:10206c002bbb884900201af0f3f9ff2384f8903039
:10207c001de0ff2384f8903027e090f8fc10c1f1ac
:10208c00200200230093804b92b2804800eb011198
:10209c00d4f8ec0016f082fa94f8fc500544edb23a
:1020ac0084f8fc50202d14bf002501256db10023b0
:1020bc0084f8fc3094f8d4300133dbb284f8d4309b
:1020cc00052b04bf022384f890300123237094f96c
:1020dc009030022b00f02a8394f804316bb12378f2
:1020ec00012b00f04d83002384f804310121d4f836
:1020fc00ec0007f037fb0123237005b030bdd0f89e
:10210c00ec0094f8fc302e2b00f2e881dfe813f0a1
:10211c002f002f002f002f002f00e601e601e60113
:10212c00e601e60148004800480048004800e60186
:10213c00e601e601e601e6016e006e006e006e003f
:10214c006e00e601e601e601e601e6018900eb011d
:10215c009b00eb01c600eb01dc00eb01f200eb0194
:10216c00080130014d0171019601bb01db010093a7
:10217c00402303aa0521204615f060fc05460028e3
:10218c0094d0039b23b10a2384f8fc3000258de7ff
:10219c003f4900201af05cf9ff2384f8903085e762
:1021ac000a3bdbb200931f2303aa0421204615f03f
:1021bc0045fc054600283ff479af039b13f0100f44
:1021cc0018bf43f0e0035bb284f8f03013f1050f55
:1021dc0004db142384f8fc30002567e72c4900202d
:1021ec001af036f9ff2384f890305fe7143bdbb22a
:1021fc0000931f2303aa0821204615f01ffc054657
:10220c0000283ff453af039b13f0100f18bf43f09b
:10221c00e0035bb284f8f1301e2384f8fc30002517
:10222c0044e700230093144b01221a4921f0c8f80b
:10223c00054600283ff43aaf94f8fc30013384f89b
:10224c00fc30002532e7d4f8e430a4f8f230002357
:10225c000093094b0122104921f0b2f805460028e1
:10226c003ff424af94f8fc30013384f8fc300025a3
:10227c001ce700bff7250100d91e020010b50100b4
:10228c0094000a0038b50100c540020074d7000064
:10229c0050b50100840004008a000400d4f8e43036
:1022ac00a4f8f43000230093ba4b0122ba4921f070
:1022bc0087f8054600283ff4f9ae94f8fc3001335a
:1022cc0084f8fc300025f1e6d4f8e430a4f8f630bc
:1022dc0000230093af4b0122b04921f071f8054661
:1022ec0000283ff4e3ae94f8fc30013384f8fc3062
:1022fc000025dbe6d4f8e430a4f8f8300023009392
:10230c00a44b0122a64921f05bf8054600283ff4b6
:10231c00cdae94f8fc30013384f8fc300025c5e6d2
:10232c00d4f8e430a4f8fa3094f9f0309bb203f10d
:10233c00090291b203f10e0292b2120142ea812219
:10234c00b4f8f23003f00f031a4300230193009307
:10235c00012392b2934920f0b3fd054600283ff4c7
:10236c00a5ae94f8fc30013384f8fc3000259de6d2
:10237c0094f9f13028339bb2b4f8f420c2f309027b
:10238c0042ea8322002301930093012392b28649ef
:10239c0020f096fd054600283ff488ae94f8fc30fa
:1023ac00013384f8fc30002580e694f9f0309bb2c0
:1023bc005a1d91b2b4f8f62022f47c5222f03f025e
:1023cc0042ea012212b292b209331a43002301935a
:1023dc000093012392b2704920f072fd054600284b
:1023ec003ff464ae94f8fc30013384f8fc300025e3
:1023fc005ce694f9f0309bb203f1090291b2b4f8a7
:10240c00f82022f47c5222f03f0242ea012212b25e
:10241c0092b20e331a43002301930093012392b21c
:10242c005e4920f04dfd054600283ff43fae94f880
:10243c00fc30013384f8fc30002537e694f9f03099
:10244c009bb203f1110291b2b4f8fa2022f47c523f
:10245c0022f03f0242ea012212b292b216331a4320
:10246c00002301930093012392b24d4920f028fde3
:10247c00054600283ff41aae94f8fc30013384f87a
:10248c00fc30002512e694f8fe50002301930093d3
:10249c00012345f6217243f631719d4218bf0a465d
:1024ac00424920f00dfd054600283ff4ffad94f89d
:1024bc00fe30012b3ff4faad94f8fc30013384f874
:1024cc00fc300025f2e500230193009301234ff427
:1024dc004042374920f0f4fc0546e7e5ff2384f839
:1024ec0090300025e2e50025e0e5d0f8ec0094f80a
:1024fc00fc30092b00f21081dfe813f00a002500f4
:10250c003a00640077009600ad00cc00e5000201b3
:10251c00637e1bb9042384f8fc30d6e5a17d627d73
:10252c0000230193234b0093012342ea0122224909
:10253c0020f0c6fc00283ff4c8ad94f8fc30013301
:10254c0084f8fc30c1e5e17d227e00230193194b18
:10255c000093012342ea0122184920f0b1fc002823
:10256c003ff4b3ad94f8fc30013384f8fc30ace5a7
:10257c00002301930f4b009301238322104920f079
:10258c009ffc00283ff4a1ad94f8fc30013384f893
:10259c00fc309ae5d91e0200ad000400ae00040028
:1025ac00af000400840004008a000400d000040082
:1025bc00e0000400c540020002ca040005ca040081
:1025cc008700040000230193864b009301234ff4f2
:1025dc000042854920f074fc00283ff476ad94f855
:1025ec00fc30013384f8fc306fe594f8953094f8a6
:1025fc009420120442ea036294f892301a4394f83d
:10260c00931000230193774b0093012342ea01229c
:10261c00764920f055fc00283ff457ad94f8fc3077
:10262c00013384f8fc3050e594f8971094f8962018
:10263c00002301936b4b0093012342ea01226c4966
:10264c0020f03efc00283ff440ad94f8fc30013300
:10265c0084f8fc3039e594f8973094f896201204fd
:10266c0042ea036294f894301a4394f895100023cc
:10267c0001935c4b0093012342ea01225d4920f057
:10268c001ffc00283ff421ad94f8fc30013384f892
:10269c00fc301ae5a37e002b4ff000030193514b45
:1026ac0000934ff0010314bf102200224ff00111d0
:1026bc0020f006fc00283ff408ad94f8fc30013300
:1026cc0084f8fc3001e5e17e49f2260249f226232a
:1026dc00002918bf1a46237f0bb142f480720023e5
:1026ec000193404b00930123042120f0e9fb0028c7
:1026fc003ff4ebac94f8fc30013384f8fc30e4e4a8
:10270c00002301933c4b009301230c224ff48031a6
:10271c0020f0d6fb0546c9e4ff2384f89030c6e4cc
:10272c00ff2380f89030d0e40025bfe4637e53bbd8
:10273c00d4f8e830002b43d194f90750c5f34a1074
:10274c0000f5020000f58070c00122f001fa05f0de
:10275c001f0520fa05f515f0010f7ff4bdac2378a9
:10276c00012b04bf002323700021d4f8ec0006f0e9
:10277c00f9ff0123237094f80431002b3ff4bdac16
:10278c0000232370afe422f08bf91ef08df8d4f8ff
:10279c00e030c31ab3f57a7fcad3c4f8e0002378cb
:1027ac00012b04bf0023237000230093134b012241
:1027bc001349d4f8ec0020f003fe01232370b7e793
:1027cc0022f06ef91ef070f8d4f8e830c01a6328c5
:1027dc00b2d90023c4f8e830d4f8ec0022f09cf80d
:1027ec00aae700bfc540020001ca04002400010092
:1027fc0025000100220001009d3b02009b2b0200e2
:04280c0003ca0400f7
:020000040000fa
:10281000c85000201c00000000000000cc4b00202d
:102820000400000000000000fc4e00200400000036
:1028300000000000445000200400000000000000e0
:102840008c5300200100000000000000f051002027
:102850000400000000000000c7500020010000003c
:1028600000000000415100200100000000000000b5
:10287000f45100201400000000000000c4540020a7
:1028800004000000010000000100000008520020c8
:102890000800000000000000c44c00206c00000094
:1028a000000000008853002001000000000000002c
:1028b00090530020d40000000100000038de010029
:1028c0000000000000000000000000000000000008
:1028d00000000000000000000000000000000000f8
:1028e00000000000000000000000000000000000e8
:1028f00000000000000000000000000000000000d8
:1029000000000000000000000000000000000000c7
:1029100000000000000000000000000000000000b7
:1029200000000000000000000000000000000000a7
:102930000000000000000000000000000000000097
:102940000000000000000000000000000000000087
:102950000000000000000000000000000000000077
:102960000000000000000000000000000000000067
:102970000000000000000000000000000000000057
:102980000000000000000000000000000000000047
:102990008b5300200100000001000000ff00000038
:1029a000105200200400000000000000d04b002066
:1029b0008000000000000000784e0020440000006d
:1029c000000000001452002004000000000000007d
:1029d000445100201000000000000000bc45002011
:1029e0000c0100000000000018520020040000004c
:1029f00000000000904d002050000000000000008a
:102a0000000000209011000000000000845300200e
:102a100001000000000000001c5200200400000023
:102a20000000000068490020a40000000000000031
:102a3000504c002074000000000000006051002095
:102a40001000000000000000d84f00204c000000e3
:102a50000000000080530020010000000000000082
:102a6000205200200400000000000000245000203c
:102a700020000000000000007c5300200100000046
:102a800000000000b05400200c0000000100000015
:102a9000f4010000d0070000010000008c54002069
:102aa00024000000010000000800080002000100ee
:102ab00002000800000600060101540001010000a8
:102ac0008dd90100c1fd010000000100d454002097
:102ad000020000000100000000010000304e002054
:102ae0004800000000000000bc5400200600000068
:102af00001000000ffffffffffff00005451002016
:102b00000c00000000000000905100200c000000ac
:102b100000000000ac4a002090000000000000000f
:102b2000245200200c00000000000000d0470020cc
:102b3000d800000000000000784f002034000000a2
:102b400000000000305200200400000000000000df
:102b50007d530020010000000000000034520020de
:102b60000400000000000000603900204006000062
:102b700000000000385200200c000000000000009f
:102b80009c5100200c00000000000000705100204b
:102b900010000000000000007e5300200100000033
:102ba00000000000d65100200200000000000000dc
:102bb00042510020020000000000000044520020aa
:102bc0000400000000000000805100201000000000
:102bd000000000004852002010000000000000002b
:102be0006c53002004000000000000005852002038
:102bf0000c000000000000007f53002001000000d6
:102c000000000000645200200400000000000000ea
:102c10000051002018000000000000006852002051
:102c20000c000000000000007053002002000000b3
:102c300000000000745200200400000000000000aa
:102c400090310020d00700000000000078520020e2
:102c5000100000000000000072530020020000007d
:102c60000000000088520020080000000000000062
:102c7000305100201100000000000000a85000208a
:102c80001f0000000000000090520020040000001f
:102c9000000000007453002002000000000000004b
:102ca0009452002010000000000000007653002025
:102cb0000200000000000000a452002008000000f4
:102cc0000000000078530020020000000000000017
:102cd000ac520020100000000000000081530020d2
:102ce0000100000000000000c854002004000000a3
:102cf000010000006400000064540020280000006f
:102d000001000000bb010300d10101004b020100e2
:102d1000330203007c020300dd030300de03030033
:102d2000e0030300e1030100b3220100bc520020d4
:102d30000400000000000000404f002038000000a8
:102d400000000000c0520020100000000000000041
:102d50003c4b00209000000000000000a03f00203d
:102d60008002000000000000d05200202800000077
:102d700000000000a85100200c000000000000002e
:102d8000185100201800000000000000e45000204e
:102d90001c00000000000000f852002004000000a9
:102da000000000008253002001000000000000002d
:102db000fc5200200400000000000000cc54002061
:102dc0000400000001000000ffffffff005300208f
:102dd0000c00000000000000cc5100200a000000a0
:102de000000000000c5300201c0000000000000048
:102df0007a53002002000000000000002853002049
:102e000008000000000000008353002001000000c3
:102e100000000000204200209c0300000000000091
:102e20004850002060000000000000008553002092
:102e30000100000000000000ac4f00202c0000004a
:102e400000000000901100200010000000000000b1
:102e5000bc4e00204000000000000000d8510020bf
:102e600010000000000000003053002004000000ab
:102e70000000000086530020010000000000000058
:102e800090210020000800000000000034530020c2
:102e90000800000000000000a8480020c00000005a
:102ea00000000000b45100200c00000000000000f1
:102eb0009029002000080000000000008753002037
:102ec0000100000000000000895300200100000004
:102ed00000000000e8510020080000000000000091
:102ee0003c53002010000000000000008a53002026
:102ef0000100000000000000c8460020080100009a
:102f0000000000004c5300200800000000000000fa
:102f1000004f002040000000000000000c4a00208c
:102f2000a000000000000000c254002002000000c9
:102f30000100000001000000304d00206000000092
:102f400000000000545300200c00000000000000ae
:102f5000d054002004000000010000000100000027
:102f6000605300200400000000000000e04d00203d
:102f70005000000000000000645300200400000026
:102f80000000000068530020040000000000000062
:102f9000c05100200c0000000000000000000000f4
:102fa0000000000066666666666666666666666659
:020000040000fa
:102fb0005478204279746520436f756e742d6c6f60
:102fc000776572203332626974732854784f544c99
:102fd0004f29000059470200547820427974652037
:102fe000436f756e742d757070657220313662692d
:102ff00074732854784f54484929000063470200ed
:103000005478204672616d657320772f6f2065724a
:10301000726f722854784654434e542900000000c1
:10302000000000006d47020054782042726f616416
:1030300063617374204672616d65732854784243ee
:1030400046542900000000000000000077470200fd
:103050005478204d756c7469636173742046726195
:103060006d65732854784d46542900000000000017
:10307000000000008147020054782050617573659c
:10308000204672616d6573285478504654290000bb
:103090000000000000000000000000008b4702005c
:1030a00054782036342d62797465204672616d65de
:1030b000732854784246543634290000000000003a
:1030c000000000009547020054782036352d31323b
:1030d000372062797465204672616d6573285442a9
:1030e0004654313237290000000000009f4702009b
:1030f0005478203132382d3235352062797465208c
:103100004672616d65732854424654323535290044
:1031100000000000a94702005478203235362d35d2
:1031200031312062797465204672616d657328546f
:10313000424654353131290000000000b3470200f7
:103140005478203531322d31303233206279746534
:10315000204672616d6573285442465431303233d3
:1031600029000000bd470200547820313032342d50
:10317000313531382062797465204672616d65732e
:10318000285442465431353138290000c7470200df
:103190005478204672616d6573203e3d2031353193
:1031a00038206279746528475442463135313829d0
:1031b00000000000d1470200547820556e6465720b
:1031c00072756e204672616d6573206e6f74205447
:1031d000586564285478545552290000db47020092
:1031e00054782053696e676c6520436f6c6c69730b
:1031f000696f6e204672616d65732854785343463b
:1032000029000000e5470200547820322d31352096
:10321000436f6c6c6973696f6e204672616d657384
:103220002854784d4346290000000000ef47020073
:10323000547820313620436f6c6c6973696f6e204f
:103240004672616d65732854784543434e54290096
:1032500000000000f94702005478206c617465207a
:10326000436f6c6c6973696f6e204672616d657334
:103270002854784c43434e54290000000348020070
:103280005478204465666572726564204672616d8b
:10329000657328547844544629000000000000005b
:1032a000000000000d4802005478204361727269ea
:1032b00065722053656e7365206572726f72204669
:1032c00072616d657328547843534529174802008d
:1032d0005278204279746520436f756e742d6c6f3f
:1032e000776572203332626974732852784f524c7a
:1032f0004f2900002148020052782042797465204d
:10330000436f756e742d7570706572203136626909
:1033100074732852784f5248492900002b48020004
:103320005278204672616d657320772f6f20657229
:10333000726f722852784652434e542900000000a2
:10334000000000003548020052782042726f61642c
:1033500063617374204672616d65732852784243cd
:103360004652290000000000000000003f48020013
:103370005278204d756c7469636173742046726174
:103380006d6573202852784d4652290000000000d8
:1033900000000000494802005278205061757365b2
:1033a000204672616d65732852785046522900009c
:1033b0000000000000000000000000005348020070
:1033c00052782036342d62797465204672616d65bd
:1033d000732852784246523634290000000000001b
:1033e000000000005d48020052782036352d313251
:1033f000372062797465204672616d657328544286
:1034000046523132372900000000000067480200b0
:103410005278203132382d3235352062797465206a
:103420004672616d65732854424652323535290023
:1034300000000000714802005278203235362d35e8
:1034400031312062797465204672616d657328544c
:103450004246523531312900000000007b4802000d
:103460005278203531322d31303233206279746513
:10347000204672616d6573285442465231303233b2
:103480002900000085480200527820313032342d66
:10349000313531382062797465204672616d65730b
:1034a0002854424652313531382900008f480200f5
:1034b0005278204672616d6573203e3d2031353172
:1034c0003920627974657328544d58424652290058
:1034d00000000000994802005278204672616d6534
:1034e00073203c20363420627974657328527855f5
:1034f000465229000000000000000000a34802001e
:103500005278204672616d6573203e203135313826
:103510002062797465732852784f46522900000062
:1035200000000000ad4802005278206572726f7290
:10353000204672616d6573203e203135313820623e
:10354000797465732852784a52290000b7480200fe
:10355000527820435243206572726f722046726126
:103560006d657328527846435345290000000000da
:1035700000000000c14802005278204c656e67745c
:1035800068206669656c64206572726f722046728d
:10359000616d65732852784c46464529cb48020038
:1035a00052782073796d626f6c206572726f722031
:1035b0004672616d657328527852534529000000a8
:1035c00000000000d5480200527820616c69676ee7
:1035d0006d656e74206572726f72204672616d65e2
:1035e000732852784145290000000000df4802009e
:1035f0005278205265736f75726365204572726fe1
:103600007220285278525245290000000000000024
:1036100000000000e94802005278206f766572725f
:10362000756e206572726f72204672616d657328c7
:103630005278524f4529000000000000f348020074
:1036400052782049504864722043686b73756d202e
:103650006572726f72204672616d65732852784987
:1036600048434529fd4802005278205443502043e6
:10367000686b73756d206572726f72204672616d32
:103680006573285278544345290000000749020019
:103690005278205544502043686b73756d206572d5
:1036a000726f72204672616d65732852785543457a
:0836b00029000000114902008d
:020000040000fa
:1036b8002de9f04f8db0d0f850a00a68436d846da5
:1036c80083ea040e0eea0a0e8eea040ed84bc46c86
:1036d80023440a9213449e440aeb7e6e4e68436d5f
:1036e8008aea030707ea0e075f40d24b856d2b4431
:1036f800009633441f440eeb37578b681a468aea04
:103708000e053d4085ea0a05cb4b446d23440192e2
:1037180013441d4407ebf535cb681c468eea0706b3
:103728002e4086ea0e06c54b5344029423441e4499
:1037380005ebb6260b691c4687ea050333407b4038
:10374800bf4a039422449644734406eb73694a695a
:10375800134685ea060404ea09046c40b94a04934e
:103768001a4417443c4409eb34548b6986ea09022d
:1037780022407240b44f05931f443d442a4404eb51
:10378800f232cf6989ea040808ea020888ea0908d7
:10379800ae4d06973d442e44b04402ebb8280f6a5c
:1037a80084ea020c0cea080c8cea040ca84d079772
:1037b8003d4409eb05039c4408eb7c6c4d6a82eaa6
:1037c800080909ea0c0989ea0209a24b08952b4461
:1037d8001c44a1440ceb39598b6a88ea0c0e0eea9a
:1037e800090e8eea080e0993a3f524434f3b1a44a9
:1037f800964409ebfe3eca6a16468cea090505eab4
:103808000e0585ea0c05944b1344984445440eeb89
:10381800b525d1f8308089ea0e072f4087ea0907d5
:103828008e4b43449c44674405eb7767d1f834c01a
:103838008eea05033b4083ea0e03894a62449144b9
:103848004b4407eb3353d1f8389085ea07041c4002
:103858006c40844a4a449644744403ebf434d1f8e7
:103868003ce087ea030222407a407f4971440d44d4
:103878002a4404ebb22284ea020b0bea030b8bea1c
:10388800040b7a49009d29440f44bb4402ebfb6baf
:1038980082ea0b07274057407549059d29440b4488
:1038a8001f440bebf7578bea0703134083ea0b031c
:1038b80070490b9631440c44234407ebb34387ea21
:1038c800030505ea0b057d406b490a9c21440a441f
:1038d800154403eb353583ea05023a405a406749f7
:1038e800049e31448b445a4405ebf26285ea020196
:1038f80019406940624c099e34442744394402eb1c
:10390800f15182ea01042c4054405e4f77443b4415
:103918001c4401ebb44481ea040313404b405a4f62
:10392800039e37443d442b4404eb333384ea030bb2
:103938000bea010b8bea040b544d089e35442a44cc
:10394800934403ebfb6b83ea0b0727405f40504a25
:103958004a4411440f440bebf7578bea07051d4007
:1039680085ea0b054b4a02990a441444254407eb9f
:10397800b54587ea050202ea0b027a404649079ee6
:1039880031440b441a4405eb323285ea02033b40ca
:103998006b40424961448b445b4402ebf36382ea27
:1039a8000301294051403e4c019e34442744394488
:1039b80003ebf15183ea010414405c40394f069e41
:1039c80037443d442c4401ebb44481ea040b0bea30
:1039d80003054d40344f47443a44154404eb35350c
:1039e800049fa7f5b822a2f2be6213448bea050b26
:1039f8005b4405eb337384ea05025a402b4f079e5c
:103a080037443944114403eb715185ea030b8beabf
:103a1800010b274a0b9f3a4414445c4401eb34449d
:103a280083ea01076740234a4a4415442f4443e088
:103a380078a46ad756b7c7e8db702024eecebdc19c
:103a4800af0f7cf52ac68747134630a8019546fd77
:103a5800d8988069aff7448bbed75c892211906be8
:103a6800937198fd8e4379a62108b44962251ef604
:103a780040b340c0515a5e26aac7b6e95d102fd69a
:103a88005314440281e6a1d8c8fbd3e7e6cde1216f
:103a9800d60737c3870dd5f4ed145a4505e9e3a9d0
:103aa800f8a3effcd9026f678a4c2a8d81f67187db
:103ab80022619d6d0c38e5fd04eb772781ea04024d
:103ac8007a40944d009e35442b44134407eb3373de
:103ad80084ea07025a40904d039e35442944114414
:103ae80003eb715187ea030b8bea010b8b4a069da6
:103af8002a441444a34401eb3b4b83ea010282eac3
:103b08000b02874c099d2c4427443a440beb722244
:103b180081ea0b045440834d65442b44234402eb53
:103b280033738bea02075f407f4c0a9e344421447a
:103b38000f4403eb775782ea03057d407b49029cdb
:103b480021448b445d4407eb354583ea070b8bea38
:103b5800050b7749059c21440a44934405eb7b2bcc
:103b680087ea050484ea0b04724a08990a44134454
:103b78001c440beb347485ea0b0161406e4b4344e3
:103b88001f44394404eb71518bea04034b406b4ae0
:103b9800724415441d4401eb354584ea01026a402c
:103ba800674b019f3b449b445a4405eb722262eaef
:103bb80001036b40634f37443c44234402ebb36337
:103bc80063ea050b8bea020b5f4c069f3c442144d9
:103bd8008b4403ebbb5b6bea02075f405b494944dc
:103be8000d442f440beb774767ea030484ea0b0480
:103bf8005749049d29440a44144407ebf42464ea11
:103c08000b057d40534a424413441d4404ebb565fb
:103c180065ea070888ea04084f4b02990b449b445d
:103c2800d84405ebb85868ea04036b40099aa2f532
:103c38008016a6f683363e44334408eb734363eaa2
:103c4800050989ea08094549009e31440c44a14404
:103c580003ebf92969ea08065e40414a07990a44d4
:103c680015442e4409ebb66666ea030181ea0901a8
:103c78003c4a72449044414406ebb15161ea09045c
:103c88007440394a059d2a4413441c4401eb74448a
:103c980064ea06054d40354b634499444d4404ebb2
:103ca800f52565ea01076740314a039b1a44164423
:103cb800374405ebb76767ea04036b402d4a0b9e50
:103cc80032441144194407ebb15161ea05067e40bc
:103cd800294a019b1a441444344401eb7444c36ccc
:103ce8003b44c36464ea07074f40244b089a1344d3
:103cf8001d442f440aeb040505ebf7250565436dc4
:103d08001c444465836d1944816500200db0bde8ed
:103d1800f08f00bf44eabea4a9cfde4b604bbbf6d0
:103d280070bcbfbec67e9b28fa27a1ea8530efd4b7
:103d3800051d880439d0d4d9e599dbe6f87ca21fa3
:103d48006556acc4442229f497ff2a43a72394abb1
:103d580039a093fcc3595b6592cc0c8fd15d8485e7
:103d68004f7ea86fe0e62cfe144301a3a111084e74
:103d7800827e53f735f23abdbbd2d72a91d386eb70
:020000040000fa
:103d8800b14b834240f04183b04b93f90020531e5e
:103d9800dbb2012b00f239832de9f04f87b0ac4b31
:103da8001b685bb1012a1ad0a94b1c68a64b1b885b
:103db800002b00f01c830025a34e7be0a54b1b685d
:103dc80002a89847002800f3f58220b9029810b19c
:103dd80002f0f8feeee29d4b00221a70eae29e4bda
:103de8001b68b3f1ff3fdfd19c4a002105201ff07b
:103df800a9fc994b1860b0f1ff3f2ed01ef00cfcc7
:103e080000eb800303f2e733954aa2fb03239b09e7
:103e18004ff47a7606fb03f3b3fbf0f6914b1e6082
:103e28000225914c04e001351034282d00f0d6828b
:103e38002368002bf7d0b4f90a20002af3d02146d2
:103e4800a8b21ef035fb0028edd106f5a673b3fb2a
:103e5800f6f306fb03f6854b1e6020f04bfc88b991
:103e680015f0a4f8794bff221a7020f043fc0028c3
:103e780000f0a08220f038fc4ff0ff327c4918f0a7
:103e8800e9fa97e220f030fc05227a4918f0e2fac4
:103e9800e6e7032304222146304619f029fb94f86b
:103ea800433043f0800384f843300135743431885b
:103eb8008d424bdae06c0028f7d0636c9b69984719
:103ec80094f8433013f0400fefd0636c5b69e06cfb
:103ed80098470028dddb0228e7d1002302930393eb
:103ee8000493059340f2dc53adf81230636c1b6cfd
:103ef80002a9206d98470298e063bdf80c30a4f839
:103f08004030bdf80e30003318bf012394f8432029
:103f180063f3451284f84320bdf81230a4f86630e4
:103f28009df8153084f868309df8143084f86930ad
:103f380094f8423043f0400384f84230d3b203f09f
:103f4800bf0343f0800384f84330aee73f4b93f957
:103f58000030012b25d0002019f0fefd464b1b68d0
:103f680033b9464b1a68464b1b68134300f022824c
:103f7800414b1b68002b40f089804ff000083f4bf5
:103f88001b68002b00f091813c4b00221a60304bdb
:103f98001c682d4b1b88002b00f01a811646394fe0
:103fa800e8e02b4b1e68002900f0278232460025e6
:103fb8002b46012706e007fa03f005430133743264
:103fc800994212d092f8430000f00c04042cf2d16c
:103fd80010f0800f00f0ee8192f8420010f0400fd0
:103fe800ecd007fa03f00543e8e7012202fa03f3ed
:103ff800013bab4200f00182134b1b88abb100249c
:1040080044f24008104f0ae00323042231463846a0
:1040180019f06efa013474363b889c4205dab6f81a
:10402800423018ea030ff5d0eee7084bff221a706a
:1040380020f060fb002800f0bd8120f055fb2a46e7
:10404800114918f007fab5e1e45000208253002026
:10405800f4520020f8520020cc5400201924020009
:10406800d34d6210ec520020c03f0020e8520020df
:1040780018570100e8560100e0520020fc520020c9
:10408800e4520020484b0020885701000025b44b1b
:104098001d6020f035fb04461df00efd06460f4658
:1040a80022462b461df068fdae4b1860ae4aa2fbb7
:1040b800043292092b46304639461df05dfdab4b64
:1040c8001860ab4b1b68ab4a12689b1aab4204dd05
:1040d800a74a13604ff0010851e703f24d13a44ab1
:1040e8001360a54b1c68a54b1b88002b00f06c8146
:1040f8000025a24e0ee094f86a3043f0020360f304
:10410800820360f3000384f86a300135743433881d
:104118009d420fda94f8423013f0400ff5d0636ceb
:104128005b6a206d984794f86a3003f0010398425f
:10413800e1d1eae74ff0010821e74ff0010823e752
:10414800002503e08c6238461ff0effb636c5b6b65
:104158002a462946206d984701460028f2d1884a08
:1041680013680133136029e001367434834b1b88cc
:10417800b3422ddd94f8423013f0400ff4d0b4f878
:104188006250636c5b6d206d98470543adb220f0bb
:1041980081fcb4f8623023ea0503a4f8623020f009
:1041a8007dfcb4f864302b43a4f86430636c1b6d59
:1041b8002946206d984715f0160fc1d194f8433061
:1041c80013f0200fd0d0636c9b6b206d9847cbe722
:1041d8004ff0000bdff8b49109f10c07dff8b0a13c
:1041e8000af10803019305e001226ff00c0128464b
:1041f8001df042fb38461ff055f9054600284bd004
:104208006b699b891c0a44ea0324a4b2a86a866dd8
:104218002eb1c36d22462946b0470028ead1284668
:1042280002f0aafa0028e5d140f606039c420dd018
:10423800b4f5006f07d04ff6ff739c42d4d10af152
:104248001004022604e0019c012601e000265446e1
:104258002b6a23f47c132b62626813432b626088f9
:1042680000eb4000294609eb80001ff05efb0123ac
:1042780003fa06f616ea0b0fbcd14bea060b638865
:10428800404800eb0310038943f001030381002237
:1042980001211ff077f9ade720f0fcfb394a138bb9
:1042a80023f00103138320f0f9fb334b1b68334ad7
:1042b800108820b3002240f286651446324e09e089
:1042c8003168013131600ee0a3f864400132743383
:1042d800824214d093f8421011f0400ff6d0b3f890
:1042e80064100d42ecd193f86a1011f0020febd074
:1042f80093f86a106ff3410183f86a10e4e7b8f1a4
:10430800000f66d11f4d05f1300405f5247544e012
:104318001344a381238943f002032381002202214d
:1043280020461ff02ff91034ac420fd02368002b21
:10433800f9d0b4f90a20002af5d03168a3895b1aac
:104348009bb219b20029e3dda181ece720f0a2fbc2
:104358000c4a138923f00203138120f09ffbd1e755
:10436800e0520020d4520020d34d6210d0520020d9
:10437800e8520020ec520020f4520020e4500020c3
:10438800dc520020a03f0020d85200203c4b0020e7
:104398002c3002001034ac4209d054f8103c34f8e8
:1043a800082c002bf6d0002af4d09847f2e7174bd8
:1043b8001b6813b907b0bde8f08f00224ff4807175
:1043c80013481ff0dff8f5e7124b1b68002b7ff44a
:1043d800b4ae114c114e04f51875a7e706f5a6738f
:1043e800b3fbf6f306fb03f60d4b1e60dce40d4b46
:1043f80093f90030012b7ff4aead0a4b02221a70fc
:10440800094900201df0c8faa5e57047e4520020cc
:10441800b03f0020fc520020c03f0020ec5200209a
:0c442800e8520020825300205857010089
:020000040000fa
:104434002de9f04f8db082468946002308930993f5
:104444000a930b9343680393aa4b1968002940f31a
:10445400b8829346a84b93f8ce30012b00f0b88273
:104464000023a54d0133d8358b4200f0aa8295f87c
:10447400ce20012af6d1a04beb1adb1003ebc302ca
:1044840003eb4203c3eb432303eb8343daf800203b
:1044940054685a4299490398a047002485f8d140aa
:1044a40002232b7485f8cf4041f289336b82944bfd
:1044b400ab611ef0b3f804906c6000eb80035b000a
:1044c400ab6028602c75c5f8c4a028461af050fecd
:1044d400b9f1010fc8bf012411dc95f8d130002bcc
:1044e40000f0e581012b00f01d820db0bde8f08fd6
:1044f400012385f8d1300134e4b24c45edda5bf8a0
:10450400246002227f4930461ff048f90028efd08a
:1045140005227d4930461ff041f90028e8d00222e7
:104524007a4930461ff03af928b1052278493046d5
:104534001ff034f910b901232b74dce7022275490a
:1045440030461ff02bf930b10522734930461ff075
:1045540025f900285cd101232b741c44e4b25bf8d8
:10456400246030461ff0a4fcc7b207f1ff38b04402
:104574006a4940461ff046fdb8b1694940461ff0fc
:1045840041fd00283dd14ff47a7807f1ff3cbcf19e
:10459400000f33dd00273a464ff0010e3b460594e9
:1045a4007146b64644460e46f4e15d4940461ff066
:1045b40029fd00285b4b0cbf4ff47a789846e4e75a
:1045c40002eb820200eb4202303aede12346059c05
:1045d40003fb07f3424501d208fb02f20892099358
:1045e400daf80010981800904e684f49daf8040081
:1045f400b047089b099a1344ab617ce70022134639
:10460400eae7012208a9304615f016fe089bf3e7f5
:104614000222464930461ff0c1f828b10522444918
:1046240030461ff0bbf850b90134e4b2012208a9a6
:104634005bf8240015f000fe089bab615be70222e7
:104644003c4930461ff0aaf828b105223a493046c1
:104654001ff0a4f8b8b9002385f8d1300134e4b2ce
:10466400042208a95bf8240015f0e6fd089b85f8f0
:104674004430099b85f845300a9b85f846300b9bee
:1046840085f8473037e702222c4930461ff086f878
:1046940028b105222a4930461ff080f878b9013440
:1046a400e4b2012208a95bf8240015f0c5fd089bbb
:1046b400049a02fb03f3ab6000236b601be7022246
:1046c400204930461ff06af830b105221e493046b1
:1046d4001ff064f8002839d10134e4b2012208a99a
:1046e4005bf8240015f0a8fd089b6b600023ab6009
:1046f40001e700bf34520020d04700204cd700000f
:104704008096980070d5000074d5000080d5000014
:1047140084d500008cd5000090d500009cd5000005
:10472400a0d5000040420f00a4d50000c0d5000071
:10473400c4d50000d0d50000d4d50000e0d50000d9
:10474400e4d50000ecd50000f0d500000222a14918
:1047540030461ff023f830b105229f4930461ff040
:104764001df8002836d10134e4b25bf82400437804
:10477400782b17d0012208a915f05efd9df82000c2
:104784000246202820d018d9a0281ad0c0281ed12b
:1047940010232b75daf800305e682b7d8f4903985f
:1047a400b047a8e683788df81f30c3788df81e30a3
:1047b400bdf81e001bf014ffe2e740b900232b757f
:1047c400e8e720232b75e5e708232b75e2e70023b0
:1047d4002b75dfe70222824930461ef0dfff28b145
:1047e4000522804930461ef0d9ff58b90134e4b29d
:1047f400012208a95bf8240015f01efd089ba5f80a
:10480400d23078e60222784930461ef0c7ff28b13c
:104814000522764930461ef0c1ff68b90134e4b27e
:10482400012208a95bf8240015f006fd089b049af0
:1048340002fb03f32b605ee602226d4930461ef054
:10484400adff28b106226b4930461ef0a7ff50b9d0
:104854000134e4b2012208a95bf8240015f0ecfc51
:10486400089b6b8247e60222634930461ef096ff9e
:1048740038b10522614930461ef090ff00287ff4cc
:104884003aae0134e4b2012208a95bf8240015f021
:10489400d3fc089b332b01d9eb602ce6d5f8c4304c
:1048a4001b685b6834225649039898471de600212b
:1048b40005f180001ef0cef8c5f8c80010b32b7cbb
:1048c400022b2ad0012b06bfab8907ee103a9fedcd
:1048d4004d7added047ab8ee676aab69db0807ee62
:1048e400903af8ee677ab8ee477ac7ee876ac6ee72
:1048f400267afceee77ac5ed217a0a21284619f0da
:10490400dbfef2e5daf800301b683f49039898476c
:104914001ff0b6fec5f8c800d1e7b5f8d23007eeef
:10492400103ad6e7daf800301b683849039c204671
:104934009847daf800301b683549204698472b7ca5
:10494400012b0fd02b7c022b13d0d5f8c4301b685d
:104954005b686a8a2f49039898470221284619f010
:10496400abfec2e5daf800301b682b490398984780
:10497400e8e7daf800301b68284903989847e4e729
:104984002e2802d108fb02f200260133dbb2634574
:10499400bff61cae1ef80300a0f13001c9b209290c
:1049a400eed8002e7ff40cae002eeed107eb870775
:1049b40000eb4700a0f130071949a1fb0401cc0822
:1049c400e3e7daf800301b681649039898478ce54a
:1049d400154d50e5f8d50000fcd5000004d60000c4
:1049e40030d6000034d60000905101003cd60000bf
:1049f40048d600004cd6000054d6000058d600001b
:104a040060d60000000000008cd60000b4d6000080
:104a1400f0d6000014d700000cd7000010d7000017
:0c4a2400cdcccccc20d70000d047002027
:020000040000fa
:104a300090f87730012b40f0cb822de9f04786b01b
:104a400004460e469146c26c002a60d0136a13f0e9
:104a5000080f5cd143f008031362c76c002f56d0d7
:104a60000023a7f85630a7f85430bb64a7f86e307f
:104a7000a7f86c303b663a6913603a69938116f087
:104a8000010f07d094f83f3043f0010384f83f3022
:104a900006f0fe0694f83e3003f023036ff345134f
:104aa00084f83e3094f87730012b0cbffd69002567
:104ab0002b7b6ff307132b7316f0060f59d016f0ec
:104ac000020f00f01c8102238df8143004238df8ae
:104ad000153094f87730012b34d00020030a43ead4
:104ae0000023adf81630a4f86c002b7bc3f303123f
:104af000013262f307132b7394f87730012b04bf54
:104b0000059b6b61636d6bb34ff00008f9e0b64b2a
:104b10000422142178201df04dfa0746002800f0e9
:104b20005a82b24b8360c4600123a0f87030a0f8b1
:104b30005830036a43f008030362e36c002b9ed1f4
:104b4000e0649ce7a36c2bb1a06c1ef093fc1438be
:104b500080b2c3e720461bf097f90028f4d16ff02c
:104b6000030089e1204612f045fa60654ff0000825
:104b7000c7e0b4f86a80a26823699a4200f03482e0
:104b8000b4f86430002b00f0aa8094f87730012b41
:104b90002dd0b4f86c30984528bf9846a368216999
:104ba0008b423cd95b1ab4f864a09a4528bf9a4658
:104bb000d04506d294f83e3043f0800384f83e306e
:104bc000c24694f87730012b16d0236953442361f1
:104bd00094f83f3013f0010f00f08380b4f8643094
:104be00053457ed0d0457cd046f0010679e01ff0d9
:104bf000adff0028d2d1cce70023bb6459b11ffa26
:104c00008af3a7f85630a7f8543039653b6907f1a5
:104c100048021a60d9e73b6900221a60d5e762684a
:104c2000521a206813441b1ab4f864a09a4528bf8e
:104c30009a46d04506d294f83e3043f0800384f87b
:104c40003e30c2461346524528bf5346baeb0302d4
:104c50002cd094f877c0bcf1010f0ad023695344db
:104c6000236162689342b3d32168521a9b1a23616d
:104c7000aee7a0b192b2a7f86e20a7f86c20b86694
:104c800007f16002ba6469b19bb2a7f85630a7f881
:104c9000543039653b6907f148021a60dee70022ab
:104ca000ba64f0e73b6900221a60d7e794f87720ee
:104cb000012ad3d10022ba6451b19bb2a7f8563071
:104cc000a7f8543039653b6907f148021a60c5e717
:104cd0003b6900221a60c1e74ff0000a7ee74ff0ff
:104ce000000a1ffa8af8baf1000f0ad0b4f864304b
:104cf000a3eb0803a4f8643046f0080606e04ff082
:104d0000000816f0030f45d04ff0000a19f0010f0c
:104d10000dd0002384f87830354b1a684ff47a733d
:104d200003fb02f3334aa2fb03239b0923651df017
:104d300063fc236d1844606294f83e3043f0020334
:104d400084f83e30b4f862302b80b4f860306b8069
:104d5000636d6b60a36dab602b7b6ff303032b73f1
:104d60006e7300236b822b82636d5344636516f070
:104d7000020f4dd016f0100f04bf0023ab6094f863
:104d8000743013f0080f37d06b68013b6b604ff045
:104d900004093fe019f0020f0ad094f8793001338a
:104da00084f87930636d013b63654ff0010ac9e710
:104db00094f83e3013f0020f13d019f0010f08d110
:104dc00094f878302bb1013b84f87830236d5b0880
:104dd00023651df011fc236d184460624ff0000a3a
:104de000b0e74ff0000aade706002000495b010084
:104df00054520020d34d6210636d0133636594f803
:104e0000743043f0080384f874304ff0040901e073
:104e10004ff0000916f0010f05d094f8743043f0fc
:104e2000040384f8743016f0100f05d094f8753030
:104e300043f0010384f87530e369226a934223d377
:104e4000a1696069091a9b1acb1a9bb2eb81a4f87d
:104e50006630284618f028f82b7bc3f3031205327e
:104e600062f307132b7394f87730012b10d0b8f14d
:104e7000000f7ed14ff0ff3094f87730012b00f017
:104e8000a28006b0bde8f087d31a013b9bb2dde7f4
:104e9000236c23b90025b8f1000f6dd06ae02046dd
:104ea0001af0f2ff05460028f5d009f11409636ce9
:104eb000bb63236cfb63a36c3b643a6993894b44eb
:104ec0009381fd6900232b82a36c93f8683013f063
:104ed000010f18d094f885308df8053094f886309d
:104ee0008df8043000258df8065009eb080201ab5f
:104ef00092b2062138460cf05fff3d6038461ff045
:104f00009dfb0546c7e7bb6b0293fb6b0393002237
:104f10008df8102006238df8113009eb08039bb2a1
:104f2000190a41ea0323adf812300c2102a817f048
:104f300095fcc24392b24946284617f08ffcc34302
:104f40009bb2b8f1000f07d139690a8a22f0080232
:104f50000a82db432b82bde739690a8a42f00802e4
:104f60000a824246396d384616f010fac3439bb2a6
:104f7000efe70025a36babb1002d3ff47baf16f03c
:104f8000040f2bd0e56f5db3b4f87a3013f0080f3f
:104f900028d0d4f880300822a16cb4f93c00a8478e
:104fa00000206ee740f2dc5363631df025fb626b6b
:104fb000124b1b6803fb02f3114aa2fb032300eb15
:104fc0009310a063d8e73b6a23f008033b6258e7dd
:104fd0006ff0010070476ff0020052e7002050e7c9
:104fe00000204ee700204ce794f83f3013f0010f0b
:104ff0007ff472ae4ff0000883e600bf54520020e9
:04500000d34d62101a
:020000040000fa
:105004002de9f04f8db000f58652d37e177e143211
:105014009279013ad21ad2b2ba4280f0748200f57f
:10502400865b0bf1140bcdf81cb083468fe0ff2e8a
:1050340042d199f84130ff2b21d028461cf051fa77
:10504400002843d041f28c1301220bf803200023e3
:1050540041f28b120bf8023041f27c122bf8023031
:105064000bf58b531a680421584614f043f90bf5d9
:105074008c532a78c2f3401203f8092f51e099f8af
:105084004230ff2bd9d199f84330ff2bd5d10121e0
:1050940041f28c130bf80310002341f28b120bf82e
:1050a400023041f27c122bf802300bf58b531a6854
:1050b400584614f01ff9dae728461cf012fa0028c3
:1050c400c0d1334616f0400f00f0f98041f28c1342
:1050d40001220bf80320002341f28b120bf802305b
:1050e40041f27c122bf802300bf58b531a6806211f
:1050f400584614f0fff8bae741f28c1301220bf87a
:105104000320002341f28b120bf8023041f27c128f
:105114002bf802300bf58b531a680721584614f00c
:10512400e9f8002341f27c122bf8023041f28c1290
:105134000bf80230079ad3790133dbb2d3711779b4
:105144009279013ad21ad2b2ba4280f0dc81013f9c
:105154003b40079a126841f27a0101fb03231a4685
:10516400039341f27803d25a002ae3d0984ba3fb6d
:1051740002139b0903eb0313a2eb83039bb2099372
:10518400002bd7d10892039b03f63c07b9467ce079
:105194000bf58b531b68009300231a461946584697
:1051a40017f0affdbde741f28a1301220bf803208b
:1051b4000bf58b53196858461af046ff98e003f034
:1051c4000f039f0094f842201346c2f38011069106
:1051d400002900f0088102f03f0303f10108d3091c
:1051e40002934745c0f0038141f27c133bf803204e
:1051f4001ffa88f54ab941f2781300212bf80310fd
:105204000bf58b530020e3e9020141f278113bf8de
:1052140001302b442bf801300bf58b531b680093a2
:105224002b462146584616f0f5ff41f27c1a3bf80e
:105234000a102944029b1a1c18bf012289b258463d
:1052440018f072fd00232bf80a30c7f1400a1ffa48
:105254008afa41f28b131bf80330002b00f0d48040
:10526400002e40f0da8041f28c131bf80330002b3f
:1052740000f0948009f14409039ba9eb0303a3f60e
:105284003c03089a9342bff455af09f140054c46dc
:1052940099f84060002e7ff4caae99f841303bb9ca
:1052a40099f8423023b999f84330002b3ff4efae1c
:1052b40028461cf016f900287ff4c4ae3346c3f325
:1052c400401341f289120bf80230002b3ff414af63
:1052d40094f84230db0904937ff45aaf41f28a1305
:1052e4001bf8033023b994f84030db097ff45baf3b
:1052f40094f84130c3f30016002e7ff460af13f02e
:10530400200f67d194f8423013f0400f62d141f27c
:105314008c1300220bf80320ace741f28c1301221a
:105324000bf80320002341f28b120bf8023041f2f8
:105334007c122bf802300bf58b531a680221584665
:1053440013f0d8ff96e741f28c1301220bf80320e7
:10535400002341f28b120bf8023041f27c122bf83d
:1053640002300bf58b531a680321584613f0c2ff21
:1053740080e741f27c133bf80310002241f28b10ca
:105384000bf800202bf803205144029b9a1a18bff3
:10539400012289b2584618f0c7fc6be741f28b131f
:1053a40001220bf8032041f28c1300220bf8032096
:1053b400e11941f27c133bf80320002a4cd085e02c
:1053c40002f03f0303f10108d309029337460ee0cc
:1053d400f1f0f0f094f842201346c2f380110691e4
:1053e4000029edd10f46db0902934ff04008a8ebea
:1053f400070a1ffa8afa002e3ff42baf41f28b13ef
:105404001bf80330002b88d141f28c131bf80330b6
:10541400002b7ff425af002e95d0b84508d841f273
:105424008c131bf80330002b7ff424af002eb5d06f
:1054340094f84330db09049341f28b1301220bf8f7
:10544400032041f28c1300220bf80320e11941f2ee
:105454007c133bf8032052b941f2781300222bf855
:1054640003200bf58b500023e0e90223099a049be7
:1054740063b341f268100beb000c0b780024cde908
:1054840004344c782304049c43ea0463cc79002557
:10549400cde904458c7843ea0423cd780026cde990
:1054a4000a560c79049e46ea04664c7946ea044698
:1054b4008c7946ea04240a9d2b434bf80040ccf82f
:1054c40004300831aaf1080a1ffa8afa41f2781066
:1054d4003bf8003053442bf800300bf58b531b681a
:1054e40000935346584616f095feb84503d9069bdb
:1054f400002b7ff43eaf41f27c133bf803108a4447
:0c5504002bf803a0b6e60db0bde8f08f58
:020000040000fa
:105510002de9f04f2ded028bd2e9008997b0cde94e
:105520000c138b6808930b690f90d1e900b61493a4
:10553000cd6800220023404649461bf011fd40b9ca
:105540001bf0040f32d11bf00803059330d0202349
:1055500003e089f0004399462d232b70089b03f14b
:10556000ff3a012305934c4929f0004300208b4268
:1055700008bf80451fd10d9b413b192b059b94bf54
:10558000464947492b4418461ff0c4f828461ef0e8
:1055900091fccdf800b00246089b0f98294615f003
:1055a000b3fe17b0bdec028bbde8f08f2b23d4e720
:1055b000ddf820a0d7e7994208bf404509d20d9bee
:1055c000413b192b059b94bf364937492b4418465c
:1055d000dae700220023404649461bf0cfff9fed4b
:1055e0002c7b8ded027b48b300240d981ef0e2ff6a
:1055f000002ec3b20993c0f2d781672b5ad1002e77
:1056000008bf0126231d02dbb442c0f2c681652714
:1056100061e09ded067b8ded027b01340022234b82
:10562000dde902010cf060fc42464b46cde9060183
:105630001bf07afc0028ecd000271fe00446ede7c1
:1056400014f5967f11da87b90022194b4046494676
:105650000cf04afc002280468946154bdde9020128
:105660000cf042fccde902010127dde90201002234
:105670000e4b07f069fdcde90201013cdde9022393
:10568000404649461bf06cfc0028d9d1ade700bf6d
:10569000000000000000f03f0000f07f50450200d5
:1056a00054450200584502005c45020000002440b9
:1056b00000005043099f662f06f101060bd1002c14
:1056c00004da9fedbd7b8ded027b0024099b672be7
:1056d00018bf361966279ded027bcde906898ded51
:1056e0000a7b00230e93dde90a23dde9060107f0ba
:1056f0002bfd41ec100b11f043f851ec100bb0ee08
:10570000408af0ee608a19f0d2feb0ee480af0ee60
:10571000680a069b1093079b159083f00043119332
:105720009ded0a1b9ded102b1cf0c8fc53ec102bbb
:1057300083f000430793dde90a01a34b8ded060ad0
:10574000002207f001fd0e9b01339e42cde90a01c4
:105750000e93c8d100229d4b0cf0c6fbcde90a0187
:1057600002460b46dde906011bf0fafb002840f07b
:105770008180dde90a23dde906011bf0fffe10b19f
:10578000159bda0776d5dde90a234046494607f03e
:1057900074f80022cde906018b4bdde902010cf023
:1057a000a3fbdde90623cde90a011bf0fbf8002885
:1057b00065d0662f04f1010465d10136a146a9eb3d
:1057c00006034ff00008059e1093cdf80880109b4b
:1057d000994540f08180029b002b00f0c880a819f9
:1057e0000022652f027029d1149b1499013b944229
:1057f000ea54c1f1030ebcbf644201220a21002c0d
:1058000040f0bc800eeb030cbcf1000f00f3b6803f
:10581000002a03f1ff3114bf2d222b226a540d9a66
:10582000023b413a192a05eb030198bf45279e42e6
:105830000f70aaf1020a01da1ef06cff0bf00303ed
:10584000022b7ff4a3aebaf1000f7ff79fae28467c
:105850001ef030fb05eb0a03059a824240f3998063
:10586000059b2b441846524630211ef04dfd002367
:1058700008938be69fed527b8ded0a7b83e79dedd0
:10588000027b8ded0a7b652f14bfa1464ff0000906
:1058900095e7029a52b9b9f1000f07da0e992e2254
:1058a0006a54012201360af1ff3a029205eb08011f
:1058b000aa193144302001e002f8010b9142fbd1da
:1058c00008eb06023033aaeb080808f1ff3a561c31
:1058d000ab544ff0000828e00c9b0e961b69053b6b
:1058e000b3427ff678afdde90a23dde9060107f070
:1058f0002bfc41ec100b10f043ff51ec100bb0ee01
:10590000408af0ee608a19f0d2fd0bf010020928ef
:105910000346a8bf09230243bbd1099a672ab8d11d
:10592000b9f1000fc2da08f10108069b1293079b38
:10593000b0ee480af0ee680a83f0004313939ded41
:105940000a1b9ded122b1cf0b9fb53ec102b83f0be
:1059500000430793dde90a0100221b4b8ded060a87
:1059600007f0f2fb09f1ff39cde90a012fe71bf03f
:10597000100f1ebf2e23ab55013630e7b4fbf1fcf0
:10598000013b01fb1c443034ec540af1ff3a6446fd
:1059900035e72a5c1a5401385ee7002cbff69aae50
:1059a000662788e606262de6099b672bfad01f4658
:1059b000062680e6aff30080000000000000f03f04
:1059c000000000000000000000002440000014401f
:020000040000fa
:1059d0002de9f04f95b0cde912030b68089392edd5
:1059e000007b4b680a938b6809930b690d93cc6815
:1059f0000022002351ec170b8ded047b1bf0b0fa55
:105a000040b9089b580734d4089b13f0080732d0dc
:105a1000202306e0dde9042181f00043cde90423e1
:105a20002d232370099b01275a1edde90403dff8ab
:105a3000f8b223f000414ff0000a594508bf504525
:105a40001bd1139b413b192b04eb070094bfb049ba
:105a5000b0491ef05ffeaf481ef02cfa089b009381
:105a60000246099b1298214615f04efc15b0bde880
