:020000040000fa
:10000000f0ff032005aa0100374e02003b4e02001c
:10001000434e0200474e02004b4e0200000000001b
:10002000000000000000000000000000554e02002b
:100030003f4e020000000000554e0200554e0200e7
:10004000554e0200554e0200554e0200554e02001c
:10005000554e0200554e0200554e0200554e02000c
:10006000554e0200554e0200554e0200554e0200fc
:10007000554e0200554e0200554e0200554e0200ec
:10008000554e0200554e0200554e0200554e0200dc
:10009000554e0200554e0200554e0200554e0200cc
:1000a000554e0200554e0200554e0200554e0200bc
:1000b000554e0200554e0200554e0200934c020070
:1000c0009d4c0200554e0200554e0200554e020056
:1000d000554e0200554e0200554e0200554e02008c
:1000e000554e0200554e02000000000000000000c6
:1000f00000000000554e0200c10e0100c10e0100bb
:10010000c10e0100c10e010049e6010049e60100ef
:1001100049e6010049e60100554e0200554e020035
:10012000554e0200554e0200554e0200554e02003b
:10013000554e0200554e0200554e0200554e02002b
:10014000554e0200554e0200554e0200554e02001b
:10015000554e0200554e0200554e0200554e02000b
:10016000554e0200554e0200554e0200554e0200fb
:10017000554e0200554e0200554e0200554e0200eb
:10018000554e0200554e0200554e0200554e0200db
:10019000c1210200554e0200554e0200554e02008c
:1001a000554e0200554e0200554e0200554e0200bb
:1001b000554e0200554e0200554e0200554e0200ab
:1001c000554e0200554e0200554e0200554e02009b
:1001d000554e0200554e0200554e0200554e02008b
:1001e000554e0200554e0200554e020021230200da
:1001f000554e0200554e0200554e0200554e02006b
:10020000554e0200554e0200554e0200554e02005a
:10021000554e0200554e0200554e0200554e02004a
:10022000554e0200554e0200554e0200554e02003a
:10023000554e0200554e0200554e0200554e02002a
:10024000554e0200554e0200554e0200554e02001a
:10025000554e0200554e0200554e0200554e02000a
:04026000554e0200f5
:020000040000fa
:10026400f8b500bff8bc08bc9e467047790202008e
:10027400f8b500bff8bc08bc9e46704755020200a2
:020000040000fa
:0802840034b30000010000008a
:020000040000fa
:10028c002de9f04f8db00f210a2022f0adfa02902b
:10029c0010f0010f40f05d85029b13f0020f40f04f
:1002ac007c850db0bde8f08fd9f8187007f11002fd
:1002bc00059213f4007f21d1fb6809933b690a93e3
:1002cc0000228df82c2006238df82d30330a43eaba
:1002dc000623adf82e300c2109a81cf0f9fbc04305
:1002ec0083b2d9f8202012f0040f30d032464146a8
:1002fc0048461bf007f9002840f09a8640461cf04f
:10030c000dff98f80ca04fea1a1a4fea8a030493cf
:10031c00d9f81ca0baf80220002a00f08c86fd89be
:10032c00bb891d44baf800301d445540adb2c74bd3
:10033c00d3f800c0bcf1000f00f08086d9f828e09b
:10034c00c34b1b68039300239b4610460ee01a46d2
:10035c00314640461cf0bcfbcde7b4f8722082421b
:10036c002fd001331bb21c469c452fd9039a52f84f
:10037c002440002cf5d094f876200b2af1d094f878
:10038c0077100129edd8a16c09b18e45e9d1002a6d
:10039c00e3d0b4f87220aa42e3d1daf80010226e4e
:1003ac009142ded1216cfa689142dad1012184f8b4
:1003bc007710c4f848e0059a204620f0dcffa346ed
:1003cc0022e0bbf1000f08bfa346cae7bbf1000f48
:1003dc0000f08380fb68cbf8403001218bf877105c
:1003ec00cbf848e0059a584620f0c5ffabf87250a0
:1003fc00baf80030abf86030baf80230abf86230c3
:10040c00dbf80030cbf81030d9f810209389049920
:10041c005b1a938198f80d40d8f80870d8f80450fe
:10042c009bf83f3013f0400f5bd19bf875306ff3a6
:10043c0000038bf875309bf87630002b69d0012bbc
:10044c0000f09e801436049aa6eb020a1ffa8afa70
:10045c00aaf1140292b2059214f0010206921abf8c
:10046c00aaf1130a1ffa8af2059a039214f0020fea
:10047c0003d0039a013292b20392dbf81c60dbf8d2
:10048c0020209642c0f0aa80dbf81810dbf814008c
:10049c00091aa6eb020aa1eb0a0a1ffa8af20492c5
:1004ac00dbf85820a5eb020a039a002a00f0a98079
:1004bc00049a002a00f0a080baf1000fc0f29680d6
:1004cc009245c0f0a780039a04998a1a8a45c0f213
:1004dc00a180924540f39e808ee06ff00e0100f0fb
:1004ec0034bc00238bf879309bf83e3013f0020fac
:1004fc009bd122f005fabbf87020564b1b6803fb0e
:10050c0002f3554aa2fb032300eb9310cbf8240013
:10051c008be714f0040f1ad114f0100f1dd114f046
:10052c00020f27d00135cbf85850404617f0c6f9ca
:10053c00abf86a00584620f0c4f801221221584644
:10054c0004f070fa02238bf876300026e6e30021e3
:10055c00584611f045f90026e0e3cbf85470002220
:10056c000421584604f05efa0021584611f038f97f
:10057c000026d3e30021584611f032f90026cde3d2
:10058c0014f0040f40f0c98314f0100f00f0a08594
:10059c00dbf85460b74205d114f0020f40f05585da
:1005ac000026bbe3cbf8547001220421584604f01a
:1005bc0039facbf854600026b0e322f0a1f9bbf86d
:1005cc007020244b1b6803fb02f3234aa2fb03237a
:1005dc0000eb9313cbf8243000f056bda2eb060ac7
:1005ec000af1ff3a1ffa8af2049259e703990a4674
:1005fc00514400293ff768af14f0040f1fd00026b8
:10060c008ce3baf1000f05d0baf1000ff4db049ab9
:10061c009245f1da14f0060f20d114f0100f00f00f
:10062c009083023b072b00f2cc81dfe813f029000a
:10063c003e003e003e003e00ca013e00bd010122cc
:10064c001021584604f0eef9002667e3a46500205b
:10065c00a0650020a8650020d34d621014f0040f93
:10066c0008d09bf83f3043f002038bf83f304ff437
:10067c00006600e000260021584611f0b1f84de369
:10068c00dbf85460b74205d103238bf876304ff476
:10069c0080760be0cbf8547001220421584604f00c
:1006ac00c1f9cbf85460002638e30026dbf81010b3
:1006bc00dbf808305a1a13d4dbf854003b1a9b1a97
:1006cc00002b1dddbbf8742002f40172042a01d149
:1006dc00012b0cd000221021584604f0a3f91de385
:1006ec00dbf80430dbf800001b1a1a44e4e7013095
:1006fc00cbf854009bf8753043f002038bf875303f
:10070c00dbf85430dbf80c20881a914249d2dbf824
:10071c000420dbf80010521afb1a0344d318079379
:10072c00002b07dddbf80430dbf800209b1a079a5e
:10073c009a4246d9dbf83830002b40f0a280dbf827
:10074c000c20dbf808309a4200f0d980b8f80e3053
:10075c00bbf86e209a4238bfabf86e30dbf85420f1
:10076c00b8f80e303b449b1a9bb2bbf8641031b9fd
:10077c002bb19bf83e1041f040018bf83e10abf8ca
:10078c0064309bf87630042b00f0f080062b40f0a0
:10079c001981974240f0c2820021584611f020f88e
:1007ac00bce2fb1a03440793002b07dddbf8043093
:1007bc00dbf800001b1a0798984202d99142bed070
:1007cc00b8e740f2dc53cbf8343022f099f8dbf880
:1007dc003420c44b1b6803fb02f3c34aa2fb032364
:1007ec0000eb9313cbf838309bf83e306ff3451386
:1007fc008bf83e30dbf80c10079b0b44cbf80c301d
:10080c00dbf8102091420ed893421cd99a1adbf8cf
:10081c0054100a44cbf85420cbf81030dbf80420e9
:10082c00934224d313e0dbf80410dbf80000091a20
:10083c000a44934207d99a1adbf854100a44cbf8ad
:10084c005420cbf81030dbf80420934205d3dbf8ae
:10085c000010511a5b1acbf80c30dbf810309342b5
:10086c0005d3dbf80010521a9a1acbf810209bf81b
:10087c007630032b02d0082b7ff461af46f00406d0
:10088c005de722f03df8dbf83830c31a002bfff699
:10089c0056afdbf834305b00b3f57a4f28bf4ff41a
:1008ac007a43cbf8343022f02bf8dbf834208d4b24
:1008bc001b6803fb02f38c4aa2fb032300eb93138c
:1008cc00cbf83830dbf81010dbf80c20881adbf88a
:1008dc0054301b1acbf85430914207d2dbf8041079
:1008ec00dbf80000091a5b1acbf85430cbf8102057
:1008fc009bf83e3043f080038bf83e301fe79bf8ab
:10090c003f3013f0010f19d113f0400f06d19bf8b3
:10091c003e306ff341038bf83e3017e721f0f0ffc8
:10092c00bbf870206f4b1b6803fb02f34ff47a7219
:10093c00b3fbf2f30344cbf82430e8e7dbf8543094
:10094c009f427ff403af9bf8743013f0040f3ff415
:10095c00fdae9bf83e306ff341038bf83e309bf8b5
:10096c003f306ff300038bf83f30efe6974203d034
:10097c0014f0200f35d0d1e19bf8743013f0040f34
:10098c00f6d021f0bdff574b1a6841f2883303fbb8
:10099c0002f34ff47a72b3fbf2f30344cbf830302a
:1009ac0005238bf87630e3e7dbf8543001339f42b4
:1009bc0001d00026b2e10021584610f011ff0026ac
:1009cc00ace1002614f0200f40f0a8819bf87620b3
:1009dc00a2f10803dbb2012b40f2a081062a00f041
:1009ec009d81059a002a3fd0baf1000f7edd059b50
:1009fc005344049a934203dda2eb0a039bb2059382
:100a0c0098f80c301b0908eb83030893dbf81c10d7
:100a1c00dbf81830059a52440a44934280f0f48073
:100a2c005a1a0132b2eb0a0200f1df801ffa82f887
:100a3c0001240094434608a80246514448461bf042
:100a4c00bdfb0490059aa2eb080300949bb208aa84
:100a5c00dbf8141048461bf0b1fb049b034498b21e
:100a6c00059b834200f0d980039bcbb19bf8763079
:100a7c00033bdbb2022b84bfdbf81c30cbf82030fd
:100a8c009bf83e3013f0100f40f0fa809bf83e308c
:100a9c0043f010038bf83e3013f0080f00f0f68093
:100aac00069b002b00f03a81dbf858300133039a97
:100abc002a44934240f03281cbf8583046f4806699
:100acc009bf83f3043f004038bf83f309bf87630b3
:100adc00023b032b00f20781dfe813f0ec00f5007a
:100aec00fe001501a8650020d34d621098f80c305b
:100afc001b09caeb830343440893524493b2049af0
:100b0c009a4228bf1a469246dbf81c10dbf81830c4
:100b1c008a18934259d25b1a01330493bdf81080a2
:100b2c0001240094434608aa48461bf047fb059055
:100b3c00aaeb080300949bb208aadbf814104846f1
:100b4c001bf03cfb059a024490b2049baaeb0303f6
:100b5c00dbf814201344504586d1dbf8581051446f
:100b6c00cbf85810cbf81c309bf87620033ad2b255
:100b7c00022a98bf46f40076dbf85c20b2f1ff3f06
:100b8c003ff472afa2eb0a0acbf85ca0bbf868206a
:100b9c0012eb0a0224d4baf1000f3ff765af1144ef
:100bac00cbf858101344cbf81c30dbf818209342c8
:100bbc0006d9dbf81410521ad2431344cbf81c306c
:100bcc004ff0ff33cbf85c304ee7012300935346d4
:100bdc0008aa48461bf0f2fadbf81c305344bae77b
:100bec004ff0ff33cbf85c303ee70af1ff30dbf817
:100bfc0014209b1ac01a01230093059b08aa0144d8
:100c0c0048461bf0dbfa2be701230093059b08aa4f
:100c1c00514448461bf0d2fa22e7dbf85c30b3f1c2
:100c2c00ff3f15d09a4519d2059a02eb0a01bbf881
:100c3c006820d018814205d88b4203d8a0eb0a0358
:100c4c009bb20593059babf86830cbf85ca00be727
:100c5c00cbf85ca0059babf8683005e7bbf86820c7
:100c6c001a4405980146514491427ff6fdae9245d7
:100c7c003ff6faaeaaeb03031844abf86800f3e6b0
:100c8c0001221021584603f0cdfe09e7dbb243f0f8
:100c9c0008038bf83e3021f033feb14b1a68642305
:100cac0003fb02f34ff47a72b3fbf2f30344cbf879
:100cbc002c30f5e609238bf87630012211215846a9
:100ccc0003f0b0fe2ae008238bf876309bf87530e1
:100cdc0013f0010f07d021e0dbf854309f4208d00d
:100cec0006238bf8763001221021584603f09afe29
:100cfc0014e000221021584603f094fe00215846bf
:100d0c0010f06efd0ae000221021584603f08afe16
:100d1c000021584610f064fd00e00026bbf87a2054
:100d2c00324000f08e81dbf87c40002c00f08b818f
:100d3c00dbf88030d9f82810bbf93c00a047022121
:100d4c0003e00026eae76ff00d010a22484620f086
:100d5c001bff0a2023f0c6f9814600283ff49caa09
:100d6c00b9f82c60132eeed9d9f81c8098f80c30f9
:100d7c001b09042b0bd9b6eb830f0bdbd9f82030f6
:100d8c0013f400343ff490aa6ff00e01dde76ff01e
:100d9c000d01dae76ff00d01d7e7724b1b68002be2
:100dac003ff47faa00252b46dff8bc91dff8bca1ed
:100dbc00dff8b081e6e021f0a3fda36ac01a002899
:100dcc00a8bf1026f4e021f09bfde36ac01a0028ae
:100ddc00c0f2f48094f87630052b00f08a8110264e
:100dec0087f001023146204603f01cfeeee021f0b4
:100dfc0087fd236bc01a0028c0f2e5800122142164
:100e0c00204603f00ffe0021204610f0e9fcb1e073
:100e1c0094f83e6006f001060121204617f0c3fe4f
:100e2c0094f83e3043f0010384f83e304ff4805286
:100e3c00002120461df055ff002e40f09b8094f8b9
:100e4c003e306ff3000384f83e300a2384f876308a
:100e5c0090e021f055fd636ac01a0028c0f28a8028
:100e6c0094f876104b1e082b00f28280dfe803f01a
:100e7c000541556080688080700094f87830032bb1
:100e8c0040f22b81042384f87830354b1a684ff4e8
:100e9c007a7303fb02f3aafb03239b091b01236553
:100eac000221002694f87830013384f87830236dd1
:100ebc005b0023652069e268831a9bb2904204d2de
:100ecc0060682768c01b03449bb2606dc01a6065e4
:100edc00b4f864000344a4f8643022610022204674
:100eec0003f0a0fd002e45d00021204610f078fc28
:100efc0040e094f87830022b40f2f18094f83e6098
:100f0c0006f001031e46002b18bf1421002fc9d177
:100f1c000122204603f086fde4e794f87830042b98
:100f2c0040f2df80042384f8763011210026ede7af
:100f3c0094f87830042b40f2d68014210126e5e792
:100f4c0094f87830042b40f2d08014210126dde790
:100f5c0094f87830042b40f2ca8014210126d5e78e
:100f6c00a8650020a4650020a0650020d34d621068
:100f7c00002e5ad101352db22b46d8f800209542bf
:100f8c00bff48fa9d9f8002052f82340002cf1d0df
:100f9c0094f876300b2bedd094f83e3013f0c0065d
:100fac001abfdf091026002713f0040f7ff403afdc
:100fbc0094f83e3013f0080f7ff405af94f87630b8
:100fcc00052b3ff414af002e7ff40aaf94f83e309b
:100fdc0013f0020f7ff43daf94f83f3013f0400f45
:100fec00c8d094f87630032bc4d121f089fc636a05
:100ffc00c01a0028bedb94f8792094f884309a4209
:10100c003ff406af02221021204603f00bfd21f025
:10101c0077fcb4f870203b4b1b6803fb02f3aafb74
:10102c00032300eb93106062a4e7314600266de7c2
:10103c006ff0090189e66ff00e0186e66ff00e0184
:10104c0083e6022181e602217fe60135cbf8585078
:10105c00b8f80e30abf86e30abf86430404616f092
:10106c002dfcabf86a0058461ff02bfb0122102117
:10107c00584603f0d7fc03238bf876309bf83f30af
:10108c0013f0400f7ff499aa9bf83e306ff34103a5
:10109c008bf83e304ff4807640e60135cbf8585053
:1010ac00b8f80e30abf86e30abf86430404616f042
:1010bc0005fcabf86a0058461ff003fb0122122115
:1010cc00584603f0affc02238bf87630002625e659
:1010dc0014f0020fe1d1002620e60221e1e61221f4
:1010ec00dfe61021dde61121dbe61021d9e6112126
:1010fc00d7e621f005fc236bc01a0028bff67eaea4
:08110c0010266de6a865002025
:020000040000fa
:101114002de9f04f2ded028b9bb00f21212021f002
:1011240067fb002800f0b8867d4b1b68002b40f35a
:10113400b3867c4c0026dff820929fed7b8ab9e3ce
:10114400d4f8c4305d6894f8d1202ab3227c012af3
:1011540042d0022a61d1b4f93830b3f1ff3f25d02f
:101164000023724a4ff40071b4f9380020f005ffef
:10117400d4f8bc200221b4f9380012f049f930b98e
:10118400d4f8c4301b681b6869492846984706216f
:1011940020461df05bfc86e31b681b6865492846f6
:1011a4009847012120461df051fc7ce304f18002a4
:1011b400618a012017f0f8fd2087b0f1ff3fcfd1fd
:1011c400d4f8c4301b681b685b4928469847012142
:1011d40020461df03bfc66e304f18002618a012095
:1011e40023f04bfda087b0f1ff3f0ad00023534a00
:1011f4004ff4807121f07cf8032120461df026fc79
:1012040051e3d4f8c4301b681b684d4928469847fd
:10121400012120461df01afc45e31b681b6849495f
:1012240028469847012120461df010fc3be3d4f8e2
:10123400c430d3f804b03b4be31adb1003ebc30216
:1012440003eb4203c3eb432303eb8343c3f1000ae1
:1012540097e0d4f8c4301b681b683b49584698474c
:10126400042120461df0f2fb1de3b4f93c0021f0fb
:1012740093fe18e30133c4f89430284621f09dfe10
:1012840002460b46d4e908010bf05bfcc4e90801f3
:10129400002f19dba36ae26a511c8b4231d09342be
:1012a40020dc616b01f1010161632cd020e0d4f8f2
:1012b400c4301b685b68254958469847236b013b3b
:1012c400a26a1344236391e07f42a76221f01cfbce
:1012d400c4f88c00002384f8cc30042120461df08f
:1012e400b5fbd7e75b1a226b13442363a36ae3625b
:1012f4000c3dadb2002d44d0dff858804ff4c867e0
:1013040036e0934206d1d4f8c4301b681b681049f8
:1013140058469847a36ae26a9342e9dde7e700bfcb
:1013240088650020b85a002000007a446d4202000b
:101334008c91000044910000689100005742020023
:10134400b4910000d8910000f091000010920000c8
:101354003c920000484c0020f06200203a4641468e
:10136400b4f93c0014f068fba5f5c865adb245b10d
:10137400b5f5c86ff2d22a46d149b4f93c0014f04d
:101384005bfbb4f93c0021f083fa05460b2878d9bd
:101394000c224946b4f93c0014f04efb0c287ff4af
:1013a40058afd9f800301f0e47ea03671a0202f457
:1013b4007f0217431b0a03f47f431f43a762d4f839
:1013c4009430002b7ff456af002ffff64eaf01236d
:1013d400c4f89430d4f8c4301b685b685246b949e9
:1013e40058469847a26a002a7ff461afa36ae36271
:1013f40005a9b4f93c0013f0dffbb4f93c0023f079
:10140400f7f922f085f8069dd4f8c4301b68628a87
:101414000292020e0192c0f3074200925f68c0f389
:101424000723c2b2a8495846b847d4f8c4301b6849
:10143400bdf8582002922a0e0192c5f30742009289
:101444005f68c5f30723eab2a0495846b847656404
:10145400bdf85830a4f8643021f056fac4f8880076
:10146400c4f8a800a36ac4f89c30d4f89430c4f833
:101474009830236bc4f8a030b4f93c0021f08cfd03
:101484007fe7d4f894304bb994f8cf30012b40f077
:101494000a82042120461df0d9fa04e221f034fa2c
:1014a400d4f8a830c31a22689342edd9d4f8942012
:1014b400d4f898309a4212d1d4f8c4301b681b680f
:1014c40083495846984721f01ffac4f88c0000233a
:1014d40084f8cc30042120461df0b8fad4e700216a
:1014e40020460af041fccfe7b4f93c0021f0d0f9e2
:1014f40038b994f8cf304bb1092120461df0a6fa33
:10150400d1e1b4f93c0021f047fdcce105212046ae
:101514001df09cfac7e194f8cd30002b00f0bd809b
:10152400b4f93c0021f0b4f9002840f0be8094f8ee
:10153400cc305a1c84f8cc200a2b00f2bb808021ca
:10154400b4f93c0023f01efc002800f0ac81e36aef
:101554005b421a0e42ea0362190201f47f010a4354
:101564001b0a03f47f431343c9f800300025c9f86c
:101574000450c9f808508023c9f80c30c9f8105039
:10158400d4e9080121f06efc020e42ea0062030273
:1015940003f47f031a43030a03f47f431343c9f894
:1015a400143021f0c5f9d4f88c10d4f88830c91a55
:1015b400b1fbf0f31a0e42ea03621f0207f47f073d
:1015c4003a431f0a07f47f473a43c9f8182000fb3f
:1015d400131307ee103ab8ee477a27ee087a07eeaf
:1015e400900af8ee676ac7ee267a67ee887afcee10
:1015f400e77a17ee903a1a0e42ea0362190201f4ee
:101604007f010a431b0a03f47f431343c9f81c30c8
:10161400236b1a0e42ea0362190201f47f010a43a2
:101624001b0a03f47f431343c9f82030636b1a0e7b
:1016340042ea0362190201f47f010a431b0a03f41c
:101644007f431343c9f82430e36a1a0e42ea036263
:10165400190201f47f010a431b0a03f47f43134375
:10166400c9f82830c9f82c50c9f8305034224946fa
:10167400b4f93c001ef04cf84c273a46294605a81c
:1016840022f0caff3a4605a9b4f93c001ef040f81e
:10169400b4f93c000bf034f905e1022120460af0cc
:1016a40063fb012384f8cd303ae7b4f93c0021f020
:1016b40073fcf8e0092120461df0c8f9f3e000bfef
:1016c400484c0020749200001c490100504901005c
:1016d4005c92000094f8cf30012b26d0b4f9380086
:1016e40021f0d5f9002800f0de803822002105a879
:1016f40022f092ff05a9b4f938001af036fc04f17f
:10170400400705ad0fcd0fc70fcd0fc70fcd0fc7c6
:1017140095e8030087e80300072120461df096f9a9
:10172400b4f9380020f0bcfebde0092120461df0cc
:101734008df9b8e0d4f8c4305f68b4f9380022f009
:10174400c0ff0546002865d0a36a002b49d1bd4bd4
:10175400e31adb1003ebc30203eb4203c3eb4323a3
:1017640003eb8343d4f8c4201268d2f804805a42ad
:10177400b5493846c04721f0c7f8c4f88800c4f812
:10178400a800a36ac4f89c30b4f9380023f010f818
:1017940021f0befed4f8c4301b68628a0292020ea5
:1017a4000192c0f307420092d3f80480c0f30723e8
:1017b400c2b2a6493846c047d4f8c4301b68b4f84e
:1017c4006420029294f84720019294f846200092f3
:1017d400d3f8048094f8453094f844209c49384662
:1017e400c047a36a0133a362d4f894200132c4f839
:1017f4009420e362284621f0e0fb02460b46d4e93c
:1018040008010bf09ef9c4e90801dff848824ff49f
:10181400c8671ce0b4f9380020f042fe20b9b4f9de
:10182400380022f02cfdd8b121f06ef8c4f88c00f9
:10183400082120461df00af935e03a464146b4f93c
:10184400380014f0bffea5f5c865adb245b1b5f5d5
:10185400c86ff2d22a467f49b4f9380014f0b2feb8
:10186400a36a63b994f8cf30012b1cd10821204618
:101874001df0ecf821f048f8c4f88c0013e021f0d6
:1018840043f8d4f8a830c31a22689342ead9002155
:1018940020460af069fae5e794f8cd30c3b309218c
:1018a40020461df0d3f80136d8346b4b1b68b34285
:1018b40040f3f28294f8ce30012bf4d0023b102b8b
:1018c40000f2e58201a252f823f000bf45110000a6
:1018d40033120000ed1400001b150000d91600009f
:1018e400391700009d18000025190000c1190000d7
:1018f400ed190000dd1b0000c31c0000471d0000a3
:101904006d1e0000ed1a0000dd1d0000831e0000a6
:10191400022120460af028fa012384f8cd30bee7dc
:10192400d4f8c4305f68237c012b29d0022b2cd03f
:10193400444be31adb1003ebc30203eb4203c3eb98
:10194400432303eb83435d42d4f8c4301b685b68d4
:101954002a4642493846984720461df0abfd94f884
:10196400d130012b19d0d4f8c4301b685b682a46e7
:101974003b4938469847012120461df067f892e715
:10198400b4f93c001ef0e4f8d2e7b4f938001ff0d3
:1019940007f84ff6ff732387cae794f8cf30002b7c
:1019a400e1d1d4f8c4301b685b682a462d49384617
:1019b4009847022120461df049f874e7d4f8c8007e
:1019c40022f059f9032808d10b2120461df03ef8d6
:1019d40020f09affc4f8ac0065e704f14401d4f8a0
:1019e400c8001ef0aef9efe7d4f8c4305d6894f88f
:1019f400cf20012a17d0d4f8c80022f03cf90328dc
:101a04001bd094f8443003f0f003e02b2ed1237c58
:101a1400012b64d0237c022b7ff445af0c2120469c
:101a24001df014f83fe71b681b680f4928469847c8
:101a3400012120461df00af835e70022a267a4f828
:101a44007c20e4e7b85a0020749200001c4901008d
:101a540050490100484c002088650020a0920000f5
:101a640004930000d09200002493000004f1780253
:101a740004f14401d4f8c80018f0cefbb8b1d4f88e
:101a8400c4301b6894f87d20039294f87c20029261
:101a940094f87b20019294f87a2000925f6894f87d
:101aa400793094f87820bf492846b847afe720f04a
:101ab4002bffd4f8ac30c71a20f03aff00eb8000bb
:101ac40087427ff6f0aed4f8c4301b681b68b64971
:101ad4002846984720f018ffc4f8ac00e3e610212c
:101ae40020461cf0b3ff95e7d4f8c4305d6804f1d8
:101af4004402618a012023f0c5f8a087b0f1ff3fba
:101b04005ed00023a94a4ff4807120f0f1fbe26813
:101b14000521b4f93c0006f0d1fd30b9d4f8c43045
:101b24001b681b68a2492846984702220621b4f97b
:101b34003c0006f0c3fd30b9d4f8c4301b681b6800
:101b44009c4928469847d4f8c810b4f93c001bf0c7
:101b540009ff05a9b4f93c0013f02ef8bdf85a307a
:101b6400a4f87e30d4f8c4301b681b689249284618
:101b74009847d4f8c4301b68628a029294f84720cc
:101b8400019294f8462000925f6894f8453094f8e6
:101b940044208a492846b847112120461cf056ffa4
:101ba40020f0b2fec4f88800d4f884300344c4f8aa
:101bb40090304ff4c8625521814822f02dfd72e621
:101bc400d4f8c4301b681b687e4928469847012115
:101bd40020461cf03bff66e6d4f8c4305d68002262
:101be400618a012022f006f86087b0f1ff3f51d0ee
:101bf4000023754a4ff4007120f0bff9d4f8803007
:101c0400002b53d104f1440300220121b4f93a001a
:101c14001df094f84ff48063a4f87e30d4f8c430f7
:101c24001b681b68644928469847d4f8c4301b686d
:101c3400628a029294f84720019294f84620009216
:101c44005f6894f8453094f8442060492846b847c2
:101c54000d2120461cf0fafed4f8b8200321b4f973
:101c64003a0011f0d5fb30b9d4f8c4301b681b68b6
:101c74004f4928469847b4f93a0020f067f920f014
:101c840043fec4f8ac004ff4c86254214c4822f01f
:101c9400c3fc08e6d4f8c4301b681b684c492846ca
:101ca4009847012120461cf0d1fefce504f1800395
:101cb400628a0121b4f93a0014f048ffa2e794f8cb
:101cc400cf30012b19d0d4f8c4305f68b4f93a008e
:101cd40020f0ddfeb0b1b4f93a0020f0e1fb20f0d1
:101ce40013fec4f88800d4f884300344c4f8903058
:101cf4000e2120461cf0aafed5e50f2120461cf03b
:101d0400a5fed0e520f000fed4f8ac30c51a20f0d2
:101d14000ffe00eb800085427ff6c5adb4f93a00b2
:101d24001ef03efe4ff6ff736387d4f8c4301b6881
:101d34001b682849384698470f2120461cf086fe28
:101d4400b1e5204605f076fb01280bd002287ff48c
:101d5400aaad0f2120461cf079fe20f0d5fdc4f871
:101d64008c00a0e5164f00bfb4f8b0508db1b5f5a6
:101d7400c86f28bf4ff4c8652a463946b4f93a00fb
:101d84000ef08afeb4f8b0301b1aa4f8b0308542c5
:101d9400ead9b4f93a0020f08dfe20460cf0f4fda7
:101da40081e500bf84930000449300005742020081
:101db400b0930000d893000080d900000094000084
:101dc400484c0020b49100006d4202003894000099
:101dd4006891000070940000227d0b21b4f93c004e
:101de40006f06cfc204605f025fb01280bd00228e8
:101df4007ff459ad122120461cf028fe20f084fd0a
:101e0400c4f88c004fe5b4f8b05015b30027dff8e0
:101e140094a0a846b5f5c86f28bf4ff4c8684246d9
:101e24005146b4f93c001df073fc0744bfb22d1aaf
:101e3400adb2804501d1002debd1b4f93c000af0dc
:101e44005ffd40b900221146b4f93c001ef07bfc52
:101e540029e52f46f1e7b4f8b030df1ba4f8b070e1
:101e640020460cf091fd1ee520461af0c1fbb4f9a2
:101e74003a001ef095fd4ff6ff73638713e5204685
:101e84001af0b6fbb4f93c001df062fe0be501212b
:101e940020461cf0dbfd06e51bb0bdec028bbde863
:081ea400f08f00bf484c002044
:020000040000fa
:101eac0030b585b0044690f99030002b40f00f818e
:101ebc000378012b04bf0023037090f8d430042b5b
:101ecc0000f22e84dfe813f005008b00d9001b0113
:101edc00110390f90830b3f1ff3f57d090f8fc2074
:101eec00012a22d051b229b1022a43d0ff2380f813
:101efc009030dce003f01f01c3f34a1303f502003a
:101f0c0000f580700022012303fa01f1c00122f0d8
:101f1c005bfd22f04fff1ef06bfec4f8dc0094f862
:101f2c00fc30013384f8fc30cfe022f043ff1ef08c
:101f3c005ffed4f8dc30984200f0c78094f908308a
:101f4c0003f01f0201219140c3f34a1303f5020071
:101f5c0000f580700a46c00122f036fd22f02affff
:101f6c001ef046fec4f8dc0094f8fc30013384f813
:101f7c00fc30aae022f01eff1ef03afed4f8dc3052
:101f8c00c31a062b94bf002501258fe090f8fc3076
:101f9c002bb1012b16d0ff2380f8903087e0002363
:101fac000193b44a009201220321d0f8ec0021f0f5
:101fbc0011f9002800f0898094f8fc30013384f882
:101fcc00fc3082e000230193aa4b009301231a46b4
:101fdc000321d0f8ec0021f0fdf8054666e0d0f8be
:101fec00ec0094f8fc30042b43d8dfe813f0050028
:101ffc009d0313009d033300002200929e4b012190
:10200c0021f068fb002860d094f8fc30013384f890
:10201c00fc305ae0d4f8e4309a0ac3f30913b2f551
:10202c00f87f01d11b2b07d0944900201af050fbec
:10203c00ff2384f890303ae0002200928e4b9049b6
:10204c0021f048fb002840d094f8fc30013384f890
:10205c00fc303ae0d4f8e43003f00f0384f8fe309f
:10206c002bbb884900201af033fbff2384f89030f7
:10207c001de0ff2384f8903027e090f8fc10c1f1ac
:10208c00200200230093804b92b2804800eb011198
:10209c00d4f8ec0016f07cfa94f8fc500544edb240
:1020ac0084f8fc50202d14bf002501256db10023b0
:1020bc0084f8fc3094f8d4300133dbb284f8d4309b
:1020cc00052b04bf022384f890300123237094f96c
:1020dc009030022b00f02a8394f804316bb12378f2
:1020ec00012b00f04d83002384f804310121d4f836
:1020fc00ec0007f0cbf90123237005b030bdd0f80c
:10210c00ec0094f8fc302e2b00f2e881dfe813f0a1
:10211c002f002f002f002f002f00e601e601e60113
:10212c00e601e60148004800480048004800e60186
:10213c00e601e601e601e6016e006e006e006e003f
:10214c006e00e601e601e601e601e6018900eb011d
:10215c009b00eb01c600eb01dc00eb01f200eb0194
:10216c00080130014d0171019601bb01db010093a7
:10217c00402303aa0521204615f05afc05460028e9
:10218c0094d0039b23b10a2384f8fc3000258de7ff
:10219c003f4900201af09cfaff2384f8903085e721
:1021ac000a3bdbb200931f2303aa0421204615f03f
:1021bc003ffc054600283ff479af039b13f0100f4a
:1021cc0018bf43f0e0035bb284f8f03013f1050f55
:1021dc0004db142384f8fc30002567e72c4900202d
:1021ec001af076faff2384f890305fe7143bdbb2e9
:1021fc0000931f2303aa0821204615f019fc05465d
:10220c0000283ff453af039b13f0100f18bf43f09b
:10221c00e0035bb284f8f1301e2384f8fc30002517
:10222c0044e700230093144b01221a4921f052fa7f
:10223c00054600283ff43aaf94f8fc30013384f89b
:10224c00fc30002532e7d4f8e430a4f8f230002357
:10225c000093094b0122104921f03cfa0546002855
:10226c003ff424af94f8fc30013384f8fc300025a3
:10227c001ce700bf93270100ed21020094b601007a
:10228c0094000a00bcb60100d943020040da0000f9
:10229c00d4b60100840004008a000400d4f8e430b1
:1022ac00a4f8f43000230093ba4b0122ba4921f070
:1022bc0011fa054600283ff4f9ae94f8fc300133ce
:1022cc0084f8fc300025f1e6d4f8e430a4f8f630bc
:1022dc0000230093af4b0122b04921f0fbf90546d6
:1022ec0000283ff4e3ae94f8fc30013384f8fc3062
:1022fc000025dbe6d4f8e430a4f8f8300023009392
:10230c00a44b0122a64921f0e5f9054600283ff42b
:10231c00cdae94f8fc30013384f8fc300025c5e6d2
:10232c00d4f8e430a4f8fa3094f9f0309bb203f10d
:10233c00090291b203f10e0292b2120142ea812219
:10234c00b4f8f23003f00f031a4300230193009307
:10235c00012392b2934920f03dff054600283ff43b
:10236c00a5ae94f8fc30013384f8fc3000259de6d2
:10237c0094f9f13028339bb2b4f8f420c2f309027b
:10238c0042ea8322002301930093012392b28649ef
:10239c0020f020ff054600283ff488ae94f8fc306e
:1023ac00013384f8fc30002580e694f9f0309bb2c0
:1023bc005a1d91b2b4f8f62022f47c5222f03f025e
:1023cc0042ea012212b292b209331a43002301935a
:1023dc000093012392b2704920f0fcfe05460028c0
:1023ec003ff464ae94f8fc30013384f8fc300025e3
:1023fc005ce694f9f0309bb203f1090291b2b4f8a7
:10240c00f82022f47c5222f03f0242ea012212b25e
:10241c0092b20e331a43002301930093012392b21c
:10242c005e4920f0d7fe054600283ff43fae94f8f5
:10243c00fc30013384f8fc30002537e694f9f03099
:10244c009bb203f1110291b2b4f8fa2022f47c523f
:10245c0022f03f0242ea012212b292b216331a4320
:10246c00002301930093012392b24d4920f0b2fe58
:10247c00054600283ff41aae94f8fc30013384f87a
:10248c00fc30002512e694f8fe50002301930093d3
:10249c00012345f6217243f631719d4218bf0a465d
:1024ac00424920f097fe054600283ff4ffad94f812
:1024bc00fe30012b3ff4faad94f8fc30013384f874
:1024cc00fc300025f2e500230193009301234ff427
:1024dc004042374920f07efe0546e7e5ff2384f8ad
:1024ec0090300025e2e50025e0e5d0f8ec0094f80a
:1024fc00fc30092b00f21081dfe813f00a002500f4
:10250c003a00640077009600ad00cc00e5000201b3
:10251c00637e1bb9042384f8fc30d6e5a17d627d73
:10252c0000230193234b0093012342ea0122224909
:10253c0020f050fe00283ff4c8ad94f8fc30013375
:10254c0084f8fc30c1e5e17d227e00230193194b18
:10255c000093012342ea0122184920f03bfe002897
:10256c003ff4b3ad94f8fc30013384f8fc30ace5a7
:10257c00002301930f4b009301238322104920f079
:10258c0029fe00283ff4a1ad94f8fc30013384f807
:10259c00fc309ae5ed210200ad000400ae00040011
:1025ac00af000400840004008a000400d000040082
:1025bc00e0000400d943020002ca040005ca04006a
:1025cc008700040000230193864b009301234ff4f2
:1025dc000042854920f0fefd00283ff476ad94f8ca
:1025ec00fc30013384f8fc306fe594f8953094f8a6
:1025fc009420120442ea036294f892301a4394f83d
:10260c00931000230193774b0093012342ea01229c
:10261c00764920f0dffd00283ff457ad94f8fc30ec
:10262c00013384f8fc3050e594f8971094f8962018
:10263c00002301936b4b0093012342ea01226c4966
:10264c0020f0c8fd00283ff440ad94f8fc30013375
:10265c0084f8fc3039e594f8973094f896201204fd
:10266c0042ea036294f894301a4394f895100023cc
:10267c0001935c4b0093012342ea01225d4920f057
:10268c00a9fd00283ff421ad94f8fc30013384f807
:10269c00fc301ae5a37e002b4ff000030193514b45
:1026ac0000934ff0010314bf102200224ff00111d0
:1026bc0020f090fd00283ff408ad94f8fc30013375
:1026cc0084f8fc3001e5e17e49f2260249f226232a
:1026dc00002918bf1a46237f0bb142f480720023e5
:1026ec000193404b00930123042120f073fd00283b
:1026fc003ff4ebac94f8fc30013384f8fc30e4e4a8
:10270c00002301933c4b009301230c224ff48031a6
:10271c0020f060fd0546c9e4ff2384f89030c6e440
:10272c00ff2380f89030d0e40025bfe4637e53bbd8
:10273c00d4f8e830002b43d194f90750c5f34a1074
:10274c0000f5020000f58070c00122f089fb05f055
:10275c001f0520fa05f515f0010f7ff4bdac2378a9
:10276c00012b04bf002323700021d4f8ec0006f0e9
:10277c008dfe0123237094f80431002b3ff4bdac83
:10278c0000232370afe422f015fb1ef031fad4f8cd
:10279c00e030c31ab3f57a7fcad3c4f8e0002378cb
:1027ac00012b04bf0023237000230093134b012241
:1027bc001349d4f8ec0020f08dff01232370b7e708
:1027cc0022f0f8fa1ef014fad4f8e830c01a632894
:1027dc00b2d90023c4f8e830d4f8ec0022f026fa81
:1027ec00aae700bfd943020001ca0400240001007b
:1027fc002500010022000100b13e0200af2e0200b4
:04280c0003ca0400f7
:020000040000fa
:10281000186400201c00000000000000445f00203d
:1028200004000000000000007462002004000000aa
:1028300000000000406500200400000000000000cf
:10284000e066002001000000000000004465002058
:1028500004000000000000001764002001000000d8
:102860000000000091640020010000000000000052
:1028700048650020140000000000000018680020d7
:102880000400000001000000010000005c65002061
:1028900008000000000000003c6000206c00000008
:1028a00000000000dc6600200100000000000000c5
:1028b000e4660020d40000000100000078e101007f
:1028c0000000000000000000000000000000000008
:1028d00000000000000000000000000000000000f8
:1028e00000000000000000000000000000000000e8
:1028f00000000000000000000000000000000000d8
:1029000000000000000000000000000000000000c7
:1029100000000000000000000000000000000000b7
:1029200000000000000000000000000000000000a7
:102930000000000000000000000000000000000097
:102940000000000000000000000000000000000087
:102950000000000000000000000000000000000077
:102960000000000000000000000000000000000067
:102970000000000000000000000000000000000057
:102980000000000000000000000000000000000047
:10299000df6600200100000001000000ff000000d1
:1029a000646500200400000000000000485f002073
:1029b0008000000000000000f061002044000000e2
:1029c0000000000068650020040000000000000016
:1029d000946400201000000000000000a4580020b3
:1029e0000c010000000000006c65002004000000e5
:1029f00000000000086100205000000000000000fe
:102a0000000000207824000000000000d8660020ac
:102a100001000000000000007065002004000000bc
:102a200000000000505c0020a40000000000000036
:102a3000c85f00207400000000000000b0640020a7
:102a4000100000000000000050630020280000007b
:102a500000000000945d00209000000000000000d5
:102a6000d466002001000000000000007465002012
:102a70000400000000000000786300202000000037
:102a800000000000d06600200100000000000000ef
:102a9000046800200c00000001000000f4010000a8
:102aa000d007000001000000e067002024000000c3
:102ab00001000000080008000200010002000800f8
:102ac000000600060101540001010000cddc0100f8
:102ad0000901020000000100286800200200000037
:102ae0000100000000010000a86100204800000073
:102af0000000000010680020060000000100000037
:102b0000ffffffffffff0000a46400200c00000097
:102b100000000000e06400200c0000000000000045
:102b2000245e002090000000000000007865002076
:102b30000c00000000000000b85a0020d80000007f
:102b400000000000f06200203400000000000000df
:102b5000846500200400000000000000d166002011
:102b60000100000000000000886500200400000053
:102b700000000000484c002040060000000000005b
:102b80008c6500200c00000000000000ec640020b8
:102b90000c00000000000000c064002010000000d5
:102ba00000000000d26600200100000000000000cc
:102bb0002665002002000000000000009264002052
:102bc00002000000000000009865002004000000e2
:102bd00000000000d0640020100000000000000091
:102be0009c6500201000000000000000c06600206e
:102bf0000400000000000000ac6500200c00000094
:102c000000000000d366002001000000000000006a
:102c1000b86500200400000000000000506400209f
:102c20001800000000000000bc6500200c0000003f
:102c300000000000c4660020020000000000000048
:102c4000c865002004000000000000007844002057
:102c5000d007000000000000cc650020100000003c
:102c600000000000c6660020020000000000000016
:102c7000dc650020080000000000000080640020e7
:102c80001100000000000000f86300201f00000099
:102c900000000000e46500200400000000000000c7
:102ca000c86600200200000000000000e865002067
:102cb0001000000000000000ca66002002000000b2
:102cc00000000000f865002008000000000000007f
:102cd000cc6600200200000000000000006600201a
:102ce0001000000000000000d56600200100000078
:102cf000000000001c68002004000000010000002b
:102d000064000000b86700202800000001000000f7
:102d1000bb010300d10101004b020100330203009b
:102d20007c020300dd030300de030300e003030075
:102d3000e1030100b322010010660020040000003e
:102d400000000000b8620020380000000000000011
:102d5000146600201000000000000000b45e002097
:102d60009000000000000000885200208002000057
:102d70000000000024660020280000000000000081
:102d8000f86400200c0000000000000068640020cf
:102d90001800000000000000346400201c00000047
:102da000000000004c66002004000000000000004d
:102db000d6660020010000000000000050660020e0
:102dc0000400000000000000206800200400000053
:102dd00001000000ffffffff546600200c00000010
:102de000000000001c6500200a0000000000000038
:102df000606600201c00000000000000ce6600207d
:102e000002000000000000007c66002008000000b6
:102e100000000000d7660020010000000000000054
:102e2000085500209c03000000000000986300206b
:102e30006000000000000000d966002001000000d2
:102e400000000000246300202c00000000000000af
:102e500078240020001000000000000034620020f0
:102e60004000000000000000286500201000000065
:102e70000000000084660020040000000000000044
:102e8000da66002001000000000000007834002015
:102e90000008000000000000886600200800000014
:102ea00000000000905b0020c00000000000000057
:102eb000046500200c00000000000000783c0020a9
:102ec0000008000000000000db6600200100000098
:102ed00000000000dd66002001000000000000008e
:102ee0003865002008000000000000009066002007
:102ef0001000000000000000de660020010000005d
:102f000000000000b059002008010000000000008f
:102f1000a066002008000000000000007862002089
:102f20004000000000000000f45c0020a000000051
:102f300000000000166800200200000001000000f0
:102f400001000000a86000206000000000000000f8
:102f5000a86600200c00000000000000246800208b
:102f6000040000000100000001000000b466002021
:102f70000400000000000000586100205000000024
:102f800000000000b86600200400000000000000ff
:102f9000bc66002004000000000000001065002056
:102fa0000c00000000000000000000000000000015
:020000040000fa
:102fb0005478204279746520436f756e742d6c6f60
:102fc000776572203332626974732854784f544c99
:102fd0004f2900006d4a0200547820427974652020
:102fe000436f756e742d757070657220313662692d
:102ff00074732854784f544849290000774a0200d6
:103000005478204672616d657320772f6f2065724a
:10301000726f722854784654434e542900000000c1
:1030200000000000814a020054782042726f6164ff
:1030300063617374204672616d65732854784243ee
:103040004654290000000000000000008b4a0200e6
:103050005478204d756c7469636173742046726195
:103060006d65732854784d46542900000000000017
:1030700000000000954a0200547820506175736585
:10308000204672616d6573285478504654290000bb
:103090000000000000000000000000009f4a020045
:1030a00054782036342d62797465204672616d65de
:1030b000732854784246543634290000000000003a
:1030c00000000000a94a020054782036352d313224
:1030d000372062797465204672616d6573285442a9
:1030e000465431323729000000000000b34a020084
:1030f0005478203132382d3235352062797465208c
:103100004672616d65732854424654323535290044
:1031100000000000bd4a02005478203235362d35bb
:1031200031312062797465204672616d657328546f
:10313000424654353131290000000000c74a0200e0
:103140005478203531322d31303233206279746534
:10315000204672616d6573285442465431303233d3
:1031600029000000d14a0200547820313032342d39
:10317000313531382062797465204672616d65732e
:10318000285442465431353138290000db4a0200c8
:103190005478204672616d6573203e3d2031353193
:1031a00038206279746528475442463135313829d0
:1031b00000000000e54a0200547820556e646572f4
:1031c00072756e204672616d6573206e6f74205447
:1031d000586564285478545552290000ef4a02007b
:1031e00054782053696e676c6520436f6c6c69730b
:1031f000696f6e204672616d65732854785343463b
:1032000029000000f94a0200547820322d3135207f
:10321000436f6c6c6973696f6e204672616d657384
:103220002854784d4346290000000000034b02005b
:10323000547820313620436f6c6c6973696f6e204f
:103240004672616d65732854784543434e54290096
:10325000000000000d4b02005478206c6174652062
:10326000436f6c6c6973696f6e204672616d657334
:103270002854784c43434e5429000000174b020059
:103280005478204465666572726564204672616d8b
:10329000657328547844544629000000000000005b
:1032a00000000000214b02005478204361727269d3
:1032b00065722053656e7365206572726f72204669
:1032c00072616d6573285478435345292b4b020076
:1032d0005278204279746520436f756e742d6c6f3f
:1032e000776572203332626974732852784f524c7a
:1032f0004f290000354b0200527820427974652036
:10330000436f756e742d7570706572203136626909
:1033100074732852784f5248492900003f4b0200ed
:103320005278204672616d657320772f6f20657229
:10333000726f722852784652434e542900000000a2
:1033400000000000494b020052782042726f616415
:1033500063617374204672616d65732852784243cd
:10336000465229000000000000000000534b0200fc
:103370005278204d756c7469636173742046726174
:103380006d6573202852784d4652290000000000d8
:10339000000000005d4b020052782050617573659b
:1033a000204672616d65732852785046522900009c
:1033b000000000000000000000000000674b020059
:1033c00052782036342d62797465204672616d65bd
:1033d000732852784246523634290000000000001b
:1033e00000000000714b020052782036352d31323a
:1033f000372062797465204672616d657328544286
:103400004652313237290000000000007b4b020099
:103410005278203132382d3235352062797465206a
:103420004672616d65732854424652323535290023
:1034300000000000854b02005278203235362d35d1
:1034400031312062797465204672616d657328544c
:103450004246523531312900000000008f4b0200f6
:103460005278203531322d31303233206279746513
:10347000204672616d6573285442465231303233b2
:1034800029000000994b0200527820313032342d4f
:10349000313531382062797465204672616d65730b
:1034a000285442465231353138290000a34b0200de
:1034b0005278204672616d6573203e3d2031353172
:1034c0003920627974657328544d58424652290058
:1034d00000000000ad4b02005278204672616d651d
:1034e00073203c20363420627974657328527855f5
:1034f000465229000000000000000000b74b020007
:103500005278204672616d6573203e203135313826
:103510002062797465732852784f46522900000062
:1035200000000000c14b02005278206572726f7279
:10353000204672616d6573203e203135313820623e
:10354000797465732852784a52290000cb4b0200e7
:10355000527820435243206572726f722046726126
:103560006d657328527846435345290000000000da
:1035700000000000d54b02005278204c656e677445
:1035800068206669656c64206572726f722046728d
:10359000616d65732852784c46464529df4b020021
:1035a00052782073796d626f6c206572726f722031
:1035b0004672616d657328527852534529000000a8
:1035c00000000000e94b0200527820616c69676ed0
:1035d0006d656e74206572726f72204672616d65e2
:1035e000732852784145290000000000f34b020087
:1035f0005278205265736f75726365204572726fe1
:103600007220285278525245290000000000000024
:1036100000000000fd4b02005278206f7665727248
:10362000756e206572726f72204672616d657328c7
:103630005278524f4529000000000000074c02005c
:1036400052782049504864722043686b73756d202e
:103650006572726f72204672616d65732852784987
:1036600048434529114c02005278205443502043ce
:10367000686b73756d206572726f72204672616d32
:103680006573285278544345290000001b4c020002
:103690005278205544502043686b73756d206572d5
:1036a000726f72204672616d65732852785543457a
:0836b00029000000254c020076
:020000040000fa
:1036b8002de9f04f8db0d0f850a00a68436d846da5
:1036c80083ea040e0eea0a0e8eea040ed84bc46c86
:1036d80023440a9213449e440aeb7e6e4e68436d5f
:1036e8008aea030707ea0e075f40d24b856d2b4431
:1036f800009633441f440eeb37578b681a468aea04
:103708000e053d4085ea0a05cb4b446d23440192e2
:1037180013441d4407ebf535cb681c468eea0706b3
:103728002e4086ea0e06c54b5344029423441e4499
:1037380005ebb6260b691c4687ea050333407b4038
:10374800bf4a039422449644734406eb73694a695a
:10375800134685ea060404ea09046c40b94a04934e
:103768001a4417443c4409eb34548b6986ea09022d
:1037780022407240b44f05931f443d442a4404eb51
:10378800f232cf6989ea040808ea020888ea0908d7
:10379800ae4d06973d442e44b04402ebb8280f6a5c
:1037a80084ea020c0cea080c8cea040ca84d079772
:1037b8003d4409eb05039c4408eb7c6c4d6a82eaa6
:1037c800080909ea0c0989ea0209a24b08952b4461
:1037d8001c44a1440ceb39598b6a88ea0c0e0eea9a
:1037e800090e8eea080e0993a3f524434f3b1a44a9
:1037f800964409ebfe3eca6a16468cea090505eab4
:103808000e0585ea0c05944b1344984445440eeb89
:10381800b525d1f8308089ea0e072f4087ea0907d5
:103828008e4b43449c44674405eb7767d1f834c01a
:103838008eea05033b4083ea0e03894a62449144b9
:103848004b4407eb3353d1f8389085ea07041c4002
:103858006c40844a4a449644744403ebf434d1f8e7
:103868003ce087ea030222407a407f4971440d44d4
:103878002a4404ebb22284ea020b0bea030b8bea1c
:10388800040b7a49009d29440f44bb4402ebfb6baf
:1038980082ea0b07274057407549059d29440b4488
:1038a8001f440bebf7578bea0703134083ea0b031c
:1038b80070490b9631440c44234407ebb34387ea21
:1038c800030505ea0b057d406b490a9c21440a441f
:1038d800154403eb353583ea05023a405a406749f7
:1038e800049e31448b445a4405ebf26285ea020196
:1038f80019406940624c099e34442744394402eb1c
:10390800f15182ea01042c4054405e4f77443b4415
:103918001c4401ebb44481ea040313404b405a4f62
:10392800039e37443d442b4404eb333384ea030bb2
:103938000bea010b8bea040b544d089e35442a44cc
:10394800934403ebfb6b83ea0b0727405f40504a25
:103958004a4411440f440bebf7578bea07051d4007
:1039680085ea0b054b4a02990a441444254407eb9f
:10397800b54587ea050202ea0b027a404649079ee6
:1039880031440b441a4405eb323285ea02033b40ca
:103998006b40424961448b445b4402ebf36382ea27
:1039a8000301294051403e4c019e34442744394488
:1039b80003ebf15183ea010414405c40394f069e41
:1039c80037443d442c4401ebb44481ea040b0bea30
:1039d80003054d40344f47443a44154404eb35350c
:1039e800049fa7f5b822a2f2be6213448bea050b26
:1039f8005b4405eb337384ea05025a402b4f079e5c
:103a080037443944114403eb715185ea030b8beabf
:103a1800010b274a0b9f3a4414445c4401eb34449d
:103a280083ea01076740234a4a4415442f4443e088
:103a380078a46ad756b7c7e8db702024eecebdc19c
:103a4800af0f7cf52ac68747134630a8019546fd77
:103a5800d8988069aff7448bbed75c892211906be8
:103a6800937198fd8e4379a62108b44962251ef604
:103a780040b340c0515a5e26aac7b6e95d102fd69a
:103a88005314440281e6a1d8c8fbd3e7e6cde1216f
:103a9800d60737c3870dd5f4ed145a4505e9e3a9d0
:103aa800f8a3effcd9026f678a4c2a8d81f67187db
:103ab80022619d6d0c38e5fd04eb772781ea04024d
:103ac8007a40944d009e35442b44134407eb3373de
:103ad80084ea07025a40904d039e35442944114414
:103ae80003eb715187ea030b8bea010b8b4a069da6
:103af8002a441444a34401eb3b4b83ea010282eac3
:103b08000b02874c099d2c4427443a440beb722244
:103b180081ea0b045440834d65442b44234402eb53
:103b280033738bea02075f407f4c0a9e344421447a
:103b38000f4403eb775782ea03057d407b49029cdb
:103b480021448b445d4407eb354583ea070b8bea38
:103b5800050b7749059c21440a44934405eb7b2bcc
:103b680087ea050484ea0b04724a08990a44134454
:103b78001c440beb347485ea0b0161406e4b4344e3
:103b88001f44394404eb71518bea04034b406b4ae0
:103b9800724415441d4401eb354584ea01026a402c
:103ba800674b019f3b449b445a4405eb722262eaef
:103bb80001036b40634f37443c44234402ebb36337
:103bc80063ea050b8bea020b5f4c069f3c442144d9
:103bd8008b4403ebbb5b6bea02075f405b494944dc
:103be8000d442f440beb774767ea030484ea0b0480
:103bf8005749049d29440a44144407ebf42464ea11
:103c08000b057d40534a424413441d4404ebb565fb
:103c180065ea070888ea04084f4b02990b449b445d
:103c2800d84405ebb85868ea04036b40099aa2f532
:103c38008016a6f683363e44334408eb734363eaa2
:103c4800050989ea08094549009e31440c44a14404
:103c580003ebf92969ea08065e40414a07990a44d4
:103c680015442e4409ebb66666ea030181ea0901a8
:103c78003c4a72449044414406ebb15161ea09045c
:103c88007440394a059d2a4413441c4401eb74448a
:103c980064ea06054d40354b634499444d4404ebb2
:103ca800f52565ea01076740314a039b1a44164423
:103cb800374405ebb76767ea04036b402d4a0b9e50
:103cc80032441144194407ebb15161ea05067e40bc
:103cd800294a019b1a441444344401eb7444c36ccc
:103ce8003b44c36464ea07074f40244b089a1344d3
:103cf8001d442f440aeb040505ebf7250565436dc4
:103d08001c444465836d1944816500200db0bde8ed
:103d1800f08f00bf44eabea4a9cfde4b604bbbf6d0
:103d280070bcbfbec67e9b28fa27a1ea8530efd4b7
:103d3800051d880439d0d4d9e599dbe6f87ca21fa3
:103d48006556acc4442229f497ff2a43a72394abb1
:103d580039a093fcc3595b6592cc0c8fd15d8485e7
:103d68004f7ea86fe0e62cfe144301a3a111084e74
:103d7800827e53f735f23abdbbd2d72a91d386eb70
:020000040000fa
:103d8800b14b834240f04183b04b93f90020531e5e
:103d9800dbb2012b00f239832de9f04f87b0ac4b31
:103da8001b685bb1012a1ad0a94b1c68a64b1b885b
:103db800002b00f01c830025a34e7be0a54b1b685d
:103dc80002a89847002800f3f58220b9029810b19c
:103dd80002f02affeee29d4b00221a70eae29e4ba7
:103de8001b68b3f1ff3fdfd19c4a002105201ff07b
:103df80033fe994b1860b0f1ff3f2ed01ef096fdb0
:103e080000eb800303f2e733954aa2fb03239b09e7
:103e18004ff47a7606fb03f3b3fbf0f6914b1e6082
:103e28000225914c04e001351034282d00f0d6828b
:103e38002368002bf7d0b4f90a20002af3d02146d2
:103e4800a8b21ef0bffc0028edd106f5a673b3fb9f
:103e5800f6f306fb03f6854b1e6020f0d5fd88b906
:103e680015f048f8794bff221a7020f0cdfd002894
:103e780000f0a08220f0c2fd4ff0ff327c4918f01c
:103e880029fc97e220f0bafd05227a4918f022fcb5
:103e9800e6e7032304222146304619f069fc94f82a
:103ea800433043f0800384f843300135743431885b
:103eb8008d424bdae06c0028f7d0636c9b69984719
:103ec80094f8433013f0400fefd0636c5b69e06cfb
:103ed80098470028dddb0228e7d1002302930393eb
:103ee8000493059340f2dc53adf81230636c1b6cfd
:103ef80002a9206d98470298e063bdf80c30a4f839
:103f08004030bdf80e30003318bf012394f8432029
:103f180063f3451284f84320bdf81230a4f86630e4
:103f28009df8153084f868309df8143084f86930ad
:103f380094f8423043f0400384f84230d3b203f09f
:103f4800bf0343f0800384f84330aee73f4b93f957
:103f58000030012b25d0002019f09eff464b1b682e
:103f680033b9464b1a68464b1b68134300f022824c
:103f7800414b1b68002b40f089804ff000083f4bf5
:103f88001b68002b00f091813c4b00221a60304bdb
:103f98001c682d4b1b88002b00f01a811646394fe0
:103fa800e8e02b4b1e68002900f0278232460025e6
:103fb8002b46012706e007fa03f005430133743264
:103fc800994212d092f8430000f00c04042cf2d16c
:103fd80010f0800f00f0ee8192f8420010f0400fd0
:103fe800ecd007fa03f00543e8e7012202fa03f3ed
:103ff800013bab4200f00182134b1b88abb100249c
:1040080044f24008104f0ae00323042231463846a0
:1040180019f0aefb013474363b889c4205dab6f8d9
:10402800423018ea030ff5d0eee7084bff221a706a
:1040380020f0eafc002800f0bd8120f0dffc2a46d1
:10404800114918f047fbb5e134640020d66600201a
:10405800486600204c660020206800202d270200ba
:10406800d34d621040660020a85200203c66002014
:10407800c857010098570100346600205066002098
:1040880038660020c05e0020385801000025b44b77
:104098001d6020f0bffc04461df098fe06460f4642
:1040a80022462b461df0f2feae4b1860ae4aa2fb2c
:1040b800043292092b46304639461df0e7feab4bd9
:1040c8001860ab4b1b68ab4a12689b1aab4204dd05
:1040d800a74a13604ff0010851e703f24d13a44ab1
:1040e8001360a54b1c68a54b1b88002b00f06c8146
:1040f8000025a24e0ee094f86a3043f0020360f304
:10410800820360f3000384f86a300135743433881d
:104118009d420fda94f8423013f0400ff5d0636ceb
:104128005b6a206d984794f86a3003f0010398425f
:10413800e1d1eae74ff0010821e74ff0010823e752
:10414800002503e08c6238461ff079fd636c5b6bd9
:104158002a462946206d984701460028f2d1884a08
:1041680013680133136029e001367434834b1b88cc
:10417800b3422ddd94f8423013f0400ff4d0b4f878
:104188006250636c5b6d206d98470543adb220f0bb
:104198000bfeb4f8623023ea0503a4f8623020f07d
:1041a80007feb4f864302b43a4f86430636c1b6dcd
:1041b8002946206d984715f0160fc1d194f8433061
:1041c80013f0200fd0d0636c9b6b206d9847cbe722
:1041d8004ff0000bdff8b49109f10c07dff8b0a13c
:1041e8000af10803019305e001226ff00c0128464b
:1041f8001df0ccfc38461ff0dffa054600284bd0ee
:104208006b699b891c0a44ea0324a4b2a86a866dd8
:104218002eb1c36d22462946b0470028ead1284668
:1042280002f0dcfa0028e5d140f606039c420dd0e6
:10423800b4f5006f07d04ff6ff739c42d4d10af152
:104248001004022604e0019c012601e000265446e1
:104258002b6a23f47c132b62626813432b626088f9
:1042680000eb4000294609eb80001ff0e8fc012321
:1042780003fa06f616ea0b0fbcd14bea060b638865
:10428800404800eb0310038943f001030381002237
:1042980001211ff001fbade720f086fd394a138ba1
:1042a80023f00103138320f083fd334b1b68334a4b
:1042b800108820b3002240f286651446324e09e089
:1042c8003168013131600ee0a3f864400132743383
:1042d800824214d093f8421011f0400ff6d0b3f890
:1042e80064100d42ecd193f86a1011f0020febd074
:1042f80093f86a106ff3410183f86a10e4e7b8f1a4
:10430800000f66d11f4d05f1300405f5247544e012
:104318001344a381238943f002032381002202214d
:1043280020461ff0b9fa1034ac420fd02368002b96
:10433800f9d0b4f90a20002af5d03168a3895b1aac
:104348009bb219b20029e3dda181ece720f02cfd36
:104358000c4a138923f00203138120f029fdd1e7c9
:104368003466002028660020d34d621024660020a1
:104378003c66002040660020486600203464002027
:1043880030660020885200202c660020b45e002091
:10439800403302001034ac4209d054f8103c34f8d1
:1043a800082c002bf6d0002af4d09847f2e7174bd8
:1043b8001b6813b907b0bde8f08f00224ff4807175
:1043c80013481ff069faf5e7124b1b68002b7ff4be
:1043d800b4ae114c114e04f51875a7e706f5a6738f
:1043e800b3fbf6f306fb03f60d4b1e60dce40d4b46
:1043f80093f90030012b7ff4aead0a4b02221a70fc
:10440800094900201df052fca5e5704738660020d8
:104418009852002050660020a852002040660020d4
:0c4428003c660020d66600200858010009
:020000040000fa
:104434002de9f04f8db082468946002308930993f5
:104444000a930b9343680393aa4b1968002940f31a
:10445400b8829346a84b93f8ce30012b00f0b88273
:104464000023a54d0133d8358b4200f0aa8295f87c
:10447400ce20012af6d1a04beb1adb1003ebc302ca
:1044840003eb4203c3eb432303eb8343daf800203b
:1044940054685a4299490398a047002485f8d140aa
:1044a40002232b7485f8cf4041f289336b82944bfd
:1044b400ab611ef03dfa04906c6000eb80035b007e
:1044c400ab6028602c75c5f8c4a028461af0f2ff2a
:1044d400b9f1010fc8bf012411dc95f8d130002bcc
:1044e40000f0e581012b00f01d820db0bde8f08fd6
:1044f400012385f8d1300134e4b24c45edda5bf8a0
:10450400246002227f4930461ff0d2fa0028efd0ff
:1045140005227d4930461ff0cbfa0028e8d002225c
:104524007a4930461ff0c4fa28b10522784930464a
:104534001ff0befa10b901232b74dce7022275497f
:1045440030461ff0b5fa30b10522734930461ff0ea
:10455400affa00285cd101232b741c44e4b25bf84d
:10456400246030461ff02efec7b207f1ff38b04476
:104574006a4940461ff0d0feb8b1694940461ff071
:10458400cbfe00283dd14ff47a7807f1ff3cbcf113
:10459400000f33dd00273a464ff0010e3b460594e9
:1045a4007146b64644460e46f4e15d4940461ff066
:1045b400b3fe00285b4b0cbf4ff47a789846e4e7cf
:1045c40002eb820200eb4202303aede12346059c05
:1045d40003fb07f3424501d208fb02f20892099358
:1045e400daf80010981800904e684f49daf8040081
:1045f400b047089b099a1344ab617ce70022134639
:10460400eae7012208a9304615f050fe089bf3e7bb
:104614000222464930461ff04bfa28b1052244498c
:1046240030461ff045fa50b90134e4b2012208a91a
:104634005bf8240015f03afe089bab615be70222ad
:104644003c4930461ff034fa28b105223a49304635
:104654001ff02efab8b9002385f8d1300134e4b242
:10466400042208a95bf8240015f020fe089b85f8b5
:104674004430099b85f845300a9b85f846300b9bee
:1046840085f8473037e702222c4930461ff010faec
:1046940028b105222a4930461ff00afa78b90134b4
:1046a400e4b2012208a95bf8240015f0fffd089b81
:1046b400049a02fb03f3ab6000236b601be7022246
:1046c400204930461ff0f4f930b105221e49304626
:1046d4001ff0eef9002839d10134e4b2012208a90f
:1046e4005bf8240015f0e2fd089b6b600023ab60cf
:1046f40001e700bf88650020b85a002018da0000de
:10470400809698003cd8000040d800004cd80000a7
:1047140050d8000058d800005cd8000068d80000c9
:104724006cd8000040420f0070d800008cd8000004
:1047340090d800009cd80000a0d80000acd800009d
:10474400b0d80000b8d80000bcd800000222a149ab
:1047540030461ff0adf930b105229f4930461ff0b5
:10476400a7f9002836d10134e4b25bf82400437879
:10477400782b17d0012208a915f098fd9df8200088
:104784000246202820d018d9a0281ad0c0281ed12b
:1047940010232b75daf800305e682b7d8f4903985f
:1047a400b047a8e683788df81f30c3788df81e30a3
:1047b400bdf81e001cf0b8f8e2e740b900232b75e1
:1047c400e8e720232b75e5e708232b75e2e70023b0
:1047d4002b75dfe70222824930461ff069f928b1c0
:1047e4000522804930461ff063f958b90134e4b218
:1047f400012208a95bf8240015f058fd089ba5f8d0
:10480400d23078e60222784930461ff051f928b1b7
:104814000522764930461ff04bf968b90134e4b2f9
:10482400012208a95bf8240015f040fd089b049ab6
:1048340002fb03f32b605ee602226d4930461ff053
:1048440037f928b106226b4930461ff031f950b9c7
:104854000134e4b2012208a95bf8240015f026fd16
:10486400089b6b8247e60222634930461ff020f919
:1048740038b10522614930461ff01af900287ff447
:104884003aae0134e4b2012208a95bf8240015f021
:104894000dfd089b332b01d9eb602ce6d5f8c43011
:1048a4001b685b6834225649039898471de600212b
:1048b40005f180001ef058fac5f8c80010b32b7c2f
:1048c400022b2ad0012b06bfab8907ee103a9fedcd
:1048d4004d7added047ab8ee676aab69db0807ee62
:1048e400903af8ee677ab8ee477ac7ee876ac6ee72
:1048f400267afceee77ac5ed217a0a2128461af0d9
:10490400a5f8f2e5daf800301b683f4903989847a8
:1049140020f040f8c5f8c800d1e7b5f8d23007ee6a
:10492400103ad6e7daf800301b683849039c204671
:104934009847daf800301b683549204698472b7ca5
:10494400012b0fd02b7c022b13d0d5f8c4301b685d
:104954005b686a8a2f4903989847022128461af00f
:1049640075f8c2e5daf800301b682b4903989847bc
:10497400e8e7daf800301b68284903989847e4e729
:104984002e2802d108fb02f200260133dbb2634574
:10499400bff61cae1ef80300a0f13001c9b209290c
:1049a400eed8002e7ff40cae002eeed107eb870775
:1049b40000eb4700a0f130071949a1fb0401cc0822
:1049c400e3e7daf800301b681649039898478ce54a
:1049d400154d50e5c4d80000c8d80000d0d8000058
:1049e400fcd8000000d900004052010008d90000a2
:1049f40014d9000018d9000020d9000024d90000df
:104a04002cd900000000000058d9000080d9000013
:104a1400bcd90000e0d90000d8d90000dcd90000de
:0c4a2400cdccccccecd90000b85a00205e
:020000040000fa
:104a300090f87730012b40f0cb822de9f04786b01b
:104a400004460e469146c26c002a60d0136a13f0e9
:104a5000080f5cd143f008031362c76c002f56d0d7
:104a60000023a7f85630a7f85430bb64a7f86e307f
:104a7000a7f86c303b663a6913603a69938116f087
:104a8000010f07d094f83f3043f0010384f83f3022
:104a900006f0fe0694f83e3003f023036ff345134f
:104aa00084f83e3094f87730012b0cbffd69002567
:104ab0002b7b6ff307132b7316f0060f59d016f0ec
:104ac000020f00f01c8102238df8143004238df8ae
:104ad000153094f87730012b34d00020030a43ead4
:104ae0000023adf81630a4f86c002b7bc3f303123f
:104af000013262f307132b7394f87730012b04bf54
:104b0000059b6b61636d6bb34ff00008f9e0b64b2a
:104b10000422142178201df0d7fb0746002800f05e
:104b20005a82b24b8360c4600123a0f87030a0f8b1
:104b30005830036a43f008030362e36c002b9ed1f4
:104b4000e0649ce7a36c2bb1a06c1ef01dfe143832
:104b500080b2c3e720461bf03bfb0028f4d16ff086
:104b6000030089e1204612f03dfa60654ff000082d
:104b7000c7e0b4f86a80a26823699a4200f03482e0
:104b8000b4f86430002b00f0aa8094f87730012b41
:104b90002dd0b4f86c30984528bf9846a368216999
:104ba0008b423cd95b1ab4f864a09a4528bf9a4658
:104bb000d04506d294f83e3043f0800384f83e306e
:104bc000c24694f87730012b16d0236953442361f1
:104bd00094f83f3013f0010f00f08380b4f8643094
:104be00053457ed0d0457cd046f0010679e020f0d8
:104bf00035f90028d2d1cce70023bb6459b11ffaa4
:104c00008af3a7f85630a7f8543039653b6907f1a5
:104c100048021a60d9e73b6900221a60d5e762684a
:104c2000521a206813441b1ab4f864a09a4528bf8e
:104c30009a46d04506d294f83e3043f0800384f87b
:104c40003e30c2461346524528bf5346baeb0302d4
:104c50002cd094f877c0bcf1010f0ad023695344db
:104c6000236162689342b3d32168521a9b1a23616d
:104c7000aee7a0b192b2a7f86e20a7f86c20b86694
:104c800007f16002ba6469b19bb2a7f85630a7f881
:104c9000543039653b6907f148021a60dee70022ab
:104ca000ba64f0e73b6900221a60d7e794f87720ee
:104cb000012ad3d10022ba6451b19bb2a7f8563071
:104cc000a7f8543039653b6907f148021a60c5e717
:104cd0003b6900221a60c1e74ff0000a7ee74ff0ff
:104ce000000a1ffa8af8baf1000f0ad0b4f864304b
:104cf000a3eb0803a4f8643046f0080606e04ff082
:104d0000000816f0030f45d04ff0000a19f0010f0c
:104d10000dd0002384f87830354b1a684ff47a733d
:104d200003fb02f3334aa2fb03239b0923651df017
:104d3000edfd236d1844606294f83e3043f00203a9
:104d400084f83e30b4f862302b80b4f860306b8069
:104d5000636d6b60a36dab602b7b6ff303032b73f1
:104d60006e7300236b822b82636d5344636516f070
:104d7000020f4dd016f0100f04bf0023ab6094f863
:104d8000743013f0080f37d06b68013b6b604ff045
:104d900004093fe019f0020f0ad094f8793001338a
:104da00084f87930636d013b63654ff0010ac9e710
:104db00094f83e3013f0020f13d019f0010f08d110
:104dc00094f878302bb1013b84f87830236d5b0880
:104dd00023651df09bfd236d184460624ff0000aaf
:104de000b0e74ff0000aade706002000f95b0100d4
:104df000a8650020d34d6210636d0133636594f89c
:104e0000743043f0080384f874304ff0040901e073
:104e10004ff0000916f0010f05d094f8743043f0fc
:104e2000040384f8743016f0100f05d094f8753030
:104e300043f0010384f87530e369226a934223d377
:104e4000a1696069091a9b1acb1a9bb2eb81a4f87d
:104e50006630284618f068f92b7bc3f3031205323d
:104e600062f307132b7394f87730012b10d0b8f14d
:104e7000000f7ed14ff0ff3094f87730012b00f017
:104e8000a28006b0bde8f087d31a013b9bb2dde7f4
:104e9000236c23b90025b8f1000f6dd06ae02046dd
:104ea0001bf096f905460028f5d009f11409636c4a
:104eb000bb63236cfb63a36c3b643a6993894b44eb
:104ec0009381fd6900232b82a36c93f8683013f063
:104ed000010f18d094f885308df8053094f886309d
:104ee0008df8043000258df8065009eb080201ab5f
:104ef00092b2062138460df0c3f83d6038461ff0e7
:104f000027fd0546c7e7bb6b0293fb6b03930022ab
:104f10008df8102006238df8113009eb08039bb2a1
:104f2000190a41ea0323adf812300c2102a817f048
:104f3000d5fdc24392b24946284617f0cffdc34380
:104f40009bb2b8f1000f07d139690a8a22f0080232
:104f50000a82db432b82bde739690a8a42f00802e4
:104f60000a824246396d384616f0d2fac3439bb2e4
:104f7000efe70025a36babb1002d3ff47baf16f03c
:104f8000040f2bd0e56f5db3b4f87a3013f0080f3f
:104f900028d0d4f880300822a16cb4f93c00a8478e
:104fa00000206ee740f2dc5363631df0affc626be0
:104fb000124b1b6803fb02f3114aa2fb032300eb15
:104fc0009310a063d8e73b6a23f008033b6258e7dd
:104fd0006ff0010070476ff0020052e7002050e7c9
:104fe00000204ee700204ce794f83f3013f0010f0b
:104ff0007ff472ae4ff0000883e600bfa865002082
:04500000d34d62101a
:020000040000fa
:105004002de9f04f8db000f50e5292f8433092f82e
:1050140040703c329279013ad21ad2b2ba4280f04c
:105024007f8200f50e5b0bf13c0bcdf81cb0834680
:1050340093e0ff2e44d199f84130ff2b22d028462b
:105044001cf0d9fb002845d042f2744301220bf82e
:105054000320002342f273420bf8023042f264420e
:105064002bf8023042f248435bf8032004215846ef
:1050740014f0e4f80bf5115331332a78c2f34012db
:105084001a7054e099f84230ff2bd8d199f8433084
:10509400ff2bd4d1012142f274430bf803100023f7
:1050a40042f273420bf8023042f264422bf80230af
:1050b40042f248435bf80320584614f0bff8d9e79e
:1050c40028461cf098fb0028bed1334616f0400f4a
:1050d40000f0ff8042f2744301220bf80320002306
:1050e40042f273420bf8023042f264422bf802306f
:1050f40042f248435bf803200621584614f09ef818
:10510400b8e742f2744301220bf80320002342f271
:1051140073420bf8023042f264422bf8023042f23e
:1051240048435bf803200721584614f087f800230e
:1051340042f264422bf8023042f274420bf802301d
:10514400079ad3790133dbb2d37117799279013a93
:10515400d21ad2b2ba4280f0e381013f3b40079aaf
:10516400126841f27a0101fb03231a46039341f2c8
:105174007803d25a002ae3d09b4ba3fb02139b096a
:1051840003eb0313a2eb83039bb20993002bd7d148
:105194000892039b03f63c07b94680e042f2484379
:1051a4005bf80330009300231a461946584617f05b
:1051b400e8febce742f2724301220bf8032042f2fc
:1051c40048435bf8031058461bf0e2f89ae003f0fa
:1051d4000f039f0094f842201346c2f380110691f6
:1051e400002900f00c8102f03f0303f10108d30908
:1051f40002934745c0f0078142f264433bf8032021
:105204001ffa88f54ab942f2604300212bf80310d3
:105214000bf511530020e3e9040142f260413bf82d
:1052240001302b442bf8013042f248435bf8033041
:1052340000932b462146584617f066f942f2644a19
:105244003bf80a102944029b1a1c18bf012289b298
:10525400584618f009ff00232bf80a30c7f1400a1a
:105264001ffa8afa42f273431bf80330002b00f052
:10527400d780002e40f0dd8042f274431bf80330e7
:10528400002b00f0978000bf09f14409039ba9ebb0
:105294000303a3f63c03089a9342bff451af09f108
:1052a40040054c4699f84060002e7ff4c2ae99f850
:1052b40041303bb999f8423023b999f84330002b77
:1052c4003ff4e8ae28461cf096fa00287ff4bcae02
:1052d4003346c3f3401342f271420bf80230002b01
:1052e4003ff40faf94f84230db0904937ff456afd8
:1052f40042f272431bf8033023b994f84030db09bf
:105304007ff458af94f84130c3f30016002e7ff4b5
:105314005eaf13f0200f69d194f8423013f0400fc0
:1053240064d142f2744300220bf80320ace742f24a
:10533400744301220bf80320002342f273420bf85a
:10534400023042f264422bf8023042f248435bf8e6
:1053540003200221584613f071ff95e742f274438b
:1053640001220bf80320002342f273420bf80230af
:1053740042f264422bf8023042f248435bf80320c5
:105384000321584613f05aff7ee742f264433bf888
:105394000310002242f273400bf800202bf8032084
:1053a4005144029b9a1a18bf012289b2584618f038
:1053b4005bfe69e742f2734301220bf8032042f2d9
:1053c400744300220bf80320e11942f264433bf8d2
:1053d4000320002a4cd085e002f03f0303f10108ca
:1053e400d309029337460ee0f1f0f0f094f842202e
:1053f4001346c2f3801106910029edd10f46db0953
:1054040002934ff04008a8eb070a1ffa8afa002e0d
:105414003ff428af42f273431bf80330002b86d1cc
:1054240042f274431bf80330002b7ff422af002eaa
:1054340094d0b84508d842f274431bf80330002bcb
:105444007ff422af002eb5d094f84330db090493e7
:1054540042f2734301220bf8032042f27443002208
:105464000bf80320e11942f264433bf8032052b9dc
:1054740042f2604300222bf803200bf51150002365
:10548400e0e90423099a049b63b342f250400beb16
:10549400000c0b780024cde904344c782304049cdc
:1054a40043ea0463cc790025cde904458c7843eaca
:1054b4000423cd780026cde90a560c79049e46eae9
:1054c40004664c7946ea04468c7946ea04240a9d2b
:1054d4002b434bf80040ccf804300831aaf1080af9
:1054e4001ffa8afa42f260403bf8003053442bf82a
:1054f400003042f248435bf8033000935346584669
:1055040017f002f8b84503d9069b002b7ff43daf92
:1055140042f264433bf803108a442bf803a0b3e639
:085524000db0bde8f08f00bfdf
:020000040000fa
:10552c002de9f04f8fb042f26e43c35c0393002b16
:10553c0040f04f820591834642f26e430122c254e1
:10554c0042f26f43c35c0293002b00f0398242f2ab
:10555c005843c35c002b40f0318200f50e5393f896
:10556c00411093f840203c33db79cb1adbb29342e9
:10557c0080f02c82013a0a4042f2bc33c35841f20b
:10558c007a0101fb0231089141f278030022ca52e0
:10559c0042f26b43c35c03eb03139b0040f63c02eb
:1055ac009a4228bf1a4604920a91002b00f0c88137
:1055bc004ff00008bbe00a9800eb0807013a0a40dc
:1055cc002c2303fb02f20c9242f2b4335bf803304f
:1055dc000d9303eb020a002340f8083010f8083052
:1055ec0063f07f0300f808307b7843f020037b7076
:1055fc0042f26a421bf80230591c0bf8021003f0fd
:10560c00010310f8082042ea831300f8083042f234
:10561c0062433bf803307bb97b7843f010037b701b
:10562c009af82b302bb303f00303fa7842ea831376
:10563c00fb70029b0b9301e0039b0b9342f26243c2
:10564c003bf80320baf82830a3eb02091ffa89f9ba
:10565c004846402828bf40200690c0f1400189b23e
:10566c0007919a4200f0b1800025cdf82480814644
:10567c0004e0029b0b93e1e7a94537d942f2684855
:10568c001bf808200aebc20242f266463bf80610f1
:10569c009489641aa3b2a9eb0504a4b29c4228bf56
:1056ac001c46281d93682246194438441ef00afaf9
:1056bc002544adb23bf806301c44a4b22bf806408e
:1056cc001bf808300aebc3029289a242d4d1002104
:1056dc002bf806100133dbb20bf808309af82a20ad
:1056ec009a4204bf43460bf80310c5e7ddf824804b
:1056fc00079b002b69d142f262423bf802300699bb
:10570c000b449bb22bf80230baf828209a4264d092
:10571c0038461cf06cf800f00100fb780343fb707a
:10572c0008f144081ffa88f8049b98450dd20bf534
:10573c000e5393f83a1093f8382034335b79013bcd
:10574c005b1adbb29342fff436af41f27803089a4e
:10575c0022f80380b8f1000f00f0f28042f26c43a3
:10576c001bf803503db3ad0140f63b03984522d8de
:10577c0000244026089f00bf07eb0800802307f891
:10578c000830002141708170c170324604301ef027
:10579c003fff41f2780337f8038008f144081ffa01
:1057ac0088f827f803804034a4b2a54203d940f608
:1057bc003b039845e0d941f27803089ad35a002b61
:1057cc0040f0c780039b0293fae0069b181d079ad2
:1057dc00002138441ef01cff8de74b1e03f03f03e5
:1057ec00ba78134343f04003bb7042f26243002289
:1057fc002bf80320daf804406cb10d9b0c9a9b58e3
:10580c00baf82820daf8081042f248405bf8000099
:10581c0000905846a0470bf50e5292f83a300133df
:10582c00dbb282f83a300b9a002a7ff471af0bf599
:10583c000e5292f8381034325279013ad21ad2b24e
:10584c008a42bff465af01390b4042f2b4325bf8c7
:10585c0002204ff02c0a0afb032abaf82820b2f5d2
:10586c00806f3ff655af069b03339bb223f00301c9
:10587c0089b20691c1f140091ffa89f9b9f1000ffb
:10588c003ff446af4a457ff643afc3f383037a78c0
:10589c00134343f010037b709af82b302bb103f0b9
:1058ac000303fa7842ea8313fb700026cdf81c80c0
:1058bc0001e0b14541d942f268481bf808200aebd7
:1058cc00c20242f266453bf8051093895b1a9bb203
:1058dc00a9eb0604a4b29c4228bf1c46069b181dcb
:1058ec00304493682246194438441ef0ebf842f2d7
:1058fc0062423bf8023023442bf802302644b6b205
:10590c003bf8053023449bb22bf805301bf80820dc
:10591c000aebc20189899942cbd100212bf80510e1
:10592c00531cdbb20bf808309af82a209a42c0d1eb
:10593c000bf5115328331970bbe7ddf81c80e7e633
:10594c00059b002b4bd14ff0000807e74ff00008e8
:10595c0009e70bf50e5393f84120013283f84120ef
:10596c0042f258431bf803304bb10bf50e5393f82e
:10597c004120013a83f84120039b029320e041f23d
:10598c0078030898c35a42f2584201210bf80210ce
:10599c0042f248425bf802200092014600f63c02bb
:1059ac0042f269401bf8000018f046fa029038b930
:1059bc0042f2584300220bf80320d6e7039b0293d4
:1059cc0042f26e4300220bf8032004e0039b029387
:1059dc00f6e70023029302980fb0bde8f08f42f275
:1059ec006c431bf80350002db0d142f26b431bf8f3
:1059fc000330002b0cbf402580254ff00008b7e684
:020000040000fa
:045a0c0001207047be
:020000040000fa
:105a10002de9f04f2ded028bd2e9008997b0cde949
:105a20000c138b6808930b690f90d1e900b614939f
:105a3000cd6800220023404649461bf035fc40b9a2
:105a40001bf0040f32d11bf00803059330d0202344
:105a500003e089f0004399462d232b70089b03f146
:105a6000ff3a012305934c4929f0004300208b4263
