:020000040000fa
:10000000f0ff0320c1f1010047d4010007ee010019
:10001000d7020200570a02004f0f02000000000042
:10002000000000000000000000000000d7b4010044
:10003000f7f7010000000000d7b40100d7b40100b9
:10004000d7b40100d7b40100d7b40100d7b4010080
:10005000d7b40100d7b40100d7b40100d7b4010070
:10006000d7b40100d7b40100d7b40100d7b4010060
:10007000d7b40100d7b40100d7b40100d7b4010050
:10008000d7b40100d7b40100d7b40100d7b4010040
:10009000d7b40100d7b40100d7b40100d7b4010030
:1000a000d7b40100d7b40100d7b40100d7b4010020
:1000b000d7b40100d7b40100d7b4010013a40200e3
:1000c0001da40200d7b40100d7b40100d7b40100c9
:1000d000d7b40100d7b40100d7b40100d7b40100f0
:1000e000d7b40100d7b401000000000000000000f8
:1000f00000000000d7b4010075360100753601001c
:100100007536010075360100512f0200512f020093
:10011000512f0200512f0200d7b40100d7b40100c3
:10012000d7b40100d7b40100d7b40100d7b401009f
:10013000d7b40100d7b40100d7b40100d7b401008f
:10014000d7b40100d7b40100d7b40100d7b401007f
:10015000d7b40100d7b40100d7b40100d7b401006f
:10016000d7b40100d7b40100d7b40100d7b401005f
:10017000d7b40100d7b40100d7b40100d7b401004f
:10018000d7b40100d7b40100d7b40100d7b401003f
:10019000ad740200d7b40100d7b40100d7b4010098
:1001a000d7b40100d7b40100d7b40100d7b401001f
:1001b000d7b40100d7b40100d7b40100d7b401000f
:1001c000d7b40100d7b40100d7b40100d7b40100ff
:1001d000d7b40100d7b40100d7b40100d7b40100ef
:1001e000d7b40100d7b40100d7b4010039760200ba
:1001f000d7b40100d7b40100d7b40100d7b40100cf
:10020000d7b40100d7b40100d7b40100d7b40100be
:10021000d7b40100d7b40100d7b40100d7b40100ae
:10022000d7b40100d7b40100d7b40100d7b401009e
:10023000d7b40100d7b40100d7b40100d7b401008e
:10024000d7b40100d7b40100d7b40100d7b401007e
:10025000d7b40100d7b40100d7b40100d7b401006e
:04026000d7b401000e
:020000040000fa
:10026400f8b500bff8bc08bc9e4670476d5102004b
:10027400f8b500bff8bc08bc9e467047495102005f
:020000040000fa
:080284008cc70000010000001e
:020000040000fa
:10028c002de9f04f8db00f210a2027f01bfc0290b6
:10029c0010f0010f40f05d85029b13f0020f40f04f
:1002ac007c850db0bde8f08fd9f8187007f11002fd
:1002bc00059213f4007f21d1fb6809933b690a93e3
:1002cc0000228df82c2006238df82d30330a43eaba
:1002dc000623adf82e300c2109a820f0a3fec04354
:1002ec0083b2d9f8202012f0040f30d032464146a8
:1002fc0048461ff039fa002840f09a86404621f013
:10030c00ddfb98f80ca04fea1a1a4fea8a03049303
:10031c00d9f81ca0baf80220002a00f08c86fd89be
:10032c00bb891d44baf800301d445540adb2c74bd3
:10033c00d3f800c0bcf1000f00f08086d9f828e09b
:10034c00c34b1b68039300239b4610460ee01a46d2
:10035c003146404620f066fecde7b4f8722082426a
:10036c002fd001331bb21c469c452fd9039a52f84f
:10037c002440002cf5d094f876200b2af1d094f878
:10038c0077100129edd8a16c09b18e45e9d1002a6d
:10039c00e3d0b4f87220aa42e3d1daf80010226e4e
:1003ac009142ded1216cfa689142dad1012184f8b4
:1003bc007710c4f848e0059a204626f0a4f8a34626
:1003cc0022e0bbf1000f08bfa346cae7bbf1000f48
:1003dc0000f08380fb68cbf8403001218bf877105c
:1003ec00cbf848e0059a584626f08df8abf87250d9
:1003fc00baf80030abf86030baf80230abf86230c3
:10040c00dbf80030cbf81030d9f810209389049920
:10041c005b1a938198f80d40d8f80870d8f80450fe
:10042c009bf83f3013f0400f5bd19bf875306ff3a6
:10043c0000038bf875309bf87630002b69d0012bbc
:10044c0000f09e801436049aa6eb020a1ffa8afa70
:10045c00aaf1140292b2059214f0010206921abf8c
:10046c00aaf1130a1ffa8af2059a039214f0020fea
:10047c0003d0039a013292b20392dbf81c60dbf8d2
:10048c0020209642c0f0aa80dbf81810dbf814008c
:10049c00091aa6eb020aa1eb0a0a1ffa8af20492c5
:1004ac00dbf85820a5eb020a039a002a00f0a98079
:1004bc00049a002a00f0a080baf1000fc0f29680d6
:1004cc009245c0f0a780039a04998a1a8a45c0f213
:1004dc00a180924540f39e808ee06ff00e0100f0fb
:1004ec0034bc00238bf879309bf83e3013f0020fac
:1004fc009bd127f0ebfbbbf87020564b1b6803fb22
:10050c0002f3554aa2fb032300eb9310cbf8240013
:10051c008be714f0040f1ad114f0100f1dd114f046
:10052c00020f27d00135cbf8585040461af070ff17
:10053c00abf86a00584625f0dcf801221221584627
:10054c0004f078fb02238bf876300026e6e30021da
:10055c00584613f0bdff0026e0e3cbf854700022a0
:10056c000421584604f066fb0021584613f0b0fff6
:10057c000026d3e30021584613f0aaff0026cde352
:10058c0014f0040f40f0c98314f0100f00f0a08594
:10059c00dbf85460b74205d114f0020f40f05585da
:1005ac000026bbe3cbf8547001220421584604f01a
:1005bc0041fbcbf854600026b0e327f087fbbbf877
:1005cc007020244b1b6803fb02f3234aa2fb03237a
:1005dc0000eb9313cbf8243000f056bda2eb060ac7
:1005ec000af1ff3a1ffa8af2049259e703990a4674
:1005fc00514400293ff768af14f0040f1fd00026b8
:10060c008ce3baf1000f05d0baf1000ff4db049ab9
:10061c009245f1da14f0060f20d114f0100f00f00f
:10062c009083023b072b00f2cc81dfe813f029000a
:10063c003e003e003e003e00ca013e00bd010122cc
:10064c001021584604f0f6fa002667e3eccc0020a3
:10065c00e8cc0020f0cc0020d34d621014f0040f35
:10066c0008d09bf83f3043f002038bf83f304ff437
:10067c00006600e000260021584613f029ff4de3e8
:10068c00dbf85460b74205d103238bf876304ff476
:10069c0080760be0cbf8547001220421584604f00c
:1006ac00c9facbf85460002638e30026dbf81010aa
:1006bc00dbf808305a1a13d4dbf854003b1a9b1a97
:1006cc00002b1dddbbf8742002f40172042a01d149
:1006dc00012b0cd000221021584604f0abfa1de37c
:1006ec00dbf80430dbf800001b1a1a44e4e7013095
:1006fc00cbf854009bf8753043f002038bf875303f
:10070c00dbf85430dbf80c20881a914249d2dbf824
:10071c000420dbf80010521afb1a0344d318079379
:10072c00002b07dddbf80430dbf800209b1a079a5e
:10073c009a4246d9dbf83830002b40f0a280dbf827
:10074c000c20dbf808309a4200f0d980b8f80e3053
:10075c00bbf86e209a4238bfabf86e30dbf85420f1
:10076c00b8f80e303b449b1a9bb2bbf8641031b9fd
:10077c002bb19bf83e1041f040018bf83e10abf8ca
:10078c0064309bf87630042b00f0f080062b40f0a0
:10079c001981974240f0c2820021584613f098fe0e
:1007ac00bce2fb1a03440793002b07dddbf8043093
:1007bc00dbf800001b1a0798984202d99142bed070
:1007cc00b8e740f2dc53cbf8343027f07ffadbf893
:1007dc003420c44b1b6803fb02f3c34aa2fb032364
:1007ec0000eb9313cbf838309bf83e306ff3451386
:1007fc008bf83e30dbf80c10079b0b44cbf80c301d
:10080c00dbf8102091420ed893421cd99a1adbf8cf
:10081c0054100a44cbf85420cbf81030dbf80420e9
:10082c00934224d313e0dbf80410dbf80000091a20
:10083c000a44934207d99a1adbf854100a44cbf8ad
:10084c005420cbf81030dbf80420934205d3dbf8ae
:10085c000010511a5b1acbf80c30dbf810309342b5
:10086c0005d3dbf80010521a9a1acbf810209bf81b
:10087c007630032b02d0082b7ff461af46f00406d0
:10088c005de727f023fadbf83830c31a002bfff6ac
:10089c0056afdbf834305b00b3f57a4f28bf4ff41a
:1008ac007a43cbf8343027f011fadbf834208d4b37
:1008bc001b6803fb02f38c4aa2fb032300eb93138c
:1008cc00cbf83830dbf81010dbf80c20881adbf88a
:1008dc0054301b1acbf85430914207d2dbf8041079
:1008ec00dbf80000091a5b1acbf85430cbf8102057
:1008fc009bf83e3043f080038bf83e301fe79bf8ab
:10090c003f3013f0010f19d113f0400f06d19bf8b3
:10091c003e306ff341038bf83e3017e727f0d6f9e2
:10092c00bbf870206f4b1b6803fb02f34ff47a7219
:10093c00b3fbf2f30344cbf82430e8e7dbf8543094
:10094c009f427ff403af9bf8743013f0040f3ff415
:10095c00fdae9bf83e306ff341038bf83e309bf8b5
:10096c003f306ff300038bf83f30efe6974203d034
:10097c0014f0200f35d0d1e19bf8743013f0040f34
:10098c00f6d027f0a3f9574b1a6841f2883303fbd2
:10099c0002f34ff47a72b3fbf2f30344cbf830302a
:1009ac0005238bf87630e3e7dbf8543001339f42b4
:1009bc0001d00026b2e10021584613f089fd002633
:1009cc00ace1002614f0200f40f0a8819bf87620b3
:1009dc00a2f10803dbb2012b40f2a081062a00f041
:1009ec009d81059a002a3fd0baf1000f7edd059b50
:1009fc005344049a934203dda2eb0a039bb2059382
:100a0c0098f80c301b0908eb83030893dbf81c10d7
:100a1c00dbf81830059a52440a44934280f0f48073
:100a2c005a1a0132b2eb0a0200f1df801ffa82f887
:100a3c0001240094434608a80246514448461ff03e
:100a4c00bdfc0490059aa2eb080300949bb208aa83
:100a5c00dbf8141048461ff0b1fc049b034498b219
:100a6c00059b834200f0d980039bcbb19bf8763079
:100a7c00033bdbb2022b84bfdbf81c30cbf82030fd
:100a8c009bf83e3013f0100f40f0fa809bf83e308c
:100a9c0043f010038bf83e3013f0080f00f0f68093
:100aac00069b002b00f03a81dbf858300133039a97
:100abc002a44934240f03281cbf8583046f4806699
:100acc009bf83f3043f004038bf83f309bf87630b3
:100adc00023b032b00f20781dfe813f0ec00f5007a
:100aec00fe001501f0cc0020d34d621098f80c30ac
:100afc001b09caeb830343440893524493b2049af0
:100b0c009a4228bf1a469246dbf81c10dbf81830c4
:100b1c008a18934259d25b1a01330493bdf81080a2
:100b2c0001240094434608aa48461ff047fc059050
:100b3c00aaeb080300949bb208aadbf814104846f1
:100b4c001ff03cfc059a024490b2049baaeb0303f1
:100b5c00dbf814201344504586d1dbf8581051446f
:100b6c00cbf85810cbf81c309bf87620033ad2b255
:100b7c00022a98bf46f40076dbf85c20b2f1ff3f06
:100b8c003ff472afa2eb0a0acbf85ca0bbf868206a
:100b9c0012eb0a0224d4baf1000f3ff765af1144ef
:100bac00cbf858101344cbf81c30dbf818209342c8
:100bbc0006d9dbf81410521ad2431344cbf81c306c
:100bcc004ff0ff33cbf85c304ee7012300935346d4
:100bdc0008aa48461ff0f2fbdbf81c305344bae776
:100bec004ff0ff33cbf85c303ee70af1ff30dbf817
:100bfc0014209b1ac01a01230093059b08aa0144d8
:100c0c0048461ff0dbfb2be701230093059b08aa4a
:100c1c00514448461ff0d2fb22e7dbf85c30b3f1bd
:100c2c00ff3f15d09a4519d2059a02eb0a01bbf881
:100c3c006820d018814205d88b4203d8a0eb0a0358
:100c4c009bb20593059babf86830cbf85ca00be727
:100c5c00cbf85ca0059babf8683005e7bbf86820c7
:100c6c001a4405980146514491427ff6fdae9245d7
:100c7c003ff6faaeaaeb03031844abf86800f3e6b0
:100c8c0001221021584603f0d5ff09e7dbb243f0ef
:100c9c0008038bf83e3027f019f8b14b1a6864231f
:100cac0003fb02f34ff47a72b3fbf2f30344cbf879
:100cbc002c30f5e609238bf87630012211215846a9
:100ccc0003f0b8ff2ae008238bf876309bf87530d8
:100cdc0013f0010f07d021e0dbf854309f4208d00d
:100cec0006238bf8763001221021584603f0a2ff20
:100cfc0014e000221021584603f09cff00215846b6
:100d0c0013f0e6fb0ae000221021584603f092ff94
:100d1c000021584613f0dcfb00e00026bbf87a20db
:100d2c00324000f08e81dbf87c40002c00f08b818f
:100d3c00dbf88030d9f82810bbf93c00a047022121
:100d4c0003e00026eae76ff00d010a22484625f081
:100d5c00b9ff0a2028f06efc814600283ff49caabb
:100d6c00b9f82c60132eeed9d9f81c8098f80c30f9
:100d7c001b09042b0bd9b6eb830f0bdbd9f82030f6
:100d8c0013f400343ff490aa6ff00e01dde76ff01e
:100d9c000d01dae76ff00d01d7e7724b1b68002be2
:100dac003ff47faa00252b46dff8bc91dff8bca1ed
:100dbc00dff8b081e6e026f089ffa36ac01a0028ac
:100dcc00a8bf1026f4e026f081ffe36ac01a0028c1
:100ddc00c0f2f48094f87630052b00f08a8110264e
:100dec0087f001023146204603f024ffeee026f0a6
:100dfc006dff236bc01a0028c0f2e580012214217c
:100e0c00204603f017ff0021204613f061fbb1e0f0
:100e1c0094f83e6006f00106012120461bf02dfee1
:100e2c0094f83e3043f0010384f83e304ff4805286
:100e3c000021204622f08efd002e40f09b8094f87d
:100e4c003e306ff3000384f83e300a2384f876308a
:100e5c0090e026f03bff636ac01a0028c0f28a803b
:100e6c0094f876104b1e082b00f28280dfe803f01a
:100e7c000541556080688080700094f87830032bb1
:100e8c0040f22b81042384f87830354b1a684ff4e8
:100e9c007a7303fb02f3aafb03239b091b01236553
:100eac000221002694f87830013384f87830236dd1
:100ebc005b0023652069e268831a9bb2904204d2de
:100ecc0060682768c01b03449bb2606dc01a6065e4
:100edc00b4f864000344a4f8643022610022204674
:100eec0003f0a8fe002e45d00021204613f0f0faa6
:100efc0040e094f87830022b40f2f18094f83e6098
:100f0c0006f001031e46002b18bf1421002fc9d177
:100f1c000122204603f08efee4e794f87830042b8f
:100f2c0040f2df80042384f8763011210026ede7af
:100f3c0094f87830042b40f2d68014210126e5e792
:100f4c0094f87830042b40f2d08014210126dde790
:100f5c0094f87830042b40f2ca8014210126d5e78e
:100f6c00f0cc0020eccc0020e8cc0020d34d62105b
:100f7c00002e5ad101352db22b46d8f800209542bf
:100f8c00bff48fa9d9f8002052f82340002cf1d0df
:100f9c0094f876300b2bedd094f83e3013f0c0065d
:100fac001abfdf091026002713f0040f7ff403afdc
:100fbc0094f83e3013f0080f7ff405af94f87630b8
:100fcc00052b3ff414af002e7ff40aaf94f83e309b
:100fdc0013f0020f7ff43daf94f83f3013f0400f45
:100fec00c8d094f87630032bc4d126f06ffe636a18
:100ffc00c01a0028bedb94f8792094f884309a4209
:10100c003ff406af02221021204603f013fe26f017
:10101c005dfeb4f870203b4b1b6803fb02f3aafb8c
:10102c00032300eb93106062a4e7314600266de7c2
:10103c006ff0090189e66ff00e0186e66ff00e0184
:10104c0083e6022181e602217fe60135cbf8585078
:10105c00b8f80e30abf86e30abf8643040461af08e
:10106c00d7f9abf86a00584624f043fb0122102153
:10107c00584603f0dffd03238bf876309bf83f30a6
:10108c0013f0400f7ff499aa9bf83e306ff34103a5
:10109c008bf83e304ff4807640e60135cbf8585053
:1010ac00b8f80e30abf86e30abf8643040461af03e
:1010bc00aff9abf86a00584624f01bfb0122122151
:1010cc00584603f0b7fd02238bf87630002625e650
:1010dc0014f0020fe1d1002620e60221e1e61221f4
:1010ec00dfe61021dde61121dbe61021d9e6112126
:1010fc00d7e626f0ebfd236bc01a0028bff67eaeb8
:08110c0010266de6f0cc002076
:020000040000fa
:101114002de9f04f2ded028b9bb00f21212026f0fd
:10112400d5fc002800f0b8867d4b1b68002b40f3eb
:10113400b3867c4c0026dff820929fed7b8ab9e3ce
:10114400d4f8c4305d6894f8d1202ab3227c012af3
:1011540042d0022a61d1b4f93830b3f1ff3f25d02f
:101164000023724a4ff40071b4f9380026f07af87b
:10117400d4f8bc200221b4f9380014f083fe30b94d
:10118400d4f8c4301b681b6869492846984706216f
:10119400204622f095fa86e31b681b6865492846b9
:1011a40098470121204622f08bfa7ce304f1800267
:1011b400618a01201bf00afe2087b0f1ff3fcfd1e6
:1011c400d4f8c4301b681b685b4928469847012142
:1011d400204622f075fa66e304f18002618a012058
:1011e40029f00bf9a087b0f1ff3f0ad00023534a3e
:1011f4004ff4807126f0f2f90321204622f060fac0
:1012040051e3d4f8c4301b681b684d4928469847fd
:101214000121204622f054fa45e31b681b68494922
:10122400284698470121204622f04afa3be3d4f8a5
:10123400c430d3f804b03b4be31adb1003ebc30216
:1012440003eb4203c3eb432303eb8343c3f1000ae1
:1012540097e0d4f8c4301b681b683b49584698474c
:101264000421204622f02cfa1de3b4f93c0027f0b7
:1012740022f918e30133c4f89430284627f02cf9f6
:1012840002460b46d4e908010cf0ebffc4e908015f
:10129400002f19dba36ae26a511c8b4231d09342be
:1012a40020dc616b01f1010161632cd020e0d4f8f2
:1012b400c4301b685b68254958469847236b013b3b
:1012c400a26a1344236391e07f42a76226f002fde1
:1012d400c4f88c00002384f8cc300421204622f08a
:1012e400eff9d7e75b1a226b13442363a36ae36223
:1012f4000c3dadb2002d44d0dff858804ff4c867e0
:1013040036e0934206d1d4f8c4301b681b681049f8
:1013140058469847a36ae26a9342e9dde7e700bfcb
:1013240008cd002068c1002000007a4479990200a9
:1013340020a00000d89f0000fc9f000063990200d9
:1013440048a000006ca0000084a00000a4a000003d
:10135400d0a00000eca8002050c900203a46414625
:10136400b4f93c0017f070ffa5f5c865adb245b1fe
:10137400b5f5c86ff2d22a46d149b4f93c0017f04a
:1013840063ffb4f93c0026f005fc05460b2878d928
:101394000c224946b4f93c0017f056ff0c287ff4a0
:1013a40058afd9f800301f0e47ea03671a0202f457
:1013b4007f0217431b0a03f47f431f43a762d4f839
:1013c4009430002b7ff456af002ffff64eaf01236d
:1013d400c4f89430d4f8c4301b685b685246b949e9
:1013e40058469847a26a002a7ff461afa36ae36271
:1013f40005a9b4f93c0016f037fdb4f93c0028f017
:1014040043fd27f027fb069dd4f8c4301b68628a8d
:101414000292020e0192c0f3074200925f68c0f389
:101424000723c2b2a8495846b847d4f8c4301b6849
:10143400bdf8582002922a0e0192c5f30742009289
:101444005f68c5f30723eab2a0495846b847656404
:10145400bdf85830a4f8643026f03cfcc4f8880089
:10146400c4f8a800a36ac4f89c30d4f89430c4f833
:101474009830236bc4f8a030b4f93c0027f01bf873
:101484007fe7d4f894304bb994f8cf30012b40f077
:101494000a820421204622f013f904e226f01afc01
:1014a400d4f8a830c31a22689342edd9d4f8942012
:1014b400d4f898309a4212d1d4f8c4301b681b680f
:1014c40083495846984726f005fcc4f88c0000234d
:1014d40084f8cc300421204622f0f2f8d4e700212d
:1014e40020460cf0f9f8cfe7b4f93c0026f052fba3
:1014f40038b994f8cf304bb10921204622f0e0f8f6
:10150400d1e1b4f93c0026f0d6ffcce10521204618
:1015140022f0d6f8c7e194f8cd30002b00f0bd805e
:10152400b4f93c0026f036fb002840f0be8094f865
:10153400cc305a1c84f8cc200a2b00f2bb808021ca
:10154400b4f93c0028f0baff002800f0ac81e36a4b
:101554005b421a0e42ea0362190201f47f010a4354
:101564001b0a03f47f431343c9f800300025c9f86c
:101574000450c9f808508023c9f80c30c9f8105039
:10158400d4e9080126f0ecfe020e42ea00620302ee
:1015940003f47f031a43030a03f47f431343c9f894
:1015a400143026f0abfbd4f88c10d4f88830c91a68
:1015b400b1fbf0f31a0e42ea03621f0207f47f073d
:1015c4003a431f0a07f47f473a43c9f8182000fb3f
:1015d400131307ee103ab8ee477a27ee087a07eeaf
:1015e400900af8ee676ac7ee267a67ee887afcee10
:1015f400e77a17ee903a1a0e42ea0362190201f4ee
:101604007f010a431b0a03f47f431343c9f81c30c8
:10161400236b1a0e42ea0362190201f47f010a43a2
:101624001b0a03f47f431343c9f82030636b1a0e7b
:1016340042ea0362190201f47f010a431b0a03f41c
:101644007f431343c9f82430e36a1a0e42ea036263
:10165400190201f47f010a431b0a03f47f43134375
:10166400c9f82830c9f82c50c9f8305034224946fa
:10167400b4f93c0022f0f4fe4c273a46294605a86a
:1016840028f02efb3a4605a9b4f93c0022f0e8fe06
:10169400b4f93c000cf0c4fc05e1022120460cf036
:1016a4001bf8012384f8cd303ae7b4f93c0026f066
:1016b40002fff8e00921204622f002f8f3e000bf1f
:1016c400eca8002008a10000cc7b0100007c0100f4
:1016d400f0a0000094f8cf30012b26d0b4f93800e4
:1016e40026f031fc002800f0de803822002105a815
:1016f40028f0f6fa05a9b4f938001ef0adfd04f19e
:10170400400705ad0fcd0fc70fcd0fc70fcd0fc7c6
:1017140095e8030087e803000721204621f0d0ff65
:10172400b4f9380026f0e0f8bde00921204621f0a4
:10173400c7ffb8e0d4f8c4305f68b4f9380028f0c3
:1017440036fb0546002865d0a36a002b49d1bd4b62
:10175400e31adb1003ebc30203eb4203c3eb4323a3
:1017640003eb8343d4f8c4201268d2f804805a42ad
:10177400b5493846c04726f0adfac4f88800c4f825
:10178400a800a36ac4f89c30b4f9380028f084fb9c
:1017940027f060f9d4f8c4301b68628a0292020e02
:1017a4000192c0f307420092d3f80480c0f30723e8
:1017b400c2b2a6493846c047d4f8c4301b68b4f84e
:1017c4006420029294f84720019294f846200092f3
:1017d400d3f8048094f8453094f844209c49384662
:1017e400c047a36a0133a362d4f894200132c4f839
:1017f4009420e362284626f06ffe02460b46d4e9a5
:1018040008010cf02efdc4e90801dff848824ff40a
:10181400c8671ce0b4f9380026f066f820b9b4f9ba
:10182400380028f091f8d8b126f054fac4f88c00a6
:101834000821204621f044ff35e03a464146b4f9f8
:10184400380018f09ffba5f5c865adb245b1b5f5f4
:10185400c86ff2d22a467f49b4f9380018f092fbd7
:10186400a36a63b994f8cf30012b1cd10821204618
:1018740021f026ff26f02efac4f88c0013e026f09f
:1018840029fad4f8a830c31a22689342ead900216d
:1018940020460bf021ffe5e794f8cd30c3b30921ce
:1018a400204621f00dff0136d8346b4b1b68b34240
:1018b40040f3f28294f8ce30012bf4d0023b102b8b
:1018c40000f2e58201a252f823f000bf45110000a6
:1018d40033120000ed1400001b150000d91600009f
:1018e400391700009d18000025190000c1190000d7
:1018f400ed190000dd1b0000c31c0000471d0000a3
:101904006d1e0000ed1a0000dd1d0000831e0000a6
:10191400022120460bf0e0fe012384f8cd30bee71f
:10192400d4f8c4305f68237c012b29d0022b2cd03f
:10193400444be31adb1003ebc30203eb4203c3eb98
:10194400432303eb83435d42d4f8c4301b685b68d4
:101954002a46424938469847204622f007fc94f824
:10196400d130012b19d0d4f8c4301b685b682a46e7
:101974003b49384698470121204621f0a1fe92e7d1
:10198400b4f93c0022f0fcfed2e7b4f9380024f0ac
:101994005bf84ff6ff732387cae794f8cf30002b28
:1019a400e1d1d4f8c4301b685b682a462d49384617
:1019b40098470221204621f083fe74e7d4f8c8003a
:1019c40027f02cfc032808d10b21204621f078feb7
:1019d40026f080f9c4f8ac0065e704f14401d4f8ba
:1019e400c80023f0e6f8efe7d4f8c4305d6894f853
:1019f400cf20012a17d0d4f8c80027f00ffc032801
:101a04001bd094f8443003f0f003e02b2ed1237c58
:101a1400012b64d0237c022b7ff445af0c2120469c
:101a240021f04efe3fe71b681b680f492846984784
:101a34000121204621f044fe35e70022a267a4f8e4
:101a44007c20e4e768c1002008a10000cc7b0100f1
:101a5400007c0100eca8002008cd002034a1000087
:101a640098a1000064a10000b8a1000004f178026c
:101a740004f14401d4f8c8001cf0bcfcb8b1d4f89b
:101a8400c4301b6894f87d20039294f87c20029261
:101a940094f87b20019294f87a2000925f6894f87d
:101aa400793094f87820bf492846b847afe726f044
:101ab40011f9d4f8ac30c71a26f020f900eb8000f5
:101ac40087427ff6f0aed4f8c4301b681b68b64971
:101ad4002846984726f0fef8c4f8ac00e3e6102147
:101ae400204621f0edfd95e7d4f8c4305d6804f19b
:101af4004402618a012028f085fca087b0f1ff3ff1
:101b04005ed00023a94a4ff4807125f067fde26896
:101b14000521b4f93c0007f011fd30b9d4f8c43004
:101b24001b681b68a2492846984702220621b4f97b
:101b34003c0007f003fd30b9d4f8c4301b681b68bf
:101b44009c4928469847d4f8c810b4f93c0020f0c2
:101b5400dafb05a9b4f93c0016f086f9bdf85a3051
:101b6400a4f87e30d4f8c4301b681b689249284618
:101b74009847d4f8c4301b68628a029294f84720cc
:101b8400019294f8462000925f6894f8453094f8e6
:101b940044208a492846b8471121204621f090fd67
:101ba40026f098f8c4f88800d4f884300344c4f8c4
:101bb40090304ff4c8625521814828f091f872e6bc
:101bc400d4f8c4301b681b687e4928469847012115
:101bd400204621f075fd66e6d4f8c4305d68002225
:101be400618a012027f05bfb6087b0f1ff3f51d091
:101bf4000023754a4ff4007125f034fbd4f880308b
:101c0400002b53d104f1440300220121b4f93a001a
:101c140021f0cdfe4ff48063a4f87e30d4f8c430b4
:101c24001b681b68644928469847d4f8c4301b686d
:101c3400628a029294f84720019294f84620009216
:101c44005f6894f8453094f8442060492846b847c2
:101c54000d21204621f034fdd4f8b8200321b4f935
:101c64003a0014f00ff930b9d4f8c4301b681b687b
:101c74004f4928469847b4f93a0025f0dcfa26f093
:101c840029f8c4f8ac004ff4c86254214c4828f039
:101c940027f808e6d4f8c4301b681b684c4928466a
:101ca40098470121204621f00bfdfce504f1800357
:101cb400628a0121b4f93a0018f054fda2e794f8bd
:101cc400cf30012b19d0d4f8c4305f68b4f93a008e
:101cd40026f039f9b0b1b4f93a0025f005fe25f043
:101ce400f9ffc4f88800d4f884300344c4f8903071
:101cf4000e21204621f0e4fcd5e50f21204621f0f9
:101d0400dffcd0e525f0e6ffd4f8ac30c51a25f0a9
:101d1400f5ff00eb800085427ff6c5adb4f93a00cb
:101d240023f092fe4ff6ff736387d4f8c4301b6828
:101d34001b682849384698470f21204621f0c0fceb
:101d4400b1e5204606f0b6fa01280bd002287ff44c
:101d5400aaad0f21204621f0b3fc25f0bbffc4f847
:101d64008c00a0e5164f00bfb4f8b0508db1b5f5a6
:101d7400c86f28bf4ff4c8652a463946b4f93a00fb
:101d840011f002f9b4f8b0301b1aa4f8b03085424f
:101d9400ead9b4f93a0026f0e9f820460ef06afdd3
:101da40081e500bf18a20000d8a1000063990200d9
:101db40044a200006ca20000b0f2000094a2000053
:101dc400eca8002048a0000079990200cca20000f1
:101dd400fc9f000004a30000227d0b21b4f93c0009
:101de40007f0acfb204606f065fa01280bd0022868
:101df4007ff459ad1221204621f062fc25f06affe0
:101e0400c4f88c004fe5b4f8b05015b30027dff8e0
:101e140094a0a846b5f5c86f28bf4ff4c8684246d9
:101e24005146b4f93c0022f01bfb0744bfb22d1a03
:101e3400adb2804501d1002debd1b4f93c000cf0da
:101e4400eff840b900221146b4f93c0023f036fc07
:101e540029e52f46f1e7b4f8b030df1ba4f8b070e1
:101e640020460ef007fd1ee520461ef0dbfeb4f909
:101e74003a0023f0e9fd4ff6ff73638713e520462c
:101e84001ef0d0feb4f93c0022f07afc0be50121ef
:101e9400204621f015fc06e51bb0bdec028bbde825
:081ea400f08f00bfeca8002044
:020000040000fa
:101eac00a0ca00201c00000000000000e45e00201e
:101ebc00040000000000000064c1002004000000c9
:101ecc00000000005cc600206c0000000000000058
:101edc009fca00200100000000000000f8cd002087
:101eec0001000000000000000cce0020d400000017
:101efc0001000000382c020000000000000000006f
:101f0c0000000000000000000000000000000000c5
:101f1c0000000000000000000000000000000000b5
:101f2c0000000000000000000000000000000000a5
:101f3c000000000000000000000000000000000095
:101f4c000000000000000000000000000000000085
:101f5c000000000000000000000000000000000075
:101f6c000000000000000000000000000000000065
:101f7c000000000000000000000000000000000055
:101f8c000000000000000000000000000000000045
:101f9c000000000000000000000000000000000035
:101fac000000000000000000000000000000000025
:101fbc000000000000000000000000000000000015
:101fcc00000000000000000076cf0020010000009f
:101fdc0001000000ff00000019cb002001000000f0
:101fec000000000064c50020840000000000000018
:101ffc0010c800204400000000000000e85e002033
:10200c00d011000000000000f4cd00200100000001
:10201c00000000002ccb0020040000000000000099
:10202c001ccb0020100000000000000050bf00205e
:10203c000c01000000000000dccb002004000000bc
:10204c000000000028c70020500000000000000025
:10205c0008cc0020040000000000000000c3002099
:10206c00a400000000000000e8c50020740000007f
:10207c000000000030cb0020100000000000000029
:10208c00d0b90020180200000000000044c4002059
:10209c0090000000000000001cb500208002000031
:1020ac00000000000ccc0020280000000000000004
:1020bc0070cb00200c00000000000000d8ca0020eb
:1020cc001800000000000000bcca00201c0000002a
:1020dc000000000034cc00200400000000000000d0
:1020ec00d9cd0020010000000000000038cc0020f9
:1020fc00040000000000000068cf00200400000075
:10210c0001000000ffffffffe0ce002028000000d0
:10211c0001000000bb010300d10101004b020100d2
:10212c00330203007c020300dd030300de03030023
:10213c00e0030300e1030100b3220100f0ca002018
:10214c0018000000000000003ccc00200c00000037
:10215c0000000000dacd00200200000000000000aa
:10216c0048cc00200400000000000000c89a0020a9
:10217c00d0070000000000004ccc00201000000034
:10218c0000000000decd0020020000000000000076
:10219c005ccc0020080000000000000008cb0020f0
:1021ac00110000000000000080ca00201f00000089
:1021bc000000000064cc00200400000000000000bf
:1021cc00e2cd0020020000000000000068cc0020de
:1021dc001000000000000000e4cd00200200000010
:1021ec000000000078cc0020080000000000000077
:1021fc00e6cd0020020000000000000080cc002092
:10220c001000000000000000ddcd002001000000e7
:10221c00000000006ccf0020040000000100000052
:10222c006400000090cc00200800000000000000ba
:10223c0018c90020380000000000000098cc0020d5
:10224c001c000000000000007ccb00200c000000f3
:10225c000000000040cb0020100000000000000037
:10226c00e1cd00200100000000000000e8cd0020be
:10227c000400000000000000b4cc002004000000aa
:10228c000000000050cb00201000000000000000f7
:10229c00b8cc00200c00000000000000b8cb0020df
:1022ac000a00000000000000c4cc00201c0000004c
:1022bc0000000000eccd0020020000000000000037
:1022cc00e0cc00200800000000000000f5cd00204c
:1022dc000100000000000000c8c7002048000000fa
:1022ec000000000060cf002006000000010000008c
:1022fc00ffffffffffff0000e8cc00200c000000f8
:10230c0000000000eecd00200400000000000000e2
:10231c00f4cc00200c00000000000000f6cd0020e2
:10232c00010000000000000000cd002004000000af
:10233c000000000068c10020d80000000000000070
:10234c0050c90020340000000000000004cd002023
:10235c000400000000000000f7cd00200100000088
:10236c000000000008cd0020040000000000000068
:10237c00eca80020400600000000000088cb0020e4
:10238c001800000000000000d4c4002090000000e1
:10239c00000000000ccd00200c000000000000002c
:1023ac009cb700203402000000000000e8bd0020b3
:1023bc00680100000000000020ca0020600000003e
:1023cc0000000000f2cd0020020000000000000020
:1023dc00f9cd0020010000000000000084c900209d
:1023ec002c00000000000000c87a00200010000043
:1023fc000000000098c80020400000000000000011
:10240c00c4cb0020100000000000000018cd0020fc
:10241c000400000000000000facd002001000000c4
:10242c0000000000c88a0020000800000000000026
:10243c001ccd0020080000000000000040c200205d
:10244c00c000000000000000d4cb002008000000f9
:10245c0000000000a0cb00200c00000000000000d9
:10246c00c89200200008000000000000fbcd0020f6
:10247c00020000000000000024cd00200800000035
:10248c0000000000d8c80020400000000000000040
:10249c00a4c30020a0000000000000002ecf0020ec
:1024ac000200000001000000010000002ccd002003
:1024bc001000000000000000fdcd00200100000015
:1024cc00000000005cc000200801000000000000bb
:1024dc00b0c900204c00000000000000e0cd00203e
:1024ec0001000000000000003ccd002004000000b2
:1024fc0000000000fcc900202400000000000000c7
:10250c00dccd0020010000000000000054cf0020b2
:10251c000c00000001000000f4010000d0070000d6
:10252c000100000008cf0020260000000100000080
:10253c000800080002000100020008000006000666
:10254c000101540030303a30343a32353a30313ab5
:10255c0030323a303300000030cf0020120000003f
:10256c000100000030303a30343a32353a30313aea
:10257c0030323a303400000044cf0020100000000c
:10258c00010000000101000031270200b94f0200d8
:10259c000000010074cf00200200000001000000c8
:1025ac0000010000c8c60020600000000000000010
:1025bc0040cd00200c00000000000000d8cd002011
:1025cc00010000000000000000000020e45e00009c
:1025dc00000000004ccd00201000000000000000a6
:1025ec00b8700020100a00000000000098a2002023
:1025fc005406000000000000fecd00200200000088
:10260c00000000005ccd00200c0000000000000069
:10261c00e0cb0020080000000000000068cd002086
:10262c00040000000000000000ce002001000000ab
:10263c00000000006ccd002008000000000000002d
:10264c0054c80020440000000000000074cd00209d
:10265c000400000000000000e8cb0020080000008f
:10266c000000000078cd00200400000000000000f5
:10267c0001ce002003000000000000007ccd0020f3
:10268c00040000000000000004ce00200100000047
:10269c0000000000f0cb002008000000000000004b
:1026ac0080cd0020040000000000000005ce0020ba
:1026bc000100000000000000f8cb00200800000022
:1026cc000000000084cd0020040000000000000089
:1026dc0006ce0020010000000000000088cd002084
:1026ec00080000000000000007ce002001000000e0
:1026fc000000000077cf0020020000000100000065
:10270c000807000090cd0020080000000000000029
:10271c0008ce002001000000000000001ab50020c7
:10272c000200000000000000c2cb002002000000ec
:10273c000000000098cd00201800000000000000f0
:10274c0060cb0020100000000000000009ce00202b
:10275c0002000000000000002caf0020ee0500007d
:10276c0000000000b0cd00200800000000000000b8
:10277c0000cc00200600000000000000e8bb002098
:10278c00000200000000000006cc00200200000047
:10279c00000000001acb0020020000000000000026
:1027ac00b8cd002004000000000000000bce00207b
:1027bc000100000000000000bccd0020040000005f
:1027cc000000000042cf00200200000001000000c9
:1027dc00be15000066cf00200200000001000000c2
:1027ec00ffff0000c0cd00200c0000000000000026
:1027fc0070cf002004000000010000000100000068
:10280c00cccd0020040000000000000078c70020a0
:10281c005000000000000000d0cd0020040000009b
:10282c0000000000d4cd00200400000000000000d7
:10283c00accb00200c0000000000000000000000e9
:10284c0000000000666666666666666666666666b4
:020000040000fa
:10285c0030b585b0044690f99030002b40f00f81d4
:10286c000378012b04bf0023037090f8d430042ba1
:10287c0000f22e84dfe813f005008b00d9001b0159
:10288c00110390f90830b3f1ff3f57d090f8fc20ba
:10289c00012a22d051b229b1022a43d0ff2380f859
:1028ac009030dce003f01f01c3f34a1303f5020080
:1028bc0000f580700022012303fa01f1c00127f01a
:1028cc0025fc27f017fe23f015f9c4f8dc0094f86a
:1028dc00fc30013384f8fc30cfe027f00bfe23f002
:1028ec0009f9d4f8dc30984200f0c78094f908302c
:1028fc0003f01f0201219140c3f34a1303f50200b8
:10290c0000f580700a46c00127f000fc27f0f2fdac
:10291c0023f0f0f8c4f8dc0094f8fc30013384f8b0
:10292c00fc30aae027f0e6fd23f0e4f8d4f8dc3024
:10293c00c31a062b94bf002501258fe090f8fc30bc
:10294c002bb1012b16d0ff2380f8903087e00023a9
:10295c000193b44a009201220321d0f8ec0025f037
:10296c00c9fe002800f0898094f8fc30013384f80b
:10297c00fc3082e000230193aa4b009301231a46fa
:10298c000321d0f8ec0025f0b5fe054666e0d0f842
:10299c00ec0094f8fc30042b43d8dfe813f005006e
:1029ac009d0313009d033300002200929e4b0121d6
:1029bc0026f042f9002860d094f8fc30013384f8fa
:1029cc00fc305ae0d4f8e4309a0ac3f30913b2f598
:1029dc00f87f01d11b2b07d0944900201ef058f929
:1029ec00ff2384f890303ae0002200928e4b9049fd
:1029fc0026f022f9002840d094f8fc30013384f8fa
:102a0c00fc303ae0d4f8e43003f00f0384f8fe30e5
:102a1c002bbb884900201ef03bf9ff2384f8903033
:102a2c001de0ff2384f8903027e090f8fc10c1f1f2
:102a3c00200200230093804b92b2804800eb0111de
:102a4c00d4f8ec0019f008fc94f8fc500544edb2f5
:102a5c0084f8fc50202d14bf002501256db10023f6
:102a6c0084f8fc3094f8d4300133dbb284f8d430e1
:102a7c00052b04bf022384f890300123237094f9b2
:102a8c009030022b00f02a8394f804316bb1237838
:102a9c00012b00f04d83002384f804310121d4f87c
:102aac00ec0007f0dbfd0123237005b030bdd0f83e
:102abc00ec0094f8fc302e2b00f2e881dfe813f0e8
:102acc002f002f002f002f002f00e601e601e6015a
:102adc00e601e60148004800480048004800e601cd
:102aec00e601e601e601e6016e006e006e006e0086
:102afc006e00e601e601e601e601e6018900eb0164
:102b0c009b00eb01c600eb01dc00eb01f200eb01da
:102b1c00080130014d0171019601bb01db010093ed
:102b2c00402303aa0521204618f02cfd0546002859
:102b3c0094d0039b23b10a2384f8fc3000258de745
:102b4c003f4900201ef0a4f8ff2384f8903085e75d
:102b5c000a3bdbb200931f2303aa0421204618f082
:102b6c0011fd054600283ff479af039b13f0100fbd
:102b7c0018bf43f0e0035bb284f8f03013f1050f9b
:102b8c0004db142384f8fc30002567e72c49002073
:102b9c001ef07ef8ff2384f890305fe7143bdbb225
:102bac0000931f2303aa0821204618f0ebfc0546ce
:102bbc0000283ff453af039b13f0100f18bf43f0e2
:102bcc00e0035bb284f8f1301e2384f8fc3000255e
:102bdc0044e700230093144b01221a4926f02cf8e9
:102bec00054600283ff43aaf94f8fc30013384f8e2
:102bfc00fc30002532e7d4f8e430a4f8f23000239e
:102c0c000093094b0122104926f016f805460028be
:102c1c003ff424af94f8fc30013384f8fc300025e9
:102c2c001ce700bfa35f0100d9740200f8f8010093
:102c3c0094000a0020f90100799a020070f3000058
:102c4c0038f90100840004008a000400d4f8e43050
:102c5c00a4f8f43000230093ba4b0122ba4925f0b2
:102c6c00ebff054600283ff4f9ae94f8fc30013335
:102c7c0084f8fc300025f1e6d4f8e430a4f8f63002
:102c8c0000230093af4b0122b04925f0d5ff054638
:102c9c0000283ff4e3ae94f8fc30013384f8fc30a8
:102cac000025dbe6d4f8e430a4f8f83000230093d8
:102cbc00a44b0122a64925f0bfff054600283ff48e
:102ccc00cdae94f8fc30013384f8fc300025c5e619
:102cdc00d4f8e430a4f8fa3094f9f0309bb203f154
:102cec00090291b203f10e0292b2120142ea812260
:102cfc00b4f8f23003f00f031a430023019300934e
:102d0c00012392b2934925f0f5fc054600283ff4c7
:102d1c00a5ae94f8fc30013384f8fc3000259de618
:102d2c0094f9f13028339bb2b4f8f420c2f30902c1
:102d3c0042ea8322002301930093012392b2864935
:102d4c0025f0d8fc054600283ff488ae94f8fc30fa
:102d5c00013384f8fc30002580e694f9f0309bb206
:102d6c005a1d91b2b4f8f62022f47c5222f03f02a4
:102d7c0042ea012212b292b209331a4300230193a0
:102d8c000093012392b2704925f0b4fc054600284b
:102d9c003ff464ae94f8fc30013384f8fc30002529
:102dac005ce694f9f0309bb203f1090291b2b4f8ed
:102dbc00f82022f47c5222f03f0242ea012212b2a5
:102dcc0092b20e331a43002301930093012392b263
:102ddc005e4925f08ffc054600283ff43fae94f881
:102dec00fc30013384f8fc30002537e694f9f030e0
:102dfc009bb203f1110291b2b4f8fa2022f47c5286
:102e0c0022f03f0242ea012212b292b216331a4366
:102e1c00002301930093012392b24d4925f06afce3
:102e2c00054600283ff41aae94f8fc30013384f8c0
:102e3c00fc30002512e694f8fe5000230193009319
:102e4c00012345f6217243f631719d4218bf0a46a3
:102e5c00424925f04ffc054600283ff4ffad94f89d
:102e6c00fe30012b3ff4faad94f8fc30013384f8ba
:102e7c00fc300025f2e500230193009301234ff46d
:102e8c004042374925f036fc0546e7e5ff2384f838
:102e9c0090300025e2e50025e0e5d0f8ec0094f850
:102eac00fc30092b00f21081dfe813f00a0025003a
:102ebc003a00640077009600ad00cc00e5000201fa
:102ecc00637e1bb9042384f8fc30d6e5a17d627dba
:102edc0000230193234b0093012342ea0122224950
:102eec0025f008fc00283ff4c8ad94f8fc30013301
:102efc0084f8fc30c1e5e17d227e00230193194b5f
:102f0c000093012342ea0122184925f0f3fb002823
:102f1c003ff4b3ad94f8fc30013384f8fc30ace5ed
:102f2c00002301930f4b009301238322104925f0ba
:102f3c00e1fb00283ff4a1ad94f8fc30013384f898
:102f4c00fc309ae5d9740200ad000400ae00040018
:102f5c00af000400840004008a000400d0000400c8
:102f6c00e0000400799a020002ca040005ca0400b9
:102f7c008700040000230193864b009301234ff438
:102f8c000042854925f0b6fb00283ff476ad94f855
:102f9c00fc30013384f8fc306fe594f8953094f8ec
:102fac009420120442ea036294f892301a4394f883
:102fbc00931000230193774b0093012342ea0122e3
:102fcc00764925f097fb00283ff457ad94f8fc3078
:102fdc00013384f8fc3050e594f8971094f896205f
:102fec00002301936b4b0093012342ea01226c49ad
:102ffc0025f080fb00283ff440ad94f8fc30013301
:10300c0084f8fc3039e594f8973094f89620120443
:10301c0042ea036294f894301a4394f89510002312
:10302c0001935c4b0093012342ea01225d4925f098
:10303c0061fb00283ff421ad94f8fc30013384f897
:10304c00fc301ae5a37e002b4ff000030193514b8b
:10305c0000934ff0010314bf102200224ff0011116
:10306c0025f048fb00283ff408ad94f8fc30013300
:10307c0084f8fc3001e5e17e49f2260249f2262370
:10308c00002918bf1a46237f0bb142f4807200232b
:10309c000193404b00930123042125f02bfb0028c6
:1030ac003ff4ebac94f8fc30013384f8fc30e4e4ee
:1030bc00002301933c4b009301230c224ff48031ed
:1030cc0025f018fb0546c9e4ff2384f89030c6e4cc
:1030dc00ff2380f89030d0e40025bfe4637e53bb1f
:1030ec00d4f8e830002b43d194f90750c5f34a10bb
:1030fc0000f5020000f58070c00127f06bfa05f0b6
:10310c001f0520fa05f515f0010f7ff4bdac2378ef
:10311c00012b04bf002323700021d4f8ec0007f02e
:10312c009dfa0123237094f80431002b3ff4bdacbd
:10313c0000232370afe427f0ddf922f0dbfcd4f898
:10314c00e030c31ab3f57a7fcad3c4f8e000237811
:10315c00012b04bf0023237000230093134b012287
:10316c001349d4f8ec0025f067fd01232370b7e771
:10317c0027f0c0f922f0befcd4f8e830c01a63285e
:10318c00b2d90023c4f8e830d4f8ec0027f009f9e0
:10319c00aae700bf799a020001ca040024000100ca
:1031ac002500010022000100d9940200cd83020009
:0431bc0003ca04003e
:020000040000fa
:1031c0005478204279746520436f756e742d6c6f4e
:1031d000776572203332626974732854784f544c87
:1031e0004f290000eda10200547820427974652037
:1031f000436f756e742d757070657220313662691b
:1032000074732854784f544849290000f7a10200ec
:103210005478204672616d657320772f6f20657238
:10322000726f722854784654434e542900000000af
:103230000000000001a2020054782042726f616415
:1032400063617374204672616d65732854784243dc
:103250004654290000000000000000000ba20200fc
:103260005478204d756c7469636173742046726183
:103270006d65732854784d46542900000000000005
:103280000000000015a2020054782050617573659b
:10329000204672616d6573285478504654290000a9
:1032a0000000000000000000000000001fa202005b
:1032b00054782036342d62797465204672616d65cc
:1032c0007328547842465436342900000000000028
:1032d0000000000029a2020054782036352d31323a
:1032e000372062797465204672616d657328544297
:1032f00046543132372900000000000033a202009a
:103300005478203132382d32353520627974652079
:103310004672616d65732854424654323535290032
:10332000000000003da202005478203235362d35d1
:1033300031312062797465204672616d657328545d
:1033400042465435313129000000000047a20200f6
:103350005478203531322d31303233206279746522
:10336000204672616d6573285442465431303233c1
:103370002900000051a20200547820313032342d4f
:10338000313531382062797465204672616d65731c
:103390002854424654313531382900005ba20200de
:1033a0005478204672616d6573203e3d2031353181
:1033b00038206279746528475442463135313829be
:1033c0000000000065a20200547820556e6465720a
:1033d00072756e204672616d6573206e6f74205435
:1033e0005865642854785455522900006fa2020091
:1033f00054782053696e676c6520436f6c6c6973f9
:10340000696f6e204672616d657328547853434628
:103410002900000079a20200547820322d31352095
:10342000436f6c6c6973696f6e204672616d657372
:103430002854784d434629000000000083a2020072
:10344000547820313620436f6c6c6973696f6e203d
:103450004672616d65732854784543434e54290084
:10346000000000008da202005478206c6174652079
:10347000436f6c6c6973696f6e204672616d657322
:103480002854784c43434e542900000097a2020070
:103490005478204465666572726564204672616d79
:1034a0006573285478445446290000000000000049
:1034b00000000000a1a202005478204361727269ea
:1034c00065722053656e7365206572726f72204657
:1034d00072616d657328547843534529aba202008d
:1034e0005278204279746520436f756e742d6c6f2d
:1034f000776572203332626974732852784f524c68
:103500004f290000b5a2020052782042797465204c
:10351000436f756e742d75707065722031366269f7
:1035200074732852784f524849290000bfa2020004
:103530005278204672616d657320772f6f20657217
:10354000726f722852784652434e54290000000090
:1035500000000000c9a2020052782042726f61642c
:1035600063617374204672616d65732852784243bb
:10357000465229000000000000000000d3a2020013
:103580005278204d756c7469636173742046726162
:103590006d6573202852784d4652290000000000c6
:1035a00000000000dda202005278205061757365b2
:1035b000204672616d65732852785046522900008a
:1035c000000000000000000000000000e7a2020070
:1035d00052782036342d62797465204672616d65ab
:1035e0007328527842465236342900000000000009
:1035f00000000000f1a2020052782036352d313251
:10360000372062797465204672616d657328544273
:10361000465231323729000000000000fba20200b0
:103620005278203132382d32353520627974652058
:103630004672616d65732854424652323535290011
:103640000000000005a302005278203235362d35e7
:1036500031312062797465204672616d657328543a
:103660004246523531312900000000000fa302000c
:103670005278203531322d31303233206279746501
:10368000204672616d6573285442465231303233a0
:103690002900000019a30200527820313032342d65
:1036a000313531382062797465204672616d6573f9
:1036b00028544246523135313829000023a30200f4
:1036c0005278204672616d6573203e3d2031353160
:1036d0003920627974657328544d58424652290046
:1036e000000000002da302005278204672616d6533
:1036f00073203c20363420627974657328527855e3
:1037000046522900000000000000000037a302001c
:103710005278204672616d6573203e203135313814
:103720002062797465732852784f46522900000050
:103730000000000041a302005278206572726f728f
:10374000204672616d6573203e203135313820622c
:10375000797465732852784a522900004ba30200fd
:10376000527820435243206572726f722046726114
:103770006d657328527846435345290000000000c8
:103780000000000055a302005278204c656e67745b
:1037900068206669656c64206572726f722046727b
:1037a000616d65732852784c464645295fa3020037
:1037b00052782073796d626f6c206572726f72201f
:1037c0004672616d65732852785253452900000096
:1037d0000000000069a30200527820616c69676ee6
:1037e0006d656e74206572726f72204672616d65d0
:1037f00073285278414529000000000073a302009d
:103800005278205265736f75726365204572726fce
:103810007220285278525245290000000000000012
:10382000000000007da302005278206f766572725e
:10383000756e206572726f72204672616d657328b5
:103840005278524f452900000000000087a3020073
:1038500052782049504864722043686b73756d201c
:103860006572726f72204672616d65732852784975
:103870004843452991a302005278205443502043e5
:10388000686b73756d206572726f72204672616d20
:103890006573285278544345290000009ba3020019
:1038a0005278205544502043686b73756d206572c3
:1038b000726f72204672616d657328527855434568
:0838c00029000000a5a302008d
:020000040000fa
:1038c8002de9f04f8db0d0f850a00a68436d846d93
:1038d80083ea040e0eea0a0e8eea040ed84bc46c74
:1038e80023440a9213449e440aeb7e6e4e68436d4d
:1038f8008aea030707ea0e075f40d24b856d2b441f
:10390800009633441f440eeb37578b681a468aeaf1
:103918000e053d4085ea0a05cb4b446d23440192d0
:1039280013441d4407ebf535cb681c468eea0706a1
:103938002e4086ea0e06c54b5344029423441e4487
:1039480005ebb6260b691c4687ea050333407b4026
:10395800bf4a039422449644734406eb73694a6948
:10396800134685ea060404ea09046c40b94a04933c
:103978001a4417443c4409eb34548b6986ea09021b
:1039880022407240b44f05931f443d442a4404eb3f
:10399800f232cf6989ea040808ea020888ea0908c5
:1039a800ae4d06973d442e44b04402ebb8280f6a4a
:1039b80084ea020c0cea080c8cea040ca84d079760
:1039c8003d4409eb05039c4408eb7c6c4d6a82ea94
:1039d800080909ea0c0989ea0209a24b08952b444f
:1039e8001c44a1440ceb39598b6a88ea0c0e0eea88
:1039f800090e8eea080e0993a3f524434f3b1a4497
:103a0800964409ebfe3eca6a16468cea090505eaa1
:103a18000e0585ea0c05944b1344984445440eeb77
:103a2800b525d1f8308089ea0e072f4087ea0907c3
:103a38008e4b43449c44674405eb7767d1f834c008
:103a48008eea05033b4083ea0e03894a62449144a7
:103a58004b4407eb3353d1f8389085ea07041c40f0
:103a68006c40844a4a449644744403ebf434d1f8d5
:103a78003ce087ea030222407a407f4971440d44c2
:103a88002a4404ebb22284ea020b0bea030b8bea0a
:103a9800040b7a49009d29440f44bb4402ebfb6b9d
:103aa80082ea0b07274057407549059d29440b4476
:103ab8001f440bebf7578bea0703134083ea0b030a
:103ac80070490b9631440c44234407ebb34387ea0f
:103ad800030505ea0b057d406b490a9c21440a440d
:103ae800154403eb353583ea05023a405a406749e5
:103af800049e31448b445a4405ebf26285ea020184
:103b080019406940624c099e34442744394402eb09
:103b1800f15182ea01042c4054405e4f77443b4403
:103b28001c4401ebb44481ea040313404b405a4f50
:103b3800039e37443d442b4404eb333384ea030ba0
:103b48000bea010b8bea040b544d089e35442a44ba
:103b5800934403ebfb6b83ea0b0727405f40504a13
:103b68004a4411440f440bebf7578bea07051d40f5
:103b780085ea0b054b4a02990a441444254407eb8d
:103b8800b54587ea050202ea0b027a404649079ed4
:103b980031440b441a4405eb323285ea02033b40b8
:103ba8006b40424961448b445b4402ebf36382ea15
:103bb8000301294051403e4c019e34442744394476
:103bc80003ebf15183ea010414405c40394f069e2f
:103bd80037443d442c4401ebb44481ea040b0bea1e
:103be80003054d40344f47443a44154404eb3535fa
:103bf800049fa7f5b822a2f2be6213448bea050b14
:103c08005b4405eb337384ea05025a402b4f079e49
:103c180037443944114403eb715185ea030b8beaad
:103c2800010b274a0b9f3a4414445c4401eb34448b
:103c380083ea01076740234a4a4415442f4443e076
:103c480078a46ad756b7c7e8db702024eecebdc18a
:103c5800af0f7cf52ac68747134630a8019546fd65
:103c6800d8988069aff7448bbed75c892211906bd6
:103c7800937198fd8e4379a62108b44962251ef6f2
:103c880040b340c0515a5e26aac7b6e95d102fd688
:103c98005314440281e6a1d8c8fbd3e7e6cde1215d
:103ca800d60737c3870dd5f4ed145a4505e9e3a9be
:103cb800f8a3effcd9026f678a4c2a8d81f67187c9
:103cc80022619d6d0c38e5fd04eb772781ea04023b
:103cd8007a40944d009e35442b44134407eb3373cc
:103ce80084ea07025a40904d039e35442944114402
:103cf80003eb715187ea030b8bea010b8b4a069d94
:103d08002a441444a34401eb3b4b83ea010282eab0
:103d18000b02874c099d2c4427443a440beb722232
:103d280081ea0b045440834d65442b44234402eb41
:103d380033738bea02075f407f4c0a9e3444214468
:103d48000f4403eb775782ea03057d407b49029cc9
:103d580021448b445d4407eb354583ea070b8bea26
:103d6800050b7749059c21440a44934405eb7b2bba
:103d780087ea050484ea0b04724a08990a44134442
:103d88001c440beb347485ea0b0161406e4b4344d1
:103d98001f44394404eb71518bea04034b406b4ace
:103da800724415441d4401eb354584ea01026a401a
:103db800674b019f3b449b445a4405eb722262eadd
:103dc80001036b40634f37443c44234402ebb36325
:103dd80063ea050b8bea020b5f4c069f3c442144c7
:103de8008b4403ebbb5b6bea02075f405b494944ca
:103df8000d442f440beb774767ea030484ea0b046e
:103e08005749049d29440a44144407ebf42464eafe
:103e18000b057d40534a424413441d4404ebb565e9
:103e280065ea070888ea04084f4b02990b449b444b
:103e3800d84405ebb85868ea04036b40099aa2f520
:103e48008016a6f683363e44334408eb734363ea90
:103e5800050989ea08094549009e31440c44a144f2
:103e680003ebf92969ea08065e40414a07990a44c2
:103e780015442e4409ebb66666ea030181ea090196
:103e88003c4a72449044414406ebb15161ea09044a
:103e98007440394a059d2a4413441c4401eb744478
:103ea80064ea06054d40354b634499444d4404eba0
:103eb800f52565ea01076740314a039b1a44164411
:103ec800374405ebb76767ea04036b402d4a0b9e3e
:103ed80032441144194407ebb15161ea05067e40aa
:103ee800294a019b1a441444344401eb7444c36cba
:103ef8003b44c36464ea07074f40244b089a1344c1
:103f08001d442f440aeb040505ebf7250565436db1
:103f18001c444465836d1944816500200db0bde8db
:103f2800f08f00bf44eabea4a9cfde4b604bbbf6be
:103f380070bcbfbec67e9b28fa27a1ea8530efd4a5
:103f4800051d880439d0d4d9e599dbe6f87ca21f91
:103f58006556acc4442229f497ff2a43a72394ab9f
:103f680039a093fcc3595b6592cc0c8fd15d8485d5
:103f78004f7ea86fe0e62cfe144301a3a111084e62
:103f8800827e53f735f23abdbbd2d72a91d386eb5e
:020000040000fa
:103f9800b14b834240f04183b04b93f90020531e4c
:103fa800dbb2012b00f239832de9f04f87b0ac4b1f
:103fb8001b685bb1012a1ad0a94b1c68a64b1b8849
:103fc800002b00f01c830025a34e7be0a54b1b684b
:103fd80002a89847002800f3f58220b9029810b18a
:103fe80003f078f9eee29d4b00221a70eae29e4b4c
:103ff8001b68b3f1ff3fdfd19c4a0021052024f064
:10400800f9ff994b1860b0f1ff3f2ed023f074fef2
:1040180000eb800303f2e733954aa2fb03239b09d5
:104028004ff47a7606fb03f3b3fbf0f6914b1e6070
:104038000225914c04e001351034282d00f0d68279
:104048002368002bf7d0b4f90a20002af3d02146c0
:10405800a8b223f025fd0028edd106f5a673b3fb21
:10406800f6f306fb03f6854b1e6026f06ff888b959
:1040780018f0aefd794bff221a7026f067f8002879
:1040880000f0a08226f05cf84ff0ff327c491cf06b
:1040980001fe97e226f054f805227a491cf0fafd51
:1040a800e6e703230422214630461df069ff94f811
:1040b800433043f0800384f8433001357434318849
:1040c8008d424bdae06c0028f7d0636c9b69984707
:1040d80094f8433013f0400fefd0636c5b69e06ce9
:1040e80098470028dddb0228e7d1002302930393d9
:1040f8000493059340f2dc53adf81230636c1b6ceb
:1041080002a9206d98470298e063bdf80c30a4f826
:104118004030bdf80e30003318bf012394f8432017
:1041280063f3451284f84320bdf81230a4f86630d2
:104138009df8153084f868309df8143084f869309b
:1041480094f8423043f0400384f84230d3b203f08d
:10415800bf0343f0800384f84330aee73f4b93f945
:104168000030012b25d000201ef09afb464b1b681f
:1041780033b9464b1a68464b1b68134300f022823a
:10418800414b1b68002b40f089804ff000083f4be3
:104198001b68002b00f091813c4b00221a60304bc9
:1041a8001c682d4b1b88002b00f01a811646394fce
:1041b800e8e02b4b1e68002900f0278232460025d4
:1041c8002b46012706e007fa03f005430133743252
:1041d800994212d092f8430000f00c04042cf2d15a
:1041e80010f0800f00f0ee8192f8420010f0400fbe
:1041f800ecd007fa03f00543e8e7012202fa03f3db
:10420800013bab4200f00182134b1b88abb1002489
:1042180044f24008104f0ae003230422314638468e
:104228001df0aefe013474363b889c4205dab6f8c0
:10423800423018ea030ff5d0eee7084bff221a7058
:1042480025f084ff002800f0bd8125f079ff2a467b
:1042580011491cf01ffdb5e1bcca0020d9cd0020d2
:1042680030cc002034cc002068cf0020097a02002e
:10427800d34d621028cc00203cb5002024cc00206f
:10428800888a0100588a01001ccc002038cc002004
:1042980020cc002050c40020f88a01000025b44b2f
:1042a8001d6025f059ff044622f0a6fe06460f467b
:1042b80022462b4622f048ffae4b1860ae4aa2fbbe
:1042c800043292092b463046394622f03dffab4b6b
:1042d8001860ab4b1b68ab4a12689b1aab4204ddf3
:1042e800a74a13604ff0010851e703f24d13a44a9f
:1042f8001360a54b1c68a54b1b88002b00f06c8134
:104308000025a24e0ee094f86a3043f0020360f3f1
:10431800820360f3000384f86a300135743433880b
:104328009d420fda94f8423013f0400ff5d0636cd9
:104338005b6a206d984794f86a3003f0010398424d
:10434800e1d1eae74ff0010821e74ff0010823e740
:10435800002503e08c62384624f078ff636c5b6bc1
:104368002a462946206d984701460028f2d1884af6
:1043780013680133136029e001367434834b1b88ba
:10438800b3422ddd94f8423013f0400ff4d0b4f866
:104398006250636c5b6d206d98470543adb226f0a3
:1043a800a3f8b4f8623023ea0503a4f8623026f0d3
:1043b8009ff8b4f864302b43a4f86430636c1b6d29
:1043c8002946206d984715f0160fc1d194f843304f
:1043d80013f0200fd0d0636c9b6b206d9847cbe710
:1043e8004ff0000bdff8b49109f10c07dff8b0a12a
:1043f8000af10803019305e001226ff00c01284639
:1044080022f062fc384624f0ddfc054600284bd03b
:104418006b699b891c0a44ea0324a4b2a86a866dc6
:104428002eb1c36d22462946b0470028ead1284656
:1044380002f02afd0028e5d140f606039c420dd083
:10444800b4f5006f07d04ff6ff739c42d4d10af140
:104458001004022604e0019c012601e000265446cf
:104468002b6a23f47c132b62626813432b626088e7
:1044780000eb4000294609eb800024f0e7fe012309
:1044880003fa06f616ea0b0fbcd14bea060b638853
:10449800404800eb0310038943f001030381002225
:1044a800012124f003fcade726f01ef8394a138bee
:1044b80023f00103138326f01bf8334b1b68334aa0
:1044c800108820b3002240f286651446324e09e077
:1044d8003168013131600ee0a3f864400132743371
:1044e800824214d093f8421011f0400ff6d0b3f87e
:1044f80064100d42ecd193f86a1011f0020febd062
:1045080093f86a106ff3410183f86a10e4e7b8f191
:10451800000f66d11f4d05f1300405f5247544e000
:104528001344a381238943f002032381002202213b
:10453800204624f0bbfb1034ac420fd02368002b7c
:10454800f9d0b4f90a20002af5d03168a3895b1a9a
:104558009bb219b20029e3dda181ece725f0c4ff85
:104568000c4a138923f00203138125f0c1ffd1e718
:104578001ccc002010cc0020d34d62100ccc0020a5
:1045880024cc002028cc002030cc0020bcca00203d
:1045980018cc00201cb5002014cc002044c40020f6
:1045a800a08702001034ac4209d054f8103c34f80b
:1045b800082c002bf6d0002af4d09847f2e7174bc6
:1045c8001b6813b907b0bde8f08f00224ff4807163
:1045d800134824f06bfbf5e7124b1b68002b7ff4a4
:1045e800b4ae114c114e04f51875a7e706f5a6737d
:1045f800b3fbf6f306fb03f60d4b1e60dce40d4b34
:1046080093f90030012b7ff4aead0a4b02221a70e9
:104618000949002022f0c0fca5e5704720cc002005
:104628002cb5002038cc00203cb5002028cc002038
:0c46380024cc0020d9cd0020c88a01004d
:020000040000fa
:104644002de9f04f8db082468946002308930993e3
:104654000a930b9343680393aa4b1968002940f308
:10466400b8829346a84b93f8ce30012b00f0b88261
:104674000023a54d0133d8358b4200f0aa8295f86a
:10468400ce20012af6d1a04beb1adb1003ebc302b8
:1046940003eb4203c3eb432303eb8343daf8002029
:1046a40054685a4299490398a047002485f8d14098
:1046b40002232b7485f8cf4041f289336b82944beb
:1046c400ab6123f01bfb04906c6000eb80035b0088
:1046d400ab6028602c75c5f8c4a028461ff046fdc1
:1046e400b9f1010fc8bf012411dc95f8d130002bba
:1046f40000f0e581012b00f01d820db0bde8f08fc4
:10470400012385f8d1300134e4b24c45edda5bf88d
:10471400246002227f49304624f0d0fc0028efd0e8
:1047240005227d49304624f0c9fc0028e8d0022245
:104734007a49304624f0c2fc28b105227849304633
:1047440024f0bcfc10b901232b74dce70222754968
:10475400304624f0b3fc30b105227349304624f0ce
:10476400adfc00285cd101232b741c44e4b25bf83b
:104774002460304625f05ef8c7b207f1ff38b04434
:104784006a49404625f017f9b8b16949404625f011
:1047940012f900283dd14ff47a7807f1ff3cbcf1bf
:1047a400000f33dd00273a464ff0010e3b460594d7
:1047b4007146b64644460e46f4e15d49404625f04e
:1047c400faf800285b4b0cbf4ff47a789846e4e77c
:1047d40002eb820200eb4202303aede12346059cf3
:1047e40003fb07f3424501d208fb02f20892099346
:1047f400daf80010981800904e684f49daf804006f
:10480400b047089b099a1344ab617ce70022134626
:10481400eae7012208a9304619f036fe089bf3e7bf
:1048240002224649304624f049fc28b10522444975
:10483400304624f043fc50b90134e4b2012208a903
:104844005bf8240019f020fe089bab615be70222b1
:104854003c49304624f032fc28b105223a4930461e
:1048640024f02cfcb8b9002385f8d1300134e4b22b
:10487400042208a95bf8240019f006fe089b85f8b9
:104884004430099b85f845300a9b85f846300b9bdc
:1048940085f8473037e702222c49304624f00efcd5
:1048a40028b105222a49304624f008fc78b901349d
:1048b400e4b2012208a95bf8240019f0e5fd089b85
:1048c400049a02fb03f3ab6000236b601be7022234
:1048d4002049304624f0f2fb30b105221e4930460f
:1048e40024f0ecfb002839d10134e4b2012208a9f8
:1048f4005bf8240019f0c8fd089b6b600023ab60d3
:1049040001e700bf08cd002068c1002048f3000083
:10491400809698006cf1000070f100007cf10000ba
:1049240080f1000088f100008cf1000098f1000093
:104934009cf1000040420f00a0f10000bcf1000017
:10494400c0f10000ccf10000d0f10000dcf1000067
:10495400e0f10000e8f10000ecf100000222a149be
:10496400304624f0abfb30b105229f49304624f099
:10497400a5fb002836d10134e4b25bf82400437867
:10498400782b17d0012208a919f07efd9df820008c
:104994000246202820d018d9a0281ad0c0281ed119
:1049a40010232b75daf800305e682b7d8f4903984d
:1049b400b047a8e683788df81f30c3788df81e3091
:1049c400bdf81e0020f050ffe2e740b900232b752c
:1049d400e8e720232b75e5e708232b75e2e700239e
:1049e4002b75dfe702228249304624f067fb28b1a9
:1049f40005228049304624f061fb58b90134e4b201
:104a0400012208a95bf8240019f03efd089ba5f8d3
:104a1400d23078e602227849304624f04ffb28b1a0
:104a240005227649304624f049fb68b90134e4b2e2
:104a3400012208a95bf8240019f026fd089b049aba
:104a440002fb03f32b605ee602226d49304624f03c
:104a540035fb28b106226b49304624f02ffb50b9b0
:104a64000134e4b2012208a95bf8240019f00cfd1a
:104a7400089b6b8247e602226349304624f01efb02
:104a840038b105226149304624f018fb00287ff430
:104a94003aae0134e4b2012208a95bf8240019f00b
:104aa400f3fc089b332b01d9eb602ce6d5f8c4301a
:104ab4001b685b6834225649039898471de6002119
:104ac40005f1800023f008fbc5f8c80010b32b7c67
:104ad400022b2ad0012b06bfab8907ee103a9fedbb
:104ae4004d7added047ab8ee676aab69db0807ee50
:104af400903af8ee677ab8ee477ac7ee876ac6ee60
:104b0400267afceee77ac5ed217a0a2128461ef0c2
:104b1400d7fdf2e5daf800301b683f49039898475f
:104b240025f0b0fac5f8c800d1e7b5f8d23007eee1
:104b3400103ad6e7daf800301b683849039c20465f
:104b44009847daf800301b683549204698472b7c93
:104b5400012b0fd02b7c022b13d0d5f8c4301b684b
:104b64005b686a8a2f4903989847022128461ef0f9
:104b7400a7fdc2e5daf800301b682b490398984773
:104b8400e8e7daf800301b68284903989847e4e717
:104b94002e2802d108fb02f200260133dbb2634562
:104ba400bff61cae1ef80300a0f13001c9b20929fa
:104bb400eed8002e7ff40cae002eeed107eb870763
:104bc40000eb4700a0f130071949a1fb0401cc0810
:104bd400e3e7daf800301b681649039898478ce538
:104be400154d50e5f4f10000f8f1000000f200006a
:104bf4002cf2000030f20000c486010038f20000fc
:104c040044f2000048f2000050f2000054f20000a8
:104c14005cf200000000000088f20000b0f2000026
:104c2400ecf2000010f3000008f300000cf30000a5
:0c4c3400cdcccccc1cf3000068c10020eb
:020000040000fa
:104c400090f87730012b40f0cb822de9f04786b009
:104c500004460e469146c26c002a60d0136a13f0d7
:104c6000080f5cd143f008031362c76c002f56d0c5
:104c70000023a7f85630a7f85430bb64a7f86e306d
:104c8000a7f86c303b663a6913603a69938116f075
:104c9000010f07d094f83f3043f0010384f83f3010
:104ca00006f0fe0694f83e3003f023036ff345133d
:104cb00084f83e3094f87730012b0cbffd69002555
:104cc0002b7b6ff307132b7316f0060f59d016f0da
:104cd000020f00f01c8102238df8143004238df89c
:104ce000153094f87730012b34d00020030a43eac2
:104cf0000023adf81630a4f86c002b7bc3f303122d
:104d0000013262f307132b7394f87730012b04bf41
:104d1000059b6b61636d6bb34ff00008f9e0b64b18
:104d200004221421782022f045fc0746002800f0d8
:104d30005a82b24b8360c4600123a0f87030a0f89f
:104d40005830036a43f008030362e36c002b9ed1e2
:104d5000e0649ce7a36c2bb1a06c24f0b5f8143888
:104d600080b2c3e7204620f0cef90028f4d16ff0de
:104d7000030089e1204615f0ffff60654ff0000851
:104d8000c7e0b4f86a80a26823699a4200f03482ce
:104d9000b4f86430002b00f0aa8094f87730012b2f
:104da0002dd0b4f86c30984528bf9846a368216987
:104db0008b423cd95b1ab4f864a09a4528bf9a4646
:104dc000d04506d294f83e3043f0800384f83e305c
:104dd000c24694f87730012b16d0236953442361df
:104de00094f83f3013f0010f00f08380b4f8643082
:104df00053457ed0d0457cd046f0010679e025f0c1
:104e0000ebfb0028d2d1cce70023bb6459b11ffad9
:104e10008af3a7f85630a7f8543039653b6907f193
:104e200048021a60d9e73b6900221a60d5e7626838
:104e3000521a206813441b1ab4f864a09a4528bf7c
:104e40009a46d04506d294f83e3043f0800384f869
:104e50003e30c2461346524528bf5346baeb0302c2
:104e60002cd094f877c0bcf1010f0ad023695344c9
:104e7000236162689342b3d32168521a9b1a23615b
:104e8000aee7a0b192b2a7f86e20a7f86c20b86682
:104e900007f16002ba6469b19bb2a7f85630a7f86f
:104ea000543039653b6907f148021a60dee7002299
:104eb000ba64f0e73b6900221a60d7e794f87720dc
:104ec000012ad3d10022ba6451b19bb2a7f856305f
:104ed000a7f8543039653b6907f148021a60c5e705
:104ee0003b6900221a60c1e74ff0000a7ee74ff0ed
:104ef000000a1ffa8af8baf1000f0ad0b4f8643039
:104f0000a3eb0803a4f8643046f0080606e04ff06f
:104f1000000816f0030f45d04ff0000a19f0010ffa
:104f20000dd0002384f87830354b1a684ff47a732b
:104f300003fb02f3334aa2fb03239b09236522f000
:104f4000cbfe236d1844606294f83e3043f00203b8
:104f500084f83e30b4f862302b80b4f860306b8057
:104f6000636d6b60a36dab602b7b6ff303032b73df
:104f70006e7300236b822b82636d5344636516f05e
:104f8000020f4dd016f0100f04bf0023ab6094f851
:104f9000743013f0080f37d06b68013b6b604ff033
:104fa00004093fe019f0020f0ad094f87930013378
:104fb00084f87930636d013b63654ff0010ac9e7fe
:104fc00094f83e3013f0020f13d019f0010f08d1fe
:104fd00094f878302bb1013b84f87830236d5b086e
:104fe000236522f079fe236d184460624ff0000ab9
:104ff000b0e74ff0000aade706002000e59401009d
:10500000f0cc0020d34d6210636d0133636594f8da
:10501000743043f0080384f874304ff0040901e061
:105020004ff0000916f0010f05d094f8743043f0ea
:10503000040384f8743016f0100f05d094f875301e
:1050400043f0010384f87530e369226a934223d365
:10505000a1696069091a9b1acb1a9bb2eb81a4f86b
:10506000663028461cf030fd2b7bc3f3031205325b
:1050700062f307132b7394f87730012b10d0b8f13b
:10508000000f7ed14ff0ff3094f87730012b00f005
:10509000a28006b0bde8f087d31a013b9bb2dde7e2
:1050a000236c23b90025b8f1000f6dd06ae02046cb
:1050b00020f029f805460028f5d009f11409636ca1
:1050c000bb63236cfb63a36c3b643a6993894b44d9
:1050d0009381fd6900232b82a36c93f8683013f051
:1050e000010f18d094f885308df8053094f886308b
:1050f0008df8043000258df8065009eb080201ab4d
:1051000092b2062138460ff0f5fc3d60384624f097
:10511000e5ff0546c7e7bb6b0293fb6b03930022d9
:105120008df8102006238df8113009eb08039bb28f
:10513000190a41ea0323adf812300c2102a81bf032
:1051400077ffc24392b2494628461bf071ffc34322
:105150009bb2b8f1000f07d139690a8a22f0080220
:105160000a82db432b82bde739690a8a42f00802d2
:105170000a824246396d38461af0fcfac3439bb2a4
:10518000efe70025a36babb1002d3ff47baf16f02a
:10519000040f2bd0e56f5db3b4f87a3013f0080f2d
:1051a00028d0d4f880300822a16cb4f93c00a8477c
:1051b00000206ee740f2dc53636322f08dfd626bea
:1051c000124b1b6803fb02f3114aa2fb032300eb03
:1051d0009310a063d8e73b6a23f008033b6258e7cb
:1051e0006ff0010070476ff0020052e7002050e7b7
:1051f00000204ee700204ce794f83f3013f0010ff9
:105200007ff472ae4ff0000883e600bff0cc0020c0
:04521000d34d621008
:020000040000fa
:105214002de9f04f8db000f58852d37e177e1432fd
:105224009279013ad21ad2b2ba4280f0748200f56d
:10523400885b0bf1140bcdf81cb083468fe0ff2e76
:1052440042d199f84130ff2b21d0284621f0e9fbc7
:10525400002843d041f2cc1301220bf80320002391
:1052640041f2cb120bf8023041f2bc122bf802309f
:105274000bf58d531a680421584617f049ff0bf5b6
:105284008e532a78c2f3401203f8092f51e099f89b
:105294004230ff2bd9d199f84330ff2bd5d10121ce
:1052a40041f2cc130bf80310002341f2cb120bf89c
:1052b400023041f2bc122bf802300bf58d531a6800
:1052c400584617f025ffdae7284621f0aafb002804
:1052d400c0d1334616f0400f00f0f98041f2cc13f0
:1052e40001220bf80320002341f2cb120bf8023009
:1052f40041f2bc122bf802300bf58d531a680621cb
:10530400584617f005ffbae741f2cc1301220bf817
:105314000320002341f2cb120bf8023041f2bc12fd
:105324002bf802300bf58d531a680721584617f0f5
:10533400effe002341f2bc122bf8023041f2cc12f2
:105344000bf80230079ad3790133dbb2d3711779a2
:105354009279013ad21ad2b2ba4280f0dc81013f8a
:105364003b40079a126841f27a0101fb03231a4673
:10537400039341f27803d25a002ae3d0984ba3fb5b
:1053840002139b0903eb0313a2eb83039bb2099360
:10539400002bd7d10892039b03f63c07b9467ce067
:1053a4000bf58d531b68009300231a461946584683
:1053b4001cf0b7fabde741f2ca1301220bf803202f
:1053c4000bf58d53196858461ff05cff98e003f005
:1053d4000f039f0094f842201346c2f380110691f4
:1053e400002900f0088102f03f0303f10108d3090a
:1053f40002934745c0f0038141f2bc133bf80320fc
:105404001ffa88f54ab941f2b81300212bf80310aa
:105414000bf58d530020e3e9020141f2b8113bf88a
:1054240001302b442bf801300bf58d531b6800938e
:105434002b46214658461bf047fb41f2bc1a3bf869
:105444000a102944029b1a1c18bf012289b258462b
:105454001df06afb00232bf80a30c7f1400a1ffa3b
:105464008afa41f2cb131bf80330002b00f0d480ee
:10547400002e40f0da8041f2cc131bf80330002bed
:1054840000f0948009f14409039ba9eb0303a3f6fc
:105494003c03089a9342bff455af09f140054c46ca
:1054a40099f84060002e7ff4caae99f841303bb9b8
:1054b40099f8423023b999f84330002b3ff4efae0a
:1054c400284621f0aefa00287ff4c4ae3346c3f375
:1054d400401341f2c9120bf80230002b3ff414af11
:1054e40094f84230db0904937ff45aaf41f2ca13b3
:1054f4001bf8033023b994f84030db097ff45baf29
:1055040094f84130c3f30016002e7ff460af13f01b
:10551400200f67d194f8423013f0400f62d141f26a
:10552400cc1300220bf80320ace741f2cc13012288
:105534000bf80320002341f2cb120bf8023041f2a6
:10554400bc122bf802300bf58d531a680221584611
:1055540017f0defd96e741f2cc1301220bf803208d
:10556400002341f2cb120bf8023041f2bc122bf8ab
:1055740002300bf58d531a680321584617f0c8fd05
:1055840080e741f2bc133bf80310002241f2cb1038
:105594000bf800202bf803205144029b9a1a18bfe1
:1055a400012289b258461df0bffa6be741f2cb13d2
:1055b40001220bf8032041f2cc1300220bf8032044
:1055c400e11941f2bc133bf80320002a4cd085e0da
:1055d40002f03f0303f10108d309029337460ee0ba
:1055e400f1f0f0f094f842201346c2f380110691d2
:1055f4000029edd10f46db0902934ff04008a8ebd8
:10560400070a1ffa8afa002e3ff42baf41f2cb139c
:105614001bf80330002b88d141f2cc131bf8033064
:10562400002b7ff425af002e95d0b84508d841f261
:10563400cc131bf80330002b7ff424af002eb5d01d
:1056440094f84330db09049341f2cb1301220bf8a5
:10565400032041f2cc1300220bf80320e11941f29c
:10566400bc133bf8032052b941f2b81300222bf8c3
:1056740003200bf58d500023e0e90223099a049bd3
:1056840063b341f2a8100beb000c0b780024cde9b6
:1056940004344c782304049c43ea0463cc79002545
:1056a400cde904458c7843ea0423cd780026cde97e
:1056b4000a560c79049e46ea04664c7946ea044686
:1056c4008c7946ea04240a9d2b434bf80040ccf81d
:1056d40004300831aaf1080a1ffa8afa41f2b81014
:1056e4003bf8003053442bf800300bf58d531b6806
:1056f4000093534658461bf0e7f9b84503d9069b77
:10570400002b7ff43eaf41f2bc133bf803108a44f4
:0c5714002bf803a0b6e60db0bde8f08f46
:020000040000fa
:105720002de9f04f85b0a44bd3e90023134314d0e7
:10573000a24b1b78022b00f0fb80032b00f0b581fd
:10574000012b15d09e4b1b7823b19c4b1b78002b53
:1057500000f0978005b0bde8f08f24f001fd964b76
:10576000984aa2fb00208009186000225a60dfe7f7
:10577000954b1b78002b51d1944b1b78002b36d1c5
:1057800000200090924b01229249096820f050f8c5
:10579000024630b1904900201bf080fa22f0acfda7
:1057a000d0e721f02dfc8d4f834b1e68d3f804c049
:1057b000b3194ceb0c029b1942eb0c024feac20ee0
:1057c0004eea537e4feac30818eb06034eeb0c0279
:1057d000d60046ea53764feac30c1ceb000046ebba
:1057e000010138607960794b01221a70aae721f033
:1057f00007fc7a4a13685268b0eb030861eb0209b0
:10580000b8f1000f79f100039cdb724b1a68744900
:1058100000201bf043fa22f06ffd93e7714b1b78d9
:10582000002b71d0704b1b686a4a12686f490020c8
:105830001bf034fa6e4b1b78a3b16b4b1a686d4b9f
:1058400019680a406c4b1b680b409a4245d0019185
:105850000092604a1268694900201bf01ffa644bed
:1058600000221a705b4b1a68654b9a423ed00023a7
:10587000524a1370554a1370514b1b78002b3ff45a
:1058800069af21f0bdfb5f4a13685268c41a61eb2f
:105890000205002c75f10003fff65caf0024484bb5
:1058a0001c70594920461bf0f9f94a4b544a1a60ba
:1058b000564b1c60504b1c604e4b4ff460421a60bc
:1058c000534b01221a704a4b1c703f4b1c703f4bcc
:1058d0001c703a4b02221a703ce7009113463d4a75
:1058e00012684c4900201bf0d9f9b8e73e4b1e68fe
:1058f000c6f3423630461ff047fe0346324646495d
:1059000000201bf0cbf9b2e7324b1a684349002064
:105910001bf0c4f9364b1b78002ba8d02d4b1a680e
:105920003f4900201bf0baf9314b00221a709ee764
:10593000254b1b78002b40f08f80244b1b78002bcd
:1059400074d100200190374b009301232f4a126835
:10595000204909681ff078fc024630b13249002026
:105960001bf09cf922f0c8fcece621f049fb1b4f30
:10597000114b1e68d3f804c0b3194ceb0c029b19f1
:1059800042eb0c024feac20e4eea537e4feac308c6
:1059900018eb06034eeb0c02d60046ea53764feaac
:1059a000c30c1ceb000046eb010138607960074b2b
:1059b00001221a70c6e600bff8cb002005ce0020f9
:1059c00004ce0020d34d621001ce002002ce002074
:1059d0008990020074cd00209ca90000e8cb002033
:1059e000c8a9000003ce00207ccd0020f0a9000053
:1059f00007ce00208ccd002088cd002054aa0000c6
:105a0000fb080300f0cb002084ac000084cd002014
:105a100006ce00201caa00009caa0000b8aa000024
:105a2000e0aa0000bd9c020018ab000021f0e8fadb
:105a3000644a13685268c61a61eb0207002e77f1b8
:105a40000003fff67fae604b1a68604900201bf030
:105a500025f922f051fc75e65d4b1b78bbb15d4b1f
:105a60001b68594a12685c4900201bf017f95b4b10
:105a700000221a705a4b1b789bb1594b1a700123a4
