:020000040000fa
:10000000f0ff0320c1b701005fba010057c501002e
:100010004bdc01003be3010057f30100000000004e
:10002000000000000000000000000000abb0010074
:1000300097cd010000000000abb00100abb00100a3
:10004000abb00100abb00100abb00100abb0010040
:10005000abb00100abb00100abb00100abb0010030
:10006000abb00100abb00100abb00100abb0010020
:10007000abb00100abb00100abb00100abb0010010
:10008000abb00100abb00100abb00100abb0010000
:10009000abb00100abb00100abb00100abb00100f0
:1000a000abb00100abb00100abb00100abb00100e0
:1000b000abb00100abb00100abb0010007470200dc
:1000c00011470200abb00100abb00100abb00100c2
:1000d000abb00100abb00100abb00100abb00100b0
:1000e000abb00100abb00100000000000000000058
:1000f00000000000abb001002d3101002d310100e6
:100100002d3101002d310100ade60100ade6010009
:10011000ade60100ade60100abb00100abb00100ff
:10012000abb00100abb00100abb00100abb001005f
:10013000abb00100abb00100abb00100abb001004f
:10014000abb00100abb00100abb00100abb001003f
:10015000abb00100abb00100abb00100abb001002f
:10016000abb00100abb00100abb00100abb001001f
:10017000abb00100abb00100abb00100abb001000f
:10018000abb00100abb00100abb00100abb00100ff
:10019000291e0200abb00100abb00100abb0010002
:1001a000abb00100abb00100abb00100abb00100df
:1001b000abb00100abb00100abb00100abb00100cf
:1001c000abb00100abb00100abb00100abb00100bf
:1001d000abb00100abb00100abb00100abb00100af
:1001e000abb00100abb00100abb001005d1f02007d
:1001f000abb00100abb00100abb00100abb001008f
:10020000abb00100abb00100abb00100abb001007e
:10021000abb00100abb00100abb00100abb001006e
:10022000abb00100abb00100abb00100abb001005e
:10023000abb00100abb00100abb00100abb001004e
:10024000abb00100abb00100abb00100abb001003e
:10025000abb00100abb00100abb00100abb001002e
:04026000abb001003e
:020000040000fa
:10026400f8b500bff8bc08bc9e4670479500020074
:10027400f8b500bff8bc08bc9e4670477100020088
:020000040000fa
:08028400e0db000001000000b6
:020000040000fa
:10028c006d69696d206f70656e3a206661696c6589
:10029c0064210d0a0000000073746174696300002e
:1002ac0064796e616d696300686f7374000000009f
:1002bc006578740076616c6964000000696e766123
:1002cc006c69640073746174757300007374617489
:1002dc0075733a2025640d0a000000007374617474
:1002ec0073000000636c72006661696c6564207455
:1002fc006f20676574207374617473210d0a00009c
:10030c0073746174732072657475726e65643a20cf
:10031c0025640d0a0000000009206661696c506bb1
:10032c0074416c6c6f633a2025642c206661696c97
:10033c0044637074416c6c6f633a2025642c2066a6
:10034c0061696c4c6f636b733a2025642c20666476
:10035c006246756c6c3a2025640d0a0009206661b2
:10036c00696c4d61633a2025642c206661696c4d83
:10037c0074753a2025642c206661696c53697a6522
:10038c003a2025640d0a00000920616c6c6f6350e3
:10039c0061636b6574733a2025642c206672656505
:1003ac00645061636b6574733a2025642c2061631f
:1003bc006b5061636b6574733a2025642c20646503
:1003cc006c61795061636b6574733a2025640d0a16
:1003dc00000000000920706b74506f6f6c53697ac9
:1003ec00653a2025642c20706b74506f6f6c4c6fc9
:1003fc007753697a653a2025642c20706b74506fa2
:10040c006f6c456d7074793a2025640d0a000000fc
:10041c00092064637074506f6f6c53697a653a206d
:10042c0025642c2064637074506f6f6c4c6f775321
:10043c00697a653a2025642c2064637074506f6f60
:10044c006c456d7074793a2025640d0a000000002b
:10045c000920706f72742025642073746174733a70
:10046c000d0a0000090920706b74732072656365b6
:10047c00697665643a2025642c2064657374206d5c
:10048c00652d75636173743a2025642c2064657343
:10049c0074206e6f746d652d75636173743a2025cd
:1004ac00642c2064657374206d636173743a202529
:1004bc00640d0a00090920706b74732072657365f2
:1004cc00727665643a2025642c2066776420756307
:1004dc006173743a2025642c20667764206d636107
:1004ec0073743a2025642c206677642064697265e5
:1004fc0063743a2025640d0a0000000066646200f3
:10050c0073686f770000000046444220656e747279
:10051c006965733a2025640d0a0000000d0a09452f
:10052c006e747279206e756d6265723a2025640d59
:10053c000a00000009456e74727920646573744179
:10054c0064643a2025730d0a000000006e6f6e651e
:10055c000000000025730d0a000000002573000048
:10056c002c202573000000002c20706f7274202545
:10057c007300000009456e74727920666c616773b4
:10058c003a203078253032783a2025730d0a000055
:10059c0009456e747279206c6561726e20706f7291
:1005ac00743a2025640d0a00a41a0000a81a000051
:1005bc00ac1a000009456e747279206f7574506f17
:1005cc0072744d61705b25645d3a200025732000c8
:1005dc000d0a000009456e747279207445787069b3
:1005ec0072653a203078253038780d0a000000000a
:1005fc0009456e747279206677645061636b65741b
:10060c00733a20256c750d0a000000007573616744
:10061c00653a2062726964676520737461747573de
:10062c000d0a000075736167653a20627269646730
:10063c0065207374617473203c636c723e0d0a0008
:10064c0075736167653a20627269646765206664d8
:10065c00622073686f770d0a0000000061727000f1
:10066c0055736167653a20697034206172702f662a
:10067c0077642f7461626c6520697820636c720ded
:10068c000a00000073756363657373004950763418
:10069c002041525020537461743a2025730d0a0086
:1006ac00706f6f6c3a2025642c2070656e643a2054
:1006bc0025642c2074785375626d69743a20256416
:1006cc002c206677645375626d69743a2025640d2d
:1006dc000a0000007478536f6c7665643a202564c8
:1006ec002c20667764536f6c7665643a2025642cf5
:1006fc0020746f74536f6c7665643a2025642c20db
:10070c00746f744661696c65643a2025640d0a0047
:10071c004661696c656400006661696c6564000023
:10072c006f6e00006f666600746370207472616394
:10073c006520257320666f7220736f636b65743a46
:10074c002025642025730d0a000000007573616775
:10075c00653a207463707472616365206f6e2f6fdd
:10076c006666206e0d0a0000696e666f0000000060
:10077c0054435020736f636b6574733a2025642067
:10078c000d0a000009736b7449783a2025642c20fb
:10079c00616464547970653a2025642c2072656d0f
:1007ac006f7465506f72743a2025642c206c6f63e3
:1007bc00616c506f72743a2025642c20666c6167f2
:1007cc00733a203078253032780d0a00097278534c
:1007dc00697a653a2025642c20747853697a653ad5
:1007ec002025642c2073746174653a2025642c20b8
:1007fc00727850656e643a2025642c2074785065ac
:10080c006e643a2025640d0a000000007573616760
:10081c00653a2074637020696e666f203c6e3e0de5
:10082c000a00000055445020736f636b6574733a73
:10083c00202564200d0a000009736b7449783a2056
:10084c0025642c20616464547970653a2025642ced
:10085c002072656d6f7465506f72743a2025642c2c
:10086c00206c6f63616c506f72743a2025642c207d
:10087c007278517565756553697a653a2025642cd3
:10088c0020747853697a653a2025640d0a000000bb
:10089c00272573537469636b7920000025732050ee
:1008ac006f7274272c2000002573204e6574272c42
:1008bc000000000025732041646427000920666c49
:1008cc006167733a2025730d0a0000007573616728
:1008dc00653a2075647020696e666f203c6e3e0d23
:1008ec000a000000756e6b6e6f776e006d69696d36
:1008fc003a20416e6f74686572206f706572617416
:10090c00696f6e206f6e676f696e672e205265740b
:10091c007279210d0a0000006d69696d2025733a0a
:10092c0020616e206572726f72206f6363757272d4
:10093c0065643a202564210d0a0000005573616737
:10094c00653a206d69696d203c6e65746978206e1e
:10095c003e203c61646420613e202d205365742050
:10096c00746865206e6574776f726b20696e746540
:10097c00726661636520696e64657820616e6420bf
:10098c0050485920616464726573730d0a0000004d
:10099c0055736167653a206d69696d203c737461ac
:1009ac00727420723e203c656e6420723e202d20b5
:1009bc00536574732074686520737461727420615c
:1009cc006e6420656e64207265676973746572204d
:1009dc0028646563696d616c2920666f72206120e3
:1009ec0064756d70206f700d0a000000557361679f
:1009fc00653a206d69696d203c726561642072698d
:100a0c00783e202d2052656164732072656769738e
:100a1c00746572207269782028646563696d616cf5
:100a2c00290d0a0055736167653a206d69696d205f
:100a3c003c7772697465207269782077646174619f
:100a4c003e202d2057726974657320726567697337
:100a5c00746572207269782028646563696d616cb5
:100a6c0029207769746820313620626974206461aa
:100a7c0074612028686578290d0a00005573616738
:100a8c00653a206d69696d203c64756d703e202d52
:100a9c002044756d707320616c6c2072656769738e
:100aac0074657273205b7253746172742c2072457e
:100abc006e645d0d0a00000055736167653a206d28
:100acc0069696d203c73657475703e202d205065ee
:100adc0072666f726d73207468652050485920736c
:100aec00657475700d0a000055736167653a206d69
:100afc0069696d2077726974655f736d69207269bd
:100b0c0078207764617461202d20457874656e645b
:100b1c0065642033322062697420534d492077720a
:100b2c00697465207573696e67207269782028680e
:100b3c0065782920616e642077646174612868652a
:100b4c0078290d0a0000000055736167653a206d25
:100b5c0069696d20726561645f736d692072697873
:100b6c00202d20457874656e6465642033322062d4
:100b7c00697420534d492072656164207573696ee8
:100b8c0067207269782028686578290d0a000000b2
:100b9c0064756d7000000000736574757000000062
:100bac006d69696d207365747570206661696c651b
:100bbc00643a202564210d0a000000006d69696dfe
:100bcc0020736574757020737563636573733a2550
:100bdc00640d0a0072656164000000007265616456
:100bec005f736d6900000000777269746500000026
:100bfc0077726974655f736d6900000061646400ed
:100c0c006d69696d2077726974653a206d697373cb
:100c1c00696e672077446174610d0a006d69696db6
:100c2c003a205365742041646420746f3a20256423
:100c3c000d0a00006e657469780000006d69696dbd
:100c4c003a20496e636f727265637420496e7465e5
:100c5c00726661636520696e6465780d0a00000038
:100c6c006d69696d3a20536574204e6574776f72a7
:100c7c006b20496e7465726661636520696e64658c
:100c8c007820746f3a2025640d0a00007374617229
:100c9c00740000006d69696d3a20536574205374bb
:100cac006172742052656720746f3a2025640d0ab6
:100cbc0000000000656e64006d69696d3a20536533
:100ccc007420456e642052656720746f3a20256449
:100cdc000d0a00006d69696d3a20556e6b6e6f7769
:100cec006e206f7074696f6e0d0a0000557361672a
:100cfc00653a206d6163696e666f200d0a00000015
:100d0c0045783a206d6163696e666f200d0a0000ac
:100d1c00496e746572666163653a2025732044726e
:100d2c006976657220537461746973746963730da9
:100d3c000a0000000d0a2052656365697665205330
:100d4c007461746973746963730d0a0009206e52bf
:100d5c00784f6b5061636b6574733a2025640d0a90
:100d6c0009206e527850656e6442756666657273c2
:100d7c003a2025640d0a09206e5278536368656425
:100d8c00427566666572733a2025640d0a00000090
:100d9c0009206e52784572726f725061636b657484
:100dac00733a2025640d0a09206e527846726167e9
:100dbc006d656e744572726f72733a2025640d0afc
:100dcc0009206e5278427566664e6f744176616981
:100ddc006c61626c653a2025640d0a000d0a205482
:100dec0072616e736d697420537461746973746984
:100dfc0063730d0a0000000009206e54784f6b508d
:100e0c0061636b6574733a2025640d0a09206e5476
:100e1c007850656e64427566666572733a20256417
:100e2c000d0a09206e54784572726f725061636bb3
:100e3c006574733a2025640d0a09206e5478517537
:100e4c0065756546756c6c3a2025640d0a0d0a00b3
:100e5c00096e6f7420737570706f727465640d0a0f
:100e6c0000000000496e746572666163653a202566
:100e7c00732048617264776172652052656769738b
:100e8c00746572205374617475730d0a0000000050
:100e9c00092025733a20307825780d0a00000000cf
:100eac0050696e673a20646f6e652e2053656e74c0
:100ebc002025642072657175657374732c207265be
:100ecc00636569766564202564207265706c69655c
:100edc00732e0d0a0000000050696e672055736177
:100eec0067653a2070696e67203c73746f703e2f93
:100efc003c6e616d652f616464726573733e203c5a
:100f0c006920696e746572666163653e203c6e2073
:100f1c006e50696e67733e203c74206d7350657221
:100f2c00696f643e203c732073697a653e0d0a003c
:100f3c0073746f700000000050696e673a20636f25
:100f4c006d6d616e6420696e2070726f677265736f
:100f5c00732e205265747279206c617465722e0d3b
:100f6c000a00000050696e673a20486f7374206e57
:100f7c00616d6520746f6f206c6f6e672e205265eb
:100f8c007472792e0d0a0000690000006e000000da
:100f9c00740000007300000050696e673a204461d1
:100fac0074612073697a6520746f6f206269672e93
:100fbc00204d61783a2025642e2052657472790d8b
:100fcc000a00000050696e673a20556e6b6e6f77a1
:100fdc006e20706172616d657465720d0a0000009f
:100fec0050696e673a207265736f6c76696e672014
:100ffc00686f73743a2025730d0a0000556e6b6e82
:10100c006f776e206865617020747970652e20553d
:10101c0073653a205b312c2025645d0d0a000000bd
:10102c004e6f206865617020696e666f2065786907
:10103c0073747320666f7220747970653a2025730f
:10104c00210d0a004865617020747970653a20257d
:10105c00732e20496e697469616c206372656174ca
:10106c00656420686561702073697a653a2025642f
:10107c002042797465730d0a00000000416c6c6f9e
:10108c006361626c6520626c6f636b206865617074
:10109c002073697a653a2025642042797465730d52
:1010ac000a000000416c6c20617661696c61626cb5
:1010bc006520686561702073697a653a2025642023
:1010cc0042797465732c2068696768207761746550
:1010dc00726d61726b3a2025640d0a004c61737459
:1010ec002068656170206572726f723a20307825c5
:1010fc00780d0a004e6f20547261636520696e662c
:10110c006f206578697374732e0d0a0055736167cf
:10111c00653a202573203c696e746572666163655f
:10112c003e203c6f6e2f6f66663e200d0a0000005d
:10113c0045783a202573205049433332494e542088
:10114c006f6e200d0a000000556e6b6e6f776e206f
:10115c00696e746572666163650d0a00556e6b6e1f
:10116c006f776e206f7074696f6e0d0a000000004f
:10117c00556e6b6e6f776e20736572766963652042
:10118c0025730d0a00000000537461636b207570a9
:10119c00206661696c65640d0a000000537461631c
:1011ac006b207570207375636365656465640d0ae7
:1011bc000000000055736167653a20737461636bbe
:1011cc00203c75702f646f776e3e203c7072657397
:1011dc00657276653e0d0a0045783a20737461633a
:1011ec006b20646f776e2070726573657276650d17
:1011fc000a00000075700000537461636b20616c11
:10120c007265616479207570210d0a005475726ed7
:10121c0020537461636b20646f776e20616e642061
:10122c007468656e207570210d0a00005265737428
:10123c00617274696e672074686520737461636b86
:10124c00207769746820256420696e746572666104
:10125c0063652873290d0a00646f776e0000000027
:10126c00537461636b20646f776e3a2063616e6eaa
:10127c006f7420676574206120737461636b2068e0
:10128c00616e646c650d0a00537461636b20646f4e
:10129c00776e20646f6e650d0a00000055736167f0
:1012ac00653a206966203c696e7465726661636597
:1012bc003e203c646f776e2f75703e200d0a000047
:1012cc0045783a206966205049433332494e5420c0
:1012dc00646f776e200d0a00556e6b6e6f776e2003
:1012ec00696e7465726661636520737065636966a7
:1012fc00696564200d0a00005468697320696e7476
:10130c0065726661636520616c72656164792075d4
:10131c00700d0a004f7065726174696f6e206661a2
:10132c00696c65642e204e6f20636f6e66696775fd
:10133c00726174696f6e0d0a0000000066756c6c4a
:10134c00000000005468697320696e7465726661f0
:10135c00636520616c726561647920646f776e0dd2
:10136c000a00000057726f6e6720706172616d65c4
:10137c0074657220737065636966696564200d0a13
:10138c00000000004f7065726174696f6e20737598
:10139c00636365737366756c210d0a004f7065721b
:1013ac006174696f6e206661696c6564210d0a0059
:1013bc0055736167653a207365746d6163203c6990
:1013cc006e746572666163653e203c783a783a7853
:1013dc003a783a783a783e200d0a000045783a205f
:1013ec007365746d6163205049433332494e542008
:1013fc0061613a62623a63633a64643a65653a667b
:10140c0066200d0a00000000617267765b325d3a5f
:10141c002025730d0a000000496e76616c6964200a
:10142c004d414320616464726573732073747269f7
:10143c006e67200d0a000000536574204d41432057
:10144c0061646472657373206661696c65640d0a0e
:10145c00000000005365742042494f53204e616dcb
:10146c0065204f4b0d0a00005365742042494f53c1
:10147c00204e616d65206661696c65640d0a000023
:10148c0055736167653a2073657462696f73203cac
:10149c00696e746572666163653e203c782e782ea9
:1014ac00782e783e200d0a0045783a2073657462d8
:1014bc00696f73205049433332494e54204d434891
:1014cc0050424f4152445f3239200d0a0000000057
:1014dc005365742067617465776179206164647207
:1014ec00657373204f4b0d0a000000005365742088
:1014fc0067617465776179206164647265737320c8
:10150c006661696c65640d0a0000000055736167c3
:10151c00653a207365746777203c696e74657266f2
:10152c006163653e203c697076342f3620616464bb
:10153c00726573733e203c76616c696454696d65a9
:10154c003e200d0a0000000045783a207365746750
:10155c0077205049433332494e54203139322e31a1
:10156c0036382e302e31200d0a000000496e76617f
:10157c006c696420495020616464726573732073d4
:10158c007472696e67200d0a0000000053657420a8
:10159c0069702061646472657373204f4b0d0a008f
:1015ac00536574206970206164647265737320667e
:1015bc0061696c65640d0a0055736167653a207347
:1015cc0065746970203c696e746572666163653e12
:1015dc00203c697076342f362061646472657373b5
:1015ec003e203c697076346d61736b2f6970763672
:1015fc0020707265666978206c656e3e0d0a00007d
:10160c0045783a20736574697020504943333249e8
:10161c004e54203139322e3136382e302e3820327d
:10162c0035352e3235352e3235352e30200d0a001b
:10163c004e6f207375636820696e746572666163a2
:10164c00652069732075700d0a000000416e2061e1
:10165c00646472657373207365727669636520695f
:10166c007320616c72656164792072756e6e696e3f
:10167c00672e2053746f7020444843502c205a43db
:10168c004c4c2c206574632e2066697273740d0aa1
:10169c0000000000496e76616c6964204950206d31
:1016ac0061736b20737472696e67200d0a00000001
:1016bc0055736167653a20736574646e7320312fbe
:1016cc0032203c696e746572666163653e203c78bd
:1016dc002e782e782e783e200d0a000045783a2080
:1016ec00736574646e7320312065746830203235f4
:1016fc00352e3235352e3235352e30200d0a000080
:10170c00556e6b6e6f776e20444e5320696e646518
:10171c00780d0a0053657420444e532025642061d3
:10172c006464726573732025730d0a0073756363ab
:10173c0065737366756c00006661696c6564210085
:10174c004e6f6e6500000000736574006765740071
:10175c0044656661756c7420696e7465726661634c
:10176c0065207365742025730d0a0000446566615d
:10177c00756c7420696e746572666163652069733b
:10178c003a2025730d0a000055736167653a206491
:10179c0065666e6574207365742f676574203c698b
:1017ac006e746572666163653e0d0a0045783a2079
:1017bc006465666e65742073657420657468300d9d
:1017cc000a00000055500000444f574e0000000026
:1017dc0052656164790000004e6f7420526561643b
:1017ec007900000055736167653a206e6574696e07
:1017fc00666f0d0a0000000045783a206e6574692a
:10180c006e666f0d0a0000002d2d2d2d2d2d2d2d0a
:10181c002d2d20496e74657266616365203c2573bd
:10182c002f25733e202d2d2d2d2d2d2d2d2d2d20a5
:10183c000d0a0000496e74657266616365206973f8
:10184c0020646f776e0d0a00486f7374204e616dc3
:10185c00653a202573202d204e424e532064697327
:10186c0061626c6564200d0a0000000049507634fa
:10187c0020416464726573733a2025730d0a00006d
:10188c004d61736b3a2025730d0a00004761746536
:10189c007761793a2025730d0a000000444e5331cc
:1018ac003a2025730d0a0000444e53323a2025731a
:1018bc000d0a00004d414320416464726573733a14
:1018cc002025730d0a00000064656661756c742038
:1018dc00495020616464726573730000257320693c
:1018ec0073204f4e0d0a00004c696e6b20697320fb
:1018fc0025730d0a000000005374617475733a204f
:10190c0025730d0a0000000050696e673a2077724b
:10191c006f6e67207265706c79207265636569768d
:10192c0065642e204d61736b3a2030782532780d2a
:10193c000a00000050696e673a207265706c795b22
:10194c0025645d2066726f6d2025733a2074696d75
:10195c0065203d2025646d730d0a00004d69696d8d
:10196c002025733a203078253034782c206e65741d
:10197c0049783a2025642c206164643a2025642c33
:10198c002076616c3a203078253038780d0a0000ca
:10199c004d69696d2025733a2025642c206e657481
:1019ac0049783a2025642c206164643a2025642c03
:1019bc002076616c3a2030782534780d0a000000ce
:1019cc0050696e673a20444e53206661696c75729b
:1019dc006520666f722025730d0a00004d69696dd4
:1019ec00202573206572726f723a2025640d0a00ef
:1019fc003a20737461636b20636f6d6d616e6473f9
:101a0c000000000074637069700000004661696c2e
:101a1c00656420746f206372656174652054435053
:101a2c00495020436f6d6d616e64730d0a000000a8
:101a3c00544350495020636f6d6d616e6473207414
:101a4c0061736b20726567697374726174696f6e10
:101a5c00206661696c65640d0a000000696e74652e
:101a6c00726e616c00000000706f6f6c0000000003
:101a7c0065787465726e616c000000004c6f6f735a
:101a8c006500000053747269637400004e6f6e2d14
:101a9c0000000000200000006465660066776400aa
:101aac0066696c74000000006e6574696e666f0088
:101abc003a20476574206e6574776f726b20696e7f
:101acc00666f726d6174696f6e0000006465666e9e
:101adc00657400003a205365742f47657420646563
:101aec006661756c7420696e7465726661636500fd
:101afc007a636c6c000000003a205475726e205aa8
:101b0c00434c4c206f6e2f6f6666000073657464d7
:101b1c006e7300003a2053657420444e5320616468
:101b2c006472657373000000736574697000000063
:101b3c003a20536574204950206164647265737354
:101b4c0020616e64206d61736b00000073657467b7
:101b5c00770000003a205365742047617465776103
:101b6c00792061646472657373000000736574623c
:101b7c00696f73003a2053657420686f7374277310
:101b8c00204e657442494f53206e616d6500000014
:101b9c007365746d616300003a20536574204d4188
:101bac004320616464726573730000006966000011
:101bbc003a204272696e6720616e20696e7465729c
:101bcc00666163652075702f646f776e000000008e
:101bdc00737461636b0000003a20537461636b2073
:101bec007475726e206f6e2f6f666600686561701b
:101bfc00696e666f000000003a20436865636b20d5
:101c0c0068656170207374617475730070696e67b8
:101c1c00000000003a2050696e6720616e20495028
:101c2c002061646472657373000000006d61636908
:101c3c006e666f003a20436865636b204d4143200c
:101c4c007374617469737469637300006d69696d91
:101c5c00000000003a204d49494d20636f6d6d61c5
:101c6c006e647300756470003a2055445020636fa5
:101c7c006d6d616e64730000746370003a205443a0
:101c8c005020636f6d6d616e6473000074637074cb
:101c9c0072616365000000003a20456e61626c65fc
:101cac0020544350207472616365000069703400e5
:101cbc003a2049507634000062726964676500000e
:0c1ccc003a20427269646765000000bfa6
:020000040000fa
:101cd8002de9f04f8db00f210a2020f047fb02902c
:101ce80010f0010f40f05d85029b13f0020f40f0e9
:101cf8007c850db0bde8f08fd9f8187007f1100297
:101d0800059213f4007f21d1fb6809933b690a937c
:101d180000228df82c2006238df82d30330a43ea53
:101d28000623adf82e300c2109a81bf0a1f8c043fa
:101d380083b2d9f8202012f0040f30d03246414641
:101d4800484619f0d2ff002840f09b8640461bf019
:101d5800f1fb98f80ca04fea1a1a4fea8a03049389
:101d6800d9f81ca0baf80220002a00f08d86fd8957
:101d7800bb891d44baf800301d445540adb2c74b6d
:101d8800d3f800c0bcf1000f00f08186d9f828e034
:101d9800c34b1b68039300239b4610460ee01a466c
:101da800314640461bf064f8cde7b4f87220824211
:101db8002fd001331bb21c469c452fd9039a52f8e9
:101dc8002440002cf5d094f876200b2af1d094f812
:101dd80077100129edd8a16c09b18e45e9d1002a07
:101de800e3d0b4f87220aa42e3d1daf80010226ee8
:101df8009142ded1216cfa689142dad1012184f84e
:101e08007710c4f848e0059a20461ff01ef9a3464b
:101e180022e0bbf1000f08bfa346cae7bbf1000fe1
:101e280000f08380fb68cbf8403001218bf87710f5
:101e3800cbf848e0059a58461ff007f9abf87250fe
:101e4800baf80030abf86030baf80230abf862305c
:101e5800dbf80030cbf81030d9f8102093890499ba
:101e68005b1a938198f80d40d8f80870d8f8045098
:101e78009bf83f3013f0400f5bd19bf875306ff340
:101e880000038bf875309bf87630002b69d0012b56
:101e980000f09e801436049aa6eb020a1ffa8afa0a
:101ea800aaf1140292b2059214f0010206921abf26
:101eb800aaf1130a1ffa8af2059a039214f0020f84
:101ec80003d0039a013292b20392dbf81c60dbf86c
:101ed80020209642c0f0aa80dbf81810dbf8140026
:101ee800091aa6eb020aa1eb0a0a1ffa8af204925f
:101ef800dbf85820a5eb020a039a002a00f0a98013
:101f0800049a002a00f0a080baf1000fc0f296806f
:101f18009245c0f0a780039a04998a1a8a45c0f2ac
:101f2800a180924540f39e808ee06ff00e0100f094
:101f380034bc00238bf879309bf83e3013f0020f45
:101f48009bd120f0dbfabbf87020564b1b6803fbd3
:101f580002f3554aa2fb032300eb9310cbf82400ad
:101f68008be714f0040f1ad114f0100f1dd114f0e0
:101f7800020f27d00135cbf85850404616f010fd17
:101f8800abf86a0058461ef029fb01221221584678
:101f980005f0d2f902238bf876300026e6e300211b
:101fa800584611f007fc0026e0e3cbf854700022f5
:101fb8000421584605f0c0f90021584611f0fafbf3
:101fc8000026d3e30021584611f0f4fb0026cde3a8
:101fd80014f0040f40f0c98314f0100f00f0a1852d
:101fe800dbf85460b74205d114f0020f40f0568573
:101ff8000026bbe3cbf8547001220421584605f0b3
:102008009bf9cbf854600026b0e320f077fabbf8d0
:102018007020244b1b6803fb02f3234aa2fb032313
:1020280000eb9313cbf8243000f057bda2eb060a5f
:102038000af1ff3a1ffa8af2049259e703990a460d
:10204800514400293ff768af14f0040f1fd0002651
:102058008ce3baf1000f05d0baf1000ff4db049a53
:102068009245f1da14f0060f20d114f0100f00f0a9
:102078009083023b072b00f2cc81dfe813f02900a4
:102088003e003e003e003e00ca013e00bd01012266
:102098001021584605f050f9002667e3185600202d
:1020a800145600201c560020d34d621014f0040f63
:1020b80008d09bf83f3043f002038bf83f304ff4d1
:1020c800006600e000260021584611f073fb4de33e
:1020d800dbf85460b74205d103238bf876304ff410
:1020e80080760be0cbf8547001220421584605f0a5
:1020f80023f9cbf85460002638e30026dbf81010eb
:10210800dbf808305a1a13d4dbf854003b1a9b1a30
:10211800002b1dddbbf8742002f40172042a01d1e2
:10212800012b0cd000221021584605f005f91de3bb
:10213800dbf80430dbf800001b1a1a44e4e701302e
:10214800cbf854009bf8753043f002038bf87530d8
:10215800dbf85430dbf80c20881a914249d2dbf8be
:102168000420dbf80010521afb1a0344d318079313
:10217800002b07dddbf80430dbf800209b1a079af8
:102188009a4246d9dbf83830002b40f0a280dbf8c1
:102198000c20dbf808309a4200f0d980b8f80e30ed
:1021a800bbf86e209a4238bfabf86e30dbf854208b
:1021b800b8f80e303b449b1a9bb2bbf8641031b997
:1021c8002bb19bf83e1041f040018bf83e10abf864
:1021d80064309bf87630042b00f0f080062b40f03a
:1021e8001981974240f0c2820021584611f0e2fa64
:1021f800bce2fb1a03440793002b07dddbf804302d
:10220800dbf800001b1a0798984202d99142bed009
:10221800b8e740f2dc53cbf8343020f06ff9dbf844
:102228003420c44b1b6803fb02f3c34aa2fb0323fd
:1022380000eb9313cbf838309bf83e306ff345131f
:102248008bf83e30dbf80c10079b0b44cbf80c30b6
:10225800dbf8102091420ed893421cd99a1adbf869
:1022680054100a44cbf85420cbf81030dbf8042083
:10227800934224d313e0dbf80410dbf80000091aba
:102288000a44934207d99a1adbf854100a44cbf847
:102298005420cbf81030dbf80420934205d3dbf848
:1022a8000010511a5b1acbf80c30dbf8103093424f
:1022b80005d3dbf80010521a9a1acbf810209bf8b5
:1022c8007630032b02d0082b7ff461af46f004066a
:1022d8005de720f013f9dbf83830c31a002bfff65e
:1022e80056afdbf834305b00b3f57a4f28bf4ff4b4
:1022f8007a43cbf8343020f001f9dbf834208d4be9
:102308001b6803fb02f38c4aa2fb032300eb931325
:10231800cbf83830dbf81010dbf80c20881adbf823
:1023280054301b1acbf85430914207d2dbf8041012
:10233800dbf80000091a5b1acbf85430cbf81020f0
:102348009bf83e3043f080038bf83e301fe79bf844
:102358003f3013f0010f19d113f0400f06d19bf84d
:102368003e306ff341038bf83e3017e720f0c6f894
:10237800bbf870206f4b1b6803fb02f34ff47a72b3
:10238800b3fbf2f30344cbf82430e8e7dbf854302e
:102398009f427ff403af9bf8743013f0040f3ff4af
:1023a800fdae9bf83e306ff341038bf83e309bf84f
:1023b8003f306ff300038bf83f30efe6974203d0ce
:1023c80014f0200f35d0d1e19bf8743013f0040fce
:1023d800f6d020f093f8574b1a6841f2883303fb84
:1023e80002f34ff47a72b3fbf2f30344cbf83030c4
:1023f80005238bf87630e3e7dbf8543001339f424e
:1024080001d00026b2e10021584611f0d3f9002688
:10241800ace1002614f0200f40f0a8819bf876204c
:10242800a2f10803dbb2012b40f2a081062a00f0da
:102438009d81059a002a3fd0baf1000f7edd059be9
:102448005344049a934203dda2eb0a039bb205931b
:1024580098f80c301b0908eb83030893dbf81c1071
:10246800dbf81830059a52440a44934280f0f4800d
:102478005a1a0132b2eb0a0200f1df801ffa82f821
:1024880001240094434608a80246514448461af0dd
:10249800d7f80490059aa2eb080300949bb208aa07
:1024a800dbf8141048461af0cbf8049b034498b2a2
:1024b800059b834200f0d980039bcbb19bf8763013
:1024c800033bdbb2022b84bfdbf81c30cbf8203097
:1024d8009bf83e3013f0100f40f0fa809bf83e3026
:1024e80043f010038bf83e3013f0080f00f0f6802d
:1024f800069b002b00f03a81dbf858300133039a31
:102508002a44934240f03281cbf8583046f4806632
:102518009bf83f3043f004038bf83f309bf876304c
:10252800023b032b00f20781dfe813f0ec00f50013
:10253800fe0015011c560020d34d621098f80c308f
:102548001b09caeb830343440893524493b2049a89
:102558009a4228bf1a469246dbf81c10dbf818305e
:102568008a18934259d25b1a01330493bdf810803c
:1025780001240094434608aa48461af061f80590d9
:10258800aaeb080300949bb208aadbf8141048468b
:102598001af056f8059a024490b2049baaeb03037a
:1025a800dbf814201344504586d1dbf85810514409
:1025b800cbf85810cbf81c309bf87620033ad2b2ef
:1025c800022a98bf46f40076dbf85c20b2f1ff3fa0
:1025d8003ff472afa2eb0a0acbf85ca0bbf8682004
:1025e80012eb0a0224d4baf1000f3ff765af114489
:1025f800cbf858101344cbf81c30dbf81820934262
:1026080006d9dbf81410521ad2431344cbf81c3005
:102618004ff0ff33cbf85c304ee70123009353466d
:1026280008aa48461af00cf8dbf81c305344bae7fd
:102638004ff0ff33cbf85c303ee70af1ff30dbf8b0
:1026480014209b1ac01a01230093059b08aa014471
:10265800484619f0f5ff2be701230093059b08aacc
:102668005144484619f0ecff22e7dbf85c30b3f13f
:10267800ff3f15d09a4519d2059a02eb0a01bbf81b
:102688006820d018814205d88b4203d8a0eb0a03f2
:102698009bb20593059babf86830cbf85ca00be7c1
:1026a800cbf85ca0059babf8683005e7bbf8682061
:1026b8001a4405980146514491427ff6fdae924571
:1026c8003ff6faaeaaeb03031844abf86800f3e64a
:1026d80001221021584604f02ffe09e7dbb243f02f
:1026e80008038bf83e301ff009ffb14b1a686423ca
:1026f80003fb02f34ff47a72b3fbf2f30344cbf813
:102708002c30f5e609238bf8763001221121584642
:1027180004f012fe2ae008238bf876309bf8753017
:1027280013f0010f07d021e0dbf854309f4208d0a6
:1027380006238bf8763001221021584604f0fcfd60
:1027480014e000221021584604f0f6fd00215846f6
:1027580011f030f80ae000221021584604f0ecfd90
:102768000021584611f026f800e00026bbf87a2030
:10277800324000f08f81dbf87c40002c00f08c8127
:10278800dbf88030d9f82810bbf93c00a0470221bb
:1027980003e00026eae76ff00d010a2248461ef022
:1027a80099ff0a2021f0c6f9814600283ff49caa27
:1027b800b9f82c60132eeed9d9f81c8098f80c3093
:1027c8001b09042b0bd9b6eb830f0bdbd9f8203090
:1027d80013f400343ff490aa6ff00e01dde76ff0b8
:1027e8000d01dae76ff00d01d7e7724b1b68002b7c
:1027f8003ff47faa00252b46dff8bc81dff8b0a1a3
:10280800dff8b891e6e01ff079fea36ac01a002845
:10281800a8bf1026f5e01ff071fee36ac01a002871
:10282800c0f2f58094f87630052b00f08b811026e5
:1028380087f001023146204604f07efdefe01ff0ec
:102848005dfe236bc01a0028c0f2e6800122142125
:10285800204604f071fd0021204610f0abffb1e0e6
:1028680094f83e6006f001060121204617f003f9ae
:1028780094f83e3043f0010384f83e304ff4805220
:10288800002120461cf0befa002e40f09b8094f8f0
:102898003e306ff3000384f83e300a2384f8763024
:1028a80090e01ff02bfe636ac01a0028c0f28a80ed
:1028b80094f876104b1e082b00f28280dfe803f0b4
:1028c8000541556080688080700094f87830032b4b
:1028d80040f22c81042384f87830daf800204ff491
:1028e8007a7303fb02f3a9fb03239b091b012365ee
:1028f8000221002694f87830013384f87830236d6b
:102908005b0023652069e268831a9bb2904204d277
:1029180060682768c01b03449bb2606dc01a60657d
:10292800b4f864000344a4f864302261002220460d
:1029380004f002fd002e45d00021204610f03aff99
:1029480040e094f87830022b40f2f28094f83e6030
:1029580006f001031e46002b18bf1421002fc9d111
:102968000122204604f0e8fce4e794f87830042bd0
:1029780040f2e080042384f8763011210026ede748
:1029880094f87830042b40f2d78014210126e5e72b
:1029980094f87830042b40f2d18014210126dde729
:1029a80094f87830042b40f2cb8014210126d5e727
:1029b8001c5600201856002014560020d34d6210d3
:1029c800002e5bd101352db22b46634a1268954221
:1029d800bff48fa9d8f8002052f82340002cf1d07a
:1029e80094f876300b2bedd094f83e3013f0c006f7
:1029f8001dbf1f46df091026002713f0040f7ff4c0
:102a080002af94f83e3013f0080f7ff404af94f847
:102a18007630052b3ff413af002e7ff409af94f8fe
:102a28003e3013f0020f7ff43caf94f83f3013f0c0
:102a3800400fc7d094f87630032bc3d11ff05efd4a
:102a4800636ac01a0028bddb94f8792094f88430b2
:102a58009a423ff405af02221021204604f06cfc94
:102a68001ff04cfdb4f87020daf8003003fb02f3d5
:102a7800a9fb032300eb93136362a3e73146002607
:102a88006ce76ff0090188e66ff00e0185e66ff0dc
:102a98000e0182e6022180e602217ee60135cbf8ae
:102aa8005850b8f80e30abf86e30abf8643040468a
:102ab80015f076ffabf86a0058461df08ffd01222d
:102ac8001021584604f038fc03238bf876309bf825
:102ad8003f3013f0400f7ff498aa9bf83e306ff315
:102ae80041038bf83e304ff480763fe60135cbf852
:102af8005850b8f80e30abf86e30abf8643040463a
:102b080015f04effabf86a0058461df067fd01222c
:102b18001221584604f010fc02238bf87630002668
:102b280024e614f0020fe1d100261fe60221e0e6b8
:102b38001221dee61021dce61121dae61021d8e6c2
:102b48001121d6e61ff0dafc236bc01a0028bff665
:0c2b58007dae10266ce600bf1856002071
:020000040000fa
:102b64002de9f04f2ded028b9db00f2121201ff098
:102b7400fffb002800f0ab86834b1b68002b40f35f
:102b8400a686824c0026dff818a2814f9fed818a29
:102b940007f294730593bbe3d4f8c4305d6894f8ea
:102ba400d12032b3227c012a45d0022a65d1b4f95e
:102bb4003830b3f1ff3f27d00023774a4ff4007138
:102bc400b4f938001ff00cf8d4f8bc200221b4f991
:102bd400380012f0bbf938b9d4f8c4301b681b684c
:102be40007f2e46128469847062120461bf0e8ffd7
:102bf40087e31b681b6807f29c61284698470121fc
:102c040020461bf0ddff7ce304f18002618a012091
:102c140017f084f82087b0f1ff3fcdd1d4f8c43049
:102c24001b681b6807f5d861284698470121204690
:102c34001bf0c6ff65e304f18002618a012021f0e4
:102c440056fda087b0f1ff3f0ad00023534a4ff44a
:102c540080711ff06bf9032120461bf0b1ff50e394
:102c6400d4f8c4301b681b6807f20c7128469847d7
:102c7400012120461bf0a4ff43e31b681b6807f5f2
:102c8400e66128469847012120461bf099ff38e366
:102c9400d4f8c430d3f804903c4be31adb1003ebb4
:102ca400c30203eb4203c3eb432303eb83435b42c3
:102cb4000493dff8f0808ae0d4f8c4301b681b6802
:102cc40007f5e96148469847042120461bf078ff40
:102cd40017e3b4f93c001ff0ccff12e30133c4f84e
:102ce400943028461ff05cfc02460b46d4e90801e8
:102cf4000cf042f9c4e90801bbf1000f1adba36a26
:102d0400e26a511c8b4230d0934222dc616b01f1a8
:102d1400010161632bd022e0d4f8c4301b685b68e6
:102d240007f5ed6148469847236b013ba26a1344bb
:102d3400236388e0cbf10003a3621ff0e1fbc4f836
:102d44008c00002384f8cc30042120461bf038ff8b
:102d5400d5e75b1a226b13442363a36ae3620c3d39
:102d6400adb2a5b34ff4c86b28e0934206d1d4f8b2
:102d7400c4301b681b68059948469847a36ae26af1
:102d84009342ecddeae700bf34560020e04900201e
:102d9400e038000000007a44e53d0200cf3d020027
:102da40060390020585200205a465146b4f93c007c
:102db40014f0eef8a5f5c865adb245b1b5f5c86f28
:102dc400f2d22a465146b4f93c0014f0e1f8b4f9c1
:102dd4003c001ff009fb05460b2840f283800c22bf
:102de4004146b4f93c0014f0d3f80c287ff464afe6
:102df400d8f800304fea136b4bea036b1a0202f463
:102e04007f024bea020b1b0a03f47f434bea030bda
:102e1400c4f828b0d4f89430002b7ff45fafbbf132
:102e2400000ffff656af0123c4f89430d4f8c43031
:102e34001b685b68049a07f2cc7148469847a26afb
:102e4400002a7ff469afa36ae36207a9b4f93c00de
:102e540013f0b6fab4f93c0021f0eef920f056f97b
:102e6400089dd4f8c4301b68628a0292020e019253
:102e7400c0f307420092d3f804b0c0f30723c2b2f0
:102e840007f5b0614846d847d4f8c4301b68bdf88c
:102e9400602002922a0e0192c5f307420092d3f8f1
:102ea40004b0c5f30723eab207f2b4514846d84741
:102eb4006564bdf86030a4f864301ff021fbc4f8e9
:102ec4008800c4f8a800a36ac4f89c30d4f89430ed
:102ed400c4f89830236bc4f8a030b4f93c001ff058
:102ee400c8fe74e7d4f894304bb994f8cf30012b72
:102ef40040f00782042120461bf062fe01e21ff02d
:102f0400fffad4f8a830c31a22689342edd9d4f852
:102f14009420d4f898309a4213d1d4f8c4301b6862
:102f24001b6807f2b471484698471ff0e9fac4f8e1
:102f34008c00002384f8cc30042120461bf040fe92
:102f4400d3e7002120460bf075fbcee7b4f93c0033
:102f54001ff04afa38b994f8cf304bb10921204612
:102f64001bf02efecde1b4f93c001ff082fec8e157
:102f7400052120461bf024fec3e194f8cd30002b3c
:102f840000f0bb80b4f93c001ff02efa002840f09a
:102f9400bc8094f8cc305a1c84f8cc200a2b00f264
:102fa400b9808021b4f93c0021f0f6fb002800f040
:102fb400a881e36a5b42cd4d1a0e42ea036219020c
:102fc40001f47f010a431b0a03f47f4313432b607c
:102fd4004ff00008c5f80480c5f808808023eb6032
:102fe400c5f81080d4e908011ff0a8fd020e42eada
:102ff4000062030203f47f031a43030a03f47f43ca
:1030040013436b611ff090fad4f88c10d4f8883015
:10301400c91ab1fbf0f31a0e42ea03624fea032c19
:103024000cf47f0c42ea0c024fea132c0cf47f4c94
:1030340042ea0c02aa6100fb131307ee103ab8ee41
:10304400477a27ee087a07ee900af8ee676ac7ee29
:10305400267a67ee887afceee77a17ee903a1a0e33
:1030640042ea0362190201f47f010a431b0a03f4d2
:103074007f431343eb61236b1a0e42ea0362190286
:1030840001f47f010a431b0a03f47f4313432b62b9
:10309400636b1a0e42ea0362190201f47f010a43c8
:1030a4001b0a03f47f4313436b62e36a1a0e42ea7a
:1030b4000362190201f47f010a431b0a03f47f43ec
:1030c4001343ab62c5f82c80c5f8308034222946fe
:1030d400b4f93c001cf0b8fa4c252a46414607a82e
:1030e40021f0f2f82a4607a9b4f93c001cf0acfa26
:1030f400b4f93c000bf01efe03e1022120460bf064
:1031040099fa012384f8cd303ce7b4f93c001ff070
:10311400b0fdf6e0092120461bf052fdf1e094f8e1
:10312400cf30012b29d0b4f938001ff0e6fa00287b
:1031340000f0e7803822002107a821f0c5f807a98c
:10314400b4f9380019f0c8f904f1400c07ad0fcdfb
:10315400ace80f000fcdace80f000fcdace80f00ca
:1031640095e803008ce80300072120461bf028fda6
:10317400b4f938001ff01ef8c3e0092120461bf003
:103184001ffdbee0d4f8c430d3f80480b4f938008d
:1031940020f0e5ff0546002866d0a36a002b4cd139
:1031a400534be31adb1003ebc30203eb4203c3eb01
:1031b400432303eb8343d4f8c4201268d2f8049069
:1031c4005a4207f2cc714046c8471ff099f9c4f837
:1031d4008800c4f8a800a36ac4f89c30b4f9380085
:1031e40021f032f81ff092ffd4f8c4301b68628ad1
:1031f4000292020e0192c0f307420092d3f80490a7
:10320400c0f30723c2b207f5b0614046c847d4f8fb
:10321400c4301b68b4f86420029294f847200192e9
:1032240094f846200092d3f8049094f8453094f82a
:10323400442007f2b4514046c847a36a0133a3624d
:10324400d4f894200132c4f89420e36228461ff095
:10325400a7f902460b46d4e908010bf08dfec4e938
:1032640008014ff4c8681ce0b4f938001ef0a2ff4e
:1032740020b9b4f9380020f09dfdd8b11ff040f911
:10328400c4f88c00082120461bf09afc39e0424621
:103294005146b4f9380014f0ddfba5f5c865adb2ac
:1032a40045b1b5f5c86ff2d22a465146b4f9380093
:1032b40014f0d0fba36a63b994f8cf30012b20d16a
:1032c400082120461bf07cfc1ff01af9c4f88c007e
:1032d40017e01ff015f9d4f8a830c31a22689342f6
:1032e400ead9002120460bf0a5f9e5e75852002061
:1032f400e049002094f8cd30c3b3092120461bf0e7
:103304005ffc0136d834c94b1b68b34240f3df82fb
:1033140094f8ce30012bf4d0023b102b00f2d28271
:1033240001a252f823f000bf9d2b0000952c000051
:10333400512f00007f2f000023310000893100004d
:10334400f9320000813300002534000051340000bc
:103354003d3600002d370000b5370000a3380000cb
:103364003335000011380000b9380000022120462e
:103374000bf060f9012384f8cd30bee7d4f8c430f3
:103384005d68237c012b2cd0022b2fd0a84be31a91
:10339400db1003ebc30203eb4203c3eb432303eb56
:1033a4008343c3f10008d4f8c4301b685b68424609
:1033b40007f5ff612846984720461cf063f894f807
:1033c400d130012b1ad0d4f8c4301b685b68424654
:1033d40007f65c0128469847012120461bf0f0fbc4
:1033e4008fe7b4f93c001cf09bfacfe7b4f938003e
:1033f4001df060fa4ff6ff732387c7e794f8cf30c8
:10340400002be0d1d4f8c4301b685b68424607f651
:10341400280128469847022120461bf0d1fb70e77b
:10342400d4f8c80020f090f9032808d10b212046d5
:103434001bf0c6fb1ff064f8c4f8ac0061e704f1ac
:103444004401d4f8c8001cf0d0fbefe7d4f8c43032
:103454005d6894f8cf20012a17d0d4f8c80020f072
:1034640073f903281cd094f8443003f0f003e02be4
:103474001bd1237c012b55d0237c022b7ff441af3d
:103484000c2120461bf09cfb3be71b681b6807f6de
:103494007c0128469847012120461bf091fb30e728
:1034a4000022a267a4f87c20e3e704f1780204f187
:1034b4004401d4f8c80017f087fcc8b1d4f8c4306c
:1034c4001b6894f87d20039294f87c20029294f86f
:1034d4007b20019294f87a200092d3f8048094f827
:1034e400793094f8782007f6dc012846c047c0e715
:1034f4001ff006f8d4f8ac30a0eb03081ff014f862
:1035040000eb800080457ff6fcaed4f8c4301b6825
:103514001b6807f69c01284698471ef0f1ffc4f883
:10352400ac00eee6102120461bf04afba4e7d4f8d9
:10353400c4305d6804f14402618a012021f0dcf8a2
:10354400a087b0f1ff3f63d000233a4a4ff4807163
:103554001ef0ecfce2680521b4f93c0007f01afd0a
:1035640038b9d4f8c4301b681b6807f6081128461c
:10357400984702220621b4f93c0007f00bfd38b944
:10358400d4f8c4301b681b6807f5136128469847b4
:10359400d4f8c810b4f93c001af0f3fa07a9b4f946
:1035a4003c0012f00dffbdf86230a4f87e30d4f870
:1035b400c4301b681b6807f5657128469847d4f822
:1035c400c4301b68628a029294f84720019294f8ee
:1035d40046200092d3f8048094f8453094f84420af
:1035e40007f658112846c047112120461bf0e8fa77
:1035f4001ef086ffc4f88800d4f884300344c4f86d
:1036040090304ff4c8625521504620f05dfe78e6b4
:10361400d4f8c4301b681b6807f20c71284698471d
:10362400012120461bf0ccfa6be600bf3456002083
:10363400e0490020cf3d0200d4f8c4305d68002288
:10364400618a012020f0c1f86087b0f1ff3f55d0b6
:103654000023a14a4ff400711ef0c2fad4f880305e
:10366400002b58d104f1440300220121b4f93a009b
:103674001bf0f3fb4ff48063a4f87e30d4f8c4301d
:103684001b681b6807f5657128469847d4f8c43051
:103694001b68628a029294f84720019294f84620ab
:1036a4000092d3f8048094f8453094f8442007f548
:1036b40019612846c0470d2120461bf081fad4f831
:1036c400b8200321b4f93a0011f040fc38b9d4f819
:1036d400c4301b681b6807f6081128469847b4f9dc
:1036e4003a001ef066fa1ef00bffc4f8ac004ff46b
:1036f400c8625421504620f0e7fd02e6d4f8c430f5
:103704001b681b6807f5d8612846984701212046a5
:103714001bf056faf5e504f18003628a0121b4f93d
:103724003a0014f0bffc9de794f8cf30012b1ad077
:10373400d4f8c430d3f80480b4f93a001ef0ddffa5
:10374400b0b1b4f93a001ef035fd1ef0d9fec4f84c
:103754008800d4f884300344c4f890300e21204605
:103764001bf02efacde50f2120461bf029fac8e5ff
:103774001ef0c6fed4f8ac50451b1ef0d5fe00eb7f
:10378400800085427ff6bdadb4f93a001df092f891
:103794004ff6ff736387d4f8c4301b681b6807f6c1
:1037a400c811404698470f2120461bf009faa8e5a6
:1037b400204607f02df801280bd002287ff4a1ad94
:1037c4000f2120461bf0fcf91ef09afec4f88c0071
:1037d40097e5b4f8b0508db1b5f5c86f28bf4ff474
:1037e400c8652a465146b4f93a000ff077f8b4f8a0
:1037f400b0301b1aa4f8b0308542ead9b4f93a00c3
:103804001ef08eff20460cf0ebfd7ae5227d0b21a5
:10381400b4f93c0007f0befb204606f0f9ff01288e
:103824000bd002287ff46dad122120461bf0c8f99d
:103834001ef066fec4f88c0063e5b4f8b05015b30e
:103844004ff00008a946b5f5c86f28bf4ff4c86902
:103854004a465146b4f93c001bf0f6fe80441ffa78
:1038640088f82d1aadb2814501d1002dead1b4f901
:103874003c000bf05ffa40b900221146b4f93c0059
:103884001cf08ffe3de5a846f1e7b4f8b030a3eb99
:103894000808a4f8b08020460cf0a2fd31e52046cb
:1038a40019f01ef9b4f93a001df004f84ff6ff734d
:1038b400638726e5204619f013f9b4f93c001cf09f
:1038c4002ff81ee5012120461bf07af919e51db0f9
:0c38d400bdec028bbde8f08fe53d02006a
:020000040000fa
:1038e0002d7478002d7278002d6900002d2d696ee1
:1038f0006465780055736167653a20697065726622
:1039000073203c2d74782073697a653e203c2d72bb
:10391000782073697a653e203c2d6920696e646564
:10392000783e0d0a000000000d0a69706572663a63
:1039300020496e76616c69642073657373696f6e7c
:10394000206e756d6265722e204d696e3a20302ca6
:10395000204d61783a2025640d0a00006970657277
:1039600066733a2030203c2073697a65203c20360b
:10397000353533360d0a00006970657266733a207a
:103980004f4b2c20696e7374616e63652025642033
:1039900074782073697a652069732025640d0a00a4
:1039a0006970657266733a204f4b2c20696e737490
:1039b000616e63652025642072782073697a6520c2
:1039c00069732025640d0a0069706572666b3a2080
:1039d0005573696e6720696e64657820300d0a0042
:1039e0000d0a69706572662073657373696f6e3a4c
:1039f000206e6f742073746172746564210d0a0007
:103a00000d0a69706572663a20747279696e672072
:103a1000746f2073746f7020697065726620696eb0
:103a20007374616e63652025642e2e2e0d0a0000ce
:103a300055736167653a2069706572666b203c2d2d
:103a40006920696e6465783e0d0a00002d610000f2
:103a50006970657266693a207573652061207661c8
:103a60006c69642049502061646472657373210d30
:103a70000a0000006970657266693a20556e6b6ec7
:103a80006f776e20706172616d657465720d0a00ea
:103a900055736167653a20697065726669202d61aa
:103aa0002061646472657373203c2d6920696e64c3
:103ab00065783e0d0a0000000d0a6970657266693e
:103ac0003a2063616e6e6f74206368616e67652073
:103ad000746865206970206164647265737320770f
:103ae00068696c652073657373696f6e3a2025642d
:103af0002072756e6e696e67210d0a0069706572bd
:103b000066693a204f4b2c207365742074686520d9
:103b10004950206164647265737320746f20696e0c
:103b20007374616e63653a2025640d0a000000001d
:103b30002d7300002d2d73657276657200000000f4
:103b40002d7500002d2d7564700000002d620000a1
:103b50002d2d62616e647769647468004d00000009
:103b60004b0000000a476976656e20696e20425757
:103b70003a20256c752b256c753d256c7500000071
:103b80002d7800002d2d786d6974726174650000c8
:103b90002d6300002d2d636c69656e7400000000bc
:103ba0002d7400002d2d74696d6500002d6e0000d0
:103bb0002d2d6e756d0000002d5300002d2d746f9e
:103bc000730000000a476976656e20544f532076d3
:103bd000616c75652069732025642c206d547970a3
:103be000654f66536572766963653a256400000027
:103bf0002d4d00002d2d6d73730000002d2d696e6d
:103c000074657276616c00002d7000002d2d706f50
:103c1000727400002d6c00002d2d6c656e0000008c
:103c200069706572663a20546865206d696e696dc9
:103c3000756d20646174616772616d2073697a6566
:103c40002069732025640d0a000000006970657208
:103c5000663a205573696e672074686520646566ee
:103c600061756c7420696e74657266616365210d9f
:103c70000a0000002d2d2d2d2d2d2d2d2d2d2d2d1e
:103c80002d2d2d2d2d2d2d2d2d2d2d2d2d2d2d2d64
:103c90002d2d2d2d2d2d2d2d2d2d2d2d2d2d2d2d54
:103ca0002d2d2d2d2d2d2d2d2d2d2d2d2d0d0a00b4
:103cb00069706572663a20536572766572206c6928
:103cc0007374656e696e67206f6e200055445000f6
:103cd0005443500020706f72742025640d0a000058
:103ce0000d0a69706572663a20416c6c20696e73ca
:103cf00074616e63657320627573792e20526574ea
:103d00007279206c61746572210d0a000d0a697068
:103d10006572663a205374617274696e67207365c8
:103d20007373696f6e20696e7374616e63652025ad
:103d3000640d0a00202020202d205b25326c752d7b
:103d40002025326c75207365635d2025336c752fdb
:103d50002025336c75202825326c752525292020d7
:103d6000202025346c75204b6270730d0a00000012
:103d7000202020202d205b302e302d20256c752e0c
:103d8000256c75207365635d2025336c752f2025a8
:103d9000336c75202825326c75252529202020209c
:103da00025346c75204b6270730d0a006970657262
:103db000663a20696e7374616e63652025642063c2
:103dc0006f6d706c65746564202e2e2e00000000ef
:103dd000697065726620696e7374616e6365202513
:103de000643a20547820646f6e652e20536f636ba5
:103df000657420636c6f7365642e0d0a000000000b
:103e000069706572663a20696e7374616e636520cd
:103e1000256420636f6d706c657465642e0d0a00f7
:103e200069706572663a20536f636b6574207365c1
:103e30006e64206661696c65640d0a000d0a697024
:103e40006572663a20696e7374616e6365202564dd
:103e50002073746172746564202e2e2e0d0a00008a
:103e6000202020202d204c6f63616c202025752e92
:103e700025752e25752e257520706f727420257579
:103e800020636f6e6e656374656420776974680d76
:103e90000a000000202020202d2052656d6f7465df
:103ea0002025752e25752e25752e257520706f728f
:103eb000742025750d0a0000202020202d2054613b
:103ec000726765742072617465203d20256c6420e2
:103ed0006270732c20706572696f64203d20256cc0
:103ee00064206d730d0a0000202020202d2d2d2d23
:103ef0002d2d2d2d2d2d2d2d2d2d2d2d2d2d2d2df2
:103f00002d2d2d2d2d2d2d2d2d2d2d2d2d2d2d2de1
:103f10002d2d2d2d2d0d0a000d0a69706572663a42
:103f2000205761726e696e672c2054435020736570
:103f30007276657220646973636f6e6e6563742058
:103f400064657465637465640d0a00006970657268
:103f5000663a204661696c656420746f20676574f9
:103f600020256420627974657320736f636b6574b8
:103f70002054582073706163650d0a006970657282
:103f8000663a20556e737570706f72746564204365
:103f90006f6e66696775726174696f6e0d0a0000f5
:103fa00069706572663a2043726561746520544396
:103fb0005020736f636b6574206661696c65640d76
:103fc0000a00000069706572663a20536574206fbc
:103fd00066205258206275666665722073697a653c
:103fe000206661696c65640d0a0000006970657285
:103ff000663a204372656174652055445020736fa2
:10400000636b6574206661696c65640d0a0000006d
:1040100069706572663a2050726f746f636f6c20be
:104020006572726f720d0a0069706572663a20558a
:10403000445020476574204172726179204661695d
:104040006c65640d0a00000069706572663a202d87
:1040500020466972737420706b74206964203d205f
:10406000256c64202873686f756c6420626520304d
:10407000290d0a0069706572663a205265637620e0
:104080006475706c69636174656420706b740d0a8b
:104090000000000069706572663a205278207469e9
:1040a0006d6564206f75740d0a0000000d0a69705b
:1040b0006572663a20696e7374616e63652025646b
:1040c0002073657373696f6e2073746172746564b5
:1040d000202e2e2e0d0a00000d0a697065726620d2
:1040e000696e7374616e63652025643a205278208e
:1040f000646f6e652e20536f636b657420636c6f05
:104100007365642e0d0a0000697065726620696e21
:104110007374616e63652025643a20526561647929
:1041200020666f7220746865206e657874207365f0
:104130007373696f6e2e0d0a00000000697065725e
:104140006620696e7374616e63652025643a20632e
:104150006f6d706c657465642e0d0a006970657210
:10416000663a20636c69656e742073657373696f5a
:104170006e20636c6f7365642e0d0a006970657242
:10418000663a2041525020756e61626c6520746ff2
:10419000207265736f6c766520746865204d4143ad
:1041a0002061646472657373206f662072656d6f41
:1041b000746520736964652e0d0a0000202020209c
:1041c0002d2052656d6f74654e6f6465204d4143bf
:1041d0003a202578202578202578202578202578f4
:1041e0002025780d0a00000069706572663a205338
:1041f0006574206f6620545820627566666572206b
:1042000073697a65206661696c65640d0a00000057
:1042100069706572663a20536574206f6620545841
:104220002071756575696e67206c696d69742066ab
:1042300061696c65640d0a0069706572663a2043b5
:104240006c69656e7420636f6e6e656374696e670a
:1042500020746f2025752e25752e25752e25752c1d
:104260002055445020706f72742025750d0a00008f
:1042700069706572663a20436c69656e7420636f7d
:104280006e6e656374696e6720746f2025752e25c8
:10429000752e25752e25752c2054435020706f7275
:1042a000742025750d0a000069706572663a205405
:1042b000435020436c69656e7420636f6e6e656356
:1042c00074696f6e2074696d656f75740d0a0000f6
:1042d0003a20697065726620636f6d6d616e6473fc
:1042e0000000000069706572660000003a20203c02
:1042f00069706572663e20737461727420636d64c8
:104300000000000069706572666b00003a203c692d
:10431000706572666b3e206b696c6c20636d640027
:1043200069706572666900003a203c697065726662
:104330006920616464726573733e2020696e7465e0
:10434000726661636520636d640000006970657268
:10435000667300003a203c69706572667320747859
:104360002f72782073697a653e2074782f727820d6
:0c43700073697a6520636d64000000bf73
:020000040000fa
:10437c00d05300201c00000000000000544400201a
:10438c000400000000000000dc51002004000000cc
:10439c0000000000a44f00206c0000000000000092
:1043ac00c45600200100000000000000b84a0020a4
:1043bc00d40000000100000094e3010000000000a4
:1043cc0000000000000000000000000000000000e1
:1043dc0000000000000000000000000000000000d1
:1043ec0000000000000000000000000000000000c1
:1043fc0000000000000000000000000000000000b1
:10440c0000000000000000000000000000000000a0
:10441c000000000000000000000000000000000090
:10442c000000000000000000000000000000000080
:10443c000000000000000000000000000000000070
:10444c000000000000000000000000000000000060
:10445c000000000000000000000000000000000050
:10446c000000000000000000000000000000000040
:10447c000000000000000000000000000000000030
:10448c00000000000000000000000000cf530020de
:10449c000100000001000000ff0000002c53002070
:1044ac000400000000000000b04e0020800000005e
:1044bc0000000000585100204400000000000000e3
:1044cc00000000209011000000000000c0560020e9
:1044dc000100000000000000245500200400000032
:1044ec0000000000605400201000000000000000dc
:1044fc00cc4700200c0100000000000028550020d3
:10450c00040000000000000070500020500000006b
:10451c00000000002c5500200400000000000000ea
:10452c004c4c0020a400000000000000304f002084
:10453c007400000000000000705400201000000007
:10454c0000000000904d00209000000000000000d2
:10455c00a03f002080020000000000003055002029
:10456c00040000000000000034550020040000008e
:10457c00000000003855002004000000000000007e
:10458c003c550020040000000000000040550020b5
:10459c00040000000000000044550020040000004e
:1045ac00000000004855002004000000000000003e
:1045bc004c55002004000000000000005055002065
:1045cc00040000000000000054550020040000000e
:1045dc0000000000b05400200c000000000000009f
:1045ec00085400201800000000000000ec530020cc
:1045fc001c000000000000005855002004000000c2
:10460c00000000005d5400200100000000000000cc
:10461c005c550020040000000000000060550020e4
:10462c000400000001000000ffffffffb852002053
:10463c002800000001000000bb010300d1010100b3
:10464c004b020100330203007c020300dd03030074
:10465c00de030300e0030300e1030100b3220100c9
:10466c0020540020180000000000000064550020b9
:10467c000400000000000000685500200400000049
:10468c00000000006c550020040000000000000039
:10469c0002550020020000000000000070550020b0
:1046ac00040000000000000090310020d007000042
:1046bc000000000074550020040000000000000001
:1046cc007855002004000000000000007c550020fc
:1046dc0004000000000000008055002004000000d1
:1046ec000000000022550020020000000000000025
:1046fc0084550020040000000000000088550020b4
:10470c0004000000000000004c54002011000000c8
:10471c0000000000b05300201f000000000000004b
:10472c008c5500200400000000000000ae56002054
:10473c000200000000000000905500200400000062
:10474c000000000094550020040000000000000050
:10475c009855002004000000000000009c5500202b
:10476c0004000000000000005e5400200200000065
:10477c0000000000a0550020040000000000000014
:10478c00a45500200400000000000000aa560020e0
:10479c000200000000000000a855002004000000ea
:1047ac0000000000ac5500200400000000000000d8
:1047bc00b05500200400000000000000b45500209b
:1047cc000400000000000000a956002001000000b9
:1047dc0000000000b855002004000000010000009b
:1047ec0064000000bc550020040000000000000024
:1047fc00c0550020040000000000000020520020e2
:10480c003800000000000000c45500200400000027
:10481c0000000000c855002004000000000000004b
:10482c00cc5500200400000000000000d0550020f2
:10483c000400000000000000d4550020040000001b
:10484c0000000000d855002004000000000000000b
:10485c00dc5500200400000000000000bc540020c7
:10486c000c0000000000000080540020100000002c
:10487c0000000000b1560020010000000000000004
:10488c00b25600200200000000000000b6560020c6
:10489c000200000000000000e055002004000000b1
:1048ac0000000000905400201000000000000000e8
:1048bc00e45500200400000000000000e855002032
:1048cc000400000000000000ec5500200400000073
:1048dc0000000000f85400200a0000000000000056
:1048ec00f05500200400000000000000f4550020ea
:1048fc000400000000000000f85500200400000037
:10490c0000000000fc550020040000000000000026
:10491c000056002004000000000000000456002097
:10492c0004000000000000000856002004000000f5
:10493c0000000000b856002002000000000000003b
:10494c000c5600200400000000000000105600204f
:10495c000400000000000000b5560020010000001b
:10496c000000000010510020480000000000000072
:10497c001c5500200600000001000000ffffffff97
:10498c00ffff00001456002004000000000000008f
:10499c001856002004000000000000001c560020e7
:1049ac000400000000000000ba56002002000000c5
:1049bc0000000000bc5600200200000000000000b7
:1049cc0020560020040000000000000024560020a7
:1049dc000400000000000000285600200400000025
:1049ec0000000000c1560020010000000000000083
:1049fc002c5600200400000000000000e0490020bc
:104a0c00d8000000000000005852002034000000c4
:104a1c0000000000305600200400000000000000e0
:104a2c00c256002001000000000000003456002097
:104a3c000400000000000000603900204006000067
:104a4c0000000000c85400200c0000000000000012
:104a5c00d45400200c00000000000000204e002068
:104a6c0090000000000000003856002004000000f8
:104a7c00000000003c560020040000000000000074
:104a8c0040560020040000000000000020420020de
:104a9c0034020000000000006446002068010000a1
:104aac000000000030530020200000000000000037
:104abc005053002020000000000000007053002024
:104acc002000000000000000c35600200100000080
:104adc00000000008c5200202c00000000000000a0
:104aec009011002000080000000000009019002028
:104afc0000080000000000009c5100204000000055
:104b0c000000000004550020080000000000000018
:104b1c000c55002008000000000000004456002046
:104b2c000400000000000000c55600200100000039
:104b3c000000000090210020000800000000000090
:104b4c004856002004000000000000004c560020d5
:104b5c0004000000000000008c4b0020c00000008e
:104b6c0000000000145500200800000000000000a8
:104b7c00e05400200c0000000000000090290020f0
:104b8c000008000000000000c656002001000000d4
:104b9c0000000000c75600200100000000000000cb
:104bac005056002004000000000000005456002065
:104bbc000400000000000000e05100204000000054
:104bcc0000000000f04c0020a000000000000000dd
:104bdc00be56002002000000010000000100000091
:104bec005856002004000000000000005c56002015
:104bfc0004000000000000006056002004000000cb
:104c0c0000000000645600200400000000000000ba
:104c1c00c85600200100000000000000d848002009
:104c2c000801000000000000e052002028000000f5
:104c3c0000000000085300202400000000000000c9
:104c4c00b45600200100000000000000685600204f
:104c5c000400000000000000905300202000000021
:104c6c0000000000b0560020010000000000000011
:104c7c00ec5400200c00000001000000f4010000c6
:104c8c00d007000001000000385400201400000080
:104c9c0001000000080008000200010002000800ea
:104cac000006000601015400a05400201000000072
:104cbc0001000000010100001d100100e560010071
:104ccc0000000100ac5600200200000001000000b2
:104cdc0000010000105000206000000000000000e7
:104cec006c560020040000000000000070560020ec
:104cfc0004000000000000007456002004000000b6
:104d0c0000000000a8560020010000000000000078
:104d1c007856002004000000000000007c560020a3
:104d2c000400000000000000805600200400000079
:104d3c000000000084560020040000000000000069
:104d4c008856002004000000000000008c56002053
:104d5c00040000000100000001000000905600203b
:104d6c000400000000000000c050002050000000b3
:104d7c0000000000584400200c020000000000005d
:104d8c0094560020040000000000000098560020fb
:104d9c0004000000000000009c56002004000000ed
:104dac0000000000a05600200400000000000000dd
:104dbc00a4560020040000000000000000000000c9
:104dcc00000000002222222222222222222222223f
:020000040000fa
:104ddc0030b585b0044690f99030002b40f00f812f
:104dec000378012b04bf0023037090f8d430042bfc
:104dfc0000f22e84dfe813f005008b00d9001b01b4
:104e0c00110390f90830b3f1ff3f57d090f8fc2014
:104e1c00012a22d051b229b1022a43d0ff2380f8b3
:104e2c009030dce003f01f01c3f34a1303f50200da
:104e3c0000f580700022012303fa01f1c0011ff07c
:104e4c00f1fa1ff0bdfc1bf08bfdc4f8dc0094f8ec
:104e5c00fc30013384f8fc30cfe01ff0b1fc1bf0c8
:104e6c007ffdd4f8dc30984200f0c78094f908300c
:104e7c0003f01f0201219140c3f34a1303f5020012
:104e8c0000f580700a46c0011ff0ccfa1ff098fca8
:104e9c001bf066fdc4f8dc0094f8fc30013384f898
:104eac00fc30aae01ff08cfc1bf05afdd4f8dc306f
:104ebc00c31a062b94bf002501258fe090f8fc3017
:104ecc002bb1012b16d0ff2380f8903087e0002304
:104edc000193b44a009201220321d0f8ec001df09a
:104eec00a5ff002800f0898094f8fc30013384f889
:104efc00fc3082e000230193aa4b009301231a4655
:104f0c000321d0f8ec001df091ff054666e0d0f8c7
:104f1c00ec0094f8fc30042b43d8dfe813f00500c8
:104f2c009d0313009d033300002200929e4b012130
:104f3c001ef0b2f9002860d094f8fc30013384f8ec
:104f4c00fc305ae0d4f8e4309a0ac3f30913b2f5f2
:104f5c00f87f01d11b2b07d09449002017f0f6fde8
:104f6c00ff2384f890303ae0002200928e4b904957
:104f7c001ef092f9002840d094f8fc30013384f8ec
:104f8c00fc303ae0d4f8e43003f00f0384f8fe3040
:104f9c002bbb8849002017f0d9fdff2384f89030f3
:104fac001de0ff2384f8903027e090f8fc10c1f14d
:104fbc00200200230093804b92b2804800eb011139
:104fcc00d4f8ec0014f048fa94f8fc500544edb217
:104fdc0084f8fc50202d14bf002501256db1002351
:104fec0084f8fc3094f8d4300133dbb284f8d4303c
:104ffc00052b04bf022384f890300123237094f90d
:10500c009030022b00f02a8394f804316bb1237892
:10501c00012b00f04d83002384f804310121d4f8d6
:10502c00ec0007f047f80123237005b030bdd0f831
:10503c00ec0094f8fc302e2b00f2e881dfe813f042
:10504c002f002f002f002f002f00e601e601e601b4
:10505c00e601e60148004800480048004800e60127
:10506c00e601e601e601e6016e006e006e006e00e0
:10507c006e00e601e601e601e601e6018900eb01be
:10508c009b00eb01c600eb01dc00eb01f200eb0135
:10509c00080130014d0171019601bb01db01009348
:1050ac00402303aa0521204613f08efd0546002857
:1050bc0094d0039b23b10a2384f8fc3000258de7a0
:1050cc003f49002017f042fdff2384f8903085e71c
:1050dc000a3bdbb200931f2303aa0421204613f0e2
:1050ec0073fd054600283ff479af039b13f0100fb6
:1050fc0018bf43f0e0035bb284f8f03013f1050ff6
:10510c0004db142384f8fc30002567e72c490020cd
:10511c0017f01cfdff2384f890305fe7143bdbb2e3
:10512c0000931f2303aa0821204613f04dfd0546ca
:10513c0000283ff453af039b13f0100f18bf43f03c
:10514c00e0035bb284f8f1301e2384f8fc300025b8
:10515c0044e700230093144b01221a491ef09cf8db
:10516c00054600283ff43aaf94f8fc30013384f83c
:10517c00fc30002532e7d4f8e430a4f8f2300023f8
:10518c000093094b012210491ef086f805460028b1
:10519c003ff424af94f8fc30013384f8fc30002544
:1051ac001ce700bfb7640100551e0200385d00000b
:1051bc0094000a00605d0000a13e020034f800007b
:1051cc00785d0000840004008a000400d4f8e43008
:1051dc00a4f8f43000230093ba4b0122ba491ef014
:1051ec005bf8054600283ff4f9ae94f8fc30013327
:1051fc0084f8fc300025f1e6d4f8e430a4f8f6305d
:10520c0000230093af4b0122b0491ef045f8054630
:10521c0000283ff4e3ae94f8fc30013384f8fc3002
:10522c000025dbe6d4f8e430a4f8f8300023009332
:10523c00a44b0122a6491ef02ff8054600283ff486
:10524c00cdae94f8fc30013384f8fc300025c5e673
:10525c00d4f8e430a4f8fa3094f9f0309bb203f1ae
:10526c00090291b203f10e0292b2120142ea8122ba
:10527c00b4f8f23003f00f031a43002301930093a8
:10528c00012392b293491df0d1fd054600283ff44d
:10529c00a5ae94f8fc30013384f8fc3000259de673
:1052ac0094f9f13028339bb2b4f8f420c2f309021c
:1052bc0042ea8322002301930093012392b2864990
:1052cc001df0b4fd054600283ff488ae94f8fc3080
:1052dc00013384f8fc30002580e694f9f0309bb261
:1052ec005a1d91b2b4f8f62022f47c5222f03f02ff
:1052fc0042ea012212b292b209331a4300230193fb
:10530c000093012392b270491df090fd05460028d0
:10531c003ff464ae94f8fc30013384f8fc30002583
:10532c005ce694f9f0309bb203f1090291b2b4f847
:10533c00f82022f47c5222f03f0242ea012212b2ff
:10534c0092b20e331a43002301930093012392b2bd
:10535c005e491df06bfd054600283ff43fae94f806
:10536c00fc30013384f8fc30002537e694f9f0303a
:10537c009bb203f1110291b2b4f8fa2022f47c52e0
:10538c0022f03f0242ea012212b292b216331a43c1
:10539c00002301930093012392b24d491df046fd69
:1053ac00054600283ff41aae94f8fc30013384f81b
:1053bc00fc30002512e694f8fe5000230193009374
:1053cc00012345f6217243f631719d4218bf0a46fe
:1053dc0042491df02bfd054600283ff4ffad94f823
:1053ec00fe30012b3ff4faad94f8fc30013384f815
:1053fc00fc300025f2e500230193009301234ff4c8
:10540c00404237491df012fd0546e7e5ff2384f8bd
:10541c0090300025e2e50025e0e5d0f8ec0094f8aa
:10542c00fc30092b00f21081dfe813f00a00250094
:10543c003a00640077009600ad00cc00e500020154
:10544c00637e1bb9042384f8fc30d6e5a17d627d14
:10545c0000230193234b0093012342ea01222249aa
:10546c001df0e4fc00283ff4c8ad94f8fc30013387
:10547c0084f8fc30c1e5e17d227e00230193194bb9
:10548c000093012342ea012218491df0cffc0028a9
:10549c003ff4b3ad94f8fc30013384f8fc30ace548
:1054ac00002301930f4b00930123832210491df01d
:1054bc00bdfc00283ff4a1ad94f8fc30013384f816
:1054cc00fc309ae5551e0200ad000400ae0004004d
:1054dc00af000400840004008a000400d000040023
:1054ec00e0000400a13e020002ca040005ca040048
:1054fc008700040000230193864b009301234ff493
:10550c00004285491df092fc00283ff476ad94f8da
:10551c00fc30013384f8fc306fe594f8953094f846
:10552c009420120442ea036294f892301a4394f8dd
:10553c00931000230193774b0093012342ea01223d
:10554c0076491df073fc00283ff457ad94f8fc30fd
:10555c00013384f8fc3050e594f8971094f89620b9
:10556c00002301936b4b0093012342ea01226c4907
:10557c001df05cfc00283ff440ad94f8fc30013386
:10558c0084f8fc3039e594f8973094f8962012049e
:10559c0042ea036294f894301a4394f8951000236d
:1055ac0001935c4b0093012342ea01225d491df0fb
:1055bc003dfc00283ff421ad94f8fc30013384f815
:1055cc00fc301ae5a37e002b4ff000030193514be6
:1055dc0000934ff0010314bf102200224ff0011171
:1055ec001df024fc00283ff408ad94f8fc30013386
:1055fc0084f8fc3001e5e17e49f2260249f22623cb
:10560c00002918bf1a46237f0bb142f48072002385
:10561c000193404b0093012304211df007fc00284b
:10562c003ff4ebac94f8fc30013384f8fc30e4e448
:10563c00002301933c4b009301230c224ff4803147
:10564c001df0f4fb0546c9e4ff2384f89030c6e452
:10565c00ff2380f89030d0e40025bfe4637e53bb79
:10566c00d4f8e830002b43d194f90750c5f34a1015
:10567c0000f5020000f58070c0011ff0fef805f087
:10568c001f0520fa05f515f0010f7ff4bdac23784a
:10569c00012b04bf002323700021d4f8ec0006f08a
:1056ac0009fd0123237094f80431002b3ff4bdaca9
:1056bc0000232370afe41ff083f81bf051f9d4f8ea
:1056cc00e030c31ab3f57a7fcad3c4f8e00023786c
:1056dc00012b04bf0023237000230093134b0122e2
:1056ec001349d4f8ec001df0d7fd01232370b7e764
:1056fc001ff066f81bf034f9d4f8e830c01a6328b0
:10570c00b2d90023c4f8e830d4f8ec001ef0c3ff83
:10571c00aae700bfa13e020001ca04002400010058
:10572c002500010022000100ed390200ab2b020024
:04573c0003ca040098
:020000040000fa
:10574000436869702d5265766973696f6e00000059
:10575000504c43412d456e61626c65640000000051
:10576000504c43412d53746174757300504c434148
:105770002d4e6f6465496400504c43412d4e6f645b
:1057800065436f756e740000504c43412d42757235
:105790007374436f756e7400504c43412d427572a3
:1057a000737454696d6572005443362d4368756e89
:1057b0006b53697a6500000054582d437574546822
:1057c000726f75676800000052582d4375745468f5
:1057d000726f75676800000050726f6d6973637552
:1057e0006f757300535049204672657175656e631d
:1057f000790000005b736b697070656420256c75bf
:105800005d0d0a002573000053657474696e67208e
:105810006661696c65642c20616464723d30782532
:10582000580d0a00537461747573302e5472616e92
:10583000736d69742050726f746f636f6c20457262
:10584000726f720d0a000000537461747573302e0c
:105850005472616e736d697420427566666572205c
:105860004f766572666c6f77204572726f720d0aa3
:1058700000000000537461747573302e5472616eb1
:10588000736d69742042756666657220556e646535
:1058900072666c6f77204572726f720d0a0000009d
:1058a000537461747573302e526563656976652033
:1058b000427566666572204f766572666c6f7720fa
:1058c0004572726f720d0a00537461747573302ed5
:1058d0004c6f7373206f66204672616d696e67202e
:1058e0004572726f720d0a00537461747573302eb5
:1058f000486561646572204572726f720d0a00001e
:10590000537461747573302e526573657420436fe0
:105910006d706c6574650d0a00000000537461744d
:105920007573302e50485920496e746572727570c7
:10593000740d0a00537461747573302e5472616e65
:10594000736d69742054696d657374616d70204363
:1059500061707475726520417661696c61626c6515
:1059600020410d0a00000000537461747573302edd
:105970005472616e736d69742054696d65737461de
:105980006d70204361707475726520417661696c39
:1059900061626c6520420d0a00000000537461745e
:1059a0007573302e5472616e736d69742054696d15
:1059b000657374616d702043617074757265204108
:1059c0007661696c61626c6520430d0a000000001d
:1059d000537461747573302e5472616e736d697493
:1059e000204672616d6520436865636b2053657165
:1059f00075656e6365204572726f720d0a00000056
:105a0000537461747573302e436f6e74726f6c20b3
:105a1000446174612050726f74656374696f6e20a5
:105a20004572726f720d0a00537461747573302e73
:105a3000556e6b6e6f776e204269743d25642072df
:105a400065672d76616c3d307825640d0a00000095
:105a5000436f6e666967302072656769737465723b
:105a60002072656164206661696c65640d0a0000de
:105a7000537461747573312e52585f4e6f6e5f525e
:105a800065636f76657261626c655f4572726f7295
:105a90000d0a0000537461747573312e54585f4eb3
