:020000040000fa
:10000000f0ff0320fd02020013e6010043ff0100a0
:100010008f1402000f1c02000721020000000000e4
:10002000000000000000000000000000ffc501000b
:100030003309020000000000ffc50100ffc50100f8
:10004000ffc50100ffc50100ffc50100ffc501009c
:10005000ffc50100ffc50100ffc50100ffc501008c
:10006000ffc50100ffc50100ffc50100ffc501007c
:10007000ffc50100ffc50100ffc50100ffc501006c
:10008000ffc50100ffc50100ffc50100ffc501005c
:10009000ffc50100ffc50100ffc50100ffc501004c
:1000a000ffc50100ffc50100ffc50100ffc501003c
:1000b000ffc50100ffc50100ffc5010063b70200d5
:1000c0006db70200ffc50100ffc50100ffc50100bb
:1000d000ffc50100ffc50100ffc50100ffc501000c
:1000e000ffc50100ffc50100000000000000000086
:1000f00000000000ffc50100c5450100c545010025
:10010000c5450100c5450100f5400200f54002006b
:10011000f5400200f5400200ffc50100ffc50100e7
:10012000ffc50100ffc50100ffc50100ffc50100bb
:10013000ffc50100ffc50100ffc50100ffc50100ab
:10014000ffc50100ffc50100ffc50100ffc501009b
:10015000ffc50100ffc50100ffc50100ffc501008b
:10016000ffc50100ffc50100ffc50100ffc501007b
:10017000ffc50100ffc50100ffc50100ffc501006b
:10018000ffc50100ffc50100ffc50100ffc501005b
:1001900025870200ffc50100ffc50100ffc5010062
:1001a000ffc50100ffc50100ffc50100ffc501003b
:1001b000ffc50100ffc50100ffc50100ffc501002b
:1001c000ffc50100ffc50100ffc50100ffc501001b
:1001d000ffc50100ffc50100ffc50100ffc501000b
:1001e000ffc50100ffc50100ffc50100dd88020059
:1001f000ffc50100ffc50100ffc50100ffc50100eb
:10020000ffc50100ffc50100ffc50100ffc50100da
:10021000ffc50100ffc50100ffc50100ffc50100ca
:10022000ffc50100ffc50100ffc50100ffc50100ba
:10023000ffc50100ffc50100ffc50100ffc50100aa
:10024000ffc50100ffc50100ffc50100ffc501009a
:10025000ffc50100ffc50100ffc50100ffc501008a
:04026000ffc50100d5
:020000040000fa
:10026400f8b500bff8bc08bc9e467047b1630200f5
:10027400f8b500bff8bc08bc9e4670478d63020009
:020000040000fa
:0802840094d700000100000006
:020000040000fa
:10028c002de9f04f8db00f210a2028f06dfd029062
:10029c0010f0010f40f05d85029b13f0020f40f04f
:1002ac007c850db0bde8f08fd9f8187007f11002fd
:1002bc00059213f4007f21d1fb6809933b690a93e3
:1002cc0000228df82c2006238df82d30330a43eaba
:1002dc000623adf82e300c2109a821f07fffc04376
:1002ec0083b2d9f8202012f0040f30d032464146a8
:1002fc00484620f0d7fa002840f09a86404622f073
:10030c0081fc98f80ca04fea1a1a4fea8a0304935e
:10031c00d9f81ca0baf80220002a00f08c86fd89be
:10032c00bb891d44baf800301d445540adb2c74bd3
:10033c00d3f800c0bcf1000f00f08086d9f828e09b
:10034c00c34b1b68039300239b4610460ee01a46d2
:10035c003146404621f042ffcde7b4f8722082428c
:10036c002fd001331bb21c469c452fd9039a52f84f
:10037c002440002cf5d094f876200b2af1d094f878
:10038c0077100129edd8a16c09b18e45e9d1002a6d
:10039c00e3d0b4f87220aa42e3d1daf80010226e4e
:1003ac009142ded1216cfa689142dad1012184f8b4
:1003bc007710c4f848e0059a204627f0c6f9a34602
:1003cc0022e0bbf1000f08bfa346cae7bbf1000f48
:1003dc0000f08380fb68cbf8403001218bf877105c
:1003ec00cbf848e0059a584627f0aff9abf87250b5
:1003fc00baf80030abf86030baf80230abf86230c3
:10040c00dbf80030cbf81030d9f810209389049920
:10041c005b1a938198f80d40d8f80870d8f80450fe
:10042c009bf83f3013f0400f5bd19bf875306ff3a6
:10043c0000038bf875309bf87630002b69d0012bbc
:10044c0000f09e801436049aa6eb020a1ffa8afa70
:10045c00aaf1140292b2059214f0010206921abf8c
:10046c00aaf1130a1ffa8af2059a039214f0020fea
:10047c0003d0039a013292b20392dbf81c60dbf8d2
:10048c0020209642c0f0aa80dbf81810dbf814008c
:10049c00091aa6eb020aa1eb0a0a1ffa8af20492c5
:1004ac00dbf85820a5eb020a039a002a00f0a98079
:1004bc00049a002a00f0a080baf1000fc0f29680d6
:1004cc009245c0f0a780039a04998a1a8a45c0f213
:1004dc00a180924540f39e808ee06ff00e0100f0fb
:1004ec0034bc00238bf879309bf83e3013f0020fac
:1004fc009bd128f03dfdbbf87020564b1b6803fbcd
:10050c0002f3554aa2fb032300eb9310cbf8240013
:10051c008be714f0040f1ad114f0100f1dd114f046
:10052c00020f27d00135cbf8585040461cf004f888
:10053c00abf86a00584626f0fef901221221584603
:10054c0005f06efb02238bf876300026e6e30021e3
:10055c00584614f0b3fe0026e0e3cbf854700022aa
:10056c000421584605f05cfb0021584614f0a6fe09
:10057c000026d3e30021584614f0a0fe0026cde35c
:10058c0014f0040f40f0c98314f0100f00f0a08594
:10059c00dbf85460b74205d114f0020f40f05585da
:1005ac000026bbe3cbf8547001220421584605f019
:1005bc0037fbcbf854600026b0e328f0d9fcbbf82d
:1005cc007020244b1b6803fb02f3234aa2fb03237a
:1005dc0000eb9313cbf8243000f056bda2eb060ac7
:1005ec000af1ff3a1ffa8af2049259e703990a4674
:1005fc00514400293ff768af14f0040f1fd00026b8
:10060c008ce3baf1000f05d0baf1000ff4db049ab9
:10061c009245f1da14f0060f20d114f0100f00f00f
:10062c009083023b072b00f2cc81dfe813f029000a
:10063c003e003e003e003e00ca013e00bd010122cc
:10064c001021584605f0ecfa002667e344cf002051
:10065c0040cf002048cf0020d34d621014f0040f7f
:10066c0008d09bf83f3043f002038bf83f304ff437
:10067c00006600e000260021584614f01ffe4de3f2
:10068c00dbf85460b74205d103238bf876304ff476
:10069c0080760be0cbf8547001220421584605f00b
:1006ac00bffacbf85460002638e30026dbf81010b4
:1006bc00dbf808305a1a13d4dbf854003b1a9b1a97
:1006cc00002b1dddbbf8742002f40172042a01d149
:1006dc00012b0cd000221021584605f0a1fa1de385
:1006ec00dbf80430dbf800001b1a1a44e4e7013095
:1006fc00cbf854009bf8753043f002038bf875303f
:10070c00dbf85430dbf80c20881a914249d2dbf824
:10071c000420dbf80010521afb1a0344d318079379
:10072c00002b07dddbf80430dbf800209b1a079a5e
:10073c009a4246d9dbf83830002b40f0a280dbf827
:10074c000c20dbf808309a4200f0d980b8f80e3053
:10075c00bbf86e209a4238bfabf86e30dbf85420f1
:10076c00b8f80e303b449b1a9bb2bbf8641031b9fd
:10077c002bb19bf83e1041f040018bf83e10abf8ca
:10078c0064309bf87630042b00f0f080062b40f0a0
:10079c001981974240f0c2820021584614f08efd18
:1007ac00bce2fb1a03440793002b07dddbf8043093
:1007bc00dbf800001b1a0798984202d99142bed070
:1007cc00b8e740f2dc53cbf8343028f0d1fbdbf83f
:1007dc003420c44b1b6803fb02f3c34aa2fb032364
:1007ec0000eb9313cbf838309bf83e306ff3451386
:1007fc008bf83e30dbf80c10079b0b44cbf80c301d
:10080c00dbf8102091420ed893421cd99a1adbf8cf
:10081c0054100a44cbf85420cbf81030dbf80420e9
:10082c00934224d313e0dbf80410dbf80000091a20
:10083c000a44934207d99a1adbf854100a44cbf8ad
:10084c005420cbf81030dbf80420934205d3dbf8ae
:10085c000010511a5b1acbf80c30dbf810309342b5
:10086c0005d3dbf80010521a9a1acbf810209bf81b
:10087c007630032b02d0082b7ff461af46f00406d0
:10088c005de728f075fbdbf83830c31a002bfff658
:10089c0056afdbf834305b00b3f57a4f28bf4ff41a
:1008ac007a43cbf8343028f063fbdbf834208d4be3
:1008bc001b6803fb02f38c4aa2fb032300eb93138c
:1008cc00cbf83830dbf81010dbf80c20881adbf88a
:1008dc0054301b1acbf85430914207d2dbf8041079
:1008ec00dbf80000091a5b1acbf85430cbf8102057
:1008fc009bf83e3043f080038bf83e301fe79bf8ab
:10090c003f3013f0010f19d113f0400f06d19bf8b3
:10091c003e306ff341038bf83e3017e728f028fb8d
:10092c00bbf870206f4b1b6803fb02f34ff47a7219
:10093c00b3fbf2f30344cbf82430e8e7dbf8543094
:10094c009f427ff403af9bf8743013f0040f3ff415
:10095c00fdae9bf83e306ff341038bf83e309bf8b5
:10096c003f306ff300038bf83f30efe6974203d034
:10097c0014f0200f35d0d1e19bf8743013f0040f34
:10098c00f6d028f0f5fa574b1a6841f2883303fb7e
:10099c0002f34ff47a72b3fbf2f30344cbf830302a
:1009ac0005238bf87630e3e7dbf8543001339f42b4
:1009bc0001d00026b2e10021584614f07ffc00263d
:1009cc00ace1002614f0200f40f0a8819bf87620b3
:1009dc00a2f10803dbb2012b40f2a081062a00f041
:1009ec009d81059a002a3fd0baf1000f7edd059b50
:1009fc005344049a934203dda2eb0a039bb2059382
:100a0c0098f80c301b0908eb83030893dbf81c10d7
:100a1c00dbf81830059a52440a44934280f0f48073
:100a2c005a1a0132b2eb0a0200f1df801ffa82f887
:100a3c0001240094434608a802465144484620f03d
:100a4c0099fd0490059aa2eb080300949bb208aaa6
:100a5c00dbf81410484620f08dfd049b034498b23b
:100a6c00059b834200f0d980039bcbb19bf8763079
:100a7c00033bdbb2022b84bfdbf81c30cbf82030fd
:100a8c009bf83e3013f0100f40f0fa809bf83e308c
:100a9c0043f010038bf83e3013f0080f00f0f68093
:100aac00069b002b00f03a81dbf858300133039a97
:100abc002a44934240f03281cbf8583046f4806699
:100acc009bf83f3043f004038bf83f309bf87630b3
:100adc00023b032b00f20781dfe813f0ec00f5007a
:100aec00fe00150148cf0020d34d621098f80c3051
:100afc001b09caeb830343440893524493b2049af0
:100b0c009a4228bf1a469246dbf81c10dbf81830c4
:100b1c008a18934259d25b1a01330493bdf81080a2
:100b2c0001240094434608aa484620f023fd059072
:100b3c00aaeb080300949bb208aadbf814104846f1
:100b4c0020f018fd059a024490b2049baaeb030313
:100b5c00dbf814201344504586d1dbf8581051446f
:100b6c00cbf85810cbf81c309bf87620033ad2b255
:100b7c00022a98bf46f40076dbf85c20b2f1ff3f06
:100b8c003ff472afa2eb0a0acbf85ca0bbf868206a
:100b9c0012eb0a0224d4baf1000f3ff765af1144ef
:100bac00cbf858101344cbf81c30dbf818209342c8
:100bbc0006d9dbf81410521ad2431344cbf81c306c
:100bcc004ff0ff33cbf85c304ee7012300935346d4
:100bdc0008aa484620f0cefcdbf81c305344bae798
:100bec004ff0ff33cbf85c303ee70af1ff30dbf817
:100bfc0014209b1ac01a01230093059b08aa0144d8
:100c0c00484620f0b7fc2be701230093059b08aa6c
:100c1c005144484620f0aefc22e7dbf85c30b3f1df
:100c2c00ff3f15d09a4519d2059a02eb0a01bbf881
:100c3c006820d018814205d88b4203d8a0eb0a0358
:100c4c009bb20593059babf86830cbf85ca00be727
:100c5c00cbf85ca0059babf8683005e7bbf86820c7
:100c6c001a4405980146514491427ff6fdae9245d7
:100c7c003ff6faaeaaeb03031844abf86800f3e6b0
:100c8c0001221021584604f0cbff09e7dbb243f0f8
:100c9c0008038bf83e3028f06bf9b14b1a686423cb
:100cac0003fb02f34ff47a72b3fbf2f30344cbf879
:100cbc002c30f5e609238bf87630012211215846a9
:100ccc0004f0aeff2ae008238bf876309bf87530e1
:100cdc0013f0010f07d021e0dbf854309f4208d00d
:100cec0006238bf8763001221021584604f098ff29
:100cfc0014e000221021584604f092ff00215846bf
:100d0c0014f0dcfa0ae000221021584604f088ffa7
:100d1c000021584614f0d2fa00e00026bbf87a20e5
:100d2c00324000f08e81dbf87c40002c00f08b818f
:100d3c00dbf88030d9f82810bbf93c00a047022121
:100d4c0003e00026eae76ff00d010a22484627f07f
:100d5c00f5f80a2029f0e8fd814600283ff49caa0a
:100d6c00b9f82c60132eeed9d9f81c8098f80c30f9
:100d7c001b09042b0bd9b6eb830f0bdbd9f82030f6
:100d8c0013f400343ff490aa6ff00e01dde76ff01e
:100d9c000d01dae76ff00d01d7e7724b1b68002be2
:100dac003ff47faa00252b46dff8bc91dff8bca1ed
:100dbc00dff8b081e6e028f0dbf8a36ac01a00285f
:100dcc00a8bf1026f4e028f0d3f8e36ac01a002874
:100ddc00c0f2f48094f87630052b00f08a8110264e
:100dec0087f001023146204604f01affeee028f0ad
:100dfc00bff8236bc01a0028c0f2e5800122142131
:100e0c00204604f00dff0021204614f057fab1e003
:100e1c0094f83e6006f00106012120461cf0bffe4e
:100e2c0094f83e3043f0010384f83e304ff4805286
:100e3c000021204623f08afe002e40f09b8094f87f
:100e4c003e306ff3000384f83e300a2384f876308a
:100e5c0090e028f08df8636ac01a0028c0f28a80ee
:100e6c0094f876104b1e082b00f28280dfe803f01a
:100e7c000541556080688080700094f87830032bb1
:100e8c0040f22b81042384f87830354b1a684ff4e8
:100e9c007a7303fb02f3aafb03239b091b01236553
:100eac000221002694f87830013384f87830236dd1
:100ebc005b0023652069e268831a9bb2904204d2de
:100ecc0060682768c01b03449bb2606dc01a6065e4
:100edc00b4f864000344a4f8643022610022204674
:100eec0004f09efe002e45d00021204614f0e6f9b9
:100efc0040e094f87830022b40f2f18094f83e6098
:100f0c0006f001031e46002b18bf1421002fc9d177
:100f1c000122204604f084fee4e794f87830042b98
:100f2c0040f2df80042384f8763011210026ede7af
:100f3c0094f87830042b40f2d68014210126e5e792
:100f4c0094f87830042b40f2d08014210126dde790
:100f5c0094f87830042b40f2ca8014210126d5e78e
:100f6c0048cf002044cf002040cf0020d34d62104a
:100f7c00002e5ad101352db22b46d8f800209542bf
:100f8c00bff48fa9d9f8002052f82340002cf1d0df
:100f9c0094f876300b2bedd094f83e3013f0c0065d
:100fac001abfdf091026002713f0040f7ff403afdc
:100fbc0094f83e3013f0080f7ff405af94f87630b8
:100fcc00052b3ff414af002e7ff40aaf94f83e309b
:100fdc0013f0020f7ff43daf94f83f3013f0400f45
:100fec00c8d094f87630032bc4d127f0c1ff636ac4
:100ffc00c01a0028bedb94f8792094f884309a4209
:10100c003ff406af02221021204604f009fe27f01f
:10101c00afffb4f870203b4b1b6803fb02f3aafb39
:10102c00032300eb93106062a4e7314600266de7c2
:10103c006ff0090189e66ff00e0186e66ff00e0184
:10104c0083e6022181e602217fe60135cbf8585078
:10105c00b8f80e30abf86e30abf8643040461bf08d
:10106c006bfaabf86a00584625f065fc012210219a
:10107c00584604f0d5fd03238bf876309bf83f30af
:10108c0013f0400f7ff499aa9bf83e306ff34103a5
:10109c008bf83e304ff4807640e60135cbf8585053
:1010ac00b8f80e30abf86e30abf8643040461bf03d
:1010bc0043faabf86a00584625f03dfc0122122198
:1010cc00584604f0adfd02238bf87630002625e659
:1010dc0014f0020fe1d1002620e60221e1e61221f4
:1010ec00dfe61021dde61121dbe61021d9e6112126
:1010fc00d7e627f03dff236bc01a0028bff67eae63
:08110c0010266de648cf00201b
:020000040000fa
:101114002de9f04f2ded028b9bb00f21212027f0fc
:1011240027fe002800f0b8867d4b1b68002b40f397
:10113400b3867c4c0026dff820929fed7b8ab9e3ce
:10114400d4f8c4305d6894f8d1202ab3227c012af3
:1011540042d0022a61d1b4f93830b3f1ff3f25d02f
:101164000023724a4ff40071b4f9380027f0b6f93d
:10117400d4f8bc200221b4f9380015f00bfe30b9c4
:10118400d4f8c4301b681b6869492846984706216f
:10119400204623f067fb86e31b681b6865492846e5
:1011a40098470121204623f05dfb7ce304f1800293
:1011b400618a01201cf09cfe2087b0f1ff3fcfd153
:1011c400d4f8c4301b681b685b4928469847012142
:1011d400204623f047fb66e304f18002618a012084
:1011e4002af0b3faa087b0f1ff3f0ad00023534a94
:1011f4004ff4807127f044fb0321204623f032fb97
:1012040051e3d4f8c4301b681b684d4928469847fd
:101214000121204623f026fb45e31b681b6849494e
:10122400284698470121204623f01cfb3be3d4f8d1
:10123400c430d3f804b03b4be31adb1003ebc30216
:1012440003eb4203c3eb432303eb8343c3f1000ae1
:1012540097e0d4f8c4301b681b683b49584698474c
:101264000421204623f0fefa1de3b4f93c0028f0e3
:101274009afa18e30133c4f89430284628f0a4fa03
:1012840002460b46d4e908010df063fdc4e90801e8
:10129400002f19dba36ae26a511c8b4231d09342be
:1012a40020dc616b01f1010161632cd020e0d4f8f2
:1012b400c4301b685b68254958469847236b013b3b
:1012c400a26a1344236391e07f42a76227f054fe8d
:1012d400c4f88c00002384f8cc300421204623f089
:1012e400c1fad7e75b1a226b13442363a36ae36250
:1012f4000c3dadb2002d44d0dff858804ff4c867e0
:1013040036e0934206d1d4f8c4301b681b681049f8
:1013140058469847a36ae26a9342e9dde7e700bfcb
:1013240060cf0020c0c3002000007a4485ac0200d6
:101334007cad000034ad000058ad00006fac02007d
:10134400a4ad0000c8ad0000e0ad000000ae000098
:101354002cae0000eca8002078cb00203a46414691
:10136400b4f93c0019f06af8a5f5c865adb245b109
:10137400b5f5c86ff2d22a46d149b4f93c0019f048
:101384005df8b4f93c0027f057fd05460b2878d9e1
:101394000c224946b4f93c0019f050f80c287ff4ab
:1013a40058afd9f800301f0e47ea03671a0202f457
:1013b4007f0217431b0a03f47f431f43a762d4f839
:1013c4009430002b7ff456af002ffff64eaf01236d
:1013d400c4f89430d4f8c4301b685b685246b949e9
:1013e40058469847a26a002a7ff461afa36ae36271
:1013f40005a9b4f93c0017f037feb4f93c0029f014
:10140400d1fe28f0affc069dd4f8c4301b68628a74
:101414000292020e0192c0f3074200925f68c0f389
:101424000723c2b2a8495846b847d4f8c4301b6849
:10143400bdf8582002922a0e0192c5f30742009289
:101444005f68c5f30723eab2a0495846b847656404
:10145400bdf85830a4f8643027f08efdc4f8880035
:10146400c4f8a800a36ac4f89c30d4f89430c4f833
:101474009830236bc4f8a030b4f93c0028f093f9f9
:101484007fe7d4f894304bb994f8cf30012b40f077
:101494000a820421204623f0e5f904e227f06cfdda
:1014a400d4f8a830c31a22689342edd9d4f8942012
:1014b400d4f898309a4212d1d4f8c4301b681b680f
:1014c40083495846984727f057fdc4f88c000023f9
:1014d40084f8cc300421204623f0c4f9d4e7002159
:1014e40020460cf071fecfe7b4f93c0027f0a4fcd1
:1014f40038b994f8cf304bb10921204623f0b2f922
:10150400d1e1b4f93c0028f04ef9cce105212046a4
:1015140023f0a8f9c7e194f8cd30002b00f0bd808a
:10152400b4f93c0027f088fc002840f0be8094f811
:10153400cc305a1c84f8cc200a2b00f2bb808021ca
:10154400b4f93c002af05ef9002800f0ac81e36aab
:101554005b421a0e42ea0362190201f47f010a4354
:101564001b0a03f47f431343c9f800300025c9f86c
:101574000450c9f808508023c9f80c30c9f8105039
:10158400d4e9080128f064f8020e42ea006203027a
:1015940003f47f031a43030a03f47f431343c9f894
:1015a400143027f0fdfcd4f88c10d4f88830c91a14
:1015b400b1fbf0f31a0e42ea03621f0207f47f073d
:1015c4003a431f0a07f47f473a43c9f8182000fb3f
:1015d400131307ee103ab8ee477a27ee087a07eeaf
:1015e400900af8ee676ac7ee267a67ee887afcee10
:1015f400e77a17ee903a1a0e42ea0362190201f4ee
:101604007f010a431b0a03f47f431343c9f81c30c8
:10161400236b1a0e42ea0362190201f47f010a43a2
:101624001b0a03f47f431343c9f82030636b1a0e7b
:1016340042ea0362190201f47f010a431b0a03f41c
:101644007f431343c9f82430e36a1a0e42ea036263
:10165400190201f47f010a431b0a03f47f43134375
:10166400c9f82830c9f82c50c9f8305034224946fa
:10167400b4f93c0024f018f84c273a46294605a84a
:1016840029f0b4fc3a4605a9b4f93c0024f00cf85e
:10169400b4f93c000df03cfa05e1022120460cf0bf
:1016a40093fd012384f8cd303ae7b4f93c0028f0e7
:1016b4007af8f8e00921204623f0d4f8f3e000bfdb
:1016c400eca8002064ae0000cc8d0100008e010067
:1016d4004cae000094f8cf30012b26d0b4f938007a
:1016e40027f097fd002800f0de803822002105a8ad
:1016f40029f07cfc05a9b4f938001ff089fe04f137
:10170400400705ad0fcd0fc70fcd0fc70fcd0fc7c6
:1017140095e8030087e803000721204623f0a2f898
:10172400b4f9380027f032fabde00921204623f04d
:1017340099f8b8e0d4f8c4305f68b4f9380029f0f7
:10174400bcfc0546002865d0a36a002b49d1bd4bdb
:10175400e31adb1003ebc30203eb4203c3eb4323a3
:1017640003eb8343d4f8c4201268d2f804805a42ad
:10177400b5493846c04727f0fffbc4f88800c4f8d1
:10178400a800a36ac4f89c30b4f9380029f012fd0b
:1017940028f0e8fad4f8c4301b68628a0292020e78
:1017a4000192c0f307420092d3f80480c0f30723e8
:1017b400c2b2a6493846c047d4f8c4301b68b4f84e
:1017c4006420029294f84720019294f846200092f3
:1017d400d3f8048094f8453094f844209c49384662
:1017e400c047a36a0133a362d4f894200132c4f839
:1017f4009420e362284627f0e7ff02460b46d4e92b
:1018040008010df0a6fac4e90801dff848824ff494
:10181400c8671ce0b4f9380027f0b8f920b9b4f966
:10182400380029f017fad8b127f0a6fbc4f88c00c9
:101834000821204623f016f835e03a464146b4f92b
:10184400380019f099fca5f5c865adb245b1b5f5f8
:10185400c86ff2d22a467f49b4f9380019f08cfcdb
:10186400a36a63b994f8cf30012b1cd10821204618
:1018740022f0f8ff27f080fbc4f88c0013e027f077
:101884007bfbd4f8a830c31a22689342ead900211a
:1018940020460cf099fce5e794f8cd30c3b3092158
:1018a400204622f0dfff0136d8346b4b1b68b3426d
:1018b40040f3f28294f8ce30012bf4d0023b102b8b
:1018c40000f2e58201a252f823f000bf45110000a6
:1018d40033120000ed1400001b150000d91600009f
:1018e400391700009d18000025190000c1190000d7
:1018f400ed190000dd1b0000c31c0000471d0000a3
:101904006d1e0000ed1a0000dd1d0000831e0000a6
:10191400022120460cf058fc012384f8cd30bee7a8
:10192400d4f8c4305f68237c012b29d0022b2cd03f
:10193400444be31adb1003ebc30203eb4203c3eb98
:10194400432303eb83435d42d4f8c4301b685b68d4
:101954002a46424938469847204623f02bfd94f8fe
:10196400d130012b19d0d4f8c4301b685b682a46e7
:101974003b49384698470121204622f073ff92e7fd
:10198400b4f93c0024f020f8d2e7b4f9380025f08b
:101994007df94ff6ff732387cae794f8cf30002b05
:1019a400e1d1d4f8c4301b685b682a462d49384617
:1019b40098470221204622f055ff74e7d4f8c80066
:1019c40028f0a6fd032808d10b21204622f04aff67
:1019d40027f0d2fac4f8ac0065e704f14401d4f866
:1019e400c80024f0e6f9efe7d4f8c4305d6894f851
:1019f400cf20012a17d0d4f8c80028f089fd032885
:101a04001bd094f8443003f0f003e02b2ed1237c58
:101a1400012b64d0237c022b7ff445af0c2120469c
:101a240022f020ff3fe71b681b680f4928469847b0
:101a34000121204622f016ff35e70022a267a4f810
:101a44007c20e4e7c0c3002064ae0000cc8d01001c
:101a5400008e0100eca8002060cf002090ae0000b2
:101a6400f4ae0000c0ae000014af000004f1780230
:101a740004f14401d4f8c8001df0a2fdb8b1d4f8b3
:101a8400c4301b6894f87d20039294f87c20029261
:101a940094f87b20019294f87a2000925f6894f87d
:101aa400793094f87820bf492846b847afe727f043
:101ab40063fad4f8ac30c71a27f072fa00eb80004e
:101ac40087427ff6f0aed4f8c4301b681b68b64971
:101ad4002846984727f050fac4f8ac00e3e61021f2
:101ae400204622f0bffe95e7d4f8c4305d6804f1c7
:101af4004402618a012029f02dfea087b0f1ff3f46
:101b04005ed00023a94a4ff4807126f0b9fee26842
:101b14000521b4f93c0008f077fd30b9d4f8c4309d
:101b24001b681b68a2492846984702220621b4f97b
:101b34003c0008f069fd30b9d4f8c4301b681b6858
:101b44009c4928469847d4f8c810b4f93c0021f0c1
:101b54007efc05a9b4f93c0017f086fabdf85a30aa
:101b6400a4f87e30d4f8c4301b681b689249284618
:101b74009847d4f8c4301b68628a029294f84720cc
:101b8400019294f8462000925f6894f8453094f8e6
:101b940044208a492846b8471121204622f062fe93
:101ba40027f0eaf9c4f88800d4f884300344c4f870
:101bb40090304ff4c8625521814829f017fa72e633
:101bc400d4f8c4301b681b687e4928469847012115
:101bd400204622f047fe66e6d4f8c4305d68002251
:101be400618a012028f0d5fc6087b0f1ff3f51d015
:101bf4000023754a4ff4007126f070fcd4f880304d
:101c0400002b53d104f1440300220121b4f93a001a
:101c140022f0c9ff4ff48063a4f87e30d4f8c430b6
:101c24001b681b68644928469847d4f8c4301b686d
:101c3400628a029294f84720019294f84620009216
:101c44005f6894f8453094f8442060492846b847c2
:101c54000d21204622f006fed4f8b8200321b4f961
:101c64003a0015f097f830b9d4f8c4301b681b68f3
:101c74004f4928469847b4f93a0026f018fc27f053
:101c84007bf9c4f8ac004ff4c86254214c4829f0e5
:101c9400adf908e6d4f8c4301b681b684c492846e3
:101ca40098470121204622f0ddfdfce504f1800384
:101cb400628a0121b4f93a0019f0e8fda2e794f828
:101cc400cf30012b19d0d4f8c4305f68b4f93a008e
:101cd40027f09ffab0b1b4f93a0026f057ff27f085
:101ce4004bf9c4f88800d4f884300344c4f8903025
:101cf4000e21204622f0b6fdd5e50f21204622f024
:101d0400b1fdd0e527f038f9d4f8ac30c51a27f086
:101d140047f900eb800085427ff6c5adb4f93a007f
:101d240024f0b4ff4ff6ff736387d4f8c4301b6804
:101d34001b682849384698470f21204622f092fd17
:101d4400b1e5204607f0c4fe01280bd002287ff439
:101d5400aaad0f21204622f085fd27f00df9c4f825
:101d64008c00a0e5164f00bfb4f8b0508db1b5f5a6
:101d7400c86f28bf4ff4c8652a463946b4f93a00fb
:101d840012f05cf9b4f8b0301b1aa4f8b0308542f4
:101d9400ead9b4f93a0027f04ffa20460ff0e0fcf4
:101da40081e500bf74af000034af00006fac0200e7
:101db400a0af0000c8af0000a8ff0000f0af000013
:101dc400eca80020a4ad000085ac020028b00000ff
:101dd40058ad000060b00000227d0b21b4f93c0036
:101de40008f012fc204607f073fe01280bd00228ed
:101df4007ff459ad1221204622f034fd27f0bcf8bf
:101e0400c4f88c004fe5b4f8b05015b30027dff8e0
:101e140094a0a846b5f5c86f28bf4ff4c8684246d9
:101e24005146b4f93c0023f03ffc0744bfb22d1add
:101e3400adb2804501d1002debd1b4f93c000cf0da
:101e440067fe40b900221146b4f93c0024f058fd65
:101e540029e52f46f1e7b4f8b030df1ba4f8b070e1
:101e640020460ff07dfc1ee520461ff0b7ffb4f9b5
:101e74003a0024f00bff4ff6ff73638713e5204607
:101e84001ff0acffb4f93c0023f09efd0be50121eb
:101e9400204622f0e7fc06e51bb0bdec028bbde852
:081ea400f08f00bfeca8002044
:020000040000fa
:101eac00f0cc00201c00000000000000e45e0020cc
:101ebc000400000000000000bcc70020040000006b
:101ecc0000000000b4c800206c00000000000000fe
:101edc00efcc0020010000000000000050d00020da
:101eec00010000000000000068d00020d4000000b9
:101efc0001000000dc3d02000000000000000000ba
:101f0c0000000000000000000000000000000000c5
:101f1c0000000000000000000000000000000000b5
:101f2c0000000000000000000000000000000000a5
:101f3c000000000000000000000000000000000095
:101f4c000000000000000000000000000000000085
:101f5c000000000000000000000000000000000075
:101f6c000000000000000000000000000000000065
:101f7c000000000000000000000000000000000055
:101f8c000000000000000000000000000000000045
:101f9c000000000000000000000000000000000035
:101fac000000000000000000000000000000000025
:101fbc000000000000000000000000000000000015
:101fcc000000000000000000eed100200100000025
:101fdc0001000000ff00000069cd0020010000009e
:101fec000000000034cb00200400000000000000c2
:101ffc00c0c700208000000000000000b0ca002014
:10200c004400000000000000e85e0020d011000039
:10201c00000000004cd00020010000000000000077
:10202c007ccd002004000000000000006ccd0020de
:10203c001000000000000000acc100200c010000ea
:10204c00000000002cce0020040000000000000066
:10205c0080c90020500000000000000058ce002075
:10206c00040000000000000058c50020a40000007f
:10207c000000000040c800207400000000000000b8
:10208c0080cd002010000000000000002cbc0020bf
:10209c0018020000000000009cc600209000000008
:1020ac00000000001cb500208002000000000000b1
:1020bc005cce00202800000000000000c0cd0020f5
:1020cc000c0000000000000028cd002018000000cb
:1020dc00000000000ccd00201c00000000000000df
:1020ec0084ce0020040000000000000031d000204d
:1020fc00010000000000000088ce00200400000059
:10210c0000000000e0d100200400000001000000ed
:10211c00ffffffff3cd10020280000000100000061
:10212c00bb010300d10101004b020100330203008b
:10213c007c020300dd030300de030300e003030065
:10214c00e1030100b32201008cce00200800000046
:10215c000000000040cd002018000000000000002e
:10216c0094ce00200c0000000000000032d00020b3
:10217c000200000000000000a0ce002004000000bf
:10218c0000000000c89a0020d007000000000000ea
:10219c00a4ce0020100000000000000036d000206b
:1021ac000200000000000000b4ce00200800000077
:1021bc000000000058cd00201100000000000000bd
:1021cc00d0cc00201f00000000000000bcce00207e
:1021dc0004000000000000003ad0002002000000c3
:1021ec0000000000c0ce0020100000000000000025
:1021fc003cd000200200000000000000d0ce0020e7
:10220c0008000000000000003ed00020020000008a
:10221c0000000000d8ce00201000000000000000dc
:10222c0035d000200100000000000000e4d10020a7
:10223c00040000000100000064000000e8ce002053
:10224c0008000000000000009cb700205c020000a9
:10225c0000000000f0ce00201c0000000000000078
:10226c00cccd00200c0000000000000090cd002020
:10227c00100000000000000039d000200100000018
:10228c000000000040d0002004000000000000000e
:10229c000ccf00200400000000000000a0cd0020a6
:1022ac00100000000000000010cf00200c00000007
:1022bc000000000008ce00200a0000000000000012
:1022cc001ccf00201c0000000000000044d00020a7
:1022dc00020000000000000038cf002008000000c1
:1022ec00000000004dd000200100000000000000a4
:1022fc0020ca00204800000000000000d8d10020b7
:10230c000600000001000000ffffffffffff0000c0
:10231c0040cf00200c0000000000000046d0002040
:10232c0004000000000000004ccf00200c00000056
:10233c00000000004ed00020010000000000000052
:10234c0058cf00200400000000000000c0c3002093
:10235c00d80000000000000078cb00203400000002
:10236c00000000005ccf0020040000000000000012
:10237c004fd00020010000000000000060cf0020c2
:10238c000400000000000000eca800204006000043
:10239c0000000000d8cd0020180000000000000054
:1023ac002cc70020900000000000000064cf00202b
:1023bc000c00000000000000f8b9002034020000fe
:1023cc000000000044c00020680100000000000074
:1023dc0070cc002060000000000000004ad00020fb
:1023ec00020000000000000051d00020010000009d
:1023fc0000000000accb00202c000000000000000e
:10240c00c87a00200010000000000000f4ca002070
:10241c00400000000000000014ce0020100000005e
:10242c000000000070cf002004000000000000003d
:10243c0052d000200100000000000000c88a0020db
:10244c00000800000000000074cf0020080000000d
:10245c000000000098c40020c00000000000000034
:10246c0024ce00200800000000000000f0cd002069
:10247c000c00000000000000c892002000080000c2
:10248c000000000053d000200200000000000000fb
:10249c007ccf0020080000000000000038cb00209a
:1024ac004000000000000000fcc50020a00000005f
:1024bc0000000000a6d10020020000000100000076
:1024cc000100000084cf002010000000000000007c
:1024dc0055d000200100000000000000b8c2002010
:1024ec000801000000000000d8cb002028000000ec
:1024fc000000000028cc0020240000000000000098
:10250c0038d00020010000000000000094cf002013
:10251c0004000000000000004ccc0020240000004f
:10252c000000000034d0002001000000000000007a
:10253c0064d100201c0000000100000000004f4e80
:10254c0052000000c0e1e400020000064007080051
:10255c008001010100000000ccd100200c00000023
:10256c0001000000f4010000d00700000100000091
:10257c0080d10020260000000100000008000800a7
:10258c0002000100020008000006000601015400d0
:10259c0030303a30343a32353a30313a30323a30ef
:1025ac0033000000a8d10020120000000100000040
:1025bc0030303a30343a32353a30313a30323a30cf
:1025cc0034000000bcd1002010000000010000000d
:1025dc000101000079380200fd61020000000200d8
:1025ec00ecd10020020000000100000000010000fe
:1025fc0020c90020600000000000000098cf0020df
:10260c000c0000000000000030d000200100000091
:10261c000000000000000020e45e0000000000004c
:10262c00a4cf00201000000000000000b8700020b3
:10263c00100a00000000000098a2002054060000c0
:10264c000000000056d00020020000000000000036
:10265c00b4cf00200c0000000000000030ce0020a1
:10266c000800000000000000c0cf002004000000a3
:10267c000000000058d00020010000000000000005
:10268c00c4cf0020080000000000000068ca002031
:10269c004800000000000000cccf00200400000027
:1026ac000000000038ce00200800000000000000f0
:1026bc00d0cf0020040000000000000059d0002002
:1026cc00070000000000000000cc002028000000e3
:1026dc0000000000d4cf0020040000000000000027
:1026ec0060d00020010000000000000040ce00205f
:1026fc000800000000000000d8cf002004000000fb
:10270c000000000061d0002001000000000000006b
:10271c0048ce00200800000000000000dccf0020a4
:10272c00040000000000000062d000200100000046
:10273c0000000000e0cf00200800000000000000b6
:10274c0063d000200100000000000000efd1002049
:10275c00020000000100000008070000e8cf002084
:10276c00080000000000000064d000200100000000
:10277c00000000001ab5002002000000000000005c
:10278c0012ce00200200000000000000f0cf00205c
:10279c001800000000000000b0cd00201000000068
:1027ac000000000065d000200200000000000000c6
:1027bc002caf0020ee0500000000000008d0002027
:1027cc00080000000000000050ce002006000000b1
:1027dc000000000044be00200002000000000000c9
:1027ec0056ce002002000000000000006acd002040
:1027fc00020000000000000010d0002004000000c7
:10280c000000000067d00020010000000000000064
:10281c0014d000200400000000000000bad10020f9
:10282c000200000001000000be150000ded10020f7
:10283c000200000001000000ffff000018d0002083
:10284c000c00000000000000e8d100200400000093
:10285c00010000000100000024d000200400000052
:10286c0000000000d0c90020500000000000000053
:10287c0028d0002004000000000000002cd0002014
:10288c000400000000000000fccd00200c00000043
:10289c000000000000000000000000006666666694
:020000040000fa
:1028ac0030b585b0044690f99030002b40f00f8184
:1028bc000378012b04bf0023037090f8d430042b51
:1028cc0000f24984dfe813f005008b00d9001b01ee
:1028dc00110390f90830b3f1ff3f57d090f8fc206a
:1028ec00012a22d051b229b1022a43d0ff2380f809
:1028fc009030dce003f01f01c3f34a1303f5020030
:10290c0000f580700022012303fa01f1c00128f0c8
:10291c0093fd28f093ff24f00ffac4f8dc0094f830
:10292c00fc30013384f8fc30cfe028f087ff24f032
:10293c0003fad4f8dc30984200f0c78094f90830e0
:10294c0003f01f0201219140c3f34a1303f5020067
:10295c0000f580700a46c00128f06efd28f06eff6d
:10296c0024f0eaf9c4f8dc0094f8fc30013384f864
:10297c00fc30aae028f062ff24f0def9d4f8dc3059
:10298c00c31a062b94bf002501258fe090f8fc306c
:10299c002bb1012b16d0ff2380f8903087e0002359
:1029ac000193b44a009201220321d0f8ec0027f0e5
:1029bc0019f8002800f0898094f8fc30013384f871
:1029cc00fc3082e000230193aa4b009301231a46aa
:1029dc000321d0f8ec0027f005f8054666e0d0f8a6
:1029ec00ec0094f8fc30042b43d8dfe813f005001e
:1029fc00b8031300b8033300002200929e4b012150
:102a0c0027f0a2fa002860d094f8fc30013384f847
:102a1c00fc305ae0d4f8e4309a0ac3f30913b2f547
:102a2c00f87f01d11b2b07d0944900201ff00cfa22
:102a3c00ff2384f890303ae0002200928e4b9049ac
:102a4c0027f082fa002840d094f8fc30013384f847
:102a5c00fc303ae0d4f8e43003f00f0384f8fe3095
:102a6c002bbb884900201ff0eff9ff2384f890302e
:102a7c001de0ff2384f8903027e090f8fc10c1f1a2
:102a8c00200200230093804b92b2804800eb01118e
:102a9c00d4f8ec001af074fc94f8fc500544edb238
:102aac0084f8fc50202d14bf002501256db10023a6
:102abc0084f8fc3094f8d4300133dbb284f8d43091
:102acc00052b04bf022384f890300123237094f962
:102adc009030022b00f0458394f804316bb12378cd
:102aec00012b00f06883002384f804310121d4f811
:102afc00ec0008f061fc0123237005b030bdd0f868
:102b0c00ec0094f8fc302e2b00f2e881dfe813f097
:102b1c002f002f002f002f002f00e601e601e60109
:102b2c00e601e60148004800480048004800e6017c
:102b3c00e601e601e601e6016e006e006e006e0035
:102b4c006e00e601e601e601e601e6018900eb0113
:102b5c009b00eb01c600eb01dc00eb01f200eb018a
:102b6c00080130014d0171019601bb01db0100939d
:102b7c00402303aa0521204619f098fd054600289c
:102b8c0094d0039b23b10a2384f8fc3000258de7f5
:102b9c003f4900201ff058f9ff2384f8903085e757
:102bac000a3bdbb200931f2303aa0421204619f031
:102bbc007dfd054600283ff479af039b13f0100f01
:102bcc0018bf43f0e0035bb284f8f03013f1050f4b
:102bdc0004db142384f8fc30002567e72c49002023
:102bec001ff032f9ff2384f890305fe7143bdbb21f
:102bfc0000931f2303aa0821204619f057fd054610
:102c0c0000283ff453af039b13f0100f18bf43f091
:102c1c00e0035bb284f8f1301e2384f8fc3000250d
:102c2c0044e700230093144b01221a4927f08cf936
:102c3c00054600283ff43aaf94f8fc30013384f891
:102c4c00fc30002532e7d4f8e430a4f8f23000234d
:102c5c000093094b0122104927f076f9054600280c
:102c6c003ff424af94f8fc30013384f8fc30002599
:102c7c001ce700bfb36e010051870200340a02004a
:102c8c0094000a005c0a020085ad02006800010095
:102c9c00740a0200840004008a000400d4f8e430b2
:102cac00a4f8f43000230093bb4b0122bb4927f05e
:102cbc004bf9054600283ff4f9ae94f8fc3001338b
:102ccc0084f8fc300025f1e6d4f8e430a4f8f630b2
:102cdc0000230093b04b0122b14927f035f905468a
:102cec0000283ff4e3ae94f8fc30013384f8fc3058
:102cfc000025dbe6d4f8e430a4f8f8300023009388
:102d0c00a54b0122a74927f01ff9054600283ff4df
:102d1c00cdae94f8fc30013384f8fc300025c5e6c8
:102d2c00d4f8e430a4f8fa3094f9f0309bb203f103
:102d3c00090291b203f10e0292b2120142ea81220f
:102d4c00b4f8f23003f00f031a43002301930093fd
:102d5c00012392b2944926f045fe054600283ff423
:102d6c00a5ae94f8fc30013384f8fc3000259de6c8
:102d7c0094f9f13028339bb2b4f8f420c2f3090271
:102d8c0042ea8322002301930093012392b28749e4
:102d9c0026f028fe054600283ff488ae94f8fc3057
:102dac00013384f8fc30002580e694f9f0309bb2b6
:102dbc005a1d91b2b4f8f62022f47c5222f03f0254
:102dcc0042ea012212b292b209331a430023019350
:102ddc000093012392b2714926f004fe05460028a7
:102dec003ff464ae94f8fc30013384f8fc300025d9
:102dfc005ce694f9f0309bb203f1090291b2b4f89d
:102e0c00f82022f47c5222f03f0242ea012212b254
:102e1c0092b20e331a43002301930093012392b212
:102e2c005f4926f0dffd054600283ff43fae94f8dd
:102e3c00fc30013384f8fc30002537e694f9f0308f
:102e4c009bb203f1110291b2b4f8fa2022f47c5235
:102e5c0022f03f0242ea012212b292b216331a4316
:102e6c00002301930093012392b24e4926f0bafd40
:102e7c00054600283ff41aae94f8fc30013384f870
:102e8c00fc30002512e694f8fe50002301930093c9
:102e9c00012345f6217243f631719d4218bf0a4653
:102eac00434926f09ffd054600283ff4ffad94f8fa
:102ebc00fe30012b3ff4faad94f8fc30013384f86a
:102ecc00fc300025f2e500230193009301234ff41d
:102edc004042384926f086fd0546e7e5ff2384f895
:102eec0090300025e2e50025e0e5d0f8ec0094f800
:102efc00fc300a2b00f22b81dfe813f00b002600cc
:102f0c003b00660079009800af00ce00e70004019a
:102f1c001d01637e1bb9042384f8fc30d5e5a17d2b
:102f2c00627d00230193244b0093012342ea01228a
:102f3c00224926f057fd00283ff4c7ad94f8fc3029
:102f4c00013384f8fc30c0e5e17d227e002301933f
:102f5c00194b0093012342ea0122194926f042fd44
:102f6c0000283ff4b2ad94f8fc30013384f8fc3007
:102f7c00abe500230193104b0093012383221149ed
:102f8c0026f030fd00283ff4a0ad94f8fc3001335e
:102f9c0084f8fc3099e500bf51870200ad000400b5
:102fac00ae000400af000400840004008a0004009a
:102fbc00d0000400e000040085ad020002ca040049
:102fcc0005ca04008700040000230193924b009370
:102fdc0001234ff40042914926f004fd00283ff4f0
:102fec0074ad94f8fc30013384f8fc306de594f842
:102ffc00953094f89420120442ea036294f89230cb
:10300c001a4394f8931000230193834b00930123ec
:10301c0042ea0122824926f0e5fc00283ff455ad36
:10302c0094f8fc30013384f8fc304ee594f897109a
:10303c0094f8962000230193774b0093012342eae6
:10304c000122784926f0cefc00283ff43ead94f8de
:10305c00fc30013384f8fc3037e594f8973094f861
:10306c009620120442ea036294f894301a4394f8be
:10307c00951000230193684b0093012342ea01222f
:10308c00694926f0affc00283ff41fad94f8fc30e2
:10309c00013384f8fc3018e5a37e002b4ff00003bd
:1030ac0001935d4b00934ff0010314bf10220022db
:1030bc004ff0011126f096fc00283ff406ad94f871
:1030cc00fc30013384f8fc30ffe4e17e49f2260247
:1030dc0049f22623002918bf1a46237f0bb142f46c
:1030ec008072002301934c4b00930123042126f0a2
:1030fc0079fc00283ff4e9ac94f8fc30013384f8f7
:10310c00fc30e2e4637f1bb90a2384f8fc30dce476
:10311c0000230193404b009301234ff48042434919
:10312c0026f060fc00283ff4d0ac94f8fc3001335e
:10313c0084f8fc30c9e4002301933d4b0093012338
:10314c000c224ff4803126f04dfc0546aee4ff23f3
:10315c0084f89030abe4ff2380f89030b5e4002580
:10316c00a4e4637e53bbd4f8e830002b43d194f92c
:10317c000750c5f34a1000f5020000f58070c0013d
:10318c0028f0ccfb05f01f0520fa05f515f0010f12
:10319c007ff4a2ac2378012b04bf00232370002101
:1031ac00d4f8ec0008f008f90123237094f80431ea
:1031bc00002b3ff4a2ac0023237094e428f03efbd8
:1031cc0023f0bafdd4f8e030c31ab3f57a7fcad332
:1031dc00c4f8e0002378012b04bf002323700023e4
:1031ec000093144b01221449d4f8ec0026f0acfee9
:1031fc0001232370b7e728f021fb23f09dfdd4f8c1
:10320c00e830c01a6328b2d90023c4f8e830d4f8e7
:10321c00ec0028f06efaaae785ad020001ca0400a2
:10322c00240001002500010022000100f908030020
:0c323c00cda70200bd96020003ca0400ea
:020000040000fa
:10324800696e2072616e6765000000004f5554205a
:103258004f462052414e4745000000004c414e3831
:103268003635582052656164206661696c65642052
:10327800746f2073746172743a20726573756c741c
:103288003d25640a0d0000004c414e383635582063
:10329800526561642074696d656f757420666f721c
:1032a80020616464723d3078253038580a0d00007a
:1032b8005b504c43415d206c696e6b3a202573204e
:1032c80028504c43415f5354532e5053543d257559
:1032d800290a0d005b504c43415d20636f6f726497
:1032e800696e61746f72206379636c65206c656eba
:1032f8006774683a20257520285052535354532e2a
:103308004d415849442c206d617920646966666591
:10331800722066726f6d206f7572206f776e204e07
:103328004f44455f434e54290a0d00005b504c43ff
:10333800415d2073696e6365206c617374206368f6
:1033480065636b3a20256c75207472616e736d69c4
:1033580074206f70706f7274756e69746965732c00
:1033680020256c7520424541434f4e730a0d0000dd
:103378005b504c43415d206c617374207472616ec4
:10338800736d69742d6f70706f7274756e6974796e
:10339800206576656e742061742049442025752067
:1033a80028535453332e455252544f49442c2075b8
:1033b8006e72656c6961626c65206966206d756cfa
:1033c8007469706c65206576656e74732062656ccf
:1033d8006f77290a0d0000005b504c43415d206562
:1033e80076656e743a20504859534943414c2054ed
:1033f80052414e534d495420434f4c4c4953494f29
:103408004e2028535453312e5458434f4c29202dc5
:10341800206e6f74206120504c43412061646472b7
:10342800657373696e6720636f6e666c6963742c6d
:103438002061207265616c20656c656374726963d4
:10344800616c2d6c61796572206661756c740a0d0a
:10345800000000005b504c43415d20657863657354
:103468007369766520636f6c6c6973696f6e73201e
:1034780073696e6365206c61737420636865636b40
:103488003a2025752028535441545331302e58433f
:103498004f4c202d204d41432d6c6576656c2c20ba
:1034a800646174617368656574207761726e7320f6
:1034b800746869732063616e20626520636f6e664d
:1034c8007573656420627920504c43412773206fdf
:1034d800776e206c6f676963616c20636f6c6c69d1
:1034e80073696f6e73290a0d000000005b504c432e
:1034f800415d20636f7272757074656420747261c7
:103508006e736d697373696f6e732073696e63652b
:10351800206c61737420636865636b3a202575209d
:103528002854315350435344494147322e434f5254
:103538005458434e54202d2074686520646174618a
:1035480073686565742d7265636f6d6d656e64650e
:103558006420706879736963616c20636f6c6c694f
:1035680073696f6e20636f756e746572290a0d003a
:103578005b504c43415d206576656e743a20756eec
:10358800657870656374656420424541434f4e20f9
:103598007265636569766564202d20636865636b71
:1035a80020666f722061207365636f6e6420636f9d
:1035b8006f7264696e61746f720a0d005b504c43e0
:1035c800415d206576656e743a20424541434f4e11
:1035d800207265636569766564206265666f7265e9
:1035e800206f7572206f776e207472616e736d69cb
:1035f80074206f70706f7274756e6974790a0d003b
:103608005b504c43415d206576656e743a20667266
:10361800616d65207265636569766564206475729d
:10362800696e67206f7572206f776e207472616e95
:10363800736d6974206f70706f7274756e697479c8
:103648000a0d00005b504c43415d206576656e7441
:103658003a20656d70747920504c4341206379633a
:103668006c65202d206e6f206e6f6465207472610a
:103678006e736d69747465640a0d00005b504c4389
:10368800415d206576656e743a20756e6578706563
:103698006374656420636172726965722073656e14
:1036a800736520647572696e672041434d412074cb
:1036b800696d6520736c6f742028535453312e55ef
:1036c8004e435253290a0d005b504c43415d20651f
:1036d80076656e743a20504c43412073796d626f61
:1036e8006c73206465746563746564207768696cbd
:1036f8006520504c43412069732064697361626c92
:103708006564206c6f63616c6c7920285354533165
:103718002e504c434153594d290a0d005b504c43e0
:10372800415d206576656e743a20504c43412073a4
:103738007461747573206368616e6765642073696a
:103748006e6365206c61737420636865636b0a0d32
:10375800000000005b504c43415d206e6f20504cd0
:103768004341206576656e7420666c6167732073cb
:10377800696e6365206c61737420636865636b0aa6
:103788000d0000005b504c43415d20737461742050
:1037980072656164206661696c656420617420618a
:1037a8006464723d307825303858202d2061626f6e
:1037b8007274696e670a0d004c414e3836355820d0
:1037c80052656164204f4b3a20416464723d307801
:1037d800253038582056616c75653d30782530386d
:1037e800580a0d005b5645524946595d20504153d1
:1037f8005320616464723d307825303858206d61fb
:10380800736b65643d30782530385820286d6173b6
:103818006b20307825303858290a0d005b56455200
:103828004946595d204641494c20616464723d30e7
:1038380078253038582065787065637465643d3044
:10384800782530385820676f743d307825303858df
:1038580020286d61736b20307825303858290a0d7f
:10386800000000005b544553544d4f44455d206ea5
:103878006f77202575202d2025730a0d0000000084
:103888004c414e383635582052656164206661696e
:103898006c656420666f7220616464723d307825bf
:1038a8003038580a0d0000005b5645524946595dac
:1038b800204641494c20616464723d307825303897
:1038c80058202d20726561646261636b20646964ad
:1038d800206e6f7420636f6d706c6574650a0d00df
:1038e8004c414e38363558205772697465206661e8
:1038f800696c656420746f2073746172743a207205
:103908006573756c743d25640a0d00004c414e3892
:103918003635582057726974652074696d656f75fe
:103928007420666f7220616464723d307825303887
:10393800580a0d004c414e38363558205772697474
:1039480065204f4b3a20416464723d307825303809
:10395800582056616c75653d3078253038580a0d09
:10396800000000004c414e383635582057726974b3
:1039780065206661696c656420666f7220616464a5
:10398800723d3078253038580a0d00004c414e38c9
:1039980036355820524d57206661696c656420742d
:1039a8006f2073746172743a20726573756c743d1c
:1039b80025640a0d000000004c414e383635582069
:1039c800524d572074696d656f757420666f72204b
:1039d800616464723d3078253038580a0d00000063
:1039e8004c414e3836355820524d57204f4b3a20cf
:1039f800416464723d307825303858204d61736bce
:103a08003d3078253038582056616c75653d3078e2
:103a1800253038582046696e616c3d30782530383d
:103a2800580a0d004c414e3836355820524d572013
:103a38006661696c656420666f7220616464723dba
:103a48003078253038580a0d000000005b54455383
:103a5800544d4f44455d206175746f2d72657665d0
:103a680072743a20726573746f72696e67206e6f34
:103a7800726d616c206f7065726174696f6e0a0d8a
:043a8800000000bf7b
:020000040000fa
:103a8c002de9f04f87b09d4bd3e90023134314d09d
:103a9c009b4b1b78022b00f00382032b00f07e82e1
:103aac00012b15d0974b1b7823b1954b1b78002b12
:103abc0000f09d8107b0bde8f08f27f0e1fc8f4b43
:103acc00914aa2fb00208009186000225a60dfe7af
:103adc008e4b1b78002b4ed18d4b1b78002b33d18a
:103aec00002000908b4b01228b49096822f0bcff0f
:103afc00024630b1894900201ef0a6f925f06efd72
:103b0c00d0e724f0b3fb864d7c4b1c685e68231910
:103b1c0046eb06021b1946eb0202d70047ea537725
:103b2c004feac30c3a461ceb040346eb0202d400ea
:103b3c0044ea5374de00301844eb010128606960dc
:103b4c00734b01221a70ade724f090fb744a136892
:103b5c005268b0eb030861eb0209b8f1000f79f180
:103b6c0000039fdb6c4b1a686e4900201ef06cf949
:103b7c0025f034fd96e76c4b1b78002b00f004818c
:103b8c006a4b1b78002b00f0ab80694a13786949ab
:103b9c000868694941f823000133dbb21370092b23
:103bac000ad8664a52f823205b4b1a600023574a06
:103bbc001370574a13707de700235b4a1370544a05
:103bcc0013704f4a13705c4a136854689568d2f8a6
:103bdc000c901069918a41ea004105919169968b8c
:103bec0046ea014692f82080978c03f40040c3f318
:103bfc00c033534a5349002808bf0a465249002093
:103c0c001ef022f9c9f30722504900201ef01cf9be
:103c1c003346059a4e4900201ef016f915f0ff02a6
:103c2c0025d114f4806f27d1b8f1000f29d177bbbf
:103c3c0014f0200f31d114f0100f33d114f0400fc9
:103c4c0035d114f0800f37d114f0080f39d114f09e
:103c5c00040f3bd114f4006f3dd140f6fc431c42e1
:103c6c007ff420af3b4900201ef0eef81ae73a49ea
:103c7c0000201ef0e9f8d4e7384900201ef0e4f8e3
:103c8c00d2e74246364900201ef0def8cfe73a462e
:103c9c00344900201ef0d8f8cae7334900201ef042
:103cac00d3f8c8e7314900201ef0cef8c6e73049fa
:103cbc0000201ef0c9f8c4e72e4900201ef0c4f8fd
:103ccc00c2e72d4900201ef0bff8c0e72b490020a9
:103cdc001ef0baf8bee72a4900201ef0b5f8bce782
:103cec000d4b1a68274900201ef0aef800230e4a2f
:103cfc001370074a1370024a137073e048ce002009
:103d0c0061d0002060d00020d34d621059d000202b
:103d1c005ad000207da30200cccf002064320000da
:103d2c0038ce0020903200005dd000205bd0002007
:103d3c005ed00020d4cf002000cc00209490020054
:103d4c004832000054320000b8320000dc3200006f
:103d5c00343300005c37000078330000e03300009f
:103d6c005c340000f434000078350000c4350000e9
:103d7c00083600004c36000084360000d0360000b7
:103d8c00243700008c370000954b1b78002b73d028
:103d9c00944b1b68944a1268944900201ef054f806
:103dac00934b1b78a3b18f4b1a68924b19680a403e
:103dbc00914b1b680b409a4247d0019100928a4a62
:103dcc0012688e4900201ef03ff8894b00221a70b1
:103ddc00854b1a688a4b9a4240d00023894a13704b
:103dec00894a1370894b1b78002b3ff463ae24f087
:103dfc003dfa874a13685268b0eb030a61eb020b79
:103e0c00baf1000f7bf10003fff654ae00247f4b98
:103e1c001c70804920461ef017f8734b784a1a60c4
:103e2c007d4b1c60744b1c60724b4ff460421a60eb
:103e3c007a4b01221a706e4b1c70794b1c70724bb2
:103e4c001c70704b02221a7034e600911346664abd
:103e5c001268744900201df0f7ffb6e7614b1c682f
:103e6c00c4f34234204622f0abfc034622466e4992
:103e7c0000201df0e9ffb0e75b4b1a686b4900208e
:103e8c001df0e2ff5a4b1b78002ba6d0564b1a683c
:103e9c00674900201df0d8ff554b00221a709ce793
:103eac005f4b1b78002b50d1574b1b78002b36d116
:103ebc00002001905f4b00930123574a12684a4936
:103ecc00096822f0ddfa024630b15b4900201df092
:103edc00bbff25f083fbe5e524f0c8f9574d584ba3
:103eec001c685e68231946eb06021b1946eb02029e
:103efc00d70047ea53774feac30c3a461ceb04034e
:103f0c0046eb0202d40044ea5374de00301844eb52
:103f1c000101286069603c4b01221a70c2e524f053
:103f2c00a5f9464a13685268c61a61eb0207002ebf
:103f3c0077f10003fff6b6ad2b4b1a684149002010
:103f4c001df082ff25f04afbace5254b1b78bbb17d
:103f5c00314b1b68244a12683b4900201df074ff4a
:103f6c00294b00221a702d4b1b789bb12b4b1a70ce
:103f7c0001231f490b702a490a70224a137099e5d4
:103f8c00194b1a68314900201df05eff234b0022ab
:103f9c001a70e5e71b4b00221a7023e7204b1b78a5
:103fac00002b40f09480184b1b78002b79d100200b
:103fbc000290274b019301230093264b1b68164a52
:103fcc0012680949096821f0bfff0246002845d054
:103fdc00214900201df038ff25f000fb62e500bff1
:103fec005bd00020d4cf0020cccf0020c037000005
:103ffc0063d00020e4cf0020e0cf00202438000064
:10400c00fb08030061d000205ad0002060d00020b3
:10401c0040ce0020543a0000dccf002062d00020bb
:10402c0059d00020ec3700006c38000088380000b4
:10403c00b0380000c9af0200e838000038ce0020cc
:10404c0048ce0020143900003c3900006c390000c7
:10405c0099a30200d0cf00209439000024f006f977
:10406c003c4d3d4b1c685e68231946eb06021b1940
:10407c0046eb0202d70047ea53774feac30c3a46a5
:10408c001ceb040346eb0202d40044ea5374de003a
:10409c00301844eb010128606960304b01221a7022
:1040ac0000e524f0e3f82b4a13685268c41a61eb5c
:1040bc000205002c75f10003fff6f4ac284b1a68ce
:1040cc00284900201df0c0fe25f088faeae4264bb2
:1040dc001b78ebb1254b1b680193254b1b68009398
:1040ec00244b1b681e4a1268234900201df0acfead
:1040fc001a4b00221a70214b1b789bb11f4b1a7064
:10410c0001231f490b701f490a701f4a1370d1e419
:10411c00134b1a681d4900201df096fe174b002208
:10412c001a70e5e71a4b1b787bb10023184a137001
:10413c00012218490a7018490b7009491748086080
:10414c0010490b70104b1a70b4e40f4b00221a700c
:10415c0048e600bf38ce002048ce00205ad00020c0
:10416c00cccf0020c03900005bd00020d8cf00207d
:10417c00dccf0020d0cf0020e839000062d0002036
:10418c0063d0002059d0002061d000202c3a0000d0
:10419c005fd000205dd000205ed0002003ca040058
:020000040000fa
:1041ac005478204279746520436f756e742d6c6f52
:1041bc00776572203332626974732854784f544c8b
:1041cc004f2900003db502005478204279746520d7
:1041dc00436f756e742d757070657220313662691f
:1041ec0074732854784f54484929000047b502008d
:1041fc005478204672616d657320772f6f2065723d
:10420c00726f722854784654434e542900000000b3
:10421c000000000051b5020054782042726f6164b6
:10422c0063617374204672616d65732854784243e0
:10423c004654290000000000000000005bb502009d
:10424c005478204d756c7469636173742046726187
:10425c006d65732854784d46542900000000000009
:10426c000000000065b5020054782050617573653c
:10427c00204672616d6573285478504654290000ad
:10428c000000000000000000000000006fb50200fc
:10429c0054782036342d62797465204672616d65d0
:1042ac00732854784246543634290000000000002c
:1042bc000000000079b5020054782036352d3132db
:1042cc00372062797465204672616d65732854429b
:1042dc0046543132372900000000000083b502003b
:1042ec005478203132382d3235352062797465207e
:1042fc004672616d65732854424654323535290037
:10430c00000000008db502005478203235362d3572
:10431c0031312062797465204672616d6573285461
:10432c0042465435313129000000000097b5020097
:10433c005478203531322d31303233206279746526
:10434c00204672616d6573285442465431303233c5
:10435c0029000000a1b50200547820313032342df0
:10436c00313531382062797465204672616d657320
:10437c00285442465431353138290000abb502007f
:10438c005478204672616d6573203e3d2031353185
:10439c0038206279746528475442463135313829c2
:1043ac0000000000b5b50200547820556e646572ab
:1043bc0072756e204672616d6573206e6f74205439
:1043cc00586564285478545552290000bfb5020032
:1043dc0054782053696e676c6520436f6c6c6973fd
:1043ec00696f6e204672616d65732854785343462d
:1043fc0029000000c9b50200547820322d31352037
:10440c00436f6c6c6973696f6e204672616d657376
:10441c002854784d4346290000000000d3b5020013
:10442c00547820313620436f6c6c6973696f6e2041
:10443c004672616d65732854784543434e54290088
:10444c0000000000ddb502005478206c617465201a
:10445c00436f6c6c6973696f6e204672616d657326
:10446c002854784c43434e5429000000e7b5020011
:10447c005478204465666572726564204672616d7d
:10448c00657328547844544629000000000000004d
:10449c0000000000f1b5020054782043617272698b
:1044ac0065722053656e7365206572726f7220465b
:1044bc0072616d657328547843534529fbb502002e
:1044cc005278204279746520436f756e742d6c6f31
:1044dc00776572203332626974732852784f524c6c
:1044ec004f29000005b602005278204279746520ed
:1044fc00436f756e742d75707065722031366269fc
:10450c0074732852784f5248492900000fb60200a4
:10451c005278204672616d657320772f6f2065721b
:10452c00726f722852784652434e54290000000094
:10453c000000000019b6020052782042726f6164cc
:10454c0063617374204672616d65732852784243bf
:10455c0046522900000000000000000023b60200b3
:10456c005278204d756c7469636173742046726166
:10457c006d6573202852784d4652290000000000ca
:10458c00000000002db60200527820506175736552
:10459c00204672616d65732852785046522900008e
:1045ac0000000000000000000000000037b6020010
:1045bc0052782036342d62797465204672616d65af
:1045cc00732852784246523634290000000000000d
:1045dc000000000041b6020052782036352d3132f1
:1045ec00372062797465204672616d657328544278
:1045fc004652313237290000000000004bb6020051
:10460c005278203132382d3235352062797465205c
:10461c004672616d65732854424652323535290015
:10462c000000000055b602005278203235362d3588
:10463c0031312062797465204672616d657328543e
:10464c004246523531312900000000005fb60200ad
:10465c005278203531322d31303233206279746505
:10466c00204672616d6573285442465231303233a4
:10467c002900000069b60200527820313032342d06
:10468c00313531382062797465204672616d6573fd
:10469c0028544246523135313829000073b6020095
:1046ac005278204672616d6573203e3d2031353164
:1046bc003920627974657328544d5842465229004a
:1046cc00000000007db602005278204672616d65d4
:1046dc0073203c20363420627974657328527855e7
:1046ec0046522900000000000000000087b60200be
:1046fc005278204672616d6573203e203135313819
:10470c002062797465732852784f46522900000054
:10471c000000000091b602005278206572726f7230
:10472c00204672616d6573203e2031353138206230
:10473c00797465732852784a522900009bb602009e
:10474c00527820435243206572726f722046726118
:10475c006d657328527846435345290000000000cc
:10476c0000000000a5b602005278204c656e6774fc
:10477c0068206669656c64206572726f722046727f
:10478c00616d65732852784c46464529afb60200d8
:10479c0052782073796d626f6c206572726f722023
:1047ac004672616d6573285278525345290000009a
:1047bc0000000000b9b60200527820616c69676e87
:1047cc006d656e74206572726f72204672616d65d4
:1047dc00732852784145290000000000c3b602003e
:1047ec005278205265736f75726365204572726fd3
:1047fc007220285278525245290000000000000017
:10480c0000000000cdb602005278206f76657272ff
:10481c00756e206572726f72204672616d657328b9
:10482c005278524f4529000000000000d7b6020014
:10483c0052782049504864722043686b73756d2020
:10484c006572726f72204672616d65732852784979
:10485c0048434529e1b60200527820544350204386
:10486c00686b73756d206572726f72204672616d24
:10487c00657328527854434529000000ebb60200ba
:10488c005278205544502043686b73756d206572c7
:10489c00726f72204672616d65732852785543456c
:0848ac0029000000f5b602002e
:020000040000fa
:1048b4002de9f04f8db0d0f850a00a68436d846d97
:1048c40083ea040e0eea0a0e8eea040ed84bc46c78
:1048d40023440a9213449e440aeb7e6e4e68436d51
:1048e4008aea030707ea0e075f40d24b856d2b4423
:1048f400009633441f440eeb37578b681a468aeaf6
:104904000e053d4085ea0a05cb4b446d23440192d4
:1049140013441d4407ebf535cb681c468eea0706a5
:104924002e4086ea0e06c54b5344029423441e448b
:1049340005ebb6260b691c4687ea050333407b402a
:10494400bf4a039422449644734406eb73694a694c
:10495400134685ea060404ea09046c40b94a049340
:104964001a4417443c4409eb34548b6986ea09021f
:1049740022407240b44f05931f443d442a4404eb43
:10498400f232cf6989ea040808ea020888ea0908c9
:10499400ae4d06973d442e44b04402ebb8280f6a4e
:1049a40084ea020c0cea080c8cea040ca84d079764
:1049b4003d4409eb05039c4408eb7c6c4d6a82ea98
:1049c400080909ea0c0989ea0209a24b08952b4453
:1049d4001c44a1440ceb39598b6a88ea0c0e0eea8c
:1049e400090e8eea080e0993a3f524434f3b1a449b
:1049f400964409ebfe3eca6a16468cea090505eaa6
:104a04000e0585ea0c05944b1344984445440eeb7b
:104a1400b525d1f8308089ea0e072f4087ea0907c7
:104a24008e4b43449c44674405eb7767d1f834c00c
:104a34008eea05033b4083ea0e03894a62449144ab
:104a44004b4407eb3353d1f8389085ea07041c40f4
:104a54006c40844a4a449644744403ebf434d1f8d9
:104a64003ce087ea030222407a407f4971440d44c6
:104a74002a4404ebb22284ea020b0bea030b8bea0e
:104a8400040b7a49009d29440f44bb4402ebfb6ba1
:104a940082ea0b07274057407549059d29440b447a
:104aa4001f440bebf7578bea0703134083ea0b030e
:104ab40070490b9631440c44234407ebb34387ea13
:104ac400030505ea0b057d406b490a9c21440a4411
:104ad400154403eb353583ea05023a405a406749e9
:104ae400049e31448b445a4405ebf26285ea020188
:104af40019406940624c099e34442744394402eb0e
:104b0400f15182ea01042c4054405e4f77443b4407
:104b14001c4401ebb44481ea040313404b405a4f54
:104b2400039e37443d442b4404eb333384ea030ba4
:104b34000bea010b8bea040b544d089e35442a44be
:104b4400934403ebfb6b83ea0b0727405f40504a17
:104b54004a4411440f440bebf7578bea07051d40f9
:104b640085ea0b054b4a02990a441444254407eb91
:104b7400b54587ea050202ea0b027a404649079ed8
:104b840031440b441a4405eb323285ea02033b40bc
:104b94006b40424961448b445b4402ebf36382ea19
:104ba4000301294051403e4c019e3444274439447a
:104bb40003ebf15183ea010414405c40394f069e33
:104bc40037443d442c4401ebb44481ea040b0bea22
:104bd40003054d40344f47443a44154404eb3535fe
:104be400049fa7f5b822a2f2be6213448bea050b18
:104bf4005b4405eb337384ea05025a402b4f079e4e
:104c040037443944114403eb715185ea030b8beab1
:104c1400010b274a0b9f3a4414445c4401eb34448f
:104c240083ea01076740234a4a4415442f4443e07a
:104c340078a46ad756b7c7e8db702024eecebdc18e
:104c4400af0f7cf52ac68747134630a8019546fd69
:104c5400d8988069aff7448bbed75c892211906bda
:104c6400937198fd8e4379a62108b44962251ef6f6
:104c740040b340c0515a5e26aac7b6e95d102fd68c
:104c84005314440281e6a1d8c8fbd3e7e6cde12161
:104c9400d60737c3870dd5f4ed145a4505e9e3a9c2
:104ca400f8a3effcd9026f678a4c2a8d81f67187cd
:104cb40022619d6d0c38e5fd04eb772781ea04023f
:104cc4007a40944d009e35442b44134407eb3373d0
:104cd40084ea07025a40904d039e35442944114406
:104ce40003eb715187ea030b8bea010b8b4a069d98
:104cf4002a441444a34401eb3b4b83ea010282eab5
:104d04000b02874c099d2c4427443a440beb722236
:104d140081ea0b045440834d65442b44234402eb45
:104d240033738bea02075f407f4c0a9e344421446c
:104d34000f4403eb775782ea03057d407b49029ccd
:104d440021448b445d4407eb354583ea070b8bea2a
:104d5400050b7749059c21440a44934405eb7b2bbe
:104d640087ea050484ea0b04724a08990a44134446
:104d74001c440beb347485ea0b0161406e4b4344d5
:104d84001f44394404eb71518bea04034b406b4ad2
:104d9400724415441d4401eb354584ea01026a401e
:104da400674b019f3b449b445a4405eb722262eae1
:104db40001036b40634f37443c44234402ebb36329
:104dc40063ea050b8bea020b5f4c069f3c442144cb
:104dd4008b4403ebbb5b6bea02075f405b494944ce
:104de4000d442f440beb774767ea030484ea0b0472
:104df4005749049d29440a44144407ebf42464ea03
:104e04000b057d40534a424413441d4404ebb565ed
:104e140065ea070888ea04084f4b02990b449b444f
:104e2400d84405ebb85868ea04036b40099aa2f524
:104e34008016a6f683363e44334408eb734363ea94
:104e4400050989ea08094549009e31440c44a144f6
:104e540003ebf92969ea08065e40414a07990a44c6
:104e640015442e4409ebb66666ea030181ea09019a
:104e74003c4a72449044414406ebb15161ea09044e
:104e84007440394a059d2a4413441c4401eb74447c
:104e940064ea06054d40354b634499444d4404eba4
:104ea400f52565ea01076740314a039b1a44164415
:104eb400374405ebb76767ea04036b402d4a0b9e42
:104ec40032441144194407ebb15161ea05067e40ae
:104ed400294a019b1a441444344401eb7444c36cbe
:104ee4003b44c36464ea07074f40244b089a1344c5
:104ef4001d442f440aeb040505ebf7250565436db6
:104f04001c444465836d1944816500200db0bde8df
:104f1400f08f00bf44eabea4a9cfde4b604bbbf6c2
:104f240070bcbfbec67e9b28fa27a1ea8530efd4a9
:104f3400051d880439d0d4d9e599dbe6f87ca21f95
:104f44006556acc4442229f497ff2a43a72394aba3
:104f540039a093fcc3595b6592cc0c8fd15d8485d9
:104f64004f7ea86fe0e62cfe144301a3a111084e66
:104f7400827e53f735f23abdbbd2d72a91d386eb62
:020000040000fa
:104f8400b14b834240f04183b04b93f90020531e50
:104f9400dbb2012b00f239832de9f04f87b0ac4b23
:104fa4001b685bb1012a1ad0a94b1c68a64b1b884d
:104fb400002b00f01c830025a34e7be0a54b1b684f
:104fc40002a89847002800f3f58220b9029810b18e
:104fd40003f090fdeee29d4b00221a70eae29e4b34
:104fe4001b68b3f1ff3fdfd19c4a0021052025f067
:104ff4008bf9994b1860b0f1ff3f2ed023f0d0ff0e
:1050040000eb800303f2e733954aa2fb03239b09d9
:105014004ff47a7606fb03f3b3fbf0f6914b1e6074
:105024000225914c04e001351034282d00f0d6827d
:105034002368002bf7d0b4f90a20002af3d02146c4
:10504400a8b223f081fe0028edd106f5a673b3fbc8
:10505400f6f306fb03f6854b1e6026f00ffa88b9bb
:1050640018f04afe794bff221a7026f007fa00283e
:1050740000f0a08226f0fcf94ff0ff327c491cf0ce
:10508400e7fe97e226f0f4f905227a491cf0e0fee7
:10509400e6e703230422214630461ef017f894f86d
:1050a400433043f0800384f843300135743431884d
:1050b4008d424bdae06c0028f7d0636c9b6998470b
:1050c40094f8433013f0400fefd0636c5b69e06ced
:1050d40098470028dddb0228e7d1002302930393dd
:1050e4000493059340f2dc53adf81230636c1b6cef
:1050f40002a9206d98470298e063bdf80c30a4f82b
:105104004030bdf80e30003318bf012394f843201b
:1051140063f3451284f84320bdf81230a4f86630d6
:105124009df8153084f868309df8143084f869309f
:1051340094f8423043f0400384f84230d3b203f091
:10514400bf0343f0800384f84330aee73f4b93f949
:105154000030012b25d000201ef048fc464b1b6874
:1051640033b9464b1a68464b1b68134300f022823e
:10517400414b1b68002b40f089804ff000083f4be7
:105184001b68002b00f091813c4b00221a60304bcd
:105194001c682d4b1b88002b00f01a811646394fd2
:1051a400e8e02b4b1e68002900f0278232460025d8
:1051b4002b46012706e007fa03f005430133743256
:1051c400994212d092f8430000f00c04042cf2d15e
:1051d40010f0800f00f0ee8192f8420010f0400fc2
:1051e400ecd007fa03f00543e8e7012202fa03f3df
:1051f400013bab4200f00182134b1b88abb100248e
:1052040044f24008104f0ae0032304223146384692
:105214001df05cff013474363b889c4205dab6f815
:10522400423018ea030ff5d0eee7084bff221a705c
:1052340026f024f9002800f0bd8126f019f92a4649
:1052440011491cf005feb5e10ccd002031d0002041
:1052540080ce002084ce0020e0d10020ad8c02005e
:10526400d34d621078ce00203cb5002074ce0020cf
:105274009c9b01006c9b01006cce002088ce00201a
:1052840070ce0020a8c600200c9c01000025b44b61
:105294001d6026f0f9f8044622f0ecff06460f469e
:1052a40022462b4623f08ef8ae4b1860ae4aa2fb82
:1052b400043292092b463046394623f083f8ab4b2f
:1052c4001860ab4b1b68ab4a12689b1aab4204ddf7
:1052d400a74a13604ff0010851e703f24d13a44aa3
:1052e4001360a54b1c68a54b1b88002b00f06c8138
:1052f4000025a24e0ee094f86a3043f0020360f3f6
:10530400820360f3000384f86a300135743433880f
:105314009d420fda94f8423013f0400ff5d0636cdd
:105324005b6a206d984794f86a3003f00103984251
:10533400e1d1eae74ff0010821e74ff0010823e744
:10534400002503e08c62384625f0fcf8636c5b6b47
:105354002a462946206d984701460028f2d1884afa
:1053640013680133136029e001367434834b1b88be
:10537400b3422ddd94f8423013f0400ff4d0b4f86a
:105384006250636c5b6d206d98470543adb226f0a7
:1053940051fab4f8623023ea0503a4f8623026f027
:1053a4004dfab4f864302b43a4f86430636c1b6d7d
:1053b4002946206d984715f0160fc1d194f8433053
:1053c40013f0200fd0d0636c9b6b206d9847cbe714
:1053d4004ff0000bdff8b49109f10c07dff8b0a12e
:1053e4000af10803019305e001226ff00c0128463d
:1053f40022f0a8fd384624f06ffe054600284bd065
:105404006b699b891c0a44ea0324a4b2a86a866dca
:105414002eb1c36d22462946b0470028ead128465a
:1054240002f07ef80028e5d140f606039c420dd038
:10543400b4f5006f07d04ff6ff739c42d4d10af144
:105444001004022604e0019c012601e000265446d3
:105454002b6a23f47c132b62626813432b626088eb
:1054640000eb4000294609eb800025f06bf801238e
:1054740003fa06f616ea0b0fbcd14bea060b638857
:10548400404800eb0310038943f001030381002229
:10549400012124f095fdade726f0ccf9394a138bb0
:1054a40023f00103138326f0c9f9334b1b68334af5
:1054b400108820b3002240f286651446324e09e07b
:1054c4003168013131600ee0a3f864400132743375
:1054d400824214d093f8421011f0400ff6d0b3f882
:1054e40064100d42ecd193f86a1011f0020febd066
:1054f40093f86a106ff3410183f86a10e4e7b8f196
:10550400000f66d11f4d05f1300405f5247544e004
:105514001344a381238943f002032381002202213f
:10552400204624f04dfd1034ac420fd02368002bec
:10553400f9d0b4f90a20002af5d03168a3895b1a9e
:105544009bb219b20029e3dda181ece726f072f9e0
:105554000c4a138923f00203138126f06ff9d1e773
:105564006cce002060ce0020d34d62105cce0020b3
:1055740074ce002078ce002080ce00200ccd0020f8
:1055840068ce00201cb5002064ce00209cc60020fc
:10559400909a02001034ac4209d054f8103c34f80c
:1055a400082c002bf6d0002af4d09847f2e7174bca
:1055b4001b6813b907b0bde8f08f00224ff4807167
:1055c400134824f0fdfcf5e7124b1b68002b7ff415
:1055d400b4ae114c114e04f51875a7e706f5a67381
:1055e400b3fbf6f306fb03f60d4b1e60dce40d4b38
:1055f40093f90030012b7ff4aead0a4b02221a70ee
:105604000949002022f006fea5e5704770ce00206f
:105614002cb5002088ce00203cb5002078ce002098
:0c56240074ce002031d00020dc9b01007f
:020000040000fa
:105630002de9f04f8db082468946002308930993e7
:105640000a930b9343680393aa4b1968002940f30c
:10565000b8829346a84b93f8ce30012b00f0b88265
:105660000023a54d0133d8358b4200f0aa8295f86e
:10567000ce20012af6d1a04beb1adb1003ebc302bc
:1056800003eb4203c3eb432303eb8343daf800202d
:1056900054685a4299490398a047002485f8d1409c
:1056a00002232b7485f8cf4041f289336b82944bef
:1056b000ab6123f077fc04906c6000eb80035b002f
:1056c000ab6028602c75c5f8c4a028461ff074fe96
:1056d000b9f1010fc8bf012411dc95f8d130002bbe
:1056e00000f0e581012b00f01d820db0bde8f08fc8
:1056f000012385f8d1300134e4b24c45edda5bf892
:10570000246002227f49304624f054fe0028efd066
:1057100005227d49304624f04dfe0028e8d00222c3
:105720007a49304624f046fe28b1052278493046b1
:1057300024f040fe10b901232b74dce702227549e6
:10574000304624f037fe30b105227349304624f04c
:1057500031fe00285cd101232b741c44e4b25bf8b9
:105760002460304625f0eef9c7b207f1ff38b044a7
:105770006a49404625f0a7fab8b16949404625f084
:10578000a2fa00283dd14ff47a7807f1ff3cbcf132
:10579000000f33dd00273a464ff0010e3b460594db
:1057a0007146b64644460e46f4e15d49404625f052
:1057b0008afa00285b4b0cbf4ff47a789846e4e7ee
:1057c00002eb820200eb4202303aede12346059cf7
:1057d00003fb07f3424501d208fb02f2089209934a
:1057e000daf80010981800904e684f49daf8040073
:1057f000b047089b099a1344ab617ce7002213462b
:10580000eae7012208a9304619f026ff089bf3e7d2
:1058100002224649304624f0cdfd28b105224449f4
:10582000304624f0c7fd50b90134e4b2012208a982
:105830005bf8240019f010ff089bab615be70222c4
:105840003c49304624f0b6fd28b105223a4930469d
:1058500024f0b0fdb8b9002385f8d1300134e4b2aa
:10586000042208a95bf8240019f0f6fe089b85f8cd
:105870004430099b85f845300a9b85f846300b9be0
:1058800085f8473037e702222c49304624f092fd54
:1058900028b105222a49304624f08cfd78b901341c
:1058a000e4b2012208a95bf8240019f0d5fe089b98
:1058b000049a02fb03f3ab6000236b601be7022238
:1058c0002049304624f076fd30b105221e4930468d
:1058d00024f070fd002839d10134e4b2012208a976
:1058e0005bf8240019f0b8fe089b6b600023ab60e6
:1058f00001e700bf60cf0020c0c3002040000100ce
:105900008096980064fe000068fe000074fe0000af
:1059100078fe000080fe000084fe000090fe000083
:1059200094fe000040420f0098fe0000b4fe00000c
:10593000b8fe0000c4fe0000c8fe0000d4fe000057
:10594000d8fe0000e0fe0000e4fe00000222a149b3
:10595000304624f02ffd30b105229f49304624f017
:1059600029fd002836d10134e4b25bf824004378e5
:10597000782b17d0012208a919f06efe9df820009f
:105980000246202820d018d9a0281ad0c0281ed11d
:1059900010232b75daf800305e682b7d8f49039851
:1059a000b047a8e683788df81f30c3788df81e3095
:1059b000bdf81e0021f07cf8e2e740b900232b750a
:1059c000e8e720232b75e5e708232b75e2e70023a2
:1059d0002b75dfe702228249304624f0ebfc28b128
:1059e00005228049304624f0e5fc58b90134e4b280
:1059f000012208a95bf8240019f02efe089ba5f8e7
:105a0000d23078e602227849304624f0d3fc28b11f
:105a100005227649304624f0cdfc68b90134e4b261
:105a2000012208a95bf8240019f016fe089b049acd
:105a300002fb03f32b605ee602226d49304624f040
:105a4000b9fc28b106226b49304624f0b3fc50b9aa
:105a50000134e4b2012208a95bf8240019f0fcfd2e
:105a6000089b6b8247e602226349304624f0a2fc81
:105a700038b105226149304624f09cfc00287ff4af
