:020000040000fa
:10000000f0ff032089d20100a39a0100a3b80100e8
:1000100037d8010013ea010097ee0100000000004c
:100020000000000000000000000000000f8a010036
:10003000bfcd0100000000000f8a01000f8a0100ff
:100040000f8a01000f8a01000f8a01000f8a010048
:100050000f8a01000f8a01000f8a01000f8a010038
:100060000f8a01000f8a01000f8a01000f8a010028
:100070000f8a01000f8a01000f8a01000f8a010018
:100080000f8a01000f8a01000f8a01000f8a010008
:100090000f8a01000f8a01000f8a01000f8a0100f8
:1000a0000f8a01000f8a01000f8a01000f8a0100e8
:1000b0000f8a01000f8a01000f8a01007f7c020075
:1000c000897c02000f8a01000f8a01000f8a01005b
:1000d0000f8a01000f8a01000f8a01000f8a0100b8
:1000e0000f8a01000f8a01000000000000000000dc
:1000f000000000000f8a01000d2501000d25010000
:100100000d2501000d250100610d0200610d0200a9
:10011000610d0200610d02000f8a01000f8a0100cb
:100120000f8a01000f8a01000f8a01000f8a010067
:100130000f8a01000f8a01000f8a01000f8a010057
:100140000f8a01000f8a01000f8a01000f8a010047
:100150000f8a01000f8a01000f8a01000f8a010037
:100160000f8a01000f8a01000f8a01000f8a010027
:100170000f8a01000f8a01000f8a01000f8a010017
:100180000f8a01000f8a01000f8a01000f8a010007
:10019000a54e02000f8a01000f8a01000f8a01009c
:1001a0000f8a01000f8a01000f8a01000f8a0100e7
:1001b0000f8a01000f8a01000f8a01000f8a0100d7
:1001c0000f8a01000f8a01000f8a01000f8a0100c7
:1001d0000f8a01000f8a01000f8a01000f8a0100b7
:1001e0000f8a01000f8a01000f8a010031500200be
:1001f0000f8a01000f8a01000f8a01000f8a010097
:100200000f8a01000f8a01000f8a01000f8a010086
:100210000f8a01000f8a01000f8a01000f8a010076
:100220000f8a01000f8a01000f8a01000f8a010066
:100230000f8a01000f8a01000f8a01000f8a010056
:100240000f8a01000f8a01000f8a01000f8a010046
:100250000f8a01000f8a01000f8a01000f8a010036
:040260000f8a010000
:020000040000fa
:10026400f8b500bff8bc08bc9e467047ad2c020030
:10027400f8b500bff8bc08bc9e467047892c020044
:020000040000fa
:0802840028c300000100000086
:020000040000fa
:10028c002de9f04f8db00f210a2025f0d5f8029002
:10029c0010f0010f40f05d85029b13f0020f40f04f
:1002ac007c850db0bde8f08fd9f8187007f11002fd
:1002bc00059213f4007f21d1fb6809933b690a93e3
:1002cc0000228df82c2006238df82d30330a43eaba
:1002dc000623adf82e300c2109a81ef047fec043b2
:1002ec0083b2d9f8202012f0040f30d032464146a8
:1002fc0048461df059fa002840f09a8640461ff0f7
:10030c0013fb98f80ca04fea1a1a4fea8a030493cd
:10031c00d9f81ca0baf80220002a00f08c86fd89be
:10032c00bb891d44baf800301d445540adb2c74bd3
:10033c00d3f800c0bcf1000f00f08086d9f828e09b
:10034c00c34b1b68039300239b4610460ee01a46d2
:10035c00314640461ef00afecde7b4f872208242c8
:10036c002fd001331bb21c469c452fd9039a52f84f
:10037c002440002cf5d094f876200b2af1d094f878
:10038c0077100129edd8a16c09b18e45e9d1002a6d
:10039c00e3d0b4f87220aa42e3d1daf80010226e4e
:1003ac009142ded1216cfa689142dad1012184f8b4
:1003bc007710c4f848e0059a204623f0d0fda346f8
:1003cc0022e0bbf1000f08bfa346cae7bbf1000f48
:1003dc0000f08380fb68cbf8403001218bf877105c
:1003ec00cbf848e0059a584623f0b9fdabf87250ab
:1003fc00baf80030abf86030baf80230abf86230c3
:10040c00dbf80030cbf81030d9f810209389049920
:10041c005b1a938198f80d40d8f80870d8f80450fe
:10042c009bf83f3013f0400f5bd19bf875306ff3a6
:10043c0000038bf875309bf87630002b69d0012bbc
:10044c0000f09e801436049aa6eb020a1ffa8afa70
:10045c00aaf1140292b2059214f0010206921abf8c
:10046c00aaf1130a1ffa8af2059a039214f0020fea
:10047c0003d0039a013292b20392dbf81c60dbf8d2
:10048c0020209642c0f0aa80dbf81810dbf814008c
:10049c00091aa6eb020aa1eb0a0a1ffa8af20492c5
:1004ac00dbf85820a5eb020a039a002a00f0a98079
:1004bc00049a002a00f0a080baf1000fc0f29680d6
:1004cc009245c0f0a780039a04998a1a8a45c0f213
:1004dc00a180924540f39e808ee06ff00e0100f0fb
:1004ec0034bc00238bf879309bf83e3013f0020fac
:1004fc009bd125f0a5f8bbf87020564b1b6803fb6d
:10050c0002f3554aa2fb032300eb9310cbf8240013
:10051c008be714f0040f1ad114f0100f1dd114f046
:10052c00020f27d00135cbf85850404619f056fa37
:10053c00abf86a00584622f07cfe01221221584684
:10054c0004f0b8fa02238bf876300026e6e300219b
:10055c00584612f0b5fd0026e0e3cbf854700022ab
:10056c000421584604f0a6fa0021584612f0a8fdc2
:10057c000026d3e30021584612f0a2fd0026cde35d
:10058c0014f0040f40f0c98314f0100f00f0a08594
:10059c00dbf85460b74205d114f0020f40f05585da
:1005ac000026bbe3cbf8547001220421584604f01a
:1005bc0081facbf854600026b0e325f041f8bbf883
:1005cc007020244b1b6803fb02f3234aa2fb03237a
:1005dc0000eb9313cbf8243000f056bda2eb060ac7
:1005ec000af1ff3a1ffa8af2049259e703990a4674
:1005fc00514400293ff768af14f0040f1fd00026b8
:10060c008ce3baf1000f05d0baf1000ff4db049ab9
:10061c009245f1da14f0060f20d114f0100f00f00f
:10062c009083023b072b00f2cc81dfe813f029000a
:10063c003e003e003e003e00ca013e00bd010122cc
:10064c001021584604f036fa002667e378be0020e5
:10065c0074be00207cbe0020d34d621014f0040f39
:10066c0008d09bf83f3043f002038bf83f304ff437
:10067c00006600e000260021584612f021fd4de3f3
:10068c00dbf85460b74205d103238bf876304ff476
:10069c0080760be0cbf8547001220421584604f00c
:1006ac0009facbf85460002638e30026dbf810106a
:1006bc00dbf808305a1a13d4dbf854003b1a9b1a97
:1006cc00002b1dddbbf8742002f40172042a01d149
:1006dc00012b0cd000221021584604f0ebf91de33d
:1006ec00dbf80430dbf800001b1a1a44e4e7013095
:1006fc00cbf854009bf8753043f002038bf875303f
:10070c00dbf85430dbf80c20881a914249d2dbf824
:10071c000420dbf80010521afb1a0344d318079379
:10072c00002b07dddbf80430dbf800209b1a079a5e
:10073c009a4246d9dbf83830002b40f0a280dbf827
:10074c000c20dbf808309a4200f0d980b8f80e3053
:10075c00bbf86e209a4238bfabf86e30dbf85420f1
:10076c00b8f80e303b449b1a9bb2bbf8641031b9fd
:10077c002bb19bf83e1041f040018bf83e10abf8ca
:10078c0064309bf87630042b00f0f080062b40f0a0
:10079c001981974240f0c2820021584612f090fc19
:1007ac00bce2fb1a03440793002b07dddbf8043093
:1007bc00dbf800001b1a0798984202d99142bed070
:1007cc00b8e740f2dc53cbf8343024f039ffdbf8d7
:1007dc003420c44b1b6803fb02f3c34aa2fb032364
:1007ec0000eb9313cbf838309bf83e306ff3451386
:1007fc008bf83e30dbf80c10079b0b44cbf80c301d
:10080c00dbf8102091420ed893421cd99a1adbf8cf
:10081c0054100a44cbf85420cbf81030dbf80420e9
:10082c00934224d313e0dbf80410dbf80000091a20
:10083c000a44934207d99a1adbf854100a44cbf8ad
:10084c005420cbf81030dbf80420934205d3dbf8ae
:10085c000010511a5b1acbf80c30dbf810309342b5
:10086c0005d3dbf80010521a9a1acbf810209bf81b
:10087c007630032b02d0082b7ff461af46f00406d0
:10088c005de724f0ddfedbf83830c31a002bfff6f1
:10089c0056afdbf834305b00b3f57a4f28bf4ff41a
:1008ac007a43cbf8343024f0cbfedbf834208d4b7c
:1008bc001b6803fb02f38c4aa2fb032300eb93138c
:1008cc00cbf83830dbf81010dbf80c20881adbf88a
:1008dc0054301b1acbf85430914207d2dbf8041079
:1008ec00dbf80000091a5b1acbf85430cbf8102057
:1008fc009bf83e3043f080038bf83e301fe79bf8ab
:10090c003f3013f0010f19d113f0400f06d19bf8b3
:10091c003e306ff341038bf83e3017e724f090fe26
:10092c00bbf870206f4b1b6803fb02f34ff47a7219
:10093c00b3fbf2f30344cbf82430e8e7dbf8543094
:10094c009f427ff403af9bf8743013f0040f3ff415
:10095c00fdae9bf83e306ff341038bf83e309bf8b5
:10096c003f306ff300038bf83f30efe6974203d034
:10097c0014f0200f35d0d1e19bf8743013f0040f34
:10098c00f6d024f05dfe574b1a6841f2883303fb16
:10099c0002f34ff47a72b3fbf2f30344cbf830302a
:1009ac0005238bf87630e3e7dbf8543001339f42b4
:1009bc0001d00026b2e10021584612f081fb00263e
:1009cc00ace1002614f0200f40f0a8819bf87620b3
:1009dc00a2f10803dbb2012b40f2a081062a00f041
:1009ec009d81059a002a3fd0baf1000f7edd059b50
:1009fc005344049a934203dda2eb0a039bb2059382
:100a0c0098f80c301b0908eb83030893dbf81c10d7
:100a1c00dbf81830059a52440a44934280f0f48073
:100a2c005a1a0132b2eb0a0200f1df801ffa82f887
:100a3c0001240094434608a80246514448461df040
:100a4c00d7fc0490059aa2eb080300949bb208aa69
:100a5c00dbf8141048461df0cbfc049b034498b201
:100a6c00059b834200f0d980039bcbb19bf8763079
:100a7c00033bdbb2022b84bfdbf81c30cbf82030fd
:100a8c009bf83e3013f0100f40f0fa809bf83e308c
:100a9c0043f010038bf83e3013f0080f00f0f68093
:100aac00069b002b00f03a81dbf858300133039a97
:100abc002a44934240f03281cbf8583046f4806699
:100acc009bf83f3043f004038bf83f309bf87630b3
:100adc00023b032b00f20781dfe813f0ec00f5007a
:100aec00fe0015017cbe0020d34d621098f80c302e
:100afc001b09caeb830343440893524493b2049af0
:100b0c009a4228bf1a469246dbf81c10dbf81830c4
:100b1c008a18934259d25b1a01330493bdf81080a2
:100b2c0001240094434608aa48461df061fc059038
:100b3c00aaeb080300949bb208aadbf814104846f1
:100b4c001df056fc059a024490b2049baaeb0303d9
:100b5c00dbf814201344504586d1dbf8581051446f
:100b6c00cbf85810cbf81c309bf87620033ad2b255
:100b7c00022a98bf46f40076dbf85c20b2f1ff3f06
:100b8c003ff472afa2eb0a0acbf85ca0bbf868206a
:100b9c0012eb0a0224d4baf1000f3ff765af1144ef
:100bac00cbf858101344cbf81c30dbf818209342c8
:100bbc0006d9dbf81410521ad2431344cbf81c306c
:100bcc004ff0ff33cbf85c304ee7012300935346d4
:100bdc0008aa48461df00cfcdbf81c305344bae75d
:100bec004ff0ff33cbf85c303ee70af1ff30dbf817
:100bfc0014209b1ac01a01230093059b08aa0144d8
:100c0c0048461df0f5fb2be701230093059b08aa32
:100c1c00514448461df0ecfb22e7dbf85c30b3f1a5
:100c2c00ff3f15d09a4519d2059a02eb0a01bbf881
:100c3c006820d018814205d88b4203d8a0eb0a0358
:100c4c009bb20593059babf86830cbf85ca00be727
:100c5c00cbf85ca0059babf8683005e7bbf86820c7
:100c6c001a4405980146514491427ff6fdae9245d7
:100c7c003ff6faaeaaeb03031844abf86800f3e6b0
:100c8c0001221021584603f015ff09e7dbb243f0af
:100c9c0008038bf83e3024f0d3fcb14b1a68642364
:100cac0003fb02f34ff47a72b3fbf2f30344cbf879
:100cbc002c30f5e609238bf87630012211215846a9
:100ccc0003f0f8fe2ae008238bf876309bf8753099
:100cdc0013f0010f07d021e0dbf854309f4208d00d
:100cec0006238bf8763001221021584603f0e2fee1
:100cfc0014e000221021584603f0dcfe0021584677
:100d0c0012f0def90ae000221021584603f0d2fe60
:100d1c000021584612f0d4f900e00026bbf87a20e6
:100d2c00324000f08e81dbf87c40002c00f08b818f
:100d3c00dbf88030d9f82810bbf93c00a047022121
:100d4c0003e00026eae76ff00d010a22484623f083
:100d5c00e5fc0a2026f0c4f8814600283ff49caa42
:100d6c00b9f82c60132eeed9d9f81c8098f80c30f9
:100d7c001b09042b0bd9b6eb830f0bdbd9f82030f6
:100d8c0013f400343ff490aa6ff00e01dde76ff01e
:100d9c000d01dae76ff00d01d7e7724b1b68002be2
:100dac003ff47faa00252b46dff8bc91dff8bca1ed
:100dbc00dff8b081e6e024f043fca36ac01a0028f7
:100dcc00a8bf1026f4e024f03bfce36ac01a00280c
:100ddc00c0f2f48094f87630052b00f08a8110264e
:100dec0087f001023146204603f064feeee024f069
:100dfc0027fc236bc01a0028c0f2e58001221421c5
:100e0c00204603f057fe0021204612f059f9b1e0bc
:100e1c0094f83e6006f00106012120461af009f80c
:100e2c0094f83e3043f0010384f83e304ff4805286
:100e3c000021204620f0befb002e40f09b8094f851
:100e4c003e306ff3000384f83e300a2384f876308a
:100e5c0090e024f0f5fb636ac01a0028c0f28a8087
:100e6c0094f876104b1e082b00f28280dfe803f01a
:100e7c000541556080688080700094f87830032bb1
:100e8c0040f22b81042384f87830354b1a684ff4e8
:100e9c007a7303fb02f3aafb03239b091b01236553
:100eac000221002694f87830013384f87830236dd1
:100ebc005b0023652069e268831a9bb2904204d2de
:100ecc0060682768c01b03449bb2606dc01a6065e4
:100edc00b4f864000344a4f8643022610022204674
:100eec0003f0e8fd002e45d00021204612f0e8f872
:100efc0040e094f87830022b40f2f18094f83e6098
:100f0c0006f001031e46002b18bf1421002fc9d177
:100f1c000122204603f0cefde4e794f87830042b50
:100f2c0040f2df80042384f8763011210026ede7af
:100f3c0094f87830042b40f2d68014210126e5e792
:100f4c0094f87830042b40f2d08014210126dde790
:100f5c0094f87830042b40f2ca8014210126d5e78e
:100f6c007cbe002078be002074be0020d34d6210e1
:100f7c00002e5ad101352db22b46d8f800209542bf
:100f8c00bff48fa9d9f8002052f82340002cf1d0df
:100f9c0094f876300b2bedd094f83e3013f0c0065d
:100fac001abfdf091026002713f0040f7ff403afdc
:100fbc0094f83e3013f0080f7ff405af94f87630b8
:100fcc00052b3ff414af002e7ff40aaf94f83e309b
:100fdc0013f0020f7ff43daf94f83f3013f0400f45
:100fec00c8d094f87630032bc4d124f029fb636a63
:100ffc00c01a0028bedb94f8792094f884309a4209
:10100c003ff406af02221021204603f053fd24f0da
:10101c0017fbb4f870203b4b1b6803fb02f3aafbd5
:10102c00032300eb93106062a4e7314600266de7c2
:10103c006ff0090189e66ff00e0186e66ff00e0184
:10104c0083e6022181e602217fe60135cbf8585078
:10105c00b8f80e30abf86e30abf86430404618f090
:10106c00bdfcabf86a00584622f0e3f801221021cf
:10107c00584603f01ffd03238bf876309bf83f3066
:10108c0013f0400f7ff499aa9bf83e306ff34103a5
:10109c008bf83e304ff4807640e60135cbf8585053
:1010ac00b8f80e30abf86e30abf86430404618f040
:1010bc0095fcabf86a00584622f0bbf801221221cd
:1010cc00584603f0f7fc02238bf87630002625e611
:1010dc0014f0020fe1d1002620e60221e1e61221f4
:1010ec00dfe61021dde61121dbe61021d9e6112126
:1010fc00d7e624f0a5fa236bc01a0028bff67eae03
:08110c0010266de67cbe0020f8
:020000040000fa
:101114002de9f04f2ded028b9bb00f21212024f0ff
:101124008ff9002800f0b8867d4b1b68002b40f334
:10113400b3867c4c0026dff820929fed7b8ab9e3ce
:10114400d4f8c4305d6894f8d1202ab3227c012af3
:1011540042d0022a61d1b4f93830b3f1ff3f25d02f
:101164000023724a4ff40071b4f9380023f076fd7d
:10117400d4f8bc200221b4f9380013f0adfd30b925
:10118400d4f8c4301b681b6869492846984706216f
:10119400204620f0eff886e31b681b686549284663
:1011a40098470121204620f0e5f87ce304f1800211
:1011b400618a012019f0e6ff2087b0f1ff3fcfd10b
:1011c400d4f8c4301b681b685b4928469847012142
:1011d400204620f0cff866e304f18002618a012002
:1011e40026f041fda087b0f1ff3f0ad00023534a07
:1011f4004ff4807123f0eefe0321204620f0baf86c
:1012040051e3d4f8c4301b681b684d4928469847fd
:101214000121204620f0aef845e31b681b684949cc
:10122400284698470121204620f0a4f83be3d4f84f
:10123400c430d3f804b03b4be31adb1003ebc30216
:1012440003eb4203c3eb432303eb8343c3f1000ae1
:1012540097e0d4f8c4301b681b683b49584698474c
:101264000421204620f086f81de3b4f93c0024f064
:1012740095fd18e30133c4f89430284624f09ffd0b
:1012840002460b46d4e908010cf079fcc4e90801d4
:10129400002f19dba36ae26a511c8b4231d09342be
:1012a40020dc616b01f1010161632cd020e0d4f8f2
:1012b400c4301b685b68254958469847236b013b3b
:1012c400a26a1344236391e07f42a76224f0bcf92d
:1012d400c4f88c00002384f8cc300421204620f08c
:1012e40049f8d7e75b1a226b13442363a36ae362ca
:1012f4000c3dadb2002d44d0dff858804ff4c867e0
:1013040036e0934206d1d4f8c4301b681b681049f8
:1013140058469847a36ae26a9342e9dde7e700bfcb
:1013240094be0020e0b2002000007a440d72020056
:101334005c9e0000149e0000389e0000f7710200bd
:10134400849e0000a89e0000c09e0000e09e000055
:101354000c9f000058a2002004bb00203a464146de
:10136400b4f93c0016f0b6faa5f5c865adb245b1be
:10137400b5f5c86ff2d22a46d149b4f93c0016f04b
:10138400a9fab4f93c0024f0bff805460b2878d933
:101394000c224946b4f93c0016f09cfa0c287ff460
:1013a40058afd9f800301f0e47ea03671a0202f457
:1013b4007f0217431b0a03f47f431f43a762d4f839
:1013c4009430002b7ff456af002ffff64eaf01236d
:1013d400c4f89430d4f8c4301b685b685246b949e9
:1013e40058469847a26a002a7ff461afa36ae36271
:1013f40005a9b4f93c0015f049fab4f93c0026f00b
:1014040097f924f099ff069dd4f8c4301b68628aca
:101414000292020e0192c0f3074200925f68c0f389
:101424000723c2b2a8495846b847d4f8c4301b6849
:10143400bdf8582002922a0e0192c5f30742009289
:101444005f68c5f30723eab2a0495846b847656404
:10145400bdf85830a4f8643024f0f6f8c4f88800d5
:10146400c4f8a800a36ac4f89c30d4f89430c4f833
:101474009830236bc4f8a030b4f93c0024f08efcff
:101484007fe7d4f894304bb994f8cf30012b40f077
:101494000a82042120461ff06dff04e224f0d4f8f0
:1014a400d4f8a830c31a22689342edd9d4f8942012
:1014b400d4f898309a4212d1d4f8c4301b681b680f
:1014c40083495846984724f0bff8c4f88c00002399
:1014d40084f8cc30042120461ff04cffd4e70021cf
:1014e40020460bf087fdcfe7b4f93c0024f00cf85c
:1014f40038b994f8cf304bb1092120461ff03aff98
:10150400d1e1b4f93c0024f049fccce105212046aa
:101514001ff030ffc7e194f8cd30002b00f0bd8000
:10152400b4f93c0023f0f0ff002840f0be8094f8aa
:10153400cc305a1c84f8cc200a2b00f2bb808021ca
:10154400b4f93c0026f0f0fb002800f0ac81e36a1b
:101554005b421a0e42ea0362190201f47f010a4354
:101564001b0a03f47f431343c9f800300025c9f86c
:101574000450c9f808508023c9f80c30c9f8105039
:10158400d4e9080124f070fb020e42ea006203026f
:1015940003f47f031a43030a03f47f431343c9f894
:1015a400143024f065f8d4f88c10d4f88830c91ab3
:1015b400b1fbf0f31a0e42ea03621f0207f47f073d
:1015c4003a431f0a07f47f473a43c9f8182000fb3f
:1015d400131307ee103ab8ee477a27ee087a07eeaf
:1015e400900af8ee676ac7ee267a67ee887afcee10
:1015f400e77a17ee903a1a0e42ea0362190201f4ee
:101604007f010a431b0a03f47f431343c9f81c30c8
:10161400236b1a0e42ea0362190201f47f010a43a2
:101624001b0a03f47f431343c9f82030636b1a0e7b
:1016340042ea0362190201f47f010a431b0a03f41c
:101644007f431343c9f82430e36a1a0e42ea036263
:10165400190201f47f010a431b0a03f47f43134375
:10166400c9f82830c9f82c50c9f8305034224946fa
:10167400b4f93c0020f000fd4c273a46294605a861
:1016840025f082ff3a4605a9b4f93c0020f0f4fca9
:10169400b4f93c000cf052f905e1022120460bf0ac
:1016a400a9fc012384f8cd303ae7b4f93c0024f0d6
:1016b40075fbf8e0092120461ff05cfef3e000bf53
:1016c40058a20020449f0000f06501002466010038
:1016d4002c9f000094f8cf30012b26d0b4f93800a9
:1016e40024f0ebf8002800f0de803822002105a861
:1016f40025f04aff05a9b4f938001cf0c8fd04f12f
:10170400400705ad0fcd0fc70fcd0fc70fcd0fc7c6
:1017140095e8030087e80300072120461ff02afe0e
:10172400b4f9380023f09afdbde0092120461ff0ea
:1017340021feb8e0d4f8c4305f68b4f9380025f06d
:101744008aff0546002865d0a36a002b49d1bd4b0a
:10175400e31adb1003ebc30203eb4203c3eb4323a3
:1017640003eb8343d4f8c4201268d2f804805a42ad
:10177400b5493846c04723f067ffc4f88800c4f869
:10178400a800a36ac4f89c30b4f9380025f0d8ff47
:1017940024f0d2fdd4f8c4301b68628a0292020e8f
:1017a4000192c0f307420092d3f80480c0f30723e8
:1017b400c2b2a6493846c047d4f8c4301b68b4f84e
:1017c4006420029294f84720019294f846200092f3
:1017d400d3f8048094f8453094f844209c49384662
:1017e400c047a36a0133a362d4f894200132c4f839
:1017f4009420e362284624f0e2fa02460b46d4e938
:1018040008010cf0bcf9c4e90801dff848824ff480
:10181400c8671ce0b4f9380023f020fd20b9b4f9fe
:10182400380025f0dbfcd8b123f00effc4f88c009f
:10183400082120461ff09efd35e03a464146b4f9a2
:10184400380016f049ffa5f5c865adb245b1b5f548
:10185400c86ff2d22a467f49b4f9380016f03cff2b
:10186400a36a63b994f8cf30012b1cd10821204618
:101874001ff080fd23f0e8fec4f88c0013e023f091
:10188400e3fed4f8a830c31a22689342ead90021af
:1018940020460bf0affbe5e794f8cd30c3b3092144
:1018a40020461ff067fd0136d8346b4b1b68b342ea
:1018b40040f3f28294f8ce30012bf4d0023b102b8b
:1018c40000f2e58201a252f823f000bf45110000a6
:1018d40033120000ed1400001b150000d91600009f
:1018e400391700009d18000025190000c1190000d7
:1018f400ed190000dd1b0000c31c0000471d0000a3
:101904006d1e0000ed1a0000dd1d0000831e0000a6
:10191400022120460bf06efb012384f8cd30bee794
:10192400d4f8c4305f68237c012b29d0022b2cd03f
:10193400444be31adb1003ebc30203eb4203c3eb98
:10194400432303eb83435d42d4f8c4301b685b68d4
:101954002a46424938469847204620f05ffa94f8d0
:10196400d130012b19d0d4f8c4301b685b682a46e7
:101974003b4938469847012120461ff0fbfc92e77b
:10198400b4f93c0020f008fdd2e7b4f9380021f0a6
:10199400fbfd4ff6ff732387cae794f8cf30002b83
:1019a400e1d1d4f8c4301b685b682a462d49384617
:1019b4009847022120461ff0ddfc74e7d4f8c800e4
:1019c40025f082f8032808d10b2120461ff0d2fc11
:1019d40023f03afec4f8ac0065e704f14401d4f8fe
:1019e400c80020f086feefe7d4f8c4305d6894f8b0
:1019f400cf20012a17d0d4f8c80025f065f80328b1
:101a04001bd094f8443003f0f003e02b2ed1237c58
:101a1400012b64d0237c022b7ff445af0c2120469c
:101a24001ff0a8fc3fe71b681b680f49284698472e
:101a3400012120461ff09efc35e70022a267a4f88e
:101a44007c20e4e7e0b20020449f0000f065010040
:101a54002466010058a2002094be0020709f00005c
:101a6400d49f0000a09f0000f49f000004f17802be
:101a740004f14401d4f8c8001af068fdb8b1d4f8f0
:101a8400c4301b6894f87d20039294f87c20029261
:101a940094f87b20019294f87a2000925f6894f87d
:101aa400793094f87820bf492846b847afe723f047
:101ab400cbfdd4f8ac30c71a23f0dafd00eb80007c
:101ac40087427ff6f0aed4f8c4301b681b68b64971
:101ad4002846984723f0b8fdc4f8ac00e3e610218b
:101ae40020461ff047fc95e7d4f8c4305d6804f144
:101af4004402618a012026f0bbf8a087b0f1ff3fc1
:101b04005ed00023a94a4ff4807123f063fae2689f
:101b14000521b4f93c0007f039fc30b9d4f8c430dd
:101b24001b681b68a2492846984702220621b4f97b
:101b34003c0007f02bfc30b9d4f8c4301b681b6898
:101b44009c4928469847d4f8c810b4f93c001ef0c4
:101b5400e0fa05a9b4f93c0014f098febdf85a3037
:101b6400a4f87e30d4f8c4301b681b689249284618
:101b74009847d4f8c4301b68628a029294f84720cc
:101b8400019294f8462000925f6894f8453094f8e6
:101b940044208a492846b847112120461ff0eafb11
:101ba40023f052fdc4f88800d4f884300344c4f808
:101bb40090304ff4c8625521814825f0e5fc72e667
:101bc400d4f8c4301b681b687e4928469847012115
:101bd40020461ff0cffb66e6d4f8c4305d680022cf
:101be400618a012024f0b1ff6087b0f1ff3f51d03a
:101bf4000023754a4ff4007123f030f8d4f8803094
:101c0400002b53d104f1440300220121b4f93a001a
:101c14001ff0fdfc4ff48063a4f87e30d4f8c43088
:101c24001b681b68644928469847d4f8c4301b686d
:101c3400628a029294f84720019294f84620009216
:101c44005f6894f8453094f8442060492846b847c2
:101c54000d2120461ff08efbd4f8b8200321b4f9df
:101c64003a0013f039f830b9d4f8c4301b681b6853
:101c74004f4928469847b4f93a0022f0d8ff23f098
:101c8400e3fcc4f8ac004ff4c86254214c4825f07e
:101c94007bfc08e6d4f8c4301b681b684c49284612
:101ca4009847012120461ff065fbfce504f1800301
:101cb400628a0121b4f93a0017f098f8a2e794f87f
:101cc400cf30012b19d0d4f8c4305f68b4f93a008e
:101cd40023f0f3fdb0b1b4f93a0023f0bffa23f0d6
:101ce400b3fcc4f88800d4f884300344c4f89030ba
:101cf4000e2120461ff03efbd5e50f2120461ff0a4
:101d040039fbd0e523f0a0fcd4f8ac30c51a23f09d
:101d1400affc00eb800085427ff6c5adb4f93a0014
:101d240021f032fc4ff6ff736387d4f8c4301b688c
:101d34001b682849384698470f2120461ff01afb94
:101d4400b1e5204606f0def901280bd002287ff425
:101d5400aaad0f2120461ff00dfb23f075fcc4f83b
:101d64008c00a0e5164f00bfb4f8b0508db1b5f5a6
:101d7400c86f28bf4ff4c8652a463946b4f93a00fb
:101d840010f0b0f9b4f8b0301b1aa4f8b0308542a2
:101d9400ead9b4f93a0023f0a3fd20460ef02cf959
:101da40081e500bf54a0000014a00000f7710200f8
:101db40080a00000a8a0000024ee0000d0a0000035
:101dc40058a20020849e00000d72020008a10000a9
:101dd400389e000040a10000227d0b21b4f93c0094
:101de40007f0d4fa204606f08df901280bd002281a
:101df4007ff459ad122120461ff0bcfa23f024fcd5
:101e0400c4f88c004fe5b4f8b05015b30027dff8e0
:101e140094a0a846b5f5c86f28bf4ff4c8684246d9
:101e24005146b4f93c0020f027f90744bfb22d1afb
:101e3400adb2804501d1002debd1b4f93c000bf0db
:101e44007dfd40b900221146b4f93c0021f0d6f9d9
:101e540029e52f46f1e7b4f8b030df1ba4f8b070e1
:101e640020460ef0c9f81ee520461cf0b9feb4f970
:101e74003a0021f089fb4ff6ff73638713e5204690
:101e84001cf0aefeb4f93c0020f086fa0be501210b
:101e940020461ff06ffa06e51bb0bdec028bbde8cf
:081ea400f08f00bf58a20020de
:020000040000fa
:101eac0030b585b0044690f99030002b40f00f818e
:101ebc000378012b04bf0023037090f8d430042b5b
:101ecc0000f22e84dfe813f005008b00d9001b0113
:101edc00110390f90830b3f1ff3f57d090f8fc2074
:101eec00012a22d051b229b1022a43d0ff2380f813
:101efc009030dce003f01f01c3f34a1303f502003a
:101f0c0000f580700022012303fa01f1c00125f0d5
:101f1c0039fd25f025ff21f08dfbc4f8dc0094f889
:101f2c00fc30013384f8fc30cfe025f019ff21f0b0
:101f3c0081fbd4f8dc30984200f0c78094f908306b
:101f4c0003f01f0201219140c3f34a1303f5020071
:101f5c0000f580700a46c00125f014fd25f000ff45
:101f6c0021f068fbc4f8dc0094f8fc30013384f8f1
:101f7c00fc30aae025f0f4fe21f05cfbd4f8dc3058
:101f8c00c31a062b94bf002501258fe090f8fc3076
:101f9c002bb1012b16d0ff2380f8903087e0002363
:101fac000193b44a009201220321d0f8ec0024f0f2
:101fbc0013f8002800f0898094f8fc30013384f881
:101fcc00fc3082e000230193aa4b009301231a46b4
:101fdc000321d0f8ec0023f0ffff054666e0d0f8b3
:101fec00ec0094f8fc30042b43d8dfe813f0050028
:101ffc009d0313009d033300002200929e4b012190
:10200c0024f07efa002860d094f8fc30013384f878
:10201c00fc305ae0d4f8e4309a0ac3f30913b2f551
:10202c00f87f01d11b2b07d0944900201cf00efe29
:10203c00ff2384f890303ae0002200928e4b9049b6
:10204c0024f05efa002840d094f8fc30013384f878
:10205c00fc303ae0d4f8e43003f00f0384f8fe309f
:10206c002bbb884900201cf0f1fdff2384f8903035
:10207c001de0ff2384f8903027e090f8fc10c1f1ac
:10208c00200200230093804b92b2804800eb011198
:10209c00d4f8ec0018f06afb94f8fc500544edb24f
:1020ac0084f8fc50202d14bf002501256db10023b0
:1020bc0084f8fc3094f8d4300133dbb284f8d4309b
:1020cc00052b04bf022384f890300123237094f96c
:1020dc009030022b00f02a8394f804316bb12378f2
:1020ec00012b00f04d83002384f804310121d4f836
:1020fc00ec0008f06ffb0123237005b030bdd0f865
:10210c00ec0094f8fc302e2b00f2e881dfe813f0a1
:10211c002f002f002f002f002f00e601e601e60113
:10212c00e601e60148004800480048004800e60186
:10213c00e601e601e601e6016e006e006e006e003f
:10214c006e00e601e601e601e601e6018900eb011d
:10215c009b00eb01c600eb01dc00eb01f200eb0194
:10216c00080130014d0171019601bb01db010093a7
:10217c00402303aa0521204617f0eafc0546002857
:10218c0094d0039b23b10a2384f8fc3000258de7ff
:10219c003f4900201cf05afdff2384f8903085e75e
:1021ac000a3bdbb200931f2303aa0421204617f03d
:1021bc00cffc054600283ff479af039b13f0100fba
:1021cc0018bf43f0e0035bb284f8f03013f1050f55
:1021dc0004db142384f8fc30002567e72c4900202d
:1021ec001cf034fdff2384f890305fe7143bdbb226
:1021fc0000931f2303aa0821204617f0a9fc0546cb
:10220c0000283ff453af039b13f0100f18bf43f09b
:10221c00e0035bb284f8f1301e2384f8fc30002517
:10222c0044e700230093144b01221a4924f068f967
:10223c00054600283ff43aaf94f8fc30013384f89b
:10224c00fc30002532e7d4f8e430a4f8f230002357
:10225c000093094b0122104924f052f9054600283d
:10226c003ff424af94f8fc30013384f8fc300025a3
:10227c001ce700bf5b400100d14e020038d90100c1
:10228c0094000a0060d901000d730200e4ee000016
:10229c0078d90100840004008a000400d4f8e430ea
:1022ac00a4f8f43000230093ba4b0122ba4924f06d
:1022bc0027f9054600283ff4f9ae94f8fc300133b9
:1022cc0084f8fc300025f1e6d4f8e430a4f8f630bc
:1022dc0000230093af4b0122b04924f011f90546bd
:1022ec0000283ff4e3ae94f8fc30013384f8fc3062
:1022fc000025dbe6d4f8e430a4f8f8300023009392
:10230c00a44b0122a64924f0fbf8054600283ff413
:10231c00cdae94f8fc30013384f8fc300025c5e6d2
:10232c00d4f8e430a4f8fa3094f9f0309bb203f10d
:10233c00090291b203f10e0292b2120142ea812219
:10234c00b4f8f23003f00f031a4300230193009307
:10235c00012392b2934923f03ffe054600283ff437
:10236c00a5ae94f8fc30013384f8fc3000259de6d2
:10237c0094f9f13028339bb2b4f8f420c2f309027b
:10238c0042ea8322002301930093012392b28649ef
:10239c0023f022fe054600283ff488ae94f8fc306a
:1023ac00013384f8fc30002580e694f9f0309bb2c0
:1023bc005a1d91b2b4f8f62022f47c5222f03f025e
:1023cc0042ea012212b292b209331a43002301935a
:1023dc000093012392b2704923f0fefd05460028bc
:1023ec003ff464ae94f8fc30013384f8fc300025e3
:1023fc005ce694f9f0309bb203f1090291b2b4f8a7
:10240c00f82022f47c5222f03f0242ea012212b25e
:10241c0092b20e331a43002301930093012392b21c
:10242c005e4923f0d9fd054600283ff43fae94f8f1
:10243c00fc30013384f8fc30002537e694f9f03099
:10244c009bb203f1110291b2b4f8fa2022f47c523f
:10245c0022f03f0242ea012212b292b216331a4320
:10246c00002301930093012392b24d4923f0b4fd54
:10247c00054600283ff41aae94f8fc30013384f87a
:10248c00fc30002512e694f8fe50002301930093d3
:10249c00012345f6217243f631719d4218bf0a465d
:1024ac00424923f099fd054600283ff4ffad94f80e
:1024bc00fe30012b3ff4faad94f8fc30013384f874
:1024cc00fc300025f2e500230193009301234ff427
:1024dc004042374923f080fd0546e7e5ff2384f8a9
:1024ec0090300025e2e50025e0e5d0f8ec0094f80a
:1024fc00fc30092b00f21081dfe813f00a002500f4
:10250c003a00640077009600ad00cc00e5000201b3
:10251c00637e1bb9042384f8fc30d6e5a17d627d73
:10252c0000230193234b0093012342ea0122224909
:10253c0023f052fd00283ff4c8ad94f8fc30013371
:10254c0084f8fc30c1e5e17d227e00230193194b18
:10255c000093012342ea0122184923f03dfd002893
:10256c003ff4b3ad94f8fc30013384f8fc30ace5a7
:10257c00002301930f4b009301238322104923f076
:10258c002bfd00283ff4a1ad94f8fc30013384f806
:10259c00fc309ae5d14e0200ad000400ae00040000
:1025ac00af000400840004008a000400d000040082
:1025bc00e00004000d73020002ca040005ca040006
:1025cc008700040000230193864b009301234ff4f2
:1025dc000042854923f000fd00283ff476ad94f8c5
:1025ec00fc30013384f8fc306fe594f8953094f8a6
:1025fc009420120442ea036294f892301a4394f83d
:10260c00931000230193774b0093012342ea01229c
:10261c00764923f0e1fc00283ff457ad94f8fc30e8
:10262c00013384f8fc3050e594f8971094f8962018
:10263c00002301936b4b0093012342ea01226c4966
:10264c0023f0cafc00283ff440ad94f8fc30013371
:10265c0084f8fc3039e594f8973094f896201204fd
:10266c0042ea036294f894301a4394f895100023cc
:10267c0001935c4b0093012342ea01225d4923f054
:10268c00abfc00283ff421ad94f8fc30013384f806
:10269c00fc301ae5a37e002b4ff000030193514b45
:1026ac0000934ff0010314bf102200224ff00111d0
:1026bc0023f092fc00283ff408ad94f8fc30013371
:1026cc0084f8fc3001e5e17e49f2260249f226232a
:1026dc00002918bf1a46237f0bb142f480720023e5
:1026ec000193404b00930123042123f075fc002837
:1026fc003ff4ebac94f8fc30013384f8fc30e4e4a8
:10270c00002301933c4b009301230c224ff48031a6
:10271c0023f062fc0546c9e4ff2384f89030c6e43c
:10272c00ff2380f89030d0e40025bfe4637e53bbd8
:10273c00d4f8e830002b43d194f90750c5f34a1074
:10274c0000f5020000f58070c00125f07bfb05f060
:10275c001f0520fa05f515f0010f7ff4bdac2378a9
:10276c00012b04bf002323700021d4f8ec0008f0e7
:10277c0031f80123237094f80431002b3ff4bdace5
:10278c0000232370afe425f0ebfa20f053ffd4f8cc
:10279c00e030c31ab3f57a7fcad3c4f8e0002378cb
:1027ac00012b04bf0023237000230093134b012241
:1027bc001349d4f8ec0023f0a3fe01232370b7e7f0
:1027cc0025f0cefa20f036ffd4f8e830c01a632892
:1027dc00b2d90023c4f8e830d4f8ec0025f017fa8d
:1027ec00aae700bf0d73020001ca04002400010017
:1027fc002500010022000100856d0200b35c02007f
:04280c0003ca0400f7
:020000040000fa
:1028100058bc00201c00000000000000e45e002006
:102820000400000000000000dcb6002004000000ee
:1028300000000000d4b700206c0000000000000081
:1028400038bf0020010000000000000040bf002051
:10285000d400000001000000480a0200000000004f
:102860000000000000000000000000000000000068
:102870000000000000000000000000000000000058
:102880000000000000000000000000000000000048
:102890000000000000000000000000000000000038
:1028a0000000000000000000000000000000000028
:1028b0000000000000000000000000000000000018
:1028c0000000000000000000000000000000000008
:1028d00000000000000000000000000000000000f8
:1028e00000000000000000000000000000000000e8
:1028f00000000000000000000000000000000000d8
:1029000000000000000000000000000000000000c7
:1029100000000000000000000000000000000000b7
:1029200000000000000000000000000076c0002051
:102930000100000001000000ff0000000cba0020b0
:102940000400000000000000e0b60020800000004d
:102950000000000088b900204400000000000000d2
:10296000e85e0020901100000000000034bf00204d
:102970000100000000000000d4bb002004000000a3
:1029800000000000d4bc0020100000000000000087
:10299000ccb000200c0100000000000090bd002021
:1029a0000400000000000000a0b80020500000005b
:1029b0000000000094bd00200400000000000000a2
:1029c00078b40020a40000000000000060b70020e0
:1029d0007400000000000000f0bc002010000000a7
:1029e000000000004cad00201802000000000000b4
:1029f000bcb50020900000000000000098a8002056
:102a0000800200000000000098bd002028000000a7
:102a100000000000e4bc00200c00000000000000ea
:102a200090bc0020180000000000000074bc0020d2
:102a30001c00000000000000c0bd002004000000d9
:102a40000000000057bc0020010000000000000052
:102a5000c4bd002004000000000000009cc0002055
:102a60000400000001000000ffffffff14c0002071
:102a70002800000001000000bb010300d10101009b
:102a80004b020100330203007c020300dd0303005c
:102a9000de030300e0030300e1030100b3220100b1
:102aa000a8bc00201800000000000000c8bd0020e5
:102ab0000c0000000000000066bd002002000000c5
:102ac00000000000d4bd0020040000000000000051
:102ad000889a0020d007000000000000d8bd002028
:102ae0001000000000000000d2bc00200200000026
:102af00000000000e8bd0020080000000000000009
:102b0000c0bc0020110000000000000038bc002004
:102b10001f00000000000000f0bd002004000000c5
:102b2000000000001ebf00200200000000000000a6
:102b3000f4bd0020100000000000000022bf0020b3
:102b4000020000000000000004be00200800000099
:102b50000000000026bf002002000000000000006e
:102b60000cbe00201000000000000000d1bc0020be
:102b70000100000000000000a0c0002004000000d0
:102b800001000000640000001cbe002008000000de
:102b900000000000ccba0020380000000000000057
:102ba00024be00201c0000000000000020bd00200a
:102bb0000c0000000000000000bd0020100000001c
:102bc000000000001dbf0020010000000000000008
:102bd00028bf0020040000000000000040be0020cc
:102be000040000000000000010bd002010000000e4
:102bf0000000000044be00200c00000000000000a7
:102c00005cbd00200a0000000000000050be002053
:102c10001c000000000000002cbf0020020000008b
:102c2000000000006cbe0020080000000000000052
:102c300021bf0020010000000000000040b900207a
:102c4000480000000000000094c0002006000000c2
:102c500001000000ffffffffffff000074be002027
:102c60000c000000000000002ebf00200400000047
:102c70000000000080be00200c00000000000000ea
:102c800025bf002001000000000000008cbe0020d5
:102c90000400000000000000e0b20020d8000000a6
:102ca0000000000004bb0020340000000000000011
:102cb00090be0020040000000000000035bf00208e
:102cc000010000000000000094be0020040000008d
:102cd0000000000058a20020400600000000000094
:102ce0002cbd002018000000000000004cb60020a1
:102cf000900000000000000098be00200c000000c2
:102d00000000000018ab00203402000000000000aa
:102d100064af00206801000000000000d8bb002064
:102d2000600000000000000032bf00200200000030
:102d30000000000036bf002001000000000000007d
:102d400038bb00202c00000000000000887a002022
:102d50000010000000000000ccb90020400000007e
:102d60000000000068bd002010000000000000000e
:102d7000a4be0020040000000000000037bf0020b7
:102d80000100000000000000888a00200008000008
:102d900000000000a8be00200800000000000000a5
:102da000b8b30020c00000000000000078bd002083
:102db000080000000000000044bd00200c000000de
:102dc00000000000889200200008000000000000c1
:102dd00039bf00200200000000000000b0be00204b
:102de000080000000000000010ba002040000000b1
:102df000000000001cb50020a00000000000000042
:102e000062c000200200000001000000010000007c
:102e1000b8be002010000000000000003bbf0020f2
:102e20000100000000000000d8b1002008010000ef
:102e30000000000064bb00204c0000000000000007
:102e400024bf00200100000000000000c8be0020d8
:102e50000400000000000000b0bb002024000000bf
:102e60000000000020bf0020010000000000000062
:102e700088c000200c00000001000000f4010000e8
:102e8000d0070000010000003cc000202600000028
:102e90000100000008000800020001000200080014
:102ea000000600060101540030303a30343a323521
:102eb0003a30313a30323a303300000064c00020fa
:102ec000120000000100000030303a30343a323550
:102ed0003a30313a30323a303400000078c00020c5
:102ee0001000000001000000010100009d0502002b
:102ef000f92a020000000100a8c000200200000022
:102f0000010000000001000040b800206000000047
:102f100000000000ccbe00200c00000000000000fb
:102f20001cbf00200100000000000000d8be0020ef
:102f3000040000000000000080bd00200800000028
:102f4000000000003cbf0020030000000000000063
:102f5000dcbe002004000000000000003fbf002095
:102f60000100000000000000e0be0020040000009e
:102f70000000000090ba00203c00000000000000ab
:102f800000000020e45e000000000000e4be00201d
:102f90001c0000000000000078700020100a0000f3
:102fa0000000000088bd00200800000000000000b4
:102fb00000bf0020040000000000000077c00020d7
:102fc00001000000010000000700000050ba0020ce
:102fd000400000000000000004bf00200c000000c2
:102fe00000000000a4c00020040000000100000058
:102ff0000100000010bf00200400000000000000dd
:10300000f0b80020500000000000000014bf0020b5
:10301000040000000000000018bf002004000000b1
:103020000000000050bd00200c0000000000000067
:103030000000000000000000666666666666666660
:020000040000fa
:103040005478204279746520436f756e742d6c6fcf
:10305000776572203332626974732854784f544c08
:103060004f290000597a0200547820427974652073
:10307000436f756e742d757070657220313662699c
:1030800074732854784f544849290000637a020029
:103090005478204672616d657320772f6f206572ba
:1030a000726f722854784654434e54290000000031
:1030b000000000006d7a020054782042726f616453
:1030c00063617374204672616d657328547842435e
:1030d000465429000000000000000000777a02003a
:1030e0005478204d756c7469636173742046726105
:1030f0006d65732854784d46542900000000000087
:1031000000000000817a02005478205061757365d8
:10311000204672616d65732854785046542900002a
:103120000000000000000000000000008b7a020098
:1031300054782036342d62797465204672616d654d
:1031400073285478424654363429000000000000a9
:1031500000000000957a020054782036352d313277
:10316000372062797465204672616d657328544218
:103170004654313237290000000000009f7a0200d7
:103180005478203132382d323535206279746520fb
:103190004672616d657328544246543235352900b4
:1031a00000000000a97a02005478203235362d350f
:1031b00031312062797465204672616d65732854df
:1031c000424654353131290000000000b37a020034
:1031d0005478203531322d313032332062797465a4
:1031e000204672616d657328544246543130323343
:1031f00029000000bd7a0200547820313032342d8d
:10320000313531382062797465204672616d65739d
:10321000285442465431353138290000c77a02001b
:103220005478204672616d6573203e3d2031353102
:10323000382062797465284754424631353138293f
:1032400000000000d17a0200547820556e64657247
:1032500072756e204672616d6573206e6f742054b6
:10326000586564285478545552290000db7a0200ce
:1032700054782053696e676c6520436f6c6c69737a
:10328000696f6e204672616d6573285478534346aa
:1032900029000000e57a0200547820322d313520d3
:1032a000436f6c6c6973696f6e204672616d6573f4
:1032b0002854784d4346290000000000ef7a0200b0
:1032c000547820313620436f6c6c6973696f6e20bf
:1032d0004672616d65732854784543434e54290006
:1032e00000000000f97a02005478206c61746520b7
:1032f000436f6c6c6973696f6e204672616d6573a4
:103300002854784c43434e5429000000037b0200ac
:103310005478204465666572726564204672616dfa
:1033200065732854784454462900000000000000ca
:10333000000000000d7b0200547820436172726926
:1033400065722053656e7365206572726f722046d8
:1033500072616d657328547843534529177b0200c9
:103360005278204279746520436f756e742d6c6fae
:10337000776572203332626974732852784f524ce9
:103380004f290000217b0200527820427974652089
:10339000436f756e742d7570706572203136626979
:1033a00074732852784f5248492900002b7b020041
:1033b0005278204672616d657320772f6f20657299
:1033c000726f722852784652434e54290000000012
:1033d00000000000357b020052782042726f616469
:1033e00063617374204672616d657328527842433d
:1033f0004652290000000000000000003f7b020050
:103400005278204d756c74696361737420467261e3
:103410006d6573202852784d465229000000000047
:1034200000000000497b02005278205061757365ee
:10343000204672616d65732852785046522900000b
:10344000000000000000000000000000537b0200ac
:1034500052782036342d62797465204672616d652c
:10346000732852784246523634290000000000008a
:10347000000000005d7b020052782036352d31328d
:10348000372062797465204672616d6573285442f5
:10349000465231323729000000000000677b0200ed
:1034a0005278203132382d323535206279746520da
:1034b0004672616d65732854424652323535290093
:1034c00000000000717b02005278203235362d3525
:1034d00031312062797465204672616d65732854bc
:1034e0004246523531312900000000007b7b02004a
:1034f0005278203531322d31303233206279746583
:10350000204672616d657328544246523130323321
:1035100029000000857b0200527820313032342da2
:10352000313531382062797465204672616d65737a
:103530002854424652313531382900008f7b020031
:103540005278204672616d6573203e3d20313531e1
:103550003920627974657328544d584246522900c7
:1035600000000000997b02005278204672616d6570
:1035700073203c2036342062797465732852785564
:10358000465229000000000000000000a37b02005a
:103590005278204672616d6573203e203135313896
:1035a0002062797465732852784f465229000000d2
:1035b00000000000ad7b02005278206572726f72cd
:1035c000204672616d6573203e20313531382062ae
:1035d000797465732852784a52290000b77b02003b
:1035e000527820435243206572726f722046726196
:1035f0006d6573285278464353452900000000004a
:1036000000000000c17b02005278204c656e677498
:1036100068206669656c64206572726f72204672fc
:10362000616d65732852784c46464529cb7b020074
:1036300052782073796d626f6c206572726f7220a0
:103640004672616d65732852785253452900000017
:1036500000000000d57b0200527820616c69676e23
:103660006d656e74206572726f72204672616d6551
:10367000732852784145290000000000df7b0200da
:103680005278205265736f75726365204572726f50
:103690007220285278525245290000000000000094
:1036a00000000000e97b02005278206f766572729c
:1036b000756e206572726f72204672616d65732837
:1036c0005278524f4529000000000000f37b0200b1
:1036d00052782049504864722043686b73756d209e
:1036e0006572726f72204672616d657328527849f7
:1036f00048434529fd7b0200527820544350204323
:10370000686b73756d206572726f72204672616da1
:10371000657328527854434529000000077c020055
:103720005278205544502043686b73756d20657244
:10373000726f72204672616d6573285278554345e9
:0837400029000000117c0200c9
:020000040000fa
:103748002de9f04f8db0d0f850a00a68436d846d14
:1037580083ea040e0eea0a0e8eea040ed84bc46cf5
:1037680023440a9213449e440aeb7e6e4e68436dce
:103778008aea030707ea0e075f40d24b856d2b44a0
:10378800009633441f440eeb37578b681a468aea73
:103798000e053d4085ea0a05cb4b446d2344019252
:1037a80013441d4407ebf535cb681c468eea070623
:1037b8002e4086ea0e06c54b5344029423441e4409
:1037c80005ebb6260b691c4687ea050333407b40a8
:1037d800bf4a039422449644734406eb73694a69ca
:1037e800134685ea060404ea09046c40b94a0493be
:1037f8001a4417443c4409eb34548b6986ea09029d
:1038080022407240b44f05931f443d442a4404ebc0
:10381800f232cf6989ea040808ea020888ea090846
:10382800ae4d06973d442e44b04402ebb8280f6acb
:1038380084ea020c0cea080c8cea040ca84d0797e1
:103848003d4409eb05039c4408eb7c6c4d6a82ea15
:10385800080909ea0c0989ea0209a24b08952b44d0
:103868001c44a1440ceb39598b6a88ea0c0e0eea09
:10387800090e8eea080e0993a3f524434f3b1a4418
:10388800964409ebfe3eca6a16468cea090505ea23
:103898000e0585ea0c05944b1344984445440eebf9
:1038a800b525d1f8308089ea0e072f4087ea090745
:1038b8008e4b43449c44674405eb7767d1f834c08a
:1038c8008eea05033b4083ea0e03894a6244914429
:1038d8004b4407eb3353d1f8389085ea07041c4072
:1038e8006c40844a4a449644744403ebf434d1f857
:1038f8003ce087ea030222407a407f4971440d4444
:103908002a4404ebb22284ea020b0bea030b8bea8b
:10391800040b7a49009d29440f44bb4402ebfb6b1e
:1039280082ea0b07274057407549059d29440b44f7
:103938001f440bebf7578bea0703134083ea0b038b
:1039480070490b9631440c44234407ebb34387ea90
:10395800030505ea0b057d406b490a9c21440a448e
:10396800154403eb353583ea05023a405a40674966
:10397800049e31448b445a4405ebf26285ea020105
:1039880019406940624c099e34442744394402eb8b
:10399800f15182ea01042c4054405e4f77443b4485
:1039a8001c4401ebb44481ea040313404b405a4fd2
:1039b800039e37443d442b4404eb333384ea030b22
:1039c8000bea010b8bea040b544d089e35442a443c
:1039d800934403ebfb6b83ea0b0727405f40504a95
:1039e8004a4411440f440bebf7578bea07051d4077
:1039f80085ea0b054b4a02990a441444254407eb0f
:103a0800b54587ea050202ea0b027a404649079e55
:103a180031440b441a4405eb323285ea02033b4039
:103a28006b40424961448b445b4402ebf36382ea96
:103a38000301294051403e4c019e344427443944f7
:103a480003ebf15183ea010414405c40394f069eb0
:103a580037443d442c4401ebb44481ea040b0bea9f
:103a680003054d40344f47443a44154404eb35357b
:103a7800049fa7f5b822a2f2be6213448bea050b95
:103a88005b4405eb337384ea05025a402b4f079ecb
:103a980037443944114403eb715185ea030b8bea2f
:103aa800010b274a0b9f3a4414445c4401eb34440d
:103ab80083ea01076740234a4a4415442f4443e0f8
:103ac80078a46ad756b7c7e8db702024eecebdc10c
:103ad800af0f7cf52ac68747134630a8019546fde7
:103ae800d8988069aff7448bbed75c892211906b58
:103af800937198fd8e4379a62108b44962251ef674
:103b080040b340c0515a5e26aac7b6e95d102fd609
:103b18005314440281e6a1d8c8fbd3e7e6cde121de
:103b2800d60737c3870dd5f4ed145a4505e9e3a93f
:103b3800f8a3effcd9026f678a4c2a8d81f671874a
:103b480022619d6d0c38e5fd04eb772781ea0402bc
:103b58007a40944d009e35442b44134407eb33734d
:103b680084ea07025a40904d039e35442944114483
:103b780003eb715187ea030b8bea010b8b4a069d15
:103b88002a441444a34401eb3b4b83ea010282ea32
:103b98000b02874c099d2c4427443a440beb7222b4
:103ba80081ea0b045440834d65442b44234402ebc3
:103bb80033738bea02075f407f4c0a9e34442144ea
:103bc8000f4403eb775782ea03057d407b49029c4b
:103bd80021448b445d4407eb354583ea070b8beaa8
:103be800050b7749059c21440a44934405eb7b2b3c
:103bf80087ea050484ea0b04724a08990a441344c4
:103c08001c440beb347485ea0b0161406e4b434452
:103c18001f44394404eb71518bea04034b406b4a4f
:103c2800724415441d4401eb354584ea01026a409b
:103c3800674b019f3b449b445a4405eb722262ea5e
:103c480001036b40634f37443c44234402ebb363a6
:103c580063ea050b8bea020b5f4c069f3c44214448
:103c68008b4403ebbb5b6bea02075f405b4949444b
:103c78000d442f440beb774767ea030484ea0b04ef
:103c88005749049d29440a44144407ebf42464ea80
:103c98000b057d40534a424413441d4404ebb5656b
:103ca80065ea070888ea04084f4b02990b449b44cd
:103cb800d84405ebb85868ea04036b40099aa2f5a2
:103cc8008016a6f683363e44334408eb734363ea12
:103cd800050989ea08094549009e31440c44a14474
:103ce80003ebf92969ea08065e40414a07990a4444
:103cf80015442e4409ebb66666ea030181ea090118
:103d08003c4a72449044414406ebb15161ea0904cb
:103d18007440394a059d2a4413441c4401eb7444f9
:103d280064ea06054d40354b634499444d4404eb21
:103d3800f52565ea01076740314a039b1a44164492
:103d4800374405ebb76767ea04036b402d4a0b9ebf
:103d580032441144194407ebb15161ea05067e402b
:103d6800294a019b1a441444344401eb7444c36c3b
:103d78003b44c36464ea07074f40244b089a134442
:103d88001d442f440aeb040505ebf7250565436d33
:103d98001c444465836d1944816500200db0bde85d
:103da800f08f00bf44eabea4a9cfde4b604bbbf640
:103db80070bcbfbec67e9b28fa27a1ea8530efd427
:103dc800051d880439d0d4d9e599dbe6f87ca21f13
:103dd8006556acc4442229f497ff2a43a72394ab21
:103de80039a093fcc3595b6592cc0c8fd15d848557
:103df8004f7ea86fe0e62cfe144301a3a111084ee4
:103e0800827e53f735f23abdbbd2d72a91d386ebdf
:020000040000fa
:103e1800b14b834240f04183b04b93f90020531ecd
:103e2800dbb2012b00f239832de9f04f87b0ac4ba0
:103e38001b685bb1012a1ad0a94b1c68a64b1b88ca
:103e4800002b00f01c830025a34e7be0a54b1b68cc
:103e580002a89847002800f3f58220b9029810b10b
:103e680003f046fbeee29d4b00221a70eae29e4bfd
:103e78001b68b3f1ff3fdfd19c4a0021052022f0e7
:103e88001dfd994b1860b0f1ff3f2ed021f0eefbdd
:103e980000eb800303f2e733954aa2fb03239b0957
:103ea8004ff47a7606fb03f3b3fbf0f6914b1e60f2
:103eb8000225914c04e001351034282d00f0d682fb
:103ec8002368002bf7d0b4f90a20002af3d0214642
:103ed800a8b221f09ffa0028edd106f5a673b3fb2e
:103ee800f6f306fb03f6854b1e6023f06bfd88b9dd
:103ef80017f04af8794bff221a7023f063fd002867
:103f080000f0a08223f058fd4ff0ff327c491af0f0
:103f18009ffe97e223f050fd05227a491af098fe99
:103f2800e6e703230422214630461bf093ff94f86a
:103f3800433043f0800384f84330013574343188ca
:103f48008d424bdae06c0028f7d0636c9b69984788
:103f580094f8433013f0400fefd0636c5b69e06c6a
:103f680098470028dddb0228e7d10023029303935a
:103f78000493059340f2dc53adf81230636c1b6c6c
:103f880002a9206d98470298e063bdf80c30a4f8a8
:103f98004030bdf80e30003318bf012394f8432099
:103fa80063f3451284f84320bdf81230a4f8663054
:103fb8009df8153084f868309df8143084f869301d
:103fc80094f8423043f0400384f84230d3b203f00f
:103fd800bf0343f0800384f84330aee73f4b93f9c7
:103fe8000030012b25d000201cf090fb464b1b68ad
:103ff80033b9464b1a68464b1b68134300f02282bc
:10400800414b1b68002b40f089804ff000083f4b64
:104018001b68002b00f091813c4b00221a60304b4a
:104028001c682d4b1b88002b00f01a811646394f4f
:10403800e8e02b4b1e68002900f027823246002555
:104048002b46012706e007fa03f0054301337432d3
:10405800994212d092f8430000f00c04042cf2d1db
:1040680010f0800f00f0ee8192f8420010f0400f3f
:10407800ecd007fa03f00543e8e7012202fa03f35c
:10408800013bab4200f00182134b1b88abb100240b
:1040980044f24008104f0ae0032304223146384610
:1040a8001bf0d8fe013474363b889c4205dab6f81a
:1040b800423018ea030ff5d0eee7084bff221a70da
:1040c80023f080fc002800f0bd8123f075fc2a460f
:1040d80011491af0bdfdb5e174bc002057bc0020a1
:1040e800bcbd0020c0bd00209cc000207d53020044
:1040f800d34d6210b4bd0020b8a80020b0bd002088
:10410800d8720100a8720100a8bd0020c4bd00201b
:10411800acbd0020c8b50020487301000025b44b91
:104128001d6023f055fc044620f092fc06460f461d
:1041380022462b4620f004fdae4b1860ae4aa2fb87
:10414800043292092b463046394620f0f9fcab4b35
:104158001860ab4b1b68ab4a12689b1aab4204dd74
:10416800a74a13604ff0010851e703f24d13a44a20
:104178001360a54b1c68a54b1b88002b00f06c81b5
:104188000025a24e0ee094f86a3043f0020360f373
:10419800820360f3000384f86a300135743433888d
:1041a8009d420fda94f8423013f0400ff5d0636c5b
:1041b8005b6a206d984794f86a3003f001039842cf
:1041c800e1d1eae74ff0010821e74ff0010823e7c2
:1041d800002503e08c62384622f08efc636c5b6b32
:1041e8002a462946206d984701460028f2d1884a78
:1041f80013680133136029e001367434834b1b883c
:10420800b3422ddd94f8423013f0400ff4d0b4f8e7
:104218006250636c5b6d206d98470543adb223f027
:1042280099fdb4f8623023ea0503a4f8623023f05c
:1042380095fdb4f864302b43a4f86430636c1b6daf
:104248002946206d984715f0160fc1d194f84330d0
:1042580013f0200fd0d0636c9b6b206d9847cbe791
:104268004ff0000bdff8b49109f10c07dff8b0a1ab
:104278000af10803019305e001226ff00c012846ba
:1042880020f04efa384622f001fa054600284bd0b5
:104298006b699b891c0a44ea0324a4b2a86a866d48
:1042a8002eb1c36d22462946b0470028ead12846d8
:1042b80002f0defc0028e5d140f606039c420dd052
:1042c800b4f5006f07d04ff6ff739c42d4d10af1c2
:1042d8001004022604e0019c012601e00026544651
:1042e8002b6a23f47c132b62626813432b62608869
:1042f80000eb4000294609eb800022f0fdfb01237a
:1043080003fa06f616ea0b0fbcd14bea060b6388d4
:10431800404800eb0310038943f0010303810022a6
:10432800012122f027f9ade723f014fd394a138b58
:1043380023f00103138323f011fd334b1b68334a29
:10434800108820b3002240f286651446324e09e0f8
:104358003168013131600ee0a3f8644001327433f2
:10436800824214d093f8421011f0400ff6d0b3f8ff
:1043780064100d42ecd193f86a1011f0020febd0e3
:1043880093f86a106ff3410183f86a10e4e7b8f113
:10439800000f66d11f4d05f1300405f5247544e082
:1043a8001344a381238943f00203238100220221bd
:1043b800204622f0dff81034ac420fd02368002bdf
:1043c800f9d0b4f90a20002af5d03168a3895b1a1c
:1043d8009bb219b20029e3dda181ece723f0bafc16
:1043e8000c4a138923f00203138123f0b7fcd1e7a9
:1043f800a8bd00209cbd0020d34d621098bd0020b0
:10440800b0bd0020b4bd0020bcbd002074bc00209d
:10441800a4bd002098a80020a0bd0020bcb50020a5
:10442800846002001034ac4209d054f8103c34f8cf
:10443800082c002bf6d0002af4d09847f2e7174b47
:104448001b6813b907b0bde8f08f00224ff48071e4
:10445800134822f08ff8f5e7124b1b68002b7ff406
:10446800b4ae114c114e04f51875a7e706f5a673fe
:10447800b3fbf6f306fb03f60d4b1e60dce40d4bb5
:1044880093f90030012b7ff4aead0a4b02221a706b
:104498000949002020f0acfaa5e57047acbd002022
:1044a800a8a80020c4bd0020b8a80020b4bd0020e2
:0c44b800b0bd002057bc002018730100ac
:020000040000fa
:1044c4002de9f04f8db08246894600230893099365
:1044d4000a930b9343680393aa4b1968002940f38a
:1044e400b8829346a84b93f8ce30012b00f0b882e3
:1044f4000023a54d0133d8358b4200f0aa8295f8ec
:10450400ce20012af6d1a04beb1adb1003ebc30239
:1045140003eb4203c3eb432303eb8343daf80020aa
:1045240054685a4299490398a047002485f8d14019
:1045340002232b7485f8cf4041f289336b82944b6c
:10454400ab6121f095f804906c6000eb80035b0094
:10455400ab6028602c75c5f8c4a028461df05efc2d
:10456400b9f1010fc8bf012411dc95f8d130002b3b
:1045740000f0e581012b00f01d820db0bde8f08f45
:10458400012385f8d1300134e4b24c45edda5bf80f
:10459400246002227f49304622f0e6f90028efd059
:1045a40005227d49304622f0dff90028e8d00222b6
:1045b4007a49304622f0d8f928b1052278493046a4
:1045c40022f0d2f910b901232b74dce702227549d9
:1045d400304622f0c9f930b105227349304622f041
:1045e400c3f900285cd101232b741c44e4b25bf8aa
:1045f4002460304622f068fdc7b207f1ff38b044aa
:104604006a49404622f021feb8b16949404622f089
:104614001cfe00283dd14ff47a7807f1ff3cbcf131
:10462400000f33dd00273a464ff0010e3b46059458
:104634007146b64644460e46f4e15d49404622f0d2
:1046440004fe00285b4b0cbf4ff47a789846e4e7ed
:1046540002eb820200eb4202303aede12346059c74
:1046640003fb07f3424501d208fb02f208920993c7
:10467400daf80010981800904e684f49daf80400f0
:10468400b047089b099a1344ab617ce700221346a8
:10469400eae7012208a9304617f0a2ff089bf3e7d6
:1046a40002224649304622f05ff928b105224449e6
:1046b400304622f059f950b90134e4b2012208a974
:1046c4005bf8240017f08cff089bab615be70222c8
:1046d4003c49304622f048f928b105223a4930468f
:1046e40022f042f9b8b9002385f8d1300134e4b29c
:1046f400042208a95bf8240017f072ff089b85f8d0
:104704004430099b85f845300a9b85f846300b9b5d
:1047140085f8473037e702222c49304622f024f945
:1047240028b105222a49304622f01ef978b901340d
:10473400e4b2012208a95bf8240017f051ff089b9a
:10474400049a02fb03f3ab6000236b601be70222b5
:104754002049304622f008f930b105221e4930467e
:1047640022f002f9002839d10134e4b2012208a967
:104774005bf8240017f034ff089b6b600023ab60e8
:1047840001e700bf94be0020e0b20020bcee0000b0
:1047940080969800e0ec0000e4ec0000f0ec0000ef
:1047a400f4ec0000fcec000000ed00000ced000057
:1047b40010ed000040420f0014ed000030ed000049
:1047c40034ed000040ed000044ed000050ed000029
:1047d40054ed00005ced000060ed00000222a149f0
:1047e400304622f0c1f830b105229f49304622f00c
:1047f400bbf8002836d10134e4b25bf824004378d6
:10480400782b17d0012208a917f0eafe9df82000a2
:104814000246202820d018d9a0281ad0c0281ed19a
:1048240010232b75daf800305e682b7d8f490398ce
:10483400b047a8e683788df81f30c3788df81e3012
:10484400bdf81e001ef0b0fde2e740b900232b7551
:10485400e8e720232b75e5e708232b75e2e700231f
:104864002b75dfe702228249304622f07df828b119
:1048740005228049304622f077f858b90134e4b271
:10488400012208a95bf8240017f0aafe089ba5f8ea
:10489400d23078e602227849304622f065f828b111
:1048a40005227649304622f05ff868b90134e4b253
:1048b400012208a95bf8240017f092fe089b049ad1
:1048c40002fb03f32b605ee602226d49304622f0c0
:1048d4004bf828b106226b49304622f045f850b90e
:1048e4000134e4b2012208a95bf8240017f078fe31
:1048f400089b6b8247e602226349304622f034f873
:1049040038b105226149304622f02ef800287ff4a0
:104914003aae0134e4b2012208a95bf8240017f08e
:104924005ffe089b332b01d9eb602ce6d5f8c4302d
:104934001b685b6834225649039898471de600219a
:1049440005f1800021f082f8c5f8c80010b32b7c73
:10495400022b2ad0012b06bfab8907ee103a9fed3c
:104964004d7added047ab8ee676aab69db0807eed1
:10497400903af8ee677ab8ee477ac7ee876ac6eee1
:10498400267afceee77ac5ed217a0a2128461cf046
:10499400f1fcf2e5daf800301b683f4903989847c8
:1049a40022f0acffc5f8c800d1e7b5f8d23007ee65
:1049b400103ad6e7daf800301b683849039c2046e1
:1049c4009847daf800301b683549204698472b7c15
:1049d400012b0fd02b7c022b13d0d5f8c4301b68cd
:1049e4005b686a8a2f4903989847022128461cf07d
:1049f400c1fcc2e5daf800301b682b4903989847dc
:104a0400e8e7daf800301b68284903989847e4e798
:104a14002e2802d108fb02f200260133dbb26345e3
:104a2400bff61cae1ef80300a0f13001c9b209297b
:104a3400eed8002e7ff40cae002eeed107eb8707e4
:104a440000eb4700a0f130071949a1fb0401cc0891
:104a5400e3e7daf800301b681649039898478ce5b9
:104a6400154d50e568ed00006ced000074ed00009c
:104a7400a0ed0000a4ed0000146f0100aced0000f7
:104a8400b8ed0000bced0000c4ed0000c8ed00006e
:104a9400d0ed000000000000fced000024ee00005a
:104aa40060ee000084ee00007cee000080ee00006a
:0c4ab400cdcccccc90ee0000e0b2002095
:020000040000fa
:104ac00090f87730012b40f0cb822de9f04786b08b
:104ad00004460e469146c26c002a60d0136a13f059
:104ae000080f5cd143f008031362c76c002f56d047
:104af0000023a7f85630a7f85430bb64a7f86e30ef
:104b0000a7f86c303b663a6913603a69938116f0f6
:104b1000010f07d094f83f3043f0010384f83f3091
:104b200006f0fe0694f83e3003f023036ff34513be
:104b300084f83e3094f87730012b0cbffd690025d6
:104b40002b7b6ff307132b7316f0060f59d016f05b
:104b5000020f00f01c8102238df8143004238df81d
:104b6000153094f87730012b34d00020030a43ea43
:104b70000023adf81630a4f86c002b7bc3f30312ae
:104b8000013262f307132b7394f87730012b04bfc3
:104b9000059b6b61636d6bb34ff00008f9e0b64b9a
:104ba00004221421782020f001fa0746002800f0a2
:104bb0005a82b24b8360c4600123a0f87030a0f821
:104bc0005830036a43f008030362e36c002b9ed164
:104bd000e0649ce7a36c2bb1a06c21f0d9fd1438e4
:104be00080b2c3e720461ef02ef80028f4d16ff003
:104bf000030089e1204614f003fc60654ff00008d3
:104c0000c7e0b4f86a80a26823699a4200f034824f
:104c1000b4f86430002b00f0aa8094f87730012bb0
:104c20002dd0b4f86c30984528bf9846a368216908
:104c30008b423cd95b1ab4f864a09a4528bf9a46c7
:104c4000d04506d294f83e3043f0800384f83e30dd
:104c5000c24694f87730012b16d023695344236160
:104c600094f83f3013f0010f00f08380b4f8643003
:104c700053457ed0d0457cd046f0010679e023f044
:104c8000e3f80028d2d1cce70023bb6459b11ffa66
:104c90008af3a7f85630a7f8543039653b6907f115
:104ca00048021a60d9e73b6900221a60d5e76268ba
:104cb000521a206813441b1ab4f864a09a4528bffe
:104cc0009a46d04506d294f83e3043f0800384f8eb
:104cd0003e30c2461346524528bf5346baeb030244
:104ce0002cd094f877c0bcf1010f0ad0236953444b
:104cf000236162689342b3d32168521a9b1a2361dd
:104d0000aee7a0b192b2a7f86e20a7f86c20b86603
:104d100007f16002ba6469b19bb2a7f85630a7f8f0
:104d2000543039653b6907f148021a60dee700221a
:104d3000ba64f0e73b6900221a60d7e794f877205d
:104d4000012ad3d10022ba6451b19bb2a7f85630e0
:104d5000a7f8543039653b6907f148021a60c5e786
:104d60003b6900221a60c1e74ff0000a7ee74ff06e
:104d7000000a1ffa8af8baf1000f0ad0b4f86430ba
:104d8000a3eb0803a4f8643046f0080606e04ff0f1
:104d9000000816f0030f45d04ff0000a19f0010f7c
:104da0000dd0002384f87830354b1a684ff47a73ad
:104db00003fb02f3334aa2fb03239b09236520f084
:104dc00045fc236d1844606294f83e3043f00203c2
:104dd00084f83e30b4f862302b80b4f860306b80d9
:104de000636d6b60a36dab602b7b6ff303032b7361
:104df0006e7300236b822b82636d5344636516f0e0
:104e0000020f4dd016f0100f04bf0023ab6094f8d2
:104e1000743013f0080f37d06b68013b6b604ff0b4
:104e200004093fe019f0020f0ad094f879300133f9
:104e300084f87930636d013b63654ff0010ac9e77f
:104e400094f83e3013f0020f13d019f0010f08d17f
:104e500094f878302bb1013b84f87830236d5b08ef
:104e6000236520f0f3fb236d184460624ff0000ac5
:104e7000b0e74ff0000aade706002000717b0100ab
:104e80007cbe0020d34d6210636d0133636594f8de
:104e9000743043f0080384f874304ff0040901e0e3
:104ea0004ff0000916f0010f05d094f8743043f06c
:104eb000040384f8743016f0100f05d094f87530a0
:104ec00043f0010384f87530e369226a934223d3e7
:104ed000a1696069091a9b1acb1a9bb2eb81a4f8ed
:104ee000663028461af026fd2b7bc3f303120532e9
:104ef00062f307132b7394f87730012b10d0b8f1bd
:104f0000000f7ed14ff0ff3094f87730012b00f086
:104f1000a28006b0bde8f087d31a013b9bb2dde763
:104f2000236c23b90025b8f1000f6dd06ae020464c
:104f30001df089fe05460028f5d009f11409636cbf
:104f4000bb63236cfb63a36c3b643a6993894b445a
:104f50009381fd6900232b82a36c93f8683013f0d2
:104f6000010f18d094f885308df8053094f886300c
:104f70008df8043000258df8065009eb080201abce
:104f800092b2062138460ef049fc3d60384622f0c8
:104f9000e1fc0546c7e7bb6b0293fb6b0393002262
:104fa0008df8102006238df8113009eb08039bb211
:104fb000190a41ea0323adf812300c2102a819f0b6
:104fc000dbffc24392b24946284619f0d5ffc343de
:104fd0009bb2b8f1000f07d139690a8a22f00802a2
:104fe0000a82db432b82bde739690a8a42f0080254
:104ff0000a824246396d384618f0dcfbc3439bb247
:10500000efe70025a36babb1002d3ff47baf16f0ab
:10501000040f2bd0e56f5db3b4f87a3013f0080fae
:1050200028d0d4f880300822a16cb4f93c00a847fd
:1050300000206ee740f2dc53636320f007fb626bf5
:10504000124b1b6803fb02f3114aa2fb032300eb84
:105050009310a063d8e73b6a23f008033b6258e74c
:105060006ff0010070476ff0020052e7002050e738
:1050700000204ee700204ce794f83f3013f0010f7a
:105080007ff472ae4ff0000883e600bf7cbe0020c4
:04509000d34d62108a
:020000040000fa
:105094002de9f04f8db000f58652d37e177e143281
:1050a4009279013ad21ad2b2ba4280f0748200f5ef
:1050b400865b0bf1140bcdf81cb083468fe0ff2efa
:1050c40042d199f84130ff2b21d028461ff0d5f961
:1050d400002843d041f28c1301220bf80320002353
:1050e40041f28b120bf8023041f27c122bf80230a1
:1050f4000bf58b531a680421584616f0e5f90bf5a5
:105104008c532a78c2f3401203f8092f51e099f81e
:105114004230ff2bd9d199f84330ff2bd5d101214f
:1051240041f28c130bf80310002341f28b120bf89d
:10513400023041f27c122bf802300bf58b531a68c3
:10514400584616f0c1f9dae728461ff096f9002808
:10515400c0d1334616f0400f00f0f98041f28c13b1
:1051640001220bf80320002341f28b120bf80230ca
:1051740041f27c122bf802300bf58b531a6806218e
:10518400584616f0a1f9bae741f28c1301220bf844
:105194000320002341f28b120bf8023041f27c12ff
:1051a4002bf802300bf58b531a680721584616f07a
:1051b4008bf9002341f27c122bf8023041f28c125d
:1051c4000bf80230079ad3790133dbb2d371177924
:1051d4009279013ad21ad2b2ba4280f0dc81013f0c
:1051e4003b40079a126841f27a0101fb03231a46f5
:1051f400039341f27803d25a002ae3d0984ba3fbdd
:1052040002139b0903eb0313a2eb83039bb20993e1
:10521400002bd7d10892039b03f63c07b9467ce0e8
:105224000bf58b531b68009300231a461946584606
:105234001af0adfabde741f28a1301220bf80320fc
:105244000bf58b53196858461df0bcfd98e003f02c
:105254000f039f0094f842201346c2f38011069175
:10526400002900f0088102f03f0303f10108d3098b
:1052740002934745c0f0038141f27c133bf80320bd
:105284001ffa88f54ab941f2781300212bf803106c
:105294000bf58b530020e3e9020141f278113bf84e
:1052a40001302b442bf801300bf58b531b68009312
:1052b4002b462146584619f0e5fb41f27c1a3bf88f
:1052c4000a102944029b1a1c18bf012289b25846ad
:1052d4001bf032fb00232bf80a30c7f1400a1ffaf7
:1052e4008afa41f28b131bf80330002b00f0d480b0
:1052f400002e40f0da8041f28c131bf80330002baf
:1053040000f0948009f14409039ba9eb0303a3f67d
:105314003c03089a9342bff455af09f140054c464b
:1053240099f84060002e7ff4caae99f841303bb939
:1053340099f8423023b999f84330002b3ff4efae8b
:1053440028461ff09af800287ff4c4ae3346c3f30e
:10535400401341f289120bf80230002b3ff414afd2
:1053640094f84230db0904937ff45aaf41f28a1374
:105374001bf8033023b994f84030db097ff45bafaa
:1053840094f84130c3f30016002e7ff460af13f09d
:10539400200f67d194f8423013f0400f62d141f2ec
:1053a4008c1300220bf80320ace741f28c1301228a
:1053b4000bf80320002341f28b120bf8023041f268
:1053c4007c122bf802300bf58b531a6802215846d5
:1053d40016f07af896e741f28c1301220bf80320b9
:1053e400002341f28b120bf8023041f27c122bf8ad
:1053f40002300bf58b531a680321584616f064f8f3
:1054040080e741f27c133bf80310002241f28b1039
:105414000bf800202bf803205144029b9a1a18bf62
:10542400012289b258461bf087fa6be741f28b13cd
:1054340001220bf8032041f28c1300220bf8032005
:10544400e11941f27c133bf80320002a4cd085e09b
:1054540002f03f0303f10108d309029337460ee03b
:10546400f1f0f0f094f842201346c2f38011069153
:105474000029edd10f46db0902934ff04008a8eb59
:10548400070a1ffa8afa002e3ff42baf41f28b135e
:105494001bf80330002b88d141f28c131bf8033026
:1054a400002b7ff425af002e95d0b84508d841f2e3
:1054b4008c131bf80330002b7ff424af002eb5d0df
:1054c40094f84330db09049341f28b1301220bf867
:1054d400032041f28c1300220bf80320e11941f25e
:1054e4007c133bf8032052b941f2781300222bf8c5
:1054f40003200bf58b500023e0e90223099a049b57
:1055040063b341f268100beb000c0b780024cde977
:1055140004344c782304049c43ea0463cc790025c6
:10552400cde904458c7843ea0423cd780026cde9ff
:105534000a560c79049e46ea04664c7946ea044607
:105544008c7946ea04240a9d2b434bf80040ccf89e
:1055540004300831aaf1080a1ffa8afa41f27810d5
:105564003bf8003053442bf800300bf58b531b6889
:1055740000935346584619f085fab84503d9069b5b
:10558400002b7ff43eaf41f27c133bf803108a44b6
:0c5594002bf803a0b6e60db0bde8f08fc8
:020000040000fa
:1055a0002de9f04f2ded028bd2e9008997b0cde9be
:1055b0000c138b6808930b690f90d1e900b6149314
:1055c000cd6800220023404649461ef061fc40b9e8
:1055d0001bf0040f32d11bf00803059330d02023b9
:1055e00003e089f0004399462d232b70089b03f1bb
:1055f000ff3a012305934c4929f0004300208b42d8
:1056000008bf80451fd10d9b413b192b059b94bfc3
:10561000464947492b44184622f0fcf9284621f018
:1056200055fdcdf800b00246089b0f98294618f0aa
:105630007ff817b0bdec028bbde8f08f2b23d4e7c9
:10564000ddf820a0d7e7994208bf404509d20d9b5d
:10565000413b192b059b94bf364937492b441846cb
:10566000dae700220023404649461ef053ff9fed33
:105670002c7b8ded027b48b300240d9822f008f9b5
:10568000002ec3b20993c0f2d781672b5ad1002ee6
:1056900008bf0126231d02dbb442c0f2c681652784
:1056a00061e09ded067b8ded027b01340022234bf2
:1056b000dde902010ef04af942464b46cde906010a
:1056c0001ef0cafb0028ecd000271fe00446ede7df
:1056d00014f5967f11da87b90022194b40464946e6
:1056e0000ef034f9002280468946154bdde90201af
:1056f0000ef02cf9cde902010127dde902010022bb
:105700000e4b09f0d9f8cde90201013cdde9022395
:10571000404649461ef0bcfb0028d9d1ade700bf8a
:10572000000000000000f03f0000f07fe47702007e
:10573000e8770200ec770200f077020000002440d6
:1057400000005043099f662f06f101060bd1002c83
:1057500004da9fedbd7b8ded027b0024099b672b56
:1057600018bf361966279ded027bcde906898dedc0
:105770000a7b00230e93dde90a23dde9060109f027
:105780009bf841ec100b13f077f851ec100bb0eed6
:10579000408af0ee608a1cf0e0fcb0ee480af0eec1
:1057a000680a069b1093079b159083f000431193a2
:1057b0009ded0a1b9ded102b1ff0befc53ec102b32
:1057c00083f000430793dde90a01a34b8ded060a40
:1057d000002209f071f80e9b01339e42cde90a01c7
:1057e0000e93c8d100229d4b0ef0b0f8cde90a010e
:1057f00002460b46dde906011ef04afb002840f098
:105800008180dde90a23dde906011ef083fe10b187
:10581000159bda0776d5dde90a234046494608f0ac
:10582000b0f90022cde906018b4bdde902010ef053
:105830008df8dde90623cde90a011ef04bf80028ba
:1058400065d0662f04f1010465d10136a146a9ebac
:1058500006034ff00008059e1093cdf80880109bba
:10586000994540f08180029b002b00f0c880a81968
:105870000022652f027029d1149b1499013b944298
:10588000ea54c1f1030ebcbf644201220a21002c7c
:1058900040f0bc800eeb030cbcf1000f00f3b680af
:1058a000002a03f1ff3114bf2d222b226a540d9ad6
:1058b000023b413a192a05eb030198bf45279e4256
:1058c0000f70aaf1020a01da22f0a4f80bf0030328
:1058d000022b7ff4a3aebaf1000f7ff79fae2846ec
:1058e00021f0f4fb05eb0a03059a824240f399800c
:1058f000059b2b4418465246302121f047fe0023d9
:1059000008938be69fed527b8ded0a7b83e79ded3f
:10591000027b8ded0a7b652f14bfa1464ff0000975
:1059200095e7029a52b9b9f1000f07da0e992e22c3
:105930006a54012201360af1ff3a029205eb08018e
:10594000aa193144302001e002f8010b9142fbd149
:1059500008eb06023033aaeb080808f1ff3a561ca0
:10596000ab544ff0000828e00c9b0e961b69053bda
:10597000b3427ff678afdde90a23dde9060108f0de
:105980009bff41ec100b12f077ff51ec100bb0eec7
:10599000408af0ee608a1cf0e0fb0bf01002092850
:1059a0000346a8bf09230243bbd1099a672ab8d18d
:1059b000b9f1000fc2da08f10108069b1293079ba8
:1059c000b0ee480af0ee680a83f0004313939dedb1
:1059d0000a1b9ded122b1ff0affb53ec102b83f035
:1059e00000430793dde90a0100221b4b8ded060af7
:1059f00008f062ff09f1ff39cde90a012fe71bf03a
:105a0000100f1ebf2e23ab55013630e7b4fbf1fc5f
:105a1000013b01fb1c443034ec540af1ff3a64466c
:105a200035e72a5c1a5401385ee7002cbff69aaebf
:105a3000662788e606262de6099b672bfad01f46c7
:105a4000062680e6aff30080000000000000f03f73
:105a5000000000000000000000002440000014408e
:020000040000fa
:105a60002de9f04f95b0cde912030b68089392ed44
